:4000000000800020110000009D1D00009D1D000080B500AF024A034B1B68136001F0C8FEBC760040FA46004010B5054C237833B9044B13B10448AFF300800123237010BDDC
:40004000F082FF1F00000000585D0000084B10B51BB108490848AFF300800848036803B910BD074B002BFBD0BDE81040184700BF00000000F482FF1F585D0000C880FF1F46
:400080000000000080B400AF034B01221A6000BFBD4680BC704700BF2C83FF1F00000000B0B5CCB000AF62B60121002001F016FF04F052FA04F036FB012004F091FD04F045
:4000C00031FF04F047FFC24804F09AFD00F01EFC00F03EFC0023C7F82C3123E0BD4AD7F82C31372102F81310BA4AD7F82C315B00134437225A70B84AD7F82C311344002237
:400100001A70B64AD7F82C31134400221A70B34AD7F82C31134437221A70D7F82C310133C7F82C31D7F82C31B3F5FA7FD6DBA94AAA49A94800F076FCA94B1B68012BFBD181
:4001400005F0C6F8A74B1C68002004F009FF03461A46A54B43F82420A24B1C68012004F0FFFE03461A46A14B43F824209D4B1C68022004F0F5FE03461A469D4B43F8242006
:40018000984B1C68032004F0EBFE03461A46994B43F82420934B1C68042004F0E1FE03461A46954B43F824208E4B1B6801338D4A13608C4B1B68B3F5FA7F40F08E83894B01
:4001C00000221A608D4B1B6801338C4A13600023C7F828310023C7F824310023C7F820310023C7F804310023C7F81C310023C7F818310023C7F814318AE0814B00221A607C
:400200007E4B1B68012B3DD17E4B1B68B3F1FF3F03D07C4B1B68012B2BD104F0B9F903465B42794A136004F099FA03465B42774A1360774B1A68744B1B681A44734B1B683D
:400240001344734A1360704B1A68724B1B68D31A07F1E8010A22184605F02DFD6B4B1A686D4B1B68D31A07F1D0010A22184605F022FD002004F0B0F9002004F093FA5F4B34
:4002800000221A60584AD7F8143152F82330B3F5FA6F04DDD7F828310133C7F82831534AD7F8143152F82330B3F5FA6F04DDD7F824310133C7F824314D4AD7F8143152F848
:4002C0002330B3F5FA6F04DDD7F820310133C7F82031484AD7F8143152F82330B3F5FA6F04DDD7F81C310133C7F81C31424AD7F8143152F82330B3F5FA6F04DDD7F818317D
:400300000133C7F81831D7F814310133C7F81431D7F81431B3F5FA7FFFF66FAF3F4B1B68002B40F0AC804FF0FF33C7F80C310023C7F8103110E0284AD7F8103113441B786D
:40034000002B04D0D7F81031C7F80C3109E0D7F810310133C7F81031D7F81031B3F5FA7FE9DBD7F80C31B3F1FF3F6FD00023C7F810311EE0D7F81021D7F80C311344164A3F
:40038000D15C154AD7F8103113440A461A70D7F81021D7F80C311344104AD15C0F4AD7F8103113440A461A70D7F810310133C7F81031D7F80C31C3F5FA72D7F810319A428C
:4003C000D8DCD7F80C31C3F5FA73C7F8103138E085000000ACA7FF1F1496FF1FE093FF1F2C83FF1F3083FF1FC88BFF1F0C98FF1FDC9FFF1FD483FF1F94ABFF1F3483FF1FA0
:400400004483FF1F1081FF1FC48BFF1F0898FF1F3C83FF1F9C93FF1F9893FF1F2483FF1FBD4AD7F81031134400221A70BB4AD7F81031134400221A70D7F810310133C7F890
:400440001031D7F81031B3F5FA7FE9DB0023C7F8083104E0D7F808310133C7F80831D7F80831B3F5FA7FF5DBAD4B01221A60AD4B4FF0FF321A60AC4B00221A602DE204F00D
:4004800081FC0346002B0CBF01230023DBB2184604F05AFCA24B01221A60A44B1B689E4AD35C87F80331A14B1B6801339A4AD35C87F8023197F80331002B14D100F048FAD1
:4004C0004FF47A7003F0A4FD97F80231012B04D097F80231052B40F0E78000F073FA322003F096FDE0E097F80331012B03D097F80331052B14D18B4B1B68B3F1FF3F0FD146
:40050000884B00221A6000F05DFA002004F0FEFB4FF4967003F07CFD854B00221A60C3E097F80331012B03D097F80331052B20D17C4B1B68002B1CD17E4B00221A60D7F8F8
:400540001C314A2B11DC774B01221A6000F000FAC82003F05DFD00F01DFAE12003F058FD00F0F6F9C82003F053FD714B00221A609AE097F80331022B00F0968097F8033169
:40058000062B00F0918097F80331032B03D097F80331072B14D1634B1B68B3F1FF3F0FD1604B00221A6000F025FA002004F0AEFB4FF4967003F02CFD5D4B00221A6073E069
:4005C00097F80331032B03D097F80331072B29D1544B1B68002B25D1564B02221A60D7F824314A2B1ADC4F4B01221A6000F0B0F9C82003F00DFD4E4B00221A6000F0B2F9B2
:40060000E12003F005FD4A4B00221A6000F0A0F9C82003F0FDFC464B00221A60444B00221A6041E097F80331042B03D097F80331082B14D13B4B1B68B3F1FF3F0FD1394BCE
:4006400000221A6000F0D6F9002004F05FFB4FF4967003F0DDFC364B00221A6024E097F80331042B03D097F80331082B1CD12D4B1B68002B18D1D7F81C314A2B11DC294BD2
:4006800001221A6000F064F9C82003F0C1FC00F069F9E12003F0BCFC00F05AF9C82003F0B7FC234B00221A601E4B1B68002B00F00681D7F820314A2B09DCD7F824314A2B3E
:4006C00005DC00F04FF91B4B00221A604EE0D7F820314A2B09DCD7F81C314A2B05DC00F059F9144B02221A6040E0D7F820314A2B07DC104B01221A600021002000F014F9B8
:4007000034E0D7F81C314A2B16DC00F043F9094B02221A602AE000BF1496FF1FE093FF1F2483FF1F1081FF1F4083FF1F2883FF1F3C83FF1F4C83FF1FD7F824314A2B05DC80
:4007400000F010F96A4B00221A600FE0684B1B68002B02D100F006F908E0654B1B68012B02D100F017F901E000F014F9002004F095FA002004F0B0FA002004F0C7FA3B466E
:400780005C4A1C4615460FCD0FC40FCD0FC495E8030084E80300584B1B68002B00F08F80564B1B68184604F043FF4FA3D3E9002304F0A4FF03460C4625461C46504B1B6893
:4007C000504AD35C1A463B4653F82230184604F02FFF02460B462046294605F01FFA0346002B03D197F80331002B68D197F80331002B0FD097F80331062B0BD097F80331E8
:40080000072B07D097F80331082B03D097F80331052B1DD1012004F079FA394B1B680133374A1360344B4FF0FF321A60334B00221A6097F80331002B41D04FF4C87003F05E
:40084000E7FB00F085F84FF47A7003F0E1FB36E0D7F818314A2B17DC97F80231012B13D097F80231052B0FD0012004F04FFA244B1B680133224A13601F4B4FF0FF321A603E
:400880001E4B00221A601AE0D7F828314A2B16DC97F80231032B12D097F80231052B0ED0012004F033FA164B1B680133144A1360114B4FF0FF321A60104B00221A60D7F8D1
:4008C00028314A2B02DC012004F0E8F9D7F818314A2B02DC012004F0FFF90B4B00221A6004F0EAFC28E400BF666666666666E63F4C83FF1F5C5D00001081FF1F3C83FF1F8C
:400900002883FF1FE093FF1F2C83FF1F80B500AFA52003F0F5FCA52003F0B6FD03F05CFC03F01EFD00BF80BD80B500AF064B1B68DBB2184603F0F4FC044B1B68DBB2184600
:4009400003F0B2FD00BF80BD1481FF1F1881FF1F80B500AF7D2003F0E3FC7D2003F0A4FD00BF80BD80B500AF084B1B68DBB2033BDBB2184603F0D4FC054B1B68DBB2033326
:40098000DBB2184603F090FD00BF80BD1481FF1F1881FF1F80B500AF084B1B68DBB20233DBB2184603F0BCFC054B1B68DBB2023BDBB2184603F078FD00BF80BD1481FF1FB5
:4009C0001881FF1F80B500AF094B1B68DAB26FF003039B1ADBB2184603F0A2FC044B1B68DBB2023BDBB2184603F05EFD00BF80BD1881FF1F80B500AF094B1B68DBB2023B56
:400A0000DBB2184603F08CFC054B1B68DAB26FF003039B1ADBB2184603F046FD00BF80BD1881FF1F80B586B000AFF860B9607A6004237B6129E07B69002B0AD1194B1B78B1
:400A40001A46194B1A60174B5B781A46164B5A6010E07B69013B154A12F813301A46124B1A607B69013B114A5B0013445B781A460D4B5A607B695B000C4A134419467868F8
:400A800000F016F87B69013B7B617B69002BD2DA7A68B968F86800F0CFFB00BF1837BD4680BD00BF3C82FF1F4C82FF1F4082FF1F80B5ADF59A5D84B000AF07F110030C3BAC
:400AC000186007F11003103B1960002307F59A5202F10C021360002307F59A5202F108021360002307F59A5202F104021360002307F59A52136043E0002307F5995202F1A0
:400B00001C0213602EE0924907F59A531A681346DB0013445B001344CA1807F5995303F11C031B681344187807F5116107F59A531A681346DB0013445B001344CA1807F558
:400B4000995303F11C031B68134402461A7007F5995303F11C031B68013307F5995202F11C02136007F5995303F11C031B68122BC9DD07F59A531B68013307F59A52136051
:400B800007F59A531B680E2BB6DD07F29C43184640F274431A46002105F09AF807F13003083B184640F274431A46002105F090F8684B196807F5236307F59A5202F104028C
:400BC000126843F83210634B5A6807F5236107F59A5303F104031B68DB000B445A6007F59A5303F104031B68013307F59A5202F104021360002307F5995202F1040213605E
:400C0000002307F5995202F118021360002307F5995202F11402136018E207F5236307F59A5202F10802126853F8323007F5995202F11802136007F5236207F59A5303F157
:400C400008031B68DB0013445B6807F5995202F11402136007F59A5303F108031B68013307F59A5202F10802136007F5116107F5995303F118031A681346DB0013445B00CA
:400C80001344CA1807F5995303F114031B68134401221A7007F59A5303F10C031B68013307F59A5202F10C02136007F5995303F118031B685A1C07F11003083B1A6007F1D2
:400CC0001003083B07F5995202F1140212685A6007F5995303F118031B685A1E07F11003083B9A6007F11003083B07F5995202F114021268DA6007F11003083B07F5995219
:400D000002F1180212681A6107F5995303F114031B685A1C07F11003083B5A6107F11003083B07F5995202F1180212689A6107F5995303F114031B685A1E07F11003083BC9
:400D4000DA61002307F5995202F11002136053E11C81FF1F4C82FF1F07F11003083B07F5995202F11002126853F8323007F59952136007F11002083A07F5995303F11003E5
:400D80001B68DB0013445B6807F5985202F11C02136007F599531B68002B40F3228107F599531B680F2B00F31C8107F5985303F11C031B68002B40F3148107F5985303F165
:400DC0001C031B68132B00F30C81C64907F599531A681346DB0013445B001344CA1807F5985303F11C031B6813441B78012B00F0F88007F5116107F599531A681346DB00F4
:400E000013445B001344CA1807F5985303F11C031B6813441B78012B00F0E38007F5236307F59A5202F10402126807F59951096843F8321007F5236207F59A5303F10403CB
:400E40001B68DB00134407F5985202F11C0212685A6007F59A5303F104031B68013307F59A5202F10402136007F5116107F599531A681346DB0013445B001344CA1807F5B0
:400E8000985303F11C031B68134431221A7007F29C4107F5995303F118031A681346DB0013445B00134407F5995202F114021268134451F82330581C07F29C4107F5995362
:400EC0001A681346DB0013445B00134407F5985202F11C021268134441F8230007F599531B685A1C07F5995303F118031B689A4214D107F13002083A07F5995319680B46CD
:400F0000DB000B445B000B4407F5985101F11C0109680B44012142F8231062E007F5985303F11C031B685A1C07F5995303F114031B689A4214D107F13002083A07F59953DA
:400F400019680B46DB000B445B000B4407F5985101F11C0109680B44022142F8231040E007F599531B685A1E07F5995303F118031B689A4214D107F13002083A07F59953F5
:400F800019680B46DB000B445B000B4407F5985101F11C0109680B44032142F8231020E007F5985303F11C031B685A1E07F5995303F114031B689A4213D107F13002083AAF
:400FC00007F5995319680B46DB000B445B000B4407F5985101F11C0109680B44042142F8231007F5995303F110031B68013307F5995202F11002136007F5995303F1100329
:401000001B68032B7FF7A8AE07F11003103B1B681B781A4607F5995303F118031B689A4214D107F11003103B1B6801331B781A4607F5995303F114031B689A4206D10123DF
:4010400007F5995202F10402136013E007F59A5303F108031A6807F59A5303F104031B689A4207DA07F5995303F104031B68002B3FF4D3AD07F5995303F118031B6807F5E2
:40108000995202F10C02136007F5995303F114031B6807F5995202F108021360124B1B685A0007F110030C3B1B68134407F5995202F118021268D2B21A700B4B1B685A00EF
:4010C00007F110030C3B1B68134407F5995202F114021268D2B25A70034B1B680133024A13608BE01C81FF1F5883FF1F07F13002083A07F5995303F10C0319680B46DB0025
:401100000B445B000B4407F5995101F1080109680B4452F8233007F5985202F11802136007F5985303F118031B68012B0BD107F5995303F10C031B68013307F5995202F115
:401140000C02136037E007F5985303F118031B68022B0BD107F5995303F108031B68013307F5995202F10802136024E007F5985303F118031B68032B0BD107F5995303F1FD
:401180000C031B68013B07F5995202F10C02136011E007F5985303F118031B68042B0AD107F5995303F108031B68013B07F5995202F1080213601E4B1B685A0007F1100344
:4011C0000C3B1B68134407F5995202F10C021268D2B21A70164B1B685A0007F110030C3B1B68134407F5995202F108021268D2B25A700F4B1B6801330D4A13600D4B1A6893
:4012000007F5995303F10C031B689A427FF46EAF084B5A6807F5995303F108031B689A427FF464AF00BF07F59A571037BD4680BD5883FF1F4C82FF1F80B4ADF2244D00AFE8
:4012400007F10C03186007F1080319603B1D1A600023C7F81C3440F2F313C7F8183425E0D7F818345B003A1D12681344197807F11403D7F81C2403F81210D7F818345B0047
:401280003A1D12681344597807F11402D7F81C345B0013440A465A70D7F81C340133C7F81C34D7F81834013BC7F81834D7F81834002BD5DA0023C7F814341FE0D7F8143443
:4012C0005B003A1D1268134407F11402D7F8141412F811201A70D7F814345B003A1D12681A4407F11401D7F814345B000B445B785370D7F814340133C7F81434D7F8143433
:40130000B3F5FA7FDADB0023C7F81034DCE2D7F810345B003A1D126813441B7887F8FF33D7F810345B003A1D126813445B7887F8FE33D7F8103401335B003A1D1268134436
:401340001B7887F80F34D7F8103401335B003A1D126813445B7887F80E34372387F80D3497F8FF2397F80F349A4205D197F8FE2397F80E349A4207D097F80F34372B07D12B
:4013800097F80E34372B03D1002387F80D342AE097F8FF335A1E97F80F349A4203D1012387F80D341FE097F8FF335A1C97F80F349A4203D1022387F80D3414E097F8FE3349
:4013C0005A1C97F80E349A4203D1032387F80D3409E097F8FE335A1E97F80E349A4202D1042387F80D34D7F81034002B03D197F80D34C14A13600023C7F808340023C7F828
:4014000004340023C7F80034D7E0D7F800340133C7F8003497F8FF33372B05D1D7F810340133C7F81034CDE097F80D34032B03D097F80D34042B23D197F80F345A1C97F8F2
:401440000E14AE481346DB0013445B00134403440B441B78002B0FD097F80F345A1E97F80E14A6481346DB0013445B00134403440B441B78002B27D10123C7F8083423E050
:4014800097F80F2497F80E34591C9C481346DB0013445B00134403440B441B78002B0FD097F80F2497F80E34591E94481346DB0013445B00134403440B441B78002B04D184
:4014C0000123C7F8083400E000BF97F80D34012B12D1D7F810345B003A1D126813441B785A1E97F80F349A424AD00123C7F804340123C7F8083443E097F80D34022B12D1A9
:40150000D7F810345B003A1D126813441B785A1C97F80F349A4233D00123C7F804340123C7F808342CE097F80D34032B12D1D7F810345B003A1D126813445B785A1C97F8C6
:401540000E349A421CD00123C7F804340123C7F8083415E097F80D34042B11D1D7F810345B003A1D126813445B785A1E97F80E349A4205D00123C7F804340123C7F80834B4
:40158000D7F80834002B18D1D7F810340133C7F81034D7F8103401335B003A1D126813441B7887F80F34D7F8103401335B003A1D126813445B7887F80E34D7F80834002B0F
:4015C0003FF423AF97F80D34012B38D14A4B1B68012B09D14A4B1B681A4607F10C031B68134402221A70EEE0434B1B68022B09D1434B1B681A4607F10C031B68134404225E
:401600001A70E0E03C4B1B68032B09D13C4B1B681A4607F10C031B68134401221A70D2E0354B1B68042B40F0CE80354B1B681A4607F10C031B68134403221A70C3E097F8CF
:401640000D34022B38D12C4B1B68012B09D12C4B1B681A4607F10C031B68134404221A70B1E0254B1B68022B09D1254B1B681A4607F10C031B68134402221A70A3E01E4BAF
:401680001B68032B09D11E4B1B681A4607F10C031B68134403221A7095E0174B1B68042B40F09180164B1B681A4607F10C031B68134401221A7086E097F80D34032B3DD1B5
:4016C0000D4B1B68012B09D10D4B1B681A4607F10C031B68134403221A7074E0064B1B68022B0FD1064B1B681A4607F10C031B68134401221A7066E05C83FF1F1C81FF1F49
:401700005083FF1F764B1B68032B09D1754B1B681A4607F10C031B68134402221A7052E06F4B1B68042B4ED16E4B1B681A4607F10C031B68134404221A7044E097F80D345C
:40174000042B37D1664B1B68012B09D1654B1B681A4607F10C031B68134401221A7032E05F4B1B68022B09D15E4B1B681A4607F10C031B68134403221A7024E0584B1B684B
:40178000032B09D1574B1B681A4607F10C031B68134404221A7016E0514B1B68042B12D1504B1B681A4607F10C031B68134402221A7008E04B4B1B681A4607F10C031B68EC
:4017C000134400221A70D7F80434012B11D1454B1B681A4607F10C031B681344414A1268114607F10C0212680A4412780432D2B21A703C4B1B681A4607F10C031B6813443A
:401800001B78052B09D0374B1B681A4607F10C031B6813441B78072B0DD1324B1B681A4607F108031B681344D7F80024D2B2013AD2B21A700AE02B4B1B681A4607F10803E0
:401840001B681344D7F80024D2B21A7097F80D34002B03D097F80D34214A1360214B1B681A4607F10C031B6813441B78002B21D01D4B1B68002B1DD11A4B1B68013B07F112
:401880000C021268134402221A70164B1B68013B07F1080212681344124A1268013A07F1080109680A4412780132D2B21A700E4B01221A600B4B1B6801330A4A1360D7F873
:4018C00010340133C7F81034D7F81034B3F5F97F7FF71DAD00BF07F22447BD4680BC70475C83FF1F5083FF1F6083FF1F80B582B000AF786039603A680021786804F0E8F9F3
:4019000000BF0837BD4680BD80B584B000AFF860B9607A607A68B968F86804F0CEF900BF1037BD4680BD00BF80B483B000AF0346FB71FEE780B487B000AF78603960002385
:401940003B6100237B6127E07B699B007A6813441B68BB60BB68FB73BB6823F0FF03BB6014E03B695B003A6813441B781A46BB68134419463B695B003A6813445B780B708D
:401980003B6901333B61FB7B013BFB73FB7B002BE7D17B6901337B617B692B2BD4D900BF1C37BD4680BC704780B582B000AF3C4B04221A803B4B18221A703B4B17221A8057
:4019C0003A4B1C221A703A4B3B221A80394B18221A70394B3B221A80384B18221A70384B81221A80374B18221A70374B06221A70364B52221A70364B364A1278D2B21A70C2
:401A0000354B40F619121A80344B41F251221A800023FB7019237B6014E0FB785B00DAB22F4B1B78DBB203F00103DBB21343DBB203F00303FB704FF4F07003F055FC7B684A
:401A4000013B7B607B68002B02D0FB78032BE4D17B68002B02D10320FFF766FF214B4FF480721A801F4B07221A701F4B00221A701E4B48221A701B4B00221A701C4B002254
:401A80001A701C4B02221A701B4A1B4B1B78DBB243F01F03DBB2137000BF0837BD4680BD80400040824000408440004086400040884000408A4000408C4000408E400040C1
:401AC00090400040924000400043004000420040A14600400F0100492242004020420040254200400440004006400040084000400940004001400040A243004080B582B02A
:401B000000AF214B1B78FB71204B1B78BB71204B1B787B711F4AFB7903F00703DBB213701D4AFB791B09DBB21370184ABB7943F00303DBB21370164A7B7943F00303DBB285
:401B40001370164B40221A70154BC6221A70154B80221A70144B0E221A70144B20221A70134B04221A700A2002F074FA084A7B791370064ABB7913700E4B44221A7000BF83
:401B80000837BD4680BD00BFCF010049F8460040F94600406E5800406F5800401D5100402D51004001590040205B0040235B0040585B00407658004080B586B000AF72B602
:401BC000584B61221A70FFF7EFFE564B01221A70554A554B1B78DBB243F00403DBB213700023FB7513E0FA7D13465B0013445B004E4A13443B613B691A683B699B889BB233
:401C000019461046FFF772FEFB7D0133FB75FB7D062BE8D90023FB751CE0FA7D13469B0013445B00424A1344FB60FB681B68BB60FB685B687B60FB681A7A5B7A1B021343D8
:401C40007B807B881A467968B868FFF75DFEFB7D0133FB75FB7D002BDFD036494FF09040FFF768FE04213448FFF740FE042233493348FFF749FE334B334A1A60334B344ABC
:401C80001A60344A334B1B78DBB243F00203DBB21370314A304B1B78DBB243F00203DBB213702E4A2D4B1B78DBB243F04003DBB213702B4A2A4B1B78DBB243F01003DBB275
:401CC0001370082227492848FFF71EFE082227492748FFF719FE0A2226492748FFF714FE082226492648FFF70FFE0A2225492648FFF70AFE082225492548FFF705FE254AA0
:401D0000244B1B78DBB243F00803DBB21370FFF7F5FE0E2211492048FFF7F6FD00BF1837BD4680BD00480040E8460040845D0000B05D0000B0000048007600403810004892
:401D4000087600405800014004040084D8160140040404840350014013500140A0430040C2430040001000480251004008100048C251004010100048F05100401C10004826
:401D8000125100402410004820510040301000483251004022430040B043004080B500AF03F046FF03461B680C2B00D1FEE7FEE780B586B000AF224B7B61224B3B61204B9F
:401DC0007B6135E03B691B68FB603B695B68BB603B699B683B6000237B600CE0FB681A68BB681A60BB680433BB60FB680433FB607B6804337B607A683B689A42EED13B691D
:401E0000DB683B6000237B6008E0BB6800221A60BB680433BB607B6804337B607A683B689A42F2D13B6910333B617B69013B7B617B69002BC6D103F001FFFEF731F9FEE775
:401E400001000000B85F000080B582B000AF194B194A1A60194A194B1B6843F40073136000237B600FE07B68032B04D8144A7B6852F8233000E0134B13497A6841F82230CD
:401E80007B6801337B607B682F2BECD90F4B1B78DAB20F4B1A700F4B0B4A1A60FFF78CFE01F08EFE0C4B00221A6000BF0837BD4680BD00BF0CED00E00004FA0514ED00E0FE
:401EC000000000009D1D00000080FF1FBC760040C480FF1F08ED00E0C080FF1F80B582B000AF03460A46FB711346BB71094B1B78002B04D100F010F8064B01221A70BA79D3
:401F0000FB791146184600F0D9F800BF0837BD4680BD00BF6483FF1F80B582B000AF03F0EBF90346FB71544A534B1B78DBB243F00103DBB21370514A504B1B78DBB243F0E7
:401F40000103DBB213704E4B01221A704D4B02221A704D4A4C4B1B78DBB203F07F03DBB21370002002F076F8484A484B1B78DBB223F00603DBB21370454A454B1B78DBB2BE
:401F800023F02003DBB21370404A404B1B78DBB243F00103DBB21370012002F05BF8282002F058F83B4A3B4B1B78DBB203F07F03DBB21370374A374B1B78DBB223F0400346
:401FC000DBB21370314A314B1B78DBB243F00203DBB21370022002F03DF82C4A2B4B1B78DBB243F00403DBB213702B4B00221A702A4B00221A70FB79184603F081F9072129
:40200000172002F063F82649172002F037F80721182002F05BF82349182002F02FF80721152002F053F82049152002F027F80721032002F04BF81D49032002F01FF8072170
:40204000042002F043F81A49042002F017F80721052002F03BF81749052002F00FF807210C2002F033F814490C2002F007F800BF0837BD4680BD00BFA5430040B54300404F
:402080009D60004009600040106000409443004012600040F85100408460004085600040112B0000F9230000052B00001D2A0000652A0000B12A00001D2B000080B582B007
:4020C00000AF03460A46FB711346BB712E4AFB7913702E4B00221A702D4B00221A702D4B00221A702C4B00221A702C4B00221A702B4B00221A702B4B00221A702A4B4FF489
:4021000000021A60284B4FF080721A60264B4FF400121A60244B08221A60234B10221A60214B20221A60BB79002B02D0012B09D011E01E4A1D4B1B78DBB223F00103DBB2B5
:40214000137011E0194A194B1B78DBB243F00103DBB2137008E0154A144B1B78DBB243F00103DBB2137000BF114B03221A70114B80221A70012003F0B7F80F4B04221A7091
:4021800000BF0837BD4680BD7DB3FF1F80B3FF1F9CB3FF1F9FB3FF1F94B3FF1F9EB3FF1FA1B3FF1F7CB3FF1F00E100E00960004028600040086000401260004080B400AF63
:4021C0000F4B00221A700F4B00221A700E4B00221A700E4B00221A700D4B00221A700D4B00221A700C4B00221A700C4B03221A700B4B80221A7000BFBD4680BC704700BFC2
:4022000080B3FF1F9CB3FF1F9FB3FF1F94B3FF1F9EB3FF1FA1B3FF1F7CB3FF1F286000400860004080B582B000AF0023FB71314B1B79DBB2184600F067F80346BB712D4B91
:402240001B78DBB25BB2002B15DA2A4B5B78DBB2212B00D048E0284B07221A80BA791346DB009B1A254A1344234A536000F03EFA0346FB7138E01F4B5B78DBB2202B02D0EA
:40228000222B1AD030E01C4B07221A80BA791346DB009B1A194A1344174A5360BB79BA7917498A5CD2B242F00102D1B2144AD15400F09AFA0346FB7116E0BB790D4A927893
:4022C000D2B291B20F4A22F81310BB79BA790C498A5CD2B242F00202D1B2094AD15400F021FB0346FB7100BFFB7918460837BD4680BD00BF0060004088B3FF1F5482FF1FAD
:4023000064B3FF1F78B3FF1F80B485B000AF0346FB710023FB73FF23BB7317E0FB7B104AD35C7B737A7B0F4913465B0013449B000B440A331B78DBB2FA799A4203D1FB7B55
:40234000BB730223FB73FB7B0133FB73FB7B012BE4D9BB7B18461437BD4680BC704700BF6CB3FF1FA4B3FF1F80B485B000AF78600B46FB701346BB707B68DB7803F0030380
:40238000FB737B689B785BB2002B1ADAFB7B032B0AD0BB7803F001031449FA78CA54BB7843F00103BB701BE0BB789B08DBB203F001030F49FA78CA54BB7843F00403BB708E
:4023C0000EE0FB7B032B0BD0BB785B08DBB203F001030849FA78CA54BB7843F00203BB70BB7818461437BD4680BC704768B3FF1F6CB3FF1F70B3FF1F80B582B000AF374BBE
:402400001B78BB71BB7903F01003002B62D00123FB7197F90630002B12DABB7903F00F03012B02D00023FB711CE000F061F82C4B1B78DBB25BB2002B14DA0023FB7111E091
:40244000BB7903F04003002B02D000F095F809E0BB7903F02003002B02D000F0B3F801E00023FB71FB79002B34D01C4B1B78BB7197F90630002B2DDB1A4B1B78DAB21A4B92
:402480001B78DBB21343BB71184ABB791370174B1B78DBB2BA799A421CD1114B1B78FB710E4B1B78DBB223F07F03BB71BB79002B0AD10A4B0A4A1278D2B21A70074B1B78EE
:4024C000DBB203F00F03FB71054B1B78DBB2FA799A42E2D100BF0837BD4680BD286000409DB3FF1F12B4FF1FA0B3FF1F2960004080B582B000AF1D4B1B78FB711B4AFB7984
:4025000013701A4B1B78FB7197F90730002B03DA174AFB79137025E0022000F045FA154B1B78DBB203F06003202B08D0402B0BD0002B0ED100F0F8FA0346FB710CE002F079
:40254000E3FE0346FB7107E001F000FB0346FB7102E00023FB7100BFFB79002B02D1044B03221A7000BF0837BD4680BD286000409DB3FF1F0060004080B500AF104B1B78B7
:40258000DBB2062B19D801A252F823F0BB250000BB250000A9250000BB250000AF250000BB250000B525000000F0F8F806E000F0A7F903E000F0D2F900E000BF00BF80BDE1
:4025C00080B3FF1F80B500AF124B1B78DBB2062B1DD801A252F823F00F2600000F260000F52500000F260000FB2500000F2600000126000000F0D8F80AE000F027F907E02D
:40260000032000F0D1F9044B03221A7000E000BF00BF80BD80B3FF1F9DB3FF1F80B483B000AF0023FB71294B1B78DBB29AB2284B1B889BB213449AB2254B1A8015E025496D
:40264000FB79254A52681278D2B2CA54224B5B680133214A5360FB790133FB711E4B1B889BB2013B9AB21C4B1A801B4B1B889BB2002B02D0FB79072BE1D9144B1B78DBB2E7
:40268000082B02D0FB79002B0FD0144B1B78DBB283F07F03DB43DAB2104B1A70104B0F221A70104B02221A7005E00D4B02221A700C4B02221A700C4AFB791370034AFB7977
:4026C000137000BF0C37BD4680BC70477CB3FF1F7EB3FF1F0060004088B3FF1F12B4FF1F9DB3FF1F80B3FF1FA0B3FF1F80B582B000AF164B1B889BB2002B02D100F02EF83B
:402700001EE0134B02221A70124B00221A7000F06BF9114BDB79DBB29BB21B029AB20E4B9B79DBB29BB21343FB80084B1B889BB2FA889A4202D2054AFB881380FFF76EFFEA
:40274000012318460837BD4680BD00BF88B3FF1F80B3FF1F12B4FF1F0060004080B400AF094B02221A70094B80221A70084B0F221A70084B00221A70074B00221A700123D7
:402780001846BD4680BC704780B3FF1F12B4FF1F9DB3FF1F7CB3FF1FA0B3FF1F80B500AFFFF73CFF00BF80BD80B500AF0A4B1B78DBB29AB2094B1B889BB213449AB2074B75
:4027C0001A80074B00221A70012000F0EDF8054B03221A7000BF80BD7CB3FF1F7EB3FF1F80B3FF1F9DB3FF1F80B582B000AF124B04221A70114B80221A7000F0F5F8104B12
:40280000DB79DBB29BB21B029AB20D4B9B79DBB29BB21343FB800B4B1B889BB2FA889A4202D2084AFB881380074B0B221A70012318460837BD4680BD80B3FF1F12B4FF1FCB
:402840000060004088B3FF1F9DB3FF1F80B483B000AF0023BB71234B1B78DBB203F00F03DBB2023BFB71FB799AB21F4B1B889BB213449AB21C4B1A8018E01C4B5B681C497E
:40288000BA798A5CD2B21A70184B5B680133174A5360BB790133BB71FB79013BFB71134B1B889BB2013B9AB2104B1A800F4B1B889BB2002B02D0FB79002BDED10D4AFB79A8
:4028C00013700D4B1B78DBB283F07F03DB43DAB2094B1A70094B0B221A7000BF0C37BD4680BC7047296000407EB3FF1F88B3FF1F00600040A0B3FF1F12B4FF1F9DB3FF1F89
:4029000080B500AF054B00221A70012000F04CF8034B03221A7000BF80BD00BF80B3FF1F9DB3FF1F80B400AF084B06221A70084B06221A70074B80221A70074B00221A7082
:4029400001231846BD4680BC704700BF80B3FF1F9DB3FF1F12B4FF1FA0B3FF1F80B500AF0D4B1B78DBB2002B0AD00C4A0A4B1B78DBB263F07F03DBB21370074B00221A70FD
:40298000074B00221A70012000F00EF8054B03221A7000BF80BD00BF9EB3FF1F0860004080B3FF1F9DB3FF1F80B483B000AF0346FB710B4B9B68002B0CD0094B9B68FA797D
:4029C0001A70074B9B68074A128892B25A80044B00229A6000BF0C37BD4680BC704700BF88B3FF1F7EB3FF1F80B400AF094B00221A80094B9B68002B07D0074B9B68002262
:402A00001A70054B9B6800225A8000BFBD4680BC704700BF7EB3FF1F88B3FF1F80B400AF0D4B01221A700D4B9B7C0D4B1B7BDBB203F00303012B08D0094BDB7BDBB283F028
:402A40007F03DB43DAB2064BDA73054B01225A7300BFBD4680BC70470B600040FC5F0040A4B3FF1F80B400AF0E4B02221A700E4B93F822300D4B1B7EDBB203F00303012B19
:402A800008D00A4BDB7EDBB283F07F03DB43DAB2064BDA76054B01225A7600BFBD4680BC704700BF0B600040FC5F0040A4B3FF1F80B400AF104B04221A70104B93F832301B
:402AC0000F4B93F82430DBB203F00303012B0AD00B4B93F82730DBB283F07F03DB43DAB2074B83F82720064B012283F8252000BFBD4680BC704700BF0B600040FC5F0040AB
:402B0000A4B3FF1F80B400AF00BFBD4680BC704780B500AFFFF752FB00BF80BD80B500AF01F03EF800BF80BD80B586B000AF0023FB759D4B1B78FB7100233B619B4B002203
:402B40001A8097F90730002B80F20481964B5B78DBB20A2B00F21B8201A252F823F000BFAB2C00008F2F00008F2F00008F2F00008F2F00008F2F00008D2B00008F2F00000B
:402B80001F2D00008F2F0000352D0000864BDB78DBB2012B0ED100F049FEB860BB685B68824A5360814B12221A80FFF79FFD0346FB75EEE17C4BDB78DBB2022B25D17A4BF6
:402BC0009B78DBB2184600F009FEB860BB68002B00F0DF81BB685B68744A5360734B5B6803331B78DBB29BB21B029AB26F4B5B6802331B78DBB29BB213439AB26B4B1A8035
:402C0000FFF774FD0346FB75C3E1674BDB78DBB2032B45D10023FB73654B3B6109E03B691B78BB71BB793A6913443B61FB7B0133FB735D4B9B78DBB2FA7B9A4204D23B69DC
:402C40001B78DBB2002BEAD1574B9B78DBB2EE2B01D1584B3B61544B9B78DBB2002B0BD0514B9B78DAB2544B1B7C9A4204D1534800F0ACF9514B3B613B691B78DBB2002B24
:402C800000F087813B691B78DBB29AB2474B1A80464A3B695360FFF729FD0346FB7578E102F032FB0346FB7573E1FB7903F00303002B20D0022B00D030E03C4B02221A80C5
:402CC000394B1B79DBB203F07F023D4913465B0013449B000B4402331B78DAB2394B1A70384B00225A70314B364A5A60FFF7FEFC0346FB7512E02D4B02221A80324B1B78D8
:402D0000DAB2304B1A702F4B00225A70274B2D4A5A60FFF7EBFC0346FB7500BF40E1234B01221A80214B294A5A60FFF7DFFC0346FB7535E11D4B01221A801B4B1B79DBB273
:402D40001A46234B1344194A5360FFF7CFFC0346FB7525E1144B5B78DBB2013B0A2B00F21A8101A252F823F0732E0000972F0000012F0000972F0000952D0000972F0000F6
:402D8000972F0000972F0000D92D0000972F00002F2E0000044B9B78DAB20E4B1A70FFF7C1FD0346FB75FBE00060004088B3FF1F285E0000305F0000D05D000030B4FF1F08
:402DC000A4B3FF1F6883FF1FA1B3FF1F9FB3FF1F10B4FF1F9EB3FF1F744B9B787B717B79002B06D07B79013BDBB2184600F0F6FCB8607B79002B02D0BB68002B03D17B7953
:402E0000002B40F0CA806A4B1B78DBB27A799A4208D0674A7B791370664B01221A70012000F0DCF9FFF77EFD0346FB75B5E000F055FE0346002B00F0B2805C4B1B793B7186
:402E40005A4B1B79DAB25C4B1A703B795B4AD35CDAB23B795A49CB5CDBB29A4204D0554B01221A7000F08CFBFFF75CFD0346FB7595E0FB7903F00303012B20D0012B0CD3B8
:402E8000022B00D03BE0494B9B78DBB2002B31D100F078FD0346FB752CE0444B9B78DBB2012B29D1474B1B78DBB223F00203DAB2444B1A70FFF736FD0346FB751CE03B4B47
:402EC0001B79DBB2012B19D8384B9B78DBB2DB43DBB2364A1279D2B2114610463A4A125CD2B21340DAB2384B5A54FFF71BFD0346FB7503E000BF53E000BF51E000BF4FE08A
:402F0000FB7903F00303012B20D0012B0CD3022B00D03BE0254B9B78DBB2002B31D100F0BDFC0346FB752CE0204B9B78DBB2012B29D1244B1B78DBB243F00203DAB2214B4A
:402F40001A70FFF7EFFC0346FB751CE0174B1B79DBB2012B19D8154B9B78DBB2DB43DBB2124A1279D2B211461046174A125CD2B21340DAB2144B5A54FFF7D4FC0346FB7510
:402F800003E000BF0CE000BF0AE000BF08E000BF06E000BF04E000BF02E000BF00E000BFFB7D18461837BD4680BD00BF006000409FB3FF1F9CB3FF1F94B3FF1F84B3FF1F91
:402FC00010B4FF1FA1B3FF1F14B4FF1FB0B58AB000AF7860324B07F114041D460FCD0FC42B682370002387F826307B68002B52D07B6822221A707B68013303221A7007F115
:403000000C03184601F086F8022387F827303EE097F827307A68134497F8262007F128010A4412F81C2C1209D2B207F128010A4412F8142C1A7097F8273001337A681344B1
:4030400000221A7097F8273002337A68134497F8262007F128010A4412F81C2C02F00F0207F128010A4412F8142C1A7097F8273003337A68134400221A7097F8263001335A
:4030800087F8263097F82730043387F8273097F82730212BBCD900BF2837BD46B0BD00BFBC5D000090B482B000AF0123FB7180E0464AFB791B0113440C221A70FA794449D7
:4030C00013465B0013449B000B4405331B78DBB2002B1CD0FA793E4913465B0013449B000B4404331B78DBB25BB2002B07DA394AFB791B01134402330C221A700EE0354A49
:40310000FB791B011344023308221A7006E0314AFB791B011344023380221A702B48F979FA792B4C13465B0013449B00234406331B889BB2DAB20B01034406331A70234804
:40314000F979FA79224C13465B0013449B00234406331B889BB21B0A9BB2DAB20B01034407331A701948F979FA79194C13465B0013449B00234406331B889BB2DAB20B0138
:40318000034404331A701148F979FA79104C13465B0013449B00234406331B889BB21B0A9BB2DAB20B01034405331A70FB790133FB71FB79082B7FF67BAF074BFF221A70CD
:4031C00000BF0837BD4690BC704700BF70600040A4B3FF1FFC5F00400A60004080B58AB000AF0346FB7100237B84002387F8273050E097F82720B34913465B0013449B00AC
:403200000B4400221A7097F82720AE4913465B0013449B000B44023300221A7097F82720A84913465B0013449B000B44033300221A7097F82720A34913465B0013449B00EA
:403240000B44083300221A8097F827209D4913465B0013449B000B440A3300221A7097F82720984913465B0013449B000B44013300221A7097F82720924913465B00134426
:403280009B000B44053300221A7097F82730013387F8273097F82730082BAAD9FB79002B16D0002387F825300EE097F82530864A0021D15497F82530844A0021D15497F8C9
:4032C0002530013387F8253097F82530012BECD97F4B1B78DBB2002B00F04A810023FB767B4B1B78DBB2013BDBB2184600F076FA78617B695B683B613B6907331B7803F04B
:403300004003002B08D0734B1B78DBB243F00103DAB2704B1A7007E06E4B1B78DBB223F00103DAB26B4B1A707B6908337B617B691B7887F82730012387F82530B6E07B6904
:403340005B68FB61002387F82630A3E097F82520FB699B7803F07F039A4240F0938097F82520584913465B0013449B000B4408331B889AB2FB699B889A420CD297F825202B
:40338000FB6998884F4913465B0013449B000B44083302461A80FB691B781A464A4B9B5CDAB2FB695B789A426CD197F82520FB699878444913465B0013449B000B4404331F
:4033C00002461A7097F82520FB69D8783D4913465B0013449B000B4402461A70FB69DB7803F00303FB73FB699B785BB2002B1CDA97F82520FB7B012B01D1072000E00D20E7
:40340000304913465B0013449B000B44053302461A7097F825202B4913465B0013449B000B44013301221A701BE097F82520FB7B012B01D1052000E00920224913465B0066
:4034400013449B000B44053302461A7097F825201C4913465B0013449B000B44013300221A70FB699B790A2B03D0FB699B79022B08D1FA7E97F825301946F869FEF774FF71
:403480000346FB76FB690833FB6197F82630013387F8263097F8262097F827309A42FFF455AF97F82530013387F8253097F82530082B7FF644AF7B695B68FB61002387F8CB
:4034C000253020E0A4B3FF1F10B4FF1F84B3FF1F9FB3FF1FA1B3FF1FFB699B7803F07F02FB691878244913465B0013449B000B440A3302461A70FB690833FB6197F82530BA
:40350000013387F8253097F8252097F827309A42E2D300F09DF90246184B1A6000237B84012387F827301DE097F82720124913465B0013449B000B4406337A8C1A8097F8E6
:4035400027200D4913465B0013449B000B4408331B889AB27B8C13447B8497F82730013387F8273097F82730082BDDD9FFF79AFD00BF2837BD4680BDA4B3FF1F98B3FF1FAA
:4035800090B585B000AF8F4B1B78DBB2002B00F015818C4B1B78DBB2013BDBB2184600F01DF978607B6808337B607B681B78FB707B685B68BB60844B1B78BB700023FB7382
:4035C000F7E0BB681B78BA789A4240F0EC80BB787E4AD35CDAB2BB685B789A4240F0E380BB689B7803F07F037B70BB68DB7803F003033B707A78764913465B0013449B0072
:403600000B44033300221A707A78BB689878704913465B0013449B000B44043302461A707A78BB68D8786A4913465B0013449B000B4402461A707A78BB6898886449134663
:403640005B0013449B000B44083302461A80BB689B785BB2002B1ADA7A783B78012B01D1072000E00D205A4913465B0013449B000B44053302461A707A78554913465B0072
:4036800013449B000B44013301221A7019E07A783B78012B01D1052000E009204C4913465B0013449B000B44053302461A707A78474913465B0013449B000B4401330022BD
:4036C0001A70444A7B781B011344023301221A70404879787A783E4C13465B0013449B00234408331B889BB21B0A9BB2DAB20B0103441A70374879787A78354C13465B00CB
:4037000013449B00234408331B889BB2DAB20B01034401331A70304879787A782C4C13465B0013449B00234406331B889BB2DAB20B01034406331A70274879787A78244CFB
:4037400013465B0013449B00234406331B889BB21B0A9BB2DAB20B01034407331A701E4879787A781A4C13465B0013449B00234406331B889BB2DAB20B01034404331A7079
:40378000154879787A78124C13465B0013449B00234406331B889BB21B0A9BB2DAB20B01034405331A70BB680833BB60FB7B0133FB73FA7BFB789A42FFF403AF00BF14371E
:4037C000BD4690BD9FB3FF1F94B3FF1F10B4FF1FA4B3FF1FFC5F00407060004080B485B000AF0346FB710F4B1B78DBB20E4ADB0013445B68FB60FB681033FB60FB681B78BC
:40380000FA799A4202D30023FB6005E0FB79DB00FA6813445B68FB60FB6818461437BD4680BC70477DB3FF1F285F000080B400AF054B1B78DBB2054ADB0013445B6818460F
:40384000BD4680BC704700BF7DB3FF1F285F000080B584B000AF104B1B78DBB2013BDBB21846FFF7BBFFB860BB68002B0DD0BB685B681B79FB71FB790233DB00BA6813442E
:40388000BB60BB685B68FB6001E00023FB60FB6818461037BD4680BD9FB3FF1F80B582B000AF0023FB71344B1B79DBB203F07F03BB71BB79002B5AD0BB79082B57D8BA795D
:4038C000B9792E480B465B000B449B00034402331B78DBB243F00103D8B2284913465B0013449B000B44023302461A70BA79234913465B0013449B000B44033300221A704A
:40390000BA79B9791D480B465B000B449B00034401331B78DBB243F00203D8B2174913465B0013449B000B44013302461A70BA79124913465B0013449B000B4404331B7822
:40394000DBB25BB2002B07DA0D4ABB791B01134402338D221A7006E0094ABB791B011344023389221A70FEF7DDFF0346FB71FB7918460837BD4680BD00600040A4B3FF1FFF
:40398000FC5F004080B582B000AF0023FB71504B1B79DBB203F07F03BB71BB79002B00F09280BB79082B00F28E80BA79B97949480B465B000B449B00034402331B78DBB27A
:4039C00023F00103D8B2434913465B0013449B000B44023302461A70BA793E4913465B0013449B000B44033300221A703A49BB793948BA79120102441278D2B202F07F02C8
:403A0000D2B21B010B441A70BA79B97931480B465B000B449B00034401331B78DBB223F00203D8B22B4913465B0013449B000B44013302461A70BA79264913465B00134440
:403A40009B000B4404331B78DBB25BB2002B1BDABA79204913465B0013449B000B4401331B78DBB2012B07D11B4ABB791B01134402330C221A7022E0174ABB791B011344EC
:403A800002330D221A701AE0BA79124913465B0013449B000B4401331B78DBB2012B07D10D4ABB791B011344023308221A7006E0094ABB791B011344023309221A70FEF79D
:403AC00031FF0346FB71FB7918460837BD4680BD00600040A4B3FF1FFC5F004080B584B000AF0023FB73154B1B79BB73144B1B78DBB2013BDBB21846FFF770FEB860BB68D0
:403B00005B681B79FB71BA7BFB799A4202D9BB7B022B0ED8BB7BBA7B0A498A5CD1B20A4AD154BB7B054A9278D1B2064AD1540123FB73FB7B18461037BD4680BD0060004065
:403B40009FB3FF1F10B4FF1F84B3FF1F80B582B000AF0023FB710F4B1B78DBB25BB2002B12DA0C4B5B78DBB2012B00D00CE00A4B0A4A5A60094B1B789AB2074B1A80FEF745
:403B8000B5FD0346FB7100BFFB7918460837BD4680BD00BF0060004088B3FF1F445F000080B400AF054B1B78DBB203F040039B09DBB21846BD4680BC704700BF8F45004052
:403BC00080B483B000AF134B7F221A70124B80221A707F23FB710CE0FB79DB0003F1804303F5F043FA79013AD2B21A70FB79013BFB71FB79002BEFD1FB79DB0003F1804335
:403C000003F5F04300221A7000BF0C37BD4680BC704700BF7182FF1F7082FF1F80B485B000AF03460A46FB711346BB710123FB60FB79172B2FD8BB79002B0ED0FB791A012B
:403C4000184B1344FA791101164A0A441278D2B242F02002D2B21A700DE0FB791A01114B1344FA7911010F4A0A441278D2B222F02002D2B21A70FB791A010A4B1344FA798E
:403C80001101084A0A441278D2B242F00102D2B21A700023FB60FB6818461437BD4680BC704700BF1070004080B485B000AF0346FB710123FB60FB79172B1DD8FB791A017C
:403CC000104B1344FA7911010E4A0A441279D2B242F00402D2B21A71FB791A01094B1344FA791101074A0A441278D2B242F00102D2B21A700023FB60FB6818461437BD4655
:403D000080BC70471070004080B485B000AF03460A46FB711346BB710123FB60FB79172B1BD8FB791A01104B13441B78DBB223F00E03FB72FB791A010B4B1344BA79520053
:403D4000D2B252B202F00E0251B297F90B200A4352B2D2B21A700023FB60FB6818461437BD4680BC704700BF1070004080B485B000AF0346FB710B46BB8013467B800123CC
:403D8000FB60BB8841F6FF72934202D14FF40053BB807B8841F6FF72934202D14FF400537B80FB79172B17D8FB79DB0003F1804303F5EC430433BB60BB68BA881A80FB79C9
:403DC000DB0003F1804303F5EC430633BB60BB687A881A800023FB60FB6818461437BD4680BC704780B485B000AF03460A46FB711346BB710123FB60FB79172B07D8FB794D
:403E00001A01064B1344BA795A720023FB60FB6818461437BD4680BC704700BF1070004090B484B000AF0446084611461A462346FB710346BB710B467B7113463B7101239B
:403E4000FB60FB79172B34D8FB79DB0003F1804303F5EC43BA7902F07F02D1B27A79D201D2B20A43D2B21A70FB79DB0003F1804303F5EC433A7E1201D1B23A7902F00F02F9
:403E8000D2B20A43D2B25A70FB79DB0003F1804303F5EC433A7F02F00F02D2B29A70FB79DB0003F1804303F5EC430022DA700023FB60FB6818461037BD4690BC704700BF88
:403EC00080B582B000AFFF23FB7101F015FA0346BB71104B1B78182B12D90F4B1B78FB710C4B1B78013BDAB20A4B1A70FB79DB0003F1804303F5F0431B78DAB2064B1A7078
:403F0000BB79184601F0FCF9FB7918460837BD4680BD00BF7082FF1F7182FF1F90B484B000AF0446084611461A462346FB710346BB800B46BB711346FB700123FB6097F9B9
:403F40000730002B23DBBB8823F47F6323F00F039BB2002B1BD1FB79DB0003F1804303F5F043BB60BB68BA881A80FB79DB0003F1804303F5F043BA799A70FB79DB0003F120
:403F8000804303F5F043FA78DA700023FB60FB6818461037BD4690BC704700BF80B485B000AF0346FB710B46BB8013467B800123FB6097F90730002B17DBFB79DB0003F1B9
:403FC000804303F5F0430433BB60BB68BA881A80FB79DB0003F1804303F5F0430633BB60BB687A881A800023FB60FB6818461437BD4680BC704700BF80B483B000AF0346A0
:40400000FB7101BE00BF0C37BD4680BC704700BF80B582B000AF786008E00C4B1B68184601F062F97B68A3F500437B607B68B3F5004FF2D8064B1B687A6802FB03F3184600
:4040400001F052F900BF0837BD4680BD8482FF1F7C82FF1F80B582B000AF0346FB80FB88054A127802FB03F3184601F03DF900BF0837BD4680BD00BF8082FF1F80B584B052
:4040800000AF03463960FB710F4B1B68FB60FB791F2B02D90020FFF7AFFFFB7903F01F0310339B00FA6813441B68BB60FB7903F01F0310339B00FA6813443A681A60BB6851
:4040C00018461037BD4680BD08ED00E080B582B000AF03460A46FB711346BB71BB79072B02D90020FFF788FFFB791F2B02D90020FFF782FFFB7903F01F0303F1604303F540
:404100006443BA795201D2B21A7000BF0837BD4680BD00BF80B483B000AF7860264B1B78DBB21A467B681A60244B1B78DBB21B027A6812681A437B681A60214B1B78DBB2BD
:404140001B047A6812681A437B681A601D4B1B78DBB21B067A6812681A437B681A607B680433194A1278D2B21A60184B1B78DBB21A027B6804337968043109680A431A603F
:40418000134B1B78DBB21A047B6804337968043109680A431A600F4B1B78DBB21A067B6804337968043109680A431A6000BF0C37BD4680BC704700BF0301004904010049A7
:4041C000EC460040020100490101004900010049050100490601004980B500AF064B1B78002B04D100F00AF8034B01221A7000F063F800BF80BD00BF6A83FF1F80B582B0A0
:4042000000AF284A274B1B78DBB243F00203DBB21370254B1B78DBB223F07003FB71224AFB7943F01003DBB21370204A1F4B1B78DBB223F03003DBB213701C4A1B4B1B7822
:40424000DBB243F03003DBB21370184A174B1B78DBB223F00F03DBB21370144A134B1B78DBB243F00F03DBB21370FF2000F048F8002000F055F8002000F062F80C4A0C4B2E
:404280001B78DBB243F00103DBB21370094A094B1B78DBB243F00103DBB2137000BF0837BD4680BD004F0040024F00400B4F0040A3430040014F004080B400AF0D4A0D4B49
:4042C0001B78DBB243F00103DBB213700A4A0A4B1B78DBB243F00103DBB21370074A074B1B78DBB243F00103DBB2137000BFBD4680BC7047A3430040B3430040004F00409D
:4043000080B483B000AF0346FB71044BFA7992B21A8000BF0C37BD4680BC7047044F004080B483B000AF0346FB71044BFA7992B21A8000BF0C37BD4680BC7047064F00408F
:4043400080B483B000AF0346FB71044AFB79137000BF0C37BD4680BC704700BF034F004080B500AF064B1B78002B04D100F00AF8034B01221A7000F063F800BF80BD00BF29
:404380006B83FF1F80B582B000AF284A274B1B78DBB243F00203DBB21370254B1B78DBB223F07003FB71224AFB7943F01003DBB21370204A1F4B1B78DBB223F03003DBB210
:4043C00013701C4A1B4B1B78DBB243F03003DBB21370184A174B1B78DBB223F00F03DBB21370144A134B1B78DBB243F00F03DBB21370FF2000F048F8002000F055F80020C2
:4044000000F062F80C4A0C4B1B78DBB243F00203DBB21370094A094B1B78DBB243F00103DBB2137000BF0837BD4680BD0C4F00400E4F0040174F0040A34300400D4F004031
:4044400080B400AF0D4A0D4B1B78DBB243F00203DBB213700A4A0A4B1B78DBB243F00203DBB21370074A074B1B78DBB243F00103DBB2137000BFBD4680BC7047A34300404C
:40448000B34300400C4F004080B483B000AF0346FB71044BFA7992B21A8000BF0C37BD4680BC7047104F004080B483B000AF0346FB71044BFA7992B21A8000BF0C37BD46B9
:4044C00080BC7047124F004080B483B000AF0346FB71044AFB79137000BF0C37BD4680BC704700BF0F4F004080B500AF064B02221A6006490120FFF7C1FD07210120FFF78D
:40450000E5FD00BF80BD00BF80E100E05546000080B582B000AF0F2000F088F800F078F800F0EAFE0346FB71094A094B1B78DBB243F01003DBB21370FB79184600F0E0FEA3
:40454000044B02221A6000BF0837BD4680BD00BF9464004000E100E080B500AF00F0E0F94FF4004000F00AFA074B00221A60074B1B78002B04D1FFF7B7FF044B01221A70B9
:40458000FFF7C6FF00BF80BD7083FF1F6C83FF1F80B582B000AF0D4B02221A6000F0FEF90346FB80FB88A3F500439BB2BB80B7F90420074B1B6813443B60064B02221A60FF
:4045C0003B6818460837BD4680BD00BF80E100E07083FF1F00E100E080B582B000AF7860084B02221A604FF4004000F0C7F9064A7B681360054B02221A6000BF0837BD46C2
:4046000080BD00BF80E100E07083FF1F00E100E080B400AF044B1B78DBB203F00F03DBB21846BD4680BC70476464004080B483B000AF0346FB71FB7943F00703FB71044AF5
:40464000FB79137000BF0C37BD4680BC704700BF8464004080B483B000AF144B1B78FB71FB7903F00103002B07D0114B1B6803F5FF437F330E4A13600AE0FB7903F0020397
:40468000002B05D00A4B1B68A3F50043084A1360FB7903F00403002B02D0054B00221A6000BF0C37BD4680BC704700BF646400407083FF1F80B500AF064B04221A60064937
:4046C0000220FFF7DBFC07210220FFF7FFFC00BF80BD00BF80E100E02148000080B582B000AF0F2000F088F800F078F800F004FE0346FB71094A094B1B78DBB243F0100362
:40470000DBB21370FB79184600F0FAFD044B04221A6000BF0837BD4680BD00BF9364004000E100E080B500AF00F0D2F94FF4004000F0FCF9074B00221A60074B1B78002BC7
:4047400004D1FFF7B7FF044B01221A70FFF7C6FF00BF80BD7883FF1F7483FF1F80B582B000AF0D4B04221A6000F0F0F90346FB80FB88A3F500439BB2BB80B7F90420074B20
:404780001B6813443B60064B04221A603B6818460837BD4680BD00BF80E100E07883FF1F00E100E080B582B000AF7860084B04221A604FF4004000F0B9F9064A7B6813608D
:4047C000054B04221A6000BF0837BD4680BD00BF80E100E07883FF1F00E100E080B400AF044B1B78DBB203F00F03DBB21846BD4680BC70476364004080B483B000AF034613
:40480000FB71FB7943F00703FB71044AFB79137000BF0C37BD4680BC704700BF8364004080B483B000AF144B1B78FB71FB7903F00103002B07D0114B1B6803F5FF437F3320
:404840000E4A13600AE0FB7903F00203002B05D00A4B1B68A3F50043084A1360FB7903F00403002B02D0054B00221A6000BF0C37BD4680BC704700BF636400407883FF1F71
:4048800080B582B000AF1C4B1B78DBB223F00703FB71194AFB791370174B1B78DBB223F00303FB71144AFB79137000F0B3F84FF4004000F08FF84FF4004000F05FF800209D
:4048C00000F040F800F04EF84FF4004000F092F800F012FD0346BB71084A084B1B78DBB243F01003DBB21370BB79184600F008FD00BF0837BD4680BD7565004097650040B3
:4049000080B400AF054A054B1B78DBB263F07F03DBB2137000BFBD4680BC70477565004080B500AF064B1B78002B04D1FFF7A8FF034B01221A70FFF7E3FF00BF80BD00BF2E
:404940007C83FF1F80B483B000AF0346FB71044AFB79137000BF0C37BD4680BC704700BF8765004080B400AF034B1B78DBB21846BD4680BC704700BF6765004080B483B050
:4049800000AF0346FB80044AFB88138000BF0C37BD4680BC704700BF0C6A004080B400AF044B1B78044B1B889BB21846BD4680BC704700BF066500408C6A004080B400AFD8
:4049C000034B1B889BB21846BD4680BC704700BF8C6A004080B483B000AF0346FB80044AFB88138000BF0C37BD4680BC704700BF4C6A004080B483B000AF0346FB80044A1D
:404A0000FB88138000BF0C37BD4680BC704700BF6C6A004080B500AF01E0FFF7CFFFFFF7A1FF034603F04003002BF6D100BF80BD80B582B000AF1C4B1B78DBB223F007034D
:404A4000FB71194AFB791370174B1B78DBB223F00303FB71144AFB79137000F0B3F84FF4004000F08FF84FF4004000F05FF8002000F040F800F04EF84FF4004000F092F83A
:404A800000F03AFC0346BB71084A084B1B78DBB243F01003DBB21370BB79184600F030FC00BF0837BD4680BD716400409064004080B400AF054A054B1B78DBB263F07F0394
:404AC000DBB2137000BFBD4680BC70477164004080B500AF064B1B78002B04D1FFF7A8FF034B01221A70FFF7E3FF00BF80BD00BF7D83FF1F80B483B000AF0346FB71044AB2
:404B0000FB79137000BF0C37BD4680BC704700BF8064004080B400AF034B1B78DBB21846BD4680BC704700BF6064004080B483B000AF0346FB80044AFB88138000BF0C37FB
:404B4000BD4680BC704700BF0468004080B400AF044B1B78044B1B889BB21846BD4680BC704700BF026400408468004080B400AF034B1B889BB21846BD4680BC704700BFB7
:404B80008468004080B483B000AF0346FB80044AFB88138000BF0C37BD4680BC704700BF4468004080B483B000AF0346FB80044AFB88138000BF0C37BD4680BC704700BFF3
:404BC0006468004080B500AF01E0FFF7CFFFFFF7A1FF034603F04003002BF6D100BF80BD80B483B000AF0346FB71044AFB79137000BF0C37BD4680BC704700BF7A64004038
:404C000080B582B000AF786000F03CF8786800F009F8072000F018F800F028F800BF0837BD4680BD80B485B000AF7860054B1B68FB60FB6858337A681A6000BF1437BD46A7
:404C400080BC704708ED00E080B483B000AF0346FB71054AFB795B01DBB2137000BF0C37BD4680BC704700BF06E400E080B400AF034B40221A6000BFBD4680BC704700BF70
:404C800000E100E080B400AF034B40221A6000BFBD4680BC704700BF80E100E080B485B000AF0346FB710B4B1B78DBB223F00803FB730849FB79DB00DBB203F00803DAB2EB
:404CC000FB7B1343DBB20B7000BF1437BD4680BC704700BF0051004080B485B000AF0346FB71094B1B78DBB203F07F03FB730649FB79DB01DAB2FB7B1343DBB20B7000BFAE
:404D00001437BD4680BC7047C051004080B485B000AF0346FB710B4B1B78DBB223F00203FB730849FB795B00DBB203F00203DAB2FB7B1343DBB20B7000BF1437BD4680BCCA
:404D4000704700BFC051004080B485B000AF0346FB710B4B1B78DBB223F01003FB730849FB791B01DBB203F01003DAB2FB7B1343DBB20B7000BF1437BD4680BC704700BF02
:404D8000F051004080B400AF054B1B78DBB203F010031B09DBB21846BD4680BC704700BFF151004080B500AF41F6FF734FF480420121022000F0F8F903461A460A4B1A7094
:404DC00041F6FF7341F6FF7201210A2000F01EFA03461A46054B1A70054800F049FA002000F058FA00BF80BD8483FF1F8583FF1F994F000080B582B000AF414B1B781846E7
:404E0000FEF752FF3F4B1B781846FEF74DFF3E4B1B78FF2B05D1FFF753F803461A463A4B1A70394B1878384B1A7806230A21FFF775F8354B1B78354A92B245F6A03118463B
:404E4000FFF7ACF82E4B1A782F4B1B7819461046FEF7C8FF2E4B1B78FF2B05D1FFF730F803461A462A4B1A70294B1878284B1A7807230A21FFF752F8254B1B78234A91B2EC
:404E8000244A92B21846FFF789F81E4B1A78204B1B7819461046FEF7A5FF194B1B7801211846FEF7BBFE174B1B7801211846FEF7B5FE00F021FA0346FB71174A164B1B78CD
:404EC000DBB243F02003DBB21370FB79184600F017FA124A114B1B78DBB243F00103DBB213700E4A0D4B1B78DBB243F00203DBB213700B4B01221A6000BF0837BD4680BD84
:404F00008483FF1F8583FF1F8882FF1F8883FF1F8982FF1F18B4FF1F9B6500407B64004080E200E080B500AF084B1B68002B04D1FFF738FF054B01221A6000F033F8FFF73C
:404F400059FF034B1B7800BF80BD00BF8083FF1F6864004080B500AF00F0D8F800BF80BD80B483B000AF0346FB80FB88C3F10403074A32F913309AB2064B1B881BB29BB23F
:404F8000D31A9BB21BB218460C37BD4680BC704718B4FF1F2AB4FF1F80B400AF00BFBD4680BC704780B500AF064B1B78002B04D100F00AF8034B01221A7000F01BF800BF5E
:404FC00080BD00BF9283FF1F80B500AF074A074B1B78DBB243F00603DBB213700C2000F06BF8034B00221A8000BF80BD015900402CB4FF1F80B582B000AF00F07DF90346AD
:40500000FB71254A244B1B78DBB243F00103DBB21370224A214B1B78DBB243F00103DBB213701F4B1B78BB71BB7943F00203BB71BB7943F00103BB71194ABB791370194BAA
:4050400018221A70184A184B1B78DBB243F04003DBB21370144A144B1B78DBB223F00303DBB21370114BC8221A70114B02221A70104A104B1B78DBB243F00803DBB21370FE
:405080000A20FEF7E7FFFB79184600F039F900BF0837BD4680BD00BFAB430040BB4300400359004006590040055900400059004014460040275B004080B584B000AF03465F
:4050C000FB71FB790A2B07D00C2B02D0082B06D008E0C223FB730BE08223FB7308E04223FB7305E0C223FB730020FEF785FF00BF054AFB7B1370FB79184600F017F800BF56
:405100001037BD4680BD00BF0259004080B400AF054A054B1B78DBB243F00103DBB2137000BFBD4680BC70470059004080B584B000AF0346FB71FB790A2B08D00C2B02D000
:40514000082B08D00BE04FF48053FB600DE04FF48063FB6009E04FF48073FB6005E00023FB600020FEF748FF00BF0C4B00221A80FB6842F2107202FB03F303F58063002B3D
:4051800001DA03F2FF73DB121A46054B1A60054B00221A8000BF1037BD4680BD28B4FF1F24B4FF1F2AB4FF1F90B585B002AF0446084611461A462346FB710346BB710B4643
:4051C000BB8013467B80104B01221A700E4B1878BA79F97900230193002300930123FEF71FFE094B1B787A88B9881846FEF7BEFD054B1B7802211846FEF786FD024B1B78F3
:4052000018460C37BD4690BD8A82FF1F90B585B002AF0446084611461A462346FB710346BB710B46BB8013467B80104B00221A700E4B1878BA79F9790023019300230093AD
:405240000023FEF7EDFD094B1B787A88B9881846FEF78CFD054B1B7802211846FEF754FD024B1B7818460C37BD4690BD8B82FF1F80B485B000AF7860054B1B68FB60FB68FF
:4052800040337A681A6000BF1437BD4680BC704708ED00E080B483B000AF0346FB71054AFB795B01DBB2137000BF0C37BD4680BC704700BF00E400E080B400AF034B012281
:4052C0001A6000BFBD4680BC704700BF00E100E080B400AF034B01221A6000BFBD4680BC704700BF80E100E00230800803D000BF01380046FCD17047EFF3108072B67047DC
:4053000080F31088704700BF80B582B000AF0023BB711B4B1B78DBB203F00303012B02D0022B04D012E0164B1B79FB7111E0144B1B79DBB203F07F02124913465B0013446B
:405340009B000B440A331B78FB7102E00023FB7100BFFB79022B0ED80B4B1A68FB7913441B78022B04D1FCF75DFF0346BB7102E00023BB7100BFBB7918460837BD4680BD53
:4053800000600040A4B3FF1F98B3FF1F81F0004102E000BF83F0004330B54FEA41044FEA430594EA050F08BF90EA020F1FBF54EA000C55EA020C7FEA645C7FEA655C00F0E6
:4053C000E2804FEA5454D4EB5555B8BF6D420CDD2C4480EA020281EA030382EA000083EA010180EA020281EA0303362D88BF30BD11F0004F4FEA01314FF4801C4CEA113140
:4054000002D0404261EB410113F0004F4FEA03334CEA133302D0524263EB430394EA050F00F0A780A4F10104D5F1200E0DDB02FA0EFC22FA05F2801841F1000103FA0EF253
:40544000801843FA05F359410EE0A5F120050EF1200E012A03FA0EFC28BF4CF0020C43FA05F3C01851EBE37101F0004507D54FF0000EDCF1000C7EEB00006EEB0101B1F54D
:40548000801F1BD3B1F5001F0CD349085FEA30004FEA3C0C04F101044FEA445212F5800F80F09A80BCF1004F08BF5FEA500C50F1000041EB045141EA050130BD5FEA4C0C9E
:4054C000404141EB010111F4801FA4F10104E9D191F0000F04BF01460020B1FA81F308BF2033A3F10B03B3F120020CDA0C3208DD02F1140CC2F10C0201FA0CF021FA02F1C8
:405500000CE002F11402D8BFC2F1200C01FA02F120FA0CFCDCBF41EA0C019040E41AA2BF01EB0451294330BD6FEA04041F3C1CDA0C340EDC04F11404C4F1200220FA04F086
:4055400001FA02F340EA030021FA04F345EA030130BDC4F10C04C4F1200220FA02F001FA04F340EA0300294630BD21FA04F0294630BD94F0000F83F4801306BF81F48011E6
:405580000134013D4EE77FEA645C18BF7FEA655C29D094EA050F08BF90EA020F05D054EA000C04BF1946104630BD91EA030F1EBF0021002030BD5FEA545C05D14000494187
:4055C00028BF41F0004130BD14F580043CBF01F5801130BD01F0004545F0FE4141F470014FF0000030BD7FEA645C1ABF194610467FEA655C1CBF0B46024650EA013406BF64
:4056000052EA033591EA030F41F4002130BD00BF90F0000F04BF0021704730B54FF4806404F132044FF000054FF0000150E700BF90F0000F04BF0021704730B54FF4806456
:4056400004F1320410F0004548BF40424FF000013EE700BF42004FEAE2014FEA31014FEA02701FBF12F07F4393F07F4F81F06051704792F0000F14BF93F07F4F704730B57C
:405680004FF4607401F0004521F0004120E700BF50EA010208BF704730B54FF000050AE050EA010208BF704730B511F0004502D5404261EB41014FF4806404F132045FEA4F
:4056C000915C3FF4DCAE4FF003025FEADC0C18BF03325FEADC0C18BF033202EBDC02C2F1200300FA03FC20FA02F001FA03FE40EA0E0021FA02F11444C1E600BF70B54FF038
:40570000FF0C4CF4E06C1CEA11541DBF1CEA135594EA0C0F95EA0C0F00F0DEF82C4481EA030621EA4C5123EA4C5350EA013518BF52EA033541F4801143F4801338D0A0FBFE
:4057400002CE4FF00005E1FB02E506F00042E0FB03E54FF00006E1FB03569CF0000F18BF4EF0010EA4F1FF04B6F5007F64F5407404D25FEA4E0E6D4146EB060642EAC621D6
:4057800041EA55514FEAC52040EA5E504FEACE2EB4F1FD0C88BFBCF5E06F1ED8BEF1004F08BF5FEA500E50F1000041EB045170BD06F0004646EA010140EA020081EA03019E
:4057C000B4EB5C04C2BFD4EB0C0541EA045170BD41F480114FF0000E013C00F3AB8014F1360FDEBF002001F0004170BDC4F10004203C35DA0C341BDC04F11404C4F1200596
:4058000000FA05F320FA04F001FA05F240EA020001F0004221F0004110EBD37021FA04F642EB06015EEA430E08BF20EAD37070BDC4F10C04C4F1200500FA04F320FA05F0C5
:4058400001FA04F240EA020001F0004110EBD37041F100015EEA430E08BF20EAD37070BDC4F1200500FA05F24EEA020E20FA04F301FA05F243EA020321FA04F001F0004105
:4058800021FA04F220EA020000EBD3705EEA430E08BF20EAD37070BD94F0000F0FD101F00046400041EB010111F4801F08BF013CF7D041EA060195F0000F18BF704703F0F5
:4058C0000046520043EB030313F4801F08BF013DF7D043EA0603704794EA0C0F0CEA135518BF95EA0C0F0CD050EA410618BF52EA4306D1D181EA030101F000414FF00000DA
:4059000070BD50EA410606BF1046194652EA430619D094EA0C0F02D150EA013613D195EA0C0F05D152EA03361CBF104619460AD181EA030101F0004141F0FE4141F4700109
:405940004FF0000070BD41F0FE4141F4780170BD70B54FF0FF0C4CF4E06C1CEA11541DBF1CEA135594EA0C0F95EA0C0F00F0A7F8A4EB050481EA030E52EA03354FEA01310B
:4059800000F088804FEA03334FF0805545EA131343EA12634FEA022245EA111545EA10654FEA00260EF000419D4208BF964244F1FD0404F5407402D25B084FEA3202B61AAC
:4059C00065EB03055B084FEA32024FF480104FF4002CB6EB020E75EB030E22BFB61A754640EA0C005B084FEA3202B6EB020E75EB030E22BFB61A754640EA5C005B084FEAF9
:405A00003202B6EB020E75EB030E22BFB61A754640EA9C005B084FEA3202B6EB020E75EB030E22BFB61A754640EADC0055EA060E18D04FEA051545EA16754FEA06164FEAA4
:405A4000C30343EA52734FEAC2025FEA1C1CC0D111F4801F0BD141EA00014FF000004FF0004CB6E711F4801F04BF01430020B4F1FD0C88BFBCF5E06F3FF6AFAEB5EB030C4B
:405A800004BFB6EB020C5FEA500C50F1000041EB045170BD0EF0004E4EEA113114EB5C04C2BFD4EB0C0541EA045170BD41F480114FF0000E013C90E645EA060E8DE60CEA4B
:405AC000135594EA0C0F08BF95EA0C0F3FF43BAF94EA0C0F0AD150EA01347FF434AF95EA0C0F7FF425AF104619462CE795EA0C0F06D152EA03353FF4FDAE1046194622E7C4
:405B000050EA410618BF52EA43067FF4C5AE50EA41047FF40DAF52EA43057FF4EBAE12E74FF0FF3C06E000BF4FF0010C02E000BF4FF0010C4DF804CD4FEA410C7FEA6C5C46
:405B40004FEA430C18BF7FEA6C5C1BD001B050EA410C0CBF52EA430C91EA030F02BF90EA020F0020704710F1000F91EA030F58BF994208BF90422CBFD8176FEAE37040F08E
:405B8000010070474FEA410C7FEA6C5C02D150EA013C07D14FEA430C7FEA6C5CD6D152EA033CD3D05DF8040B704700BF8446104662468C461946634600E000BF01B5FFF70F
:405BC000B7FF002848BF10F1000F01BD4DF808EDFFF7F4FF0CBF012000205DF808FB00BF4DF808EDFFF7EAFF34BF012000205DF808FB00BF4DF808EDFFF7E0FF94BF0120C5
:405C000000205DF808FB00BF4DF808EDFFF7CEFF94BF012000205DF808FB00BF4DF808EDFFF7C4FF34BF012000205DF808FB00BF014B1868704700BFEC82FF1F0E4B70B5FB
:405C40001E460E4C0025E41AA410A54204D056F8253098470135F8E700F09CF9084B094C1E46E41AA4100025A54204D056F8253098470135F8E770BDA05F0000A05F000058
:405C8000A05F0000A85F0000931E222B10B50C4602D90020087010BD0A2A06D1002804DA2D230B704042012100E00021214400F017F8204610BDFFF7E7BF10B5431E0A4461
:405CC000914204D011F8014B03F8014FF8E710BD03460244934202D003F8011BFAE77047F0B58BB003460F466D461A4C04F1200E2E4620686168083403C674453546F7D14C
:405D0000217920683171911E222930604FF0000001D938701CE07D1EB3FBF2F402FB14330AAE334413F8283C411C05F8013F23460CB10846F0E77C543A18C11A8B4206DAB8
:405D4000F95C1478FC5402F801190133F5E738460BB0F0BD6E5F000000000000000000003E0000007B000000B8000000F5000000310100006F010000AD010000E90100007B
:405D800026020000004F0040180040510040300000000140001000140140000800400140000A004C01400002105001401000000000500140F00F00481000000030313233EC
:405DC000343536373839414243444546000000001201000202000008B40432F2010001028001000009024300020101C0320904000001020201030524001001042402020582
:405E00002406000105240100010705810308000A09040100020A000004070582024000000705030240000000040309042C034300790070007200650073007300200053008C
:405E400065006D00690063006F006E0064007500630074006F007200100355005300420055004100520054003803430044004300200043006F006D006D0075006E006900E0
:405E800063006100740069006F006E00200049006E007400650072006600610063006500260343004400430020004400610074006100200049006E0074006500720066009E
:405EC00061006300650000000203000000008103080002000100820240000A000100030240000A00020A000001000000E45D000003000000CC5E000000000000000000004C
:405F0000000000000000000000000000E45E000001000000D05D0000000000000000000001000000E85E000001000000105F000012034D005300460054003100300030005A
:405F40000100000028000000000104000100000000000000000143595553420000003030303031000000000000000000430030313233343536373839616263646566676806
:405F8000696A6B6C6D6E6F707172737475767778797A0000F8B500BFF8BC08BC9E4670474D000000491E0000F8B500BFF8BC08BC9E46704729000000C85F0000C880FF1F7E
:405FC0002802000068310000000000000A000000435333303120323031360A00000000000000000000000000000000000000000000000000000000000000000000000000B7
:4060000000000000000000000000000000000000FFFFFFFFA2000000A400000001010101010101010101010101010101010101010001000000000000000000000000000009
:4060400000010100010001010101010001010100010101000101000000010000000100000000000000010001010101000100010001010100010001010100010100000001FD
:4060800000010000000100010000000000010100010101000100010001000100010101000101000100010000000100010001000100000001010001000100010101000100C1
:4060C0000100010001010101000000010001000000010000000100000001010101000100010101010101010101010100010100000000000000000000000000000000000183
:406100000100010101010101010101010100010101010101000000000000000100000000000000000001010101010101010101010101010101010101010000000101000036
:40614000090105050107050D09090000010000000100000000C2010000000800C201000000080000A12000000000020000000000807F0000030000000087930360EA00001B
:406180003C00000000003075FFFFFFFF00000000000000000000000000000000000000000000000000000000000000006C5F00000000000000000000000000000000000037
:4061C00000000000000000000000000000000000000000000000000000000000000000000000000000000000000000008C82FF1F0000000000000000000000000000000073
:40620000000000000000000000000000000000000000000000000000000000000000000000000000000000000000000000000000000000000000000000000000000000005E
:40624000000000000000000000000000000000000000000000000000000000000000000000000000000000000000000000000000000000000000000000000000000000001E
:4062800000000000000000000000000000000000000000000000000000000000000000000000000000000000000000000000000000000000000000000000000000000000DE
:4062C000000000000000000000000000000000000000000000000000000000000000000000000000000000000000000000000000000000000000000000000000000000009E
:020000040003F7
:0200000480007A
:4000000001450040044F004007520040015B004005640040046500403C000140390101404D020140530301406504014048050140620601404E070140310801405409014072
:400040003C0A0140510B01403E0C0140500D0140410E0140370F014044140140451501404F160140541701404F1801405D190140391A0140531B01400D40014011410140D3
:40008000114201400A4301400444014014450140094601400D4701400B480140134901400B4C0140024D014006500140035101407E0201200A4B0D20164B0840104A11C852
:4000C0001810191060047C402784806F830F840F89728D0F876F880D8A388B0406040A040E01140218021C01200228042C0430013204340238283E11540F580459045B04A4
:400100005C345F0581A3835C8603870189C58A088B3A8C808D968E148F68940198709CC49E20A201A4C4A5FEA610A701A8B4A97FAA40AC04AD0EAEF0AFF0B001B202B40C48
:40014000B5FFB6F0B980BE01BF50D280D804D904DB04DF010080010802080444070809080A020B0C0E210F04108011401310140116641A501B101C041D021E2124022708F9
:40018000288029802B202C052F163202334039043B803C443DA03E215A485B11610462206604672076407804821887108D40C0E7C2E7C4FBCA7BCC09CEFAD60FD806DE0228
:4001C000E001E20CE6040A0136014046410349FF4AFF4BFF4DA04F015018580459045A045C335F016040628064406540668068406A806C406D206E80810288018E08910C0B
:4002000094029508960597049F03A002A30CB002B101B204B302B401B508B608B704B802BE10BF54C046C103C54EC6C2C703C81FC9FFCAFFCBFFCDAFCE07CF01D018D40FB0
:40024000D604D804D904DA04DB04DF01E040E280E440E540E680E840EA80EC40ED20EE8000900420071009080C110E0210801480150416201740181019011A0A1E021F402C
:4002800021012250232029012C112D802F603080320133043602374039023E284102430445024704484849044C084F2050805108522058045AA05B026380834087338F1051
:4002C000900292019504960A97A898849A089D849F41A102A202A310A4C0A558A620A722A880A908AA08B104B320B480B602B710C063C2D4C4B8CAD1CC9BCE61D0C3D22403
:40030000D60FD801EE8701070A0F0B070CFD0E020F0410CF110112301302149E16601710187319071C941D041E60203022C929012B022F083110330F36FF3E40405649FFBD
:400340004AFF4BFF4F015018540F5604580459045A045B045D015F016040624064406540668068806A806C806E80803082C9831088FD89018A028B028D049094926093082C
:4003800094739B079CCF9E30A304A507A60FA89EA907AA60AD01AF02B310B50FB6FFBE40C056C9FFCAFFCBFFCD83CE03CF01D018D608D804D904DA04DB04DD91DF01E040AE
:4003C000E240E440E540E680E880EA80EC80EE8000500201030104020510080409200A260B800E610F02128014101510170419801E022010210123102714280429802E41EB
:400400002F16312432813410360138103A013B803DB03F0148084A024C084E02588059205A045B015E806380670184018A408F409201942097289C019E209F44A550A722F5
:40044000B340B401C053C2BFC468CAFCCCAFCEBDD23CD61FD811E020E202E640E808EA400030016002C003080501070208FA09600B100C500D020EA00F79110113061476EF
:40048000150117021CCC1E3024AC25582650272029382A012D402F083001320E330434F03578370338083B804056450C47E2483149FF4AFF4BFF4D834E034F015018580456
:4004C00059045A045D015F016040624064406540668068806A806C806E808101828083068C5F8F18906C9203946A950196059702983799109C039D029E0C9F01A005A20A1D
:40050000A501A702B00FB110B280B304B470B508B703B820BB80BF01D608D804D904DB04DD90DF01004002400510068007010A260B800E200F02128016081714184419045F
:400540001A041D111E201F142080210822A0240225502608270529042A802B022F16310832A035013608388039023DA03E083F024C084E024F08540A5A80624080808C08B6
:400580008F60910293109462962697A898409B109C809D349E209F40A301A408A550A692A722B040B310C0D9C2AFC468CA72CCCECEF9D230D608D808E080E601E880EA10E3
:4005C00006020A0218021C042201230224042B013204330234013501360238083E405401580459045B0C5C305D305F018140853D8B028D01950C9730993D9D149F28A7025A
:40060000A920AB08AD10AF04B101B33CB502B740BF50D602D711D804D904DB04DC43DD40DF01010802400505074808010B200D400E04110A1320144016201D841E041F0407
:400640002004228823502428250C280A2A042E012F1832483320340535083601372039643B013D0A3E8046C059105C805D8066036954702872027F0281808B808C058D0929
:400680008F10912092EA93A1942A95149752980A99109A449B2C9C819D209E019F41A0C0A201A342A42CA602A710AC10B348B480C06CC2CCC43ECAEECCEECEDFD614DE10EC
:4006C000E080E250EA10EC80EE020421060E0E80101C1223161C1E08268028212A162C402E03300F3260341A368038083A223E404035410242064404450C46E0480949FF7F
:400700004AFF4BFF4C624DA04EF04F41500C5608580459045A045B045C345D945F016640670269106A306B106D106E106F12A201B001D203D302D804D904DB04DC33DD30E1
:40074000DF010044042806400A600B020C010E04122A160A170118841A681B401C801D0129012A082E282F10300534043601382A3A223C803E023F20410643204A244B4055
:40078000511058105980600A68026A806F068440860487208C408E04904091089202932194A4951496209752980499909A449C0A9D209E019F60A080A102A209A320A42E39
:4007C000A602A710AD80B004B240B480B710C075C25DC4D7CA63CCC3CEB7D007D20CD60CD80CEC80580459045C335F018110820C850C871188038A088BC08D1C8F02914052
:400800009211938095109622970C99099B109F03A040A320A403A514A604AA03AB80AC11AE22AF40B1E0B240B430B60FB71FBA80BE04BF01C065C102C5EBC60CC807C9FF53
:40084000CAFFCBFFCEF0CF44D00CD401D804D904DA04DB04DC44DD44DF01E6C0EA40EB020110038004200660080A0C100E221002110412801310172019041A041B80210287
:4008800022402301280A29082B882F143002325834043601372038843B123E203FA04004480449094A8A508059055B50611063047C027D018C108F40904091089202932C07
:4008C00095019604974098109A049C049D209E419F20A211A320A42AA502A758A910AA01B210B314B410B680C07AC2ECC44FCA6FCCEFCE3FD004D20CD60FE640E8A0EE921E
:4009000000040104047C05190682070608080C3C0EC10F09110912C31430150619021A0C1C201D1F20FF241028CF29162A302B092C042D172E082F08307031083307343FB7
:40094000351036B03AA03B883F10580459045C445F01840589018A028D019005910195019605980599019C05A205A501A801AA04AB01B001B204B301B602D804D904DC335F
:40098000DF010004018103080520072009080A040B410C100E220F801022128815101640184419901C801D041E02210422892304242029902C102F143028310A328034041B
:4009C0003601372039083A013B413D103E803FA081808204844085048D048E808F20C06FC2FFC45FCA6CCCEFCE3BE002E240E604010103060401057006020C020DC00E01F3
:400A00000F10118212081311150116101702180119C01A021B201D011F0A23F0240126062DB02F403003310332043304340835F0361037083A023B025608580459045B0488
:400A40005D905F018201847088C48A108CB48E40900492F0960398019CC49E20A080A214A608B001B20CB402B6F0BE01D280D804D904DB04DC30DF010108030204440640D8
:400A80000708080A0A080D010E2A13041480170419581A081B021E6A1F4821092211230928802A802C052D802E01314832113410375138043B813E0858605E405F40600A4B
:400AC0007640803085808F109044920193049420966297C098C49A889B459C119D10A70AAC40AD60AE04B080C0F5C2FEC434CAB9CCBFCE4BD60CD80CE22CE408E810EC046B
:400B0000EE0A057F0DFE0F011D961F6821A3235C25C5273A2B012D0E2FF035FF3F104054410649FF4AFF4BFF4DA04F015018580459045A045C035F01604062806440654051
:400B4000668068406A806C406D206E8085088D0891029D089F03AB04B101B302B504B708B980BF44C045C106C524C6C3C70EC81FC9FFCAFFCBFFCDAFCE07CF01D018D40FCF
:400B8000D804D904DA04DB04DC03DF05E040E280E440E540E680E840EA80EC40ED20EE80034106200741080C09010A010C1510111608201221022306270429102F6930802D
:400BC00031023210332034803680388439083C443E8042404702488149084B104F50504051085220580259405A045B106108622079087E017F0180928202831089088A21C2
:400C00008B018C408D018E088F049044931094A09622978098489B409D209E20A040A280A304A602A702B00AB640C0B9C27DC445CAF4CC19CE5AD081D23CD60FD806DE02BD
:400C4000E201E608E810EE0401010208050C0608100117031A021E0421042401270828022B04300831023201330134063504370838083E053F50528054015804590C5B0476
:400C80005C395D105F018040830184B38501860C8901902A92849608970198B39A049D01A003A101A284A695AD01B080B20FB430B501B640B820BA08BE51C006C540C9FF17
:400CC000CA07CBFFCC40CD20CEF0CF05D008D608D804D904DA04DB04DC34DD94DF01E040E1A8E240E320008801080201038006900A680C010E080F0210A0150417241959AA
:400D00001D041E882308250526A027202A412F64320833403604382A3D023E04482049104B0258805C085D015E806302768078027B407F02828083108540870888408908E9
:400D40008A088B208C088D408E018F40902C9101926E9388940295809601970298049A509B049C409DA19E209F01A0C0A108A201A3C2A404A602A708B111B210B320B680F9
:400D8000C03CC2DEC46CCAE9CC4ACEC7D204D6D8D808DE10E0C8E210E411E6A0ECA0EE0408010C01100116011D01200126012801340135013F105418580459045B045C03BA
:400DC0005D405F018004810284108620872888018B018C028F0290809240930495089604980899049E01A040A101A280A608A710A820AA10AE02B4FFB520B71FB980BE10A6
:400E0000BF40D602D73AD804D904DB0CDC30DD30DF0102010304040805020610074908040B800C880D080E6610081250151016C317041B101F202008240227042C842E8026
:400E40002F60328034803502361837043CA03E065A025D04600665046D106E456F487450752077097F02824086C088048C848E01900C9104920294029601980699049A4195
:400E80009D209F01A108A201A302A608A718A820AA02AC01AEA0B220B480B584C0F3C2FCC4FECAF0CCF8CEF0D641D84CDE10E220E640E810EA02EC84110216803240330265
:400EC000371838023B403E808001C430CCF0CE70E620022005080B8233803520830296809F10A101A702AF40B308C030C250CC30E220EE4058085C088A208F1093029680D2
