:400000000080002011000000A5060000A506000080B500AF024A034B1B68136000F04CFBBC760040FA46004010B5054C237833B9044B13B10448AFF300800123237010BD7A
:40004000A881FF1F00000000CC300000084B10B51BB108490848AFF300800848036803B910BD074B002BFBD0BDE81040184700BF00000000AC81FF1FCC300000C880FF1F4A
:400080000000000080B400AF034B01221A6000BFBD4680BC704700BFDC81FF1F80B592B000AF62B60121002000F084FC002002F00FFF02F0EBFCFF2002F08CFDFF2002F0EF
:4000C00079FD314800F08EFB00F010FC02F0C6FD2E4800F069F82E4B1B68012BFBD100F0C3FB2C4B1B68002B0BD102F0CFFD03461A46294B1A60274B1B680133254A13601D
:400100003CE0244B00221A6002F0C0FD03461A46224B1A60214B1A681F4B1B68D31A07F130010A22184602F078FF1C4B1B6807F118010A22184602F070FF174B1B6839462B
:400140000A22184602F069FF07F13003184600F02BF8134800F028F807F11803184600F023F80F4800F020F83B46184600F01CF80C4800F019F8002002F09AFD044B002267
:400180001A6000F065FBA6E785000000D080FF1FDC81FF1FD881FF1F5082FF1FD482FF1FD0300000D430000080B582B000AF786000BF00F015FF0346002BFAD07B683F3357
:4001C00000221A707B683E3321221A70786802F039FF03469BB21946786800F0CBFE00BF0837BD4680BD00BF80B582B000AF786039603A680021786802F01CFF00BF083768
:40020000BD4680BD80B584B000AFF860B9607A607A68B968F86802F002FF00BF1037BD4680BD00BF80B483B000AF0346FB71FEE780B487B000AF7860396000233B610023A3
:400240007B6127E07B699B007A6813441B68BB60BB68FB73BB6823F0FF03BB6014E03B695B003A6813441B781A46BB68134419463B695B003A6813445B780B703B6901338B
:400280003B61FB7B013BFB73FB7B002BE7D17B6901337B617B692A2BD4D900BF1C37BD4680BC704780B582B000AF3D4B04221A803C4B18221A703C4B3A221A803B4B182261
:4002C0001A703B4B3B221A803A4B18221A703A4B81221A80394B18221A70394B40F257221A80384B1C221A70374B06221A70374B52221A70364B374A1278D2B21A70364BC1
:4003000040F619121A80354B41F251221A800023FB7019237B6014E0FB785B00DAB2304B1B78DBB203F00103DBB21343DBB203F00303FB704FF4F07002F0DAFD7B68013B1E
:400340007B607B68002B02D0FB78032BE4D17B68002B02D10320FFF765FF224B4FF480721A80204B07221A701F4B00221A701F4B48221A701B4B00221A701D4B00221A701A
:400380001C4B02221A701C4A1B4B1B78DBB243F01F03DBB2137000BF0837BD4680BD00BF80400040824000408440004086400040884000408A4000408C4000408E400040A2
:4003C00090400040924000400043004000420040A14600400F0100492242004020420040254200400440004006400040084000400940004001400040A243004080B582B041
:4004000000AF244B1B78FB71234B1B78BB71234B1B787B71224AFB7903F00703DBB21370204AFB791B09DBB213701B4ABB7943F00303DBB21370194A7B7943F00303DBB287
:400440001370194BE0221A70184BF4221A70184B40221A70174B40221A70174BE0221A70164B4F221A70164B20221A70154B40221A700A2002F02CFA084A7B791370064A4B
:40048000BB791370104B44221A7000BF0837BD4680BD00BFCF010049F8460040F94600406E5800406F5800400D5100401D510040095900400B590040005B0040285B00402A
:4004C0002B5B0040585B00407658004080B586B000AF72B6574B61221A70FFF7E3FE554B01221A70544A544B1B78DBB243F00403DBB213700023FB7513E0FA7D13465B00C8
:4005000013445B004D4A13443B613B691A683B699B889BB219461046FFF766FEFB7D0133FB75FB7D062BE8D90023FB751CE0FA7D13469B0013445B00414A1344FB60FB6864
:400540001B68BB60FB685B687B60FB681A7A5B7A1B0213437B807B881A467968B868FFF751FEFB7D0133FB75FB7D002BDFD035494FF09040FFF75CFE04213348FFF734FEE6
:40058000042232493248FFF73DFE324B324A1A60324A324B1B78DBB243F00203DBB213702F4A2F4B1B78DBB243F00203DBB213702C4A2C4B1B78DBB243F04003DBB213702D
:4005C000294A294B1B78DBB243F01003DBB21370082226492648FFF715FE082225492648FFF710FE0A2225492548FFF70BFE082224492548FFF706FE0A2224492448FFF785
:4006000001FE082223492448FFF7FCFD234A234B1B78DBB243F00803DBB21370FFF7EEFE0E2210491E48FFF7EDFD00BF1837BD4680BD00BF00480040E8460040D8300000C5
:4006400004310000AC00004800760040101000480876004058140140040400440350014013500140A0430040C2430040D80F004802510040E00F0048C2510040E80F004851
:40068000F0510040F40F004812510040FC0F004820510040081000483251004022430040B043004080B500AF02F074FC03461B680C2B00D1FEE7FEE780B586B000AF224B61
:4006C0007B61224B3B61204B7B6135E03B691B68FB603B695B68BB603B699B683B6000237B600CE0FB681A68BB681A60BB680433BB60FB680433FB607B6804337B607A68C6
:400700003B689A42EED13B69DB683B6000237B6008E0BB6800221A60BB680433BB607B6804337B607A683B689A42F2D13B6910333B617B69013B7B617B69002BC6D102F0AF
:400740002FFCFFF7ABFCFEE7010000000C33000080B582B000AF194B194A1A60194A194B1B6843F40073136000237B600FE07B68032B04D8144A7B6852F8233000E0134BD8
:4007800013497A6841F822307B6801337B607B682F2BECD90F4B1B78DAB20F4B1A700F4B0B4A1A60FFF792FE02F058F80C4B00221A6000BF0837BD4680BD00BF0CED00E065
:4007C0000004FA0514ED00E000000000A50600000080FF1FBC760040C480FF1F08ED00E0C080FF1F80B582B000AF786000F03CF8786800F009F8072000F018F800F028F8AB
:4008000000BF0837BD4680BD80B485B000AF7860054B1B68FB60FB6858337A681A6000BF1437BD4680BC704708ED00E080B483B000AF0346FB71054AFB795B01DBB2137043
:4008400000BF0C37BD4680BC704700BF06E400E080B400AF034B40221A6000BFBD4680BC704700BF00E100E080B400AF034B40221A6000BFBD4680BC704700BF80E100E0F3
:4008800080B582B000AF0F4800F05EF80D4800F075F802F035FB0346FB710B4A0A4B1B78DBB243F01003DBB21370FB79184602F02BFB00F071F8002000F02AF800BF083769
:4008C000BD4680BD9F8601009864004080B400AF054A054B1B78DBB263F07F03DBB2137000BFBD4680BC70477964004080B500AF064B1B78002B04D1FFF7C2FF034B01220D
:400900001A70FFF7E3FF00BF80BD00BFE481FF1F80B483B000AF0346FB71044AFB79137000BF0C37BD4680BC704700BF8864004080B400AF034B1B78DBB21846BD4680BC36
:40094000704700BF6864004080B582B000AF78607968034802F07EF800BF0837BD4680BD2964004080B400AF034B1B6823F07F431846BD4680BC70474964004080B582B037
:4009800000AF78607968034802F064F800BF0837BD4680BD0964004080B500AF01E0FFF7E1FFFFF7C5FF034603F00803002BF6D100BF80BD80B582B000AF03460A46FB71A6
:4009C0001346BB71094B1B78002B04D100F010F8064B01221A70BA79FB791146184600F0D9F800BF0837BD4680BD00BFE581FF1F80B582B000AF02F083FA0346FB71544A1F
:400A0000534B1B78DBB243F00103DBB21370514A504B1B78DBB243F00103DBB213704E4B01221A704D4B02221A704D4A4C4B1B78DBB203F07F03DBB21370002001F048FF5D
:400A4000484A484B1B78DBB223F00603DBB21370454A454B1B78DBB223F02003DBB21370404A404B1B78DBB243F00103DBB21370012001F02DFF282001F02AFF3B4A3B4B59
:400A80001B78DBB203F07F03DBB21370374A374B1B78DBB223F04003DBB21370314A314B1B78DBB243F00203DBB21370022001F00FFF2C4A2B4B1B78DBB243F00403DBB2B5
:400AC00013702B4B00221A702A4B00221A70FB79184602F019FA0721172001F035FF2649172001F009FF0721182001F02DFF2349182001F001FF0721152001F025FF204949
:400B0000152001F0F9FE0721012001F01DFF1D49012001F0F1FE0721022001F015FF1A49022001F0E9FE0721032001F00DFF1749032001F0E1FE07210C2001F005FF1449EE
:400B40000C2001F0D9FE00BF0837BD4680BD00BFA5430040B54300409D60004009600040106000409443004012600040F85100408460004085600040AD170000951000008A
:400B8000A1170000B9160000011700004D170000B917000080B582B000AF03460A46FB711346BB712E4AFB7913702E4B00221A702D4B00221A702D4B00221A702C4B00224D
:400BC0001A702C4B00221A702B4B00221A702B4B00221A702A4B4FF400021A60284B4FF080721A60264B4FF400121A60244B02221A60234B04221A60214B08221A60BB7913
:400C0000002B02D0012B09D011E01E4A1D4B1B78DBB223F00103DBB2137011E0194A194B1B78DBB243F00103DBB2137008E0154A144B1B78DBB243F00103DBB2137000BFBF
:400C4000114B03221A70114B80221A70012002F04FF90F4B04221A7000BF0837BD4680BDF182FF1FF482FF1F1083FF1F1383FF1F0883FF1F1283FF1F1583FF1FF082FF1F12
:400C800000E100E00960004028600040086000401260004080B400AF0F4B00221A700F4B00221A700E4B00221A700E4B00221A700D4B00221A700D4B00221A700C4B00222E
:400CC0001A700C4B03221A700B4B80221A7000BFBD4680BC704700BFF482FF1F1083FF1F1383FF1F0883FF1F1283FF1F1583FF1FF082FF1F286000400860004080B483B0FC
:400D000000AF0346FB71FA79064913465B0013449B000B4401331B78DBB218460C37BD4680BC70471883FF1FB0B485B000AF03463960FB711346BB80FB79002B6DD0FB797A
:400D4000082B6AD8B988FA79364813465B0013449B00034406331B889BB2C3F5007399420CD9FA792F4913465B0013449B000B4406331B889BB2C3F50073BB802A4CF97974
:400D8000BB881B0A9BB2D8B2FA79264D13465B0013449B002B4403331B78DBB20343DAB20B0123441A70204AFB79B988C9B21B01134401330A461A703B68002B13D00023E5
:400DC000FB810CE01948FB79FA8939680A4412781B01034408331A70FB890133FB81FA89BB889A42EED3FA790E4913465B0013449B000B44013300221A700B48F979FA7924
:400E0000084C13465B0013449B00234405331B78DAB20B01034402331A7000BF1437BD46B0BC70471883FF1FFC5F00407060004080B582B000AF0023FB71314B1B79DBB212
:400E4000184600F067F80346BB712D4B1B78DBB25BB2002B15DA2A4B5B78DBB2212B00D048E0284B07221A80BA791346DB009B1A254A1344234A536000F086FA0346FB711B
:400E800038E01F4B5B78DBB2202B02D0222B1AD030E01C4B07221A80BA791346DB009B1A194A1344174A5360BB79BA7917498A5CD2B242F00102D1B2144AD15400F0E2FAA0
:400EC0000346FB7116E0BB790D4A9278D2B291B20F4A22F81310BB79BA790C498A5CD2B242F00202D1B2094AD15400F069FB0346FB7100BFFB7918460837BD4680BD00BF26
:400F000000600040FC82FF1F1081FF1FD882FF1FEC82FF1F80B485B000AF0346FB710023FB73FF23BB7317E0FB7B104AD35C7B737A7B0F4913465B0013449B000B440A33B1
:400F40001B78DBB2FA799A4203D1FB7BBB730223FB73FB7B0133FB73FB7B012BE4D9BB7B18461437BD4680BC704700BFE082FF1F1883FF1F80B584B000AF78600B467B8077
:400F8000144B1B781A46144B9B5CFB73FA7B134913465B0013449B000B4408331B889BB27A889A420CD9FA7B0C4913465B0013449B000B4408331B887B80002001F07CFC46
:400FC0007A88FB7B79681846FFF7AEFE00BF1037BD4680BDE681FF1FDC82FF1F1883FF1F80B500AF054B1B781A46054B9B5CDBB21846FFF783FE0346184680BDE681FF1F5F
:40100000DC82FF1F80B485B000AF78600B46FB701346BB707B68DB7803F00303FB737B689B785BB2002B1ADAFB7B032B0AD0BB7803F001031449FA78CA54BB7843F0010346
:40104000BB701BE0BB789B08DBB203F001030F49FA78CA54BB7843F00403BB700EE0FB7B032B0BD0BB785B08DBB203F001030849FA78CA54BB7843F00203BB70BB781846E1
:401080001437BD4680BC7047DC82FF1FE082FF1FE482FF1F80B582B000AF374B1B78BB71BB7903F01003002B62D00123FB7197F90630002B12DABB7903F00F03012B02D0DD
:4010C0000023FB711CE000F061F82C4B1B78DBB25BB2002B14DA0023FB7111E0BB7903F04003002B02D000F095F809E0BB7903F02003002B02D000F0B3F801E00023FB71C0
:40110000FB79002B34D01C4B1B78BB7197F90630002B2DDB1A4B1B78DAB21A4B1B78DBB21343BB71184ABB791370174B1B78DBB2BA799A421CD1114B1B78FB710E4B1B7884
:40114000DBB223F07F03BB71BB79002B0AD10A4B0A4A1278D2B21A70074B1B78DBB203F00F03FB71054B1B78DBB2FA799A42E2D100BF0837BD4680BD286000401183FF1F99
:401180008683FF1F1483FF1F2960004080B582B000AF1D4B1B78FB711B4AFB7913701A4B1B78FB7197F90730002B03DA174AFB79137025E0022000F045FA154B1B78DBB250
:4011C00003F06003202B08D0402B0BD0002B0ED100F0F8FA0346FB710CE001F099FE0346FB7107E001F000FB0346FB7102E00023FB7100BFFB79002B02D1044B03221A703E
:4012000000BF0837BD4680BD286000401183FF1F0060004080B500AF104B1B78DBB2062B19D801A252F823F0571200005712000045120000571200004B120000571200007D
:401240005112000000F0F8F806E000F0A7F903E000F0D2F900E000BF00BF80BDF482FF1F80B500AF124B1B78DBB2062B1DD801A252F823F0AB120000AB1200009112000044
:40128000AB12000097120000AB1200009D12000000F0D8F80AE000F027F907E0032000F0D1F9044B03221A7000E000BF00BF80BDF482FF1F1183FF1F80B483B000AF0023C6
:4012C000FB71294B1B78DBB29AB2284B1B889BB213449AB2254B1A8015E02549FB79254A52681278D2B2CA54224B5B680133214A5360FB790133FB711E4B1B889BB2013B3B
:401300009AB21C4B1A801B4B1B889BB2002B02D0FB79072BE1D9144B1B78DBB2082B02D0FB79002B0FD0144B1B78DBB283F07F03DB43DAB2104B1A70104B0F221A70104B37
:4013400002221A7005E00D4B02221A700C4B02221A700C4AFB791370034AFB79137000BF0C37BD4680BC7047F082FF1FF282FF1F00600040FC82FF1F8683FF1F1183FF1F0F
:40138000F482FF1F1483FF1F80B582B000AF164B1B889BB2002B02D100F02EF81EE0134B02221A70124B00221A7000F06BF9114BDB79DBB29BB21B029AB20E4B9B79DBB215
:4013C0009BB21343FB80084B1B889BB2FA889A4202D2054AFB881380FFF76EFF012318460837BD4680BD00BFFC82FF1FF482FF1F8683FF1F0060004080B400AF094B022280
:401400001A70094B80221A70084B0F221A70084B00221A70074B00221A7001231846BD4680BC7047F482FF1F8683FF1F1183FF1FF082FF1F1483FF1F80B500AFFFF73CFF58
:4014400000BF80BD80B500AF0A4B1B78DBB29AB2094B1B889BB213449AB2074B1A80074B00221A70012000F0EDF8054B03221A7000BF80BDF082FF1FF282FF1FF482FF1F53
:401480001183FF1F80B582B000AF124B04221A70114B80221A7000F0F5F8104BDB79DBB29BB21B029AB20D4B9B79DBB29BB21343FB800B4B1B889BB2FA889A4202D2084A1F
:4014C000FB881380074B0B221A70012318460837BD4680BDF482FF1F8683FF1F00600040FC82FF1F1183FF1F80B483B000AF0023BB71234B1B78DBB203F00F03DBB2023B61
:40150000FB71FB799AB21F4B1B889BB213449AB21C4B1A8018E01C4B5B681C49BA798A5CD2B21A70184B5B680133174A5360BB790133BB71FB79013BFB71134B1B889BB267
:40154000013B9AB2104B1A800F4B1B889BB2002B02D0FB79002BDED10D4AFB7913700D4B1B78DBB283F07F03DB43DAB2094B1A70094B0B221A7000BF0C37BD4680BC704713
:4015800029600040F282FF1FFC82FF1F006000401483FF1F8683FF1F1183FF1F80B500AF054B00221A70012000F04CF8034B03221A7000BF80BD00BFF482FF1F1183FF1FD3
:4015C00080B400AF084B06221A70084B06221A70074B80221A70074B00221A7001231846BD4680BC704700BFF482FF1F1183FF1F8683FF1F1483FF1F80B500AF0D4B1B785A
:40160000DBB2002B0AD00C4A0A4B1B78DBB263F07F03DBB21370074B00221A70074B00221A70012000F00EF8054B03221A7000BF80BD00BF1283FF1F08600040F482FF1FAC
:401640001183FF1F80B483B000AF0346FB710B4B9B68002B0CD0094B9B68FA791A70074B9B68074A128892B25A80044B00229A6000BF0C37BD4680BC704700BFFC82FF1F1D
:40168000F282FF1F80B400AF094B00221A80094B9B68002B07D0074B9B6800221A70054B9B6800225A8000BFBD4680BC704700BFF282FF1FFC82FF1F80B400AF0D4B0122FC
:4016C0001A700D4B9B7C0D4B1B7BDBB203F00303012B08D0094BDB7BDBB283F07F03DB43DAB2064BDA73054B01225A7300BFBD4680BC70470B600040FC5F00401883FF1F11
:4017000080B400AF0E4B02221A700E4B93F822300D4B1B7EDBB203F00303012B08D00A4BDB7EDBB283F07F03DB43DAB2064BDA76054B01225A7600BFBD4680BC704700BFDC
:401740000B600040FC5F00401883FF1F80B400AF104B04221A70104B93F832300F4B93F82430DBB203F00303012B0AD00B4B93F82730DBB283F07F03DB43DAB2074B83F83E
:401780002720064B012283F8252000BFBD4680BC704700BF0B600040FC5F00401883FF1F80B400AF00BFBD4680BC704780B500AFFFF770FA00BF80BD80B500AF01F03EF858
:4017C00000BF80BD80B586B000AF0023FB759D4B1B78FB7100233B619B4B00221A8097F90730002B80F20481964B5B78DBB20A2B00F21B8201A252F823F000BF47190000EB
:401800002B1C00002B1C00002B1C00002B1C00002B1C0000291800002B1C0000BB1900002B1C0000D1190000864BDB78DBB2012B0ED100F049FEB860BB685B68824A536048
:40184000814B12221A80FFF79FFD0346FB75EEE17C4BDB78DBB2022B25D17A4B9B78DBB2184600F009FEB860BB68002B00F0DF81BB685B68744A5360734B5B6803331B78D9
:40188000DBB29BB21B029AB26F4B5B6802331B78DBB29BB213439AB26B4B1A80FFF774FD0346FB75C3E1674BDB78DBB2032B45D10023FB73654B3B6109E03B691B78BB7111
:4018C000BB793A6913443B61FB7B0133FB735D4B9B78DBB2FA7B9A4204D23B691B78DBB2002BEAD1574B9B78DBB2EE2B01D1584B3B61544B9B78DBB2002B0BD0514B9B788D
:40190000DAB2544B1B7C9A4204D1534800F0ACF9514B3B613B691B78DBB2002B00F087813B691B78DBB29AB2474B1A80464A3B695360FFF729FD0346FB7578E101F0E8FAC1
:401940000346FB7573E1FB7903F00303002B20D0022B00D030E03C4B02221A80394B1B79DBB203F07F023D4913465B0013449B000B4402331B78DAB2394B1A70384B0022E5
:401980005A70314B364A5A60FFF7FEFC0346FB7512E02D4B02221A80324B1B78DAB2304B1A702F4B00225A70274B2D4A5A60FFF7EBFC0346FB7500BF40E1234B01221A808B
:4019C000214B294A5A60FFF7DFFC0346FB7535E11D4B01221A801B4B1B79DBB21A46234B1344194A5360FFF7CFFC0346FB7525E1144B5B78DBB2013B0A2B00F21A8101A2E7
:401A000052F823F00F1B0000331C00009D1B0000331C0000311A0000331C0000331C0000331C0000751A0000331C0000CB1A0000044B9B78DAB20E4B1A70FFF7C1FD034600
:401A4000FB75FBE000600040FC82FF1F7C31000084320000243100008C83FF1F1883FF1FE881FF1F1583FF1F1383FF1F8483FF1F1283FF1F744B9B787B717B79002B06D0C5
:401A80007B79013BDBB2184600F0F6FCB8607B79002B02D0BB68002B03D17B79002B40F0CA806A4B1B78DBB27A799A4208D0674A7B791370664B01221A70012000F0DCF97D
:401AC000FFF77EFD0346FB75B5E000F055FE0346002B00F0B2805C4B1B793B715A4B1B79DAB25C4B1A703B795B4AD35CDAB23B795A49CB5CDBB29A4204D0554B01221A7055
:401B000000F08CFBFFF75CFD0346FB7595E0FB7903F00303012B20D0012B0CD3022B00D03BE0494B9B78DBB2002B31D100F078FD0346FB752CE0444B9B78DBB2012B29D125
:401B4000474B1B78DBB223F00203DAB2444B1A70FFF736FD0346FB751CE03B4B1B79DBB2012B19D8384B9B78DBB2DB43DBB2364A1279D2B2114610463A4A125CD2B2134081
:401B8000DAB2384B5A54FFF71BFD0346FB7503E000BF53E000BF51E000BF4FE0FB7903F00303012B20D0012B0CD3022B00D03BE0254B9B78DBB2002B31D100F0BDFC034613
:401BC000FB752CE0204B9B78DBB2012B29D1244B1B78DBB243F00203DAB2214B1A70FFF7EFFC0346FB751CE0174B1B79DBB2012B19D8154B9B78DBB2DB43DBB2124A127927
:401C0000D2B211461046174A125CD2B21340DAB2144B5A54FFF7D4FC0346FB7503E000BF0CE000BF0AE000BF08E000BF06E000BF04E000BF02E000BF00E000BFFB7D1846BA
:401C40001837BD4680BD00BF006000401383FF1F1083FF1F0883FF1FF882FF1F8483FF1F1583FF1F8883FF1FB0B58AB000AF7860324B07F114041D460FCD0FC42B682370E1
:401C8000002387F826307B68002B52D07B6822221A707B68013303221A7007F10C03184600F076FE022387F827303EE097F827307A68134497F8262007F128010A4412F836
:401CC0001C2C1209D2B207F128010A4412F8142C1A7097F8273001337A68134400221A7097F8273002337A68134497F8262007F128010A4412F81C2C02F00F0207F12801AD
:401D00000A4412F8142C1A7097F8273003337A68134400221A7097F82630013387F8263097F82730043387F8273097F82730212BBCD900BF2837BD46B0BD00BF103100004A
:401D400090B482B000AF0123FB7180E0464AFB791B0113440C221A70FA79444913465B0013449B000B4405331B78DBB2002B1CD0FA793E4913465B0013449B000B44043395
:401D80001B78DBB25BB2002B07DA394AFB791B01134402330C221A700EE0354AFB791B011344023308221A7006E0314AFB791B011344023380221A702B48F979FA792B4CDE
:401DC00013465B0013449B00234406331B889BB2DAB20B01034406331A702348F979FA79224C13465B0013449B00234406331B889BB21B0A9BB2DAB20B01034407331A7002
:401E00001948F979FA79194C13465B0013449B00234406331B889BB2DAB20B01034404331A701148F979FA79104C13465B0013449B00234406331B889BB21B0A9BB2DAB253
:401E40000B01034405331A70FB790133FB71FB79082B7FF67BAF074BFF221A7000BF0837BD4690BC704700BF706000401883FF1FFC5F00400A60004080B58AB000AF0346BE
:401E8000FB7100237B84002387F8273050E097F82720B34913465B0013449B000B4400221A7097F82720AE4913465B0013449B000B44023300221A7097F82720A849134635
:401EC0005B0013449B000B44033300221A7097F82720A34913465B0013449B000B44083300221A8097F827209D4913465B0013449B000B440A3300221A7097F82720984965
:401F000013465B0013449B000B44013300221A7097F82720924913465B0013449B000B44053300221A7097F82730013387F8273097F82730082BAAD9FB79002B16D000230E
:401F400087F825300EE097F82530864A0021D15497F82530844A0021D15497F82530013387F8253097F82530012BECD97F4B1B78DBB2002B00F04A810023FB767B4B1B782F
:401F8000DBB2013BDBB2184600F076FA78617B695B683B613B6907331B7803F04003002B08D0734B1B78DBB243F00103DAB2704B1A7007E06E4B1B78DBB223F00103DAB2FE
:401FC0006B4B1A707B6908337B617B691B7887F82730012387F82530B6E07B695B68FB61002387F82630A3E097F82520FB699B7803F07F039A4240F0938097F825205849F9
:4020000013465B0013449B000B4408331B889AB2FB699B889A420CD297F82520FB6998884F4913465B0013449B000B44083302461A80FB691B781A464A4B9B5CDAB2FB696B
:402040005B789A426CD197F82520FB699878444913465B0013449B000B44043302461A7097F82520FB69D8783D4913465B0013449B000B4402461A70FB69DB7803F003031C
:40208000FB73FB699B785BB2002B1CDA97F82520FB7B012B01D1072000E00D20304913465B0013449B000B44053302461A7097F825202B4913465B0013449B000B440133A8
:4020C00001221A701BE097F82520FB7B012B01D1052000E00920224913465B0013449B000B44053302461A7097F825201C4913465B0013449B000B44013300221A70FB69E6
:402100009B790A2B03D0FB699B79022B08D1FA7E97F825301946F869FEF774FF0346FB76FB690833FB6197F82630013387F8263097F8262097F827309A42FFF455AF97F8C1
:402140002530013387F8253097F82530082B7FF644AF7B695B68FB61002387F8253020E01883FF1F8483FF1FF882FF1F1383FF1F1583FF1FFB699B7803F07F02FB691878CA
:40218000244913465B0013449B000B440A3302461A70FB690833FB6197F82530013387F8253097F8252097F827309A42E2D300F09DF90246184B1A6000237B84012387F80C
:4021C00027301DE097F82720124913465B0013449B000B4406337A8C1A8097F827200D4913465B0013449B000B4408331B889AB27B8C13447B8497F82730013387F82730F4
:4022000097F82730082BDDD9FFF79AFD00BF2837BD4680BD1883FF1F0C83FF1F90B585B000AF8F4B1B78DBB2002B00F015818C4B1B78DBB2013BDBB2184600F01DF97860AE
:402240007B6808337B607B681B78FB707B685B68BB60844B1B78BB700023FB73F7E0BB681B78BA789A4240F0EC80BB787E4AD35CDAB2BB685B789A4240F0E380BB689B781D
:4022800003F07F037B70BB68DB7803F003033B707A78764913465B0013449B000B44033300221A707A78BB689878704913465B0013449B000B44043302461A707A78BB682B
:4022C000D8786A4913465B0013449B000B4402461A707A78BB689888644913465B0013449B000B44083302461A80BB689B785BB2002B1ADA7A783B78012B01D1072000E014
:402300000D205A4913465B0013449B000B44053302461A707A78554913465B0013449B000B44013301221A7019E07A783B78012B01D1052000E009204C4913465B001344FE
:402340009B000B44053302461A707A78474913465B0013449B000B44013300221A70444A7B781B011344023301221A70404879787A783E4C13465B0013449B0023440833FF
:402380001B889BB21B0A9BB2DAB20B0103441A70374879787A78354C13465B0013449B00234408331B889BB2DAB20B01034401331A70304879787A782C4C13465B001344BC
:4023C0009B00234406331B889BB2DAB20B01034406331A70274879787A78244C13465B0013449B00234406331B889BB21B0A9BB2DAB20B01034407331A701E4879787A78BA
:402400001A4C13465B0013449B00234406331B889BB2DAB20B01034404331A70154879787A78124C13465B0013449B00234406331B889BB21B0A9BB2DAB20B010344053303
:402440001A70BB680833BB60FB7B0133FB73FA7BFB789A42FFF403AF00BF1437BD4690BD1383FF1F0883FF1F8483FF1F1883FF1FFC5F00407060004080B485B000AF034637
:40248000FB710F4B1B78DBB20E4ADB0013445B68FB60FB681033FB60FB681B78FA799A4202D30023FB6005E0FB79DB00FA6813445B68FB60FB6818461437BD4680BC7047E8
:4024C000F182FF1F7C32000080B400AF054B1B78DBB2054ADB0013445B681846BD4680BC704700BFF182FF1F7C32000080B584B000AF104B1B78DBB2013BDBB21846FFF704
:40250000BBFFB860BB68002B0DD0BB685B681B79FB71FB790233DB00BA681344BB60BB685B68FB6001E00023FB60FB6818461037BD4680BD1383FF1F80B582B000AF0023CB
:40254000FB71344B1B79DBB203F07F03BB71BB79002B5AD0BB79082B57D8BA79B9792E480B465B000B449B00034402331B78DBB243F00103D8B2284913465B0013449B00AA
:402580000B44023302461A70BA79234913465B0013449B000B44033300221A70BA79B9791D480B465B000B449B00034401331B78DBB243F00203D8B2174913465B00134427
:4025C0009B000B44013302461A70BA79124913465B0013449B000B4404331B78DBB25BB2002B07DA0D4ABB791B01134402338D221A7006E0094ABB791B01134402338922CC
:402600001A70FEF7DDFF0346FB71FB7918460837BD4680BD006000401883FF1FFC5F004080B582B000AF0023FB71504B1B79DBB203F07F03BB71BB79002B00F09280BB79AE
:40264000082B00F28E80BA79B97949480B465B000B449B00034402331B78DBB223F00103D8B2434913465B0013449B000B44023302461A70BA793E4913465B0013449B0076
:402680000B44033300221A703A49BB793948BA79120102441278D2B202F07F02D2B21B010B441A70BA79B97931480B465B000B449B00034401331B78DBB223F00203D8B27A
:4026C0002B4913465B0013449B000B44013302461A70BA79264913465B0013449B000B4404331B78DBB25BB2002B1BDABA79204913465B0013449B000B4401331B78DBB26B
:40270000012B07D11B4ABB791B01134402330C221A7022E0174ABB791B01134402330D221A701AE0BA79124913465B0013449B000B4401331B78DBB2012B07D10D4ABB7944
:402740001B011344023308221A7006E0094ABB791B011344023309221A70FEF731FF0346FB71FB7918460837BD4680BD006000401883FF1FFC5F004080B584B000AF0023D9
:40278000FB73154B1B79BB73144B1B78DBB2013BDBB21846FFF770FEB860BB685B681B79FB71BA7BFB799A4202D9BB7B022B0ED8BB7BBA7B0A498A5CD1B20A4AD154BB7B02
:4027C000054A9278D1B2064AD1540123FB73FB7B18461037BD4680BD006000401383FF1F8483FF1FF882FF1F80B582B000AF0023FB710F4B1B78DBB25BB2002B12DA0C4BF0
:402800005B78DBB2012B00D00CE00A4B0A4A5A60094B1B789AB2074B1A80FEF7B5FD0346FB7100BFFB7918460837BD4680BD00BF00600040FC82FF1F9832000080B400AFBA
:40284000054B1B78DBB203F040039B09DBB21846BD4680BC704700BF8F45004080B483B000AF134B7F221A70124B80221A707F23FB710CE0FB79DB0003F1804303F5F04307
:40288000FA79013AD2B21A70FB79013BFB71FB79002BEFD1FB79DB0003F1804303F5F04300221A7000BF0C37BD4680BC704700BF2D81FF1F2C81FF1F80B483B000AF034657
:4028C000FB7101BE00BF0C37BD4680BC704700BF80B582B000AF0346FB80FB88054A127802FB03F3184600F003FB00BF0837BD4680BD00BF3C81FF1F80B584B000AF034648
:402900003960FB710F4B1B68FB60FB791F2B02D90020FFF7D1FFFB7903F01F0310339B00FA6813441B68BB60FB7903F01F0310339B00FA6813443A681A60BB681846103719
:40294000BD4680BD08ED00E080B582B000AF03460A46FB711346BB71BB79072B02D90020FFF7AAFFFB791F2B02D90020FFF7A4FFFB7903F01F0303F1604303F56443BA795E
:402980005201D2B21A7000BF0837BD4680BD00BF80B483B000AF7860264B1B78DBB21A467B681A60244B1B78DBB21B027A6812681A437B681A60214B1B78DBB21B047A682E
:4029C00012681A437B681A601D4B1B78DBB21B067A6812681A437B681A607B680433194A1278D2B21A60184B1B78DBB21A027B6804337968043109680A431A60134B1B78E7
:402A0000DBB21A047B6804337968043109680A431A600F4B1B78DBB21A067B6804337968043109680A431A6000BF0C37BD4680BC704700BF0301004904010049EC460040BD
:402A4000020100490101004900010049050100490601004980B485B000AF786039607B68FB603B68DAB2FB681A70FB6801333A68120AD2B21A70FB6802333A68120CD2B2B4
:402A80001A7000BF1437BD4680BC704780B500AF064B1B78002B04D100F00AF8034B01221A7000F063F800BF80BD00BFEA81FF1F80B582B000AF284A274B1B78DBB243F0FB
:402AC0000203DBB21370254B1B78DBB223F07003FB71224AFB7943F01003DBB21370204A1F4B1B78DBB223F03003DBB213701C4A1B4B1B78DBB243F03003DBB21370184AFB
:402B0000174B1B78DBB223F00F03DBB21370144A134B1B78DBB243F00F03DBB21370FF2000F048F8002000F055F8002000F062F80C4A0C4B1B78DBB243F00203DBB2137082
:402B4000094A094B1B78DBB243F00103DBB2137000BF0837BD4680BD0C4F00400E4F0040174F0040A34300400D4F004080B400AF0D4A0D4B1B78DBB243F00203DBB213706F
:402B80000A4A0A4B1B78DBB243F00203DBB21370074A074B1B78DBB243F00103DBB2137000BFBD4680BC7047A3430040B34300400C4F004080B483B000AF0346FB71044B34
:402BC000FA7992B21A8000BF0C37BD4680BC7047104F004080B483B000AF0346FB71044BFA7992B21A8000BF0C37BD4680BC7047124F004080B483B000AF0346FB71044AD0
:402C0000FB79137000BF0C37BD4680BC704700BF0F4F004080B400AF00BFBD4680BC704780B582B000AF0F2000F06AF800F05AF800F066F90346FB71074A074B1B78DBB210
:402C400043F01003DBB21370FB79184600F05CF900BF0837BD4680BD9064004080B500AF00F0AEF84FF4004000F0D8F8064B1B78002B04D1FFF7CEFF034B01221A70FFF720
:402C8000CFFF00BF80BD00BFEB81FF1F80B582B000AF00F0D3F80346FB80FB88A3F500439BB2BB80B7F9043018460837BD4680BD80B584B000AF0346FB80B7F90630002BD8
:402CC00004DBFB88A3F50043FB8103E0FB88A3F50043FB81FB89184600F0A0F800BF1037BD4680BD80B400AF044B1B78DBB203F00F03DBB21846BD4680BC70476064004072
:402D000080B483B000AF0346FB71044AFB79137000BF0C37BD4680BC704700BF8064004080B582B000AF1C4B1B78DBB223F00703FB71194AFB791370174B1B78DBB223F093
:402D40000303FB71144AFB79137000F0B3F84FF4004000F08FF84FF4004000F05FF8002000F040F800F04EF84FF4004000F092F800F0C6F80346BB71084A084B1B78DBB2CA
:402D800043F01003DBB21370BB79184600F0BCF800BF0837BD4680BD726400409464004080B400AF054A054B1B78DBB263F07F03DBB2137000BFBD4680BC704772640040A9
:402DC00080B500AF064B1B78002B04D1FFF7A8FF034B01221A70FFF7E3FF00BF80BD00BFEC81FF1F80B483B000AF0346FB71044AFB79137000BF0C37BD4680BC704700BF8E
:402E00008464004080B400AF034B1B78DBB21846BD4680BC704700BF6464004080B483B000AF0346FB80044AFB88138000BF0C37BD4680BC704700BF0C68004080B400AF72
:402E4000044B1B78044B1B889BB21846BD4680BC704700BF066400408C68004080B400AF034B1B889BB21846BD4680BC704700BF8C68004080B483B000AF0346FB80044AB0
:402E8000FB88138000BF0C37BD4680BC704700BF4C68004080B483B000AF0346FB80044AFB88138000BF0C37BD4680BC704700BF6C68004080B500AF01E0FFF7CFFFFFF7C9
:402EC000A1FF034603F04003002BF6D100BF80BD80B483B000AF0346FB71044AFB79137000BF0C37BD4680BC704700BF7C6400400230800803D000BF01380046FCD170478F
:402F0000EFF3108072B6704780F31088704700BF80B582B000AF0023BB711B4B1B78DBB203F00303012B02D0022B04D012E0164B1B79FB7111E0144B1B79DBB203F07F02A4
:402F4000124913465B0013449B000B440A331B78FB7102E00023FB7100BFFB79022B0ED80B4B1A68FB7913441B78022B04D1FDF75FFF0346BB7102E00023BB7100BFBB79EB
:402F800018460837BD4680BD006000401883FF1F0C83FF1F014B1868704700BFA481FF1F0E4B70B51E460E4C0025E41AA410A54204D056F8253098470135F8E700F094F9C7
:402FC000084B094C1E46E41AA4100025A54204D056F8253098470135F8E770BDF4320000F4320000F4320000FC320000931E222B10B50C4602D90020087010BD0A2A06D16F
:40300000002804DA2D230B704042012100E00021214400F01FF8204610BDFFF7E7BF10B5431E0A44914204D011F8014B03F8014FF8E710BD03460244934202D003F8011B2B
:40304000FAE77047034613F8012B002AFBD1181A01387047F0B58BB003460F466D461A4C04F1200E2E4620686168083403C674453546F7D1217920683171911E2229306052
:403080004FF0000001D938701CE07D1EB3FBF2F402FB14330AAE334413F8283C411C05F8013F23460CB10846F0E77C543A18C11A8B4206DAF95C1478FC5402F8011901333A
:4030C000F5E738460BB0F0BDC2320000000000003A0000000D0A0000004F0040180040510040300000000140001000140140000800400140000A004C0140000210500140B8
:403100001000000000500140C80F00481000000030313233343536373839414243444546000000001201000202000008B40432F2010001028001000009024300020101C08B
:4031400032090400000102020103052400100104240202052406000105240100010705810308000A09040100020A0000040705820240000007050302400000000403090451
:403180002C0343007900700072006500730073002000530065006D00690063006F006E0064007500630074006F0072001003550053004200550041005200540038034300C1
:4031C00044004300200043006F006D006D0075006E00690063006100740069006F006E00200049006E007400650072006600610063006500260343004400430020004400CA
:40320000610074006100200049006E00740065007200660061006300650000000203000000008103080002000100820240000A000100030240000A00020A000001000000E8
:4032400038310000030000002032000000000000000000000000000000000000000000003832000001000000243100000000000000000000010000003C3200000100000060
:403280006432000012034D005300460054003100300030000100000028000000000104000100000000000000000143595553420000003030303031000000000000000000F1
:4032C0004300303132333435363738396162636465666768696A6B6C6D6E6F707172737475767778797A0000F8B500BFF8BC08BC9E4670474D00000051070000F8B500BFCF
:40330000F8BC08BC9E4670472900000020330000C880FF1FE00000000802000000000000000000000A000000435333303120323031360A0000000000000000000000000087
:403340000000000000000000000000000000000000000000000000000000000000000000000000000000000000C2010000000800C201000000080000A120000000000200F4
:4033800000000000807F0000030000000087930360EA00003C000000000030750000000000000000000000000000000000000000000000000000000000000000C0320000D1
:4033C0000000000000000000000000000000000000000000000000000000000000000000000000000000000000000000000000000000000000000000000000004481FF1FEA
:40340000000000000000000000000000000000000000000000000000000000000000000000000000000000000000000000000000000000000000000000000000000000008C
:40344000000000000000000000000000000000000000000000000000000000000000000000000000000000000000000000000000000000000000000000000000000000004C
:40348000000000000000000000000000000000000000000000000000000000000000000000000000000000000000000000000000000000000000000000000000000000000C
:4034C00000000000000000000000000000000000000000000000000000000000000000000000000000000000000000000000000000000000000000000000000000000000CC
:020000040003F7
:0200000480007A
:4000000001450040044F00400B520040015B004005640040046500403C00014033010140450201404903014042040140490501405D0601404E070140620801405909014077
:40004000670A0140540B0140420C0140520D01403A0E0140320F01404214014041150140661601403D1701404218014049190140271A0140481B01400C40014018410140E9
:4000800013420140184301400E450140094601400E4701400C4801400D490140104C0140084D014003500140035101407E0201200A270D201627004001C0089009341008A2
:4000C0001108182819286004611C7C402F84800F846F880D8A0F8F72846F870F88388A07080118011C01220124012A012C013601540F580459045B045C115F018302841014
:400100008620882089208A1F8B048C0C8E028F01912C9310940C9601973C980899309A019B089C109D309E209F04A00BA204A640A740A810AAA0AC07AD1CB040B140B2308E
:40014000B302B480B53CB60FB701BA08D608D804D904DB04DD90DF0103080414054008900B080C800E28114512081401162017111B401C541D401E022610275228802C011F
:400180002D082F023010320835403614370139553C503F0158045AA05B015F50662067018080850486088B04C0E2C2E3C4FFCA51CCF6CEBFD63FD830E008E204E4020110C3
:4001C000028003200440050C0620070208030A0C0B0F0C200D280E400F111020111012401320140F17C0180C19801A031C051D071E0A2020210C2250230125102720280707
:40020000290B2B042C0A2E052F8030103180320F330F34603540368037303A203B803F015280580459045B045F0188019A019E01A201A401A801AC01B601D608D804D9045B
:40024000DB04DC11DD90DF010110030804440522074008900D880E400F04114512081408160217021A021C041D081E491F0425C5262028802C402D082E822F043010320887
:40028000350236A03704380839553C203D883E013F04598063017680810888048A018B0290509101955496A0975098909B429C049D089F01A211A340A60CA70AAC80B101EC
:4002C000B404C0F2C2F3C4DFCAF1CCF6CEFFD608D808E010E208E606EE06030204080C020E0818011D081F04210D2204240226012B0C2F0130083101320233023401350897
:400300003604370438083E113F51540F580459045B045F05800683018820891A8A108B608E4090039162931894069528975299529B289C109D7A9E20A005A410A628A70430
:40034000A810AA20AD38B007B230B301B440B506B608B778B802BA08D804D904DF0100A401200201052206010A080E61102012401508171119011A041B441C241E411F0283
:4003800021052250268027152A402B442F223340350236953B013C103E0140804101588059015A045B20612062047B0287488C048D429010910593099408954096A098109D
:4003C0009C489DA09F05A145A215A410A608A70AAC08AE80AF50B740C0D5C2B2C47CCA5DCCF8CEA1D60FD806DE08E440E603EE40007F0304080E0AF00CFE0D100E01110745
:4004000014C51504163A189619011A681B021CA31E5C1F0723082510260129012B022D17310F331034FF39083A023E103F044042410149FF4AFF4BFF4DA04F01501858042E
:4004400059045A045C035F016040628064406540668068406A806C406D206E8084018C01900194019A01A201A801B201C023C101C523C6C4C70EC81FC9FFCAFFCBFFCDAF1C
:40048000CE07CF01D018D608D804D904DA04DB04DC11DD90DF01E040E280E440E540E680E840EA80EC40ED20EE800144041005100680070108110B600C080E2B10041101C4
:4004C00017041B041D021F20250827602C082D082E802F423015320835103604374139453B203C803E014108420843404501476048604908512052445940630283048710BF
:400500008B01901091459348960898109B059C489D809E449F40A010A145A215A302A460A522A608A720AC40AF20C0D5C2EEC42ACAF0CCF7CE9FD0BED608D808E221E420D9
:40054000E682EA01EE4303020D0810011110140417011901250429082A033002310832013303340435103704388039023E503F514056410446EB470C481C49FF4AFF4BFF9F
:400580004EF04F44500C5401580C59045A045B045C915D435F0166C06A406B02801081D1824083068409852086D087438A038B0C8C0C8E7194DC958C962297139C109EACEE
:4005C000A014A1D1A30EAA20AF08B0E0B30FB41FB530B7C0B9A0BA02BB08BF40C042C9FFCAFFCBFFCF01D018D280D804D904DA04DB04DC33DD44DF01E040E240E440E540D3
:40060000E680E880EA80EC80EE80000801200240030209080A020D800E420F201088172019211B221E741F4020082158244026282722284029012A402C042D102F2031084B
:4006400036183701380A39223C803E02428844404C0D4E0154A0560457105D045E805F0172807D808210874088808A028B418F02911692089303940895299604974099108D
:400680009A089C199D019E84A040A1C0A242A308A508A6A0AA20AE01B040B410C00FC235C44ACA69CCE2CE97D085D230D6D0DE10E080E220E420E680EA01EE40011302042F
:4006C000030C07150B081008150A17142113220123042503260227143001310F32023404360837103B023E403F40404249FF4AFF4BFF4D834E034F01501854015604580474
:4007000059045A045B045C315D345F016040624064406540668068806A806C806E80801082048302860287018C148E28943D970298209A089E02A00CA230A83DAC01AF01DF
:40074000B002B301B401B502B63CB701BE01BF50C042C5ECC702C813C9FFCAFFCBFFCD83CE03CF01D018D203D302D804D904DA04DB04DC43DD14DF01E040E240E440E54009
:40078000E680E880EA80EC80EE80004001010202066007010A400E020F2410101280144015401710184019201A0A1B081D201F412101224024202650282029012A042C40A5
:4007C0002E802F40310835103618380839A23B403D023E08428846884D044F01560858215A8460806D90808085208C608E408F089140930494409588960897809A609B1180
:400800009C089D20A181A209A310A420A520AF20B020B140B340B490B520C0B8C2E8C4DCCA13CC42CEC7D0A5D60FD801E250E450E8020341078209030B08114113821510F5
:400840001B101F2C23C325102B102D032F0431E03310370F39083B803F01403241014204440546C047E0482849FF4AFF4BFF4C624DA04EF04F41500C5608580459045A047E
:400880005B045C315D935F016640670269106A306B106D106E106F1287018D01910195019F01AB01AD01B301D608D804D904DB04DC11DD90DF0101040440052007020809BF
:4008C0000A0B0C010D410E0112011302140A150C16012320264A274028092C202E402F4831403205351036403705384039083D103F254440456047044E02550156205A800C
:400900005C105F40628066C067056F0178407A01824083308E40915294409508960A9704980299509B149C089E809F41A180A201A328A4A0A680AE01B104B601C0C4C29FF6
:40094000C4E9CAFCCCFBCEEAD0F0D210D638D838E030E208E602EC40EE8402020E0132013402580459045C105F018004810484CF86308710887C89068A828C208F08910820
:40098000920C9310943C950296C1980899469B219D219EC3A004A208A321A410A567A830A947AB20ACFFAD61AF06B118B2B0B340B43FB507B670B720BA28BB20BF04D602E9
:4009C000D712D804D904DB04DC33DD30DF0102810408051006820C800D020E200F041580172918201B201D101E221F08240825A226042704280A29C02CA02E402F0832058B
:400A0000351037493840390A3EA23F045E086D506F10762277288010858188088C208D608E40C0F9C2F0C4F0CAFCCCF3CEFBD640E2800001055B070409080B0115371C04D3
:400A40001D6C1F022203256C27012A042F0F3004337034013602370F39083E11540F580459045B045F058210844085A38604875C890E8A088BF08D968E308F689207957F75
:400A8000968098109C419DC59E029F3AA004A240A301A441A602A847A9FEAB01AC07B00FB210B420B5FFB6C0BE04BF10D280D804D904DB04DF0103800404054007480A0110
:400AC0000D020E280F0110881320151016A219011A041B801D4A1E081F402288230126102A882D102F443288350836883A203B083C243D883EA859015A445B20610462102D
:400B00006B0577407A088108820287018F049241930899049A109B08A098A144A50AA688AD80B004C0F8C2F1C4FACAAACC5ACE76D60FD806DE04E608020F030F05CF0730E9
:400B4000089409940A600B600CFD0D300E020FC9149E1573166018301AC91CCF1D9E1E301F60207329FD2B0235FF36FF3E403F104036410449FF4AFF4BFF4DA04F01501894
:400B8000580459045A045F016040628064406540668068406A806C406D206E80820888018F01910C9B029C08A003A108A304A803AA04AB0CB008B101B202B302B401B5088B
:400BC000B604B704B828BE11BF50C032C104C53EC6C4C702C81FC9FFCAFFCBFFCDAFCE07CF01D018D40FD804D904DA04DB04DF01E040E280E440E540E680E840EA80EC4042
:400C0000ED20EE800248041007410A020E2A108816801A451B141F402255270828802B042D102F0430203201344836883A403C203D8A410A42044480450B488049044F20C4
:400C400050085250580859025AA0851290109308960897809A809B419C4C9D80A030A144A215B140B501B608C0DAC2E1C41ACA25CC55CEF8D0C7D220D60FE008E8800001C2
:400C80000E0112011601260128012C01300154185604580459045B045C115D305F018004830484088A018B088C108D028E2091089208944096809A049B019C029F02A080D1
:400CC000A240A401A710A820A901AA10AD04AE02B2FFB31FB908BE04BF04C001C604C9FFCA07CBFFCC40CD20CEF0CF05D008D804D904DA04DC10DD03DF01E040E1A8E24001
:400D0000E32001850210030805800740080909880A480B600D080E40101811401202130A155819081C8021042208284029082B092F1830113188328034403580360A3949B1
:400D40003A103D103E404140500452405E02648065106702844089108A048B018E108FC89040918092189302940895099740980499109C989E40A140A203A308A680B021B9
:400D8000C09FC23FC4EFCA6FCCDFCE3FD008D680D8B0E00A070309030D03130415032303260129032A022D022F01300131023304350136025602573E580459045B0C5C11B3
:400DC0005D105F0180018C0190019401A601A801AC01B401D401D804D904DB0CDC11DD10DF010180020803400580074009080A480D080E4010081144155819811A401F20A4
:400E0000200421082201232029812B082D402F083002310835803608372039583D103E4058045F806040680A69056B027180730878807C807D80800486018720904091587D
:400E400092089505964098049BC09D809F0AA140A208A308A408A588B180C09BC23EC4E7CA3DCC73CE3ED612D801DE18E004E412EE80104016803020330434023680390181
:400E80003B203E80C430CCF0CE700008062032423580620863026510840285018D209501972098409C029F04A420AA80C030CC70D640D8C0E210E640EE20522054408240BB
:400EC0008D019680972098409DB09F04A420A701AC04AE20B420B60AD460E680E810EC4019011C80730877088020811088408B189202972098409D31A460A701AA20AB0431
:400F0000AE01B580C630DC60E280E620EA80EEC00120090121085C10848086018A209620AA10C002C208C802D604E004941096219C80A108A222AE02B120B501EA0C088009
:400F40000A200D028C10941096219C80A222A502A902B108C20EE008EE040120064020208410920299019D20A701B040C060C840E0105A025F806501878192029901A70157
:400F8000AE40D660D880E240E610E8101E01360852025B085F0462206608860887049601A222C601CC01D401D603D8037980830886088D409E089F08DC01E408100B1A0182
:400FC0001C0A00AB01FF100A1B0100000000000003010B011A010B010300000000E0E000001C1C001C0000004000060000000000C0000000000B0B0000F4F4000800140A72
:401000000A00080000000000007B7B00380000000001000000000000000000000000000000000000000000000000000000000000000000000000000000000000000000006F
:401040000000000000000000000000000000000000000000000000000000000000000000000000000000000000000000000000000000000000000000000000000000000070
:401080000000000000000000000000000000000000000000000000000000000000000000000000000000000000000000000000000000000000000000000000000000000030
:4010C00000000000000000000000000000000000000000000000000000000000000000000000000000000000000000000000000000000000000000000000000000000000F0
:4011000000000000000000000000000000000000000000000000000000000000000000000000000000000000000000000000000000000000000000000000000000000000AF
:0200000490006A
:0400000000004005B7
:0200000490105A
:04000000BC90ACAF55
:0200000490303A
:02000000E68395
:0200000490402A
:4000000000000000000000000000000000000000000000000000000000000000000000000000000000000000000000000000000000000000000000000000000000000000C0
:400040000000000000000000000000000000000000000000000000000000000000000000000000000000000000000000000000000000000000000000000000000000000080
:400080000000000000000000000000000000000000000000000000000000000000000000000000000000000000000000000000000000000000000000000000000000000040
:4000C0000000000000000000000000000000000000000000000000000000000000000000000000000000000000000000000000000000000000000000000000000000000000
:0200000490501A
:0C00000000012E16106900012E2DF6ECF8
:00000001FF