:400000000080002011000000E11C0000E11C000080B500AF024A034B1B68136001F06AFEBC760040FA46004010B5054C237833B9044B13B10448AFF300800123237010BDB4
:40004000A882FF1F00000000C85C0000084B10B51BB108490848AFF300800848036803B910BD074B002BFBD0BDE81040184700BF00000000AC82FF1FC85C0000C880FF1FF8
:400080000000000080B400AF034B01221A6000BFBD4680BC704700BFE482FF1F00000000B0B5C2B000AF62B60121002001F0B8FE04F0D2F904F0B6FA012004F011FD04F079
:4000C000BFFE04F0D5FEB54804F01AFD00F0C6FB00F0E2FB0023C7F8043123E0B04AD7F80431372102F81310AD4AD7F804315B00134437225A70AB4AD7F804311344002227
:400100001A70A94AD7F80431134400221A70A64AD7F80431134437221A70D7F804310133C7F80431D7F80431B3F5FA7FD6DB9C4A9D499C4800F01EFC9C4B1B68012BFBD1EF
:4001400005F054F89A4B1C68002004F097FE03461A46984B43F82420954B1C68012004F08DFE03461A46944B43F82420904B1C68022004F083FE03461A46904B43F824201D
:400180008B4B1C68032004F079FE03461A468C4B43F82420864B1C68042004F06FFE03461A46884B43F82420814B1C68052004F065FE03461A46844B43F824207C4B1B6876
:4001C00001337B4A13607A4B1B68B3F57A7F40F02883774B00221A607C4B1B6801337B4A13600023C7F800310023C7F8FC300023C7F8F8300023C7F8F4300023C7F8F03088
:400200000023C7F8EC300023C7F8E83094E0704B00221A606D4B1B68012B34D104F038F903465B426B4A136004F018FA03465B42694A1360694B1A68664B1B681A44664BD1
:400240001B681344654A1360624B1A68644B1B68D31A07F1C0010A22184605F0E4FC5E4B1A68604B1B68D31A07F1A8010A22184605F0D9FC002004F02FF9002004F012FA85
:40028000524B00221A604B4AD7F8E83052F8233040F6B832934204DDD7F800310133C7F80031454AD7F8E83052F8233040F6B832934204DDD7F8FC300133C7F8FC303F4A66
:4002C000D7F8E83052F8233040F6B832934204DDD7F8F8300133C7F8F830394AD7F8E83052F8233040F6B832934204DDD7F8F4300133C7F8F430334AD7F8E83052F82330AA
:4003000040F6B832934204DDD7F8F0300133C7F8F0302D4AD7F8E83052F8233040F6B832934204DDD7F8EC300133C7F8EC30D7F8E8300133C7F8E830D7F8E830B3F57A7FA0
:40034000FFF665AF284B1B68002B40F0AB804FF0FF33C7F8E0300023C7F8E43010E0114AD7F8E43013441B78002B04D0D7F8E430C7F8E03009E0D7F8E4300133C7F8E43026
:40038000D7F8E430B3F5FA7FE9DBD7F8E030B3F1FF3F6FD00023C7F8E43046E0850000004CD6FF1F74A5FF1F40A3FF1FE482FF1FE882FF1F5893FF1F0CB7FF1FACC6FF1FD6
:4003C0006CA7FF1F9083FF1F34DAFF1FEC82FF1FFC82FF1F5493FF1F68A7FF1FF482FF1FFCA2FF1FF8A2FF1FDC82FF1FD7F8E420D7F8E03013449B4AD15C9A4AD7F8E430AF
:4004000013440A461A70D7F8E420D7F8E0301344954AD15C944AD7F8E43013440A461A70D7F8E4300133C7F8E430D7F8E030C3F5FA72D7F8E4309A42D8DCD7F8E030C3F58D
:40044000FA73C7F8E43010E0864AD7F8E430134400221A70844AD7F8E430134400221A70D7F8E4300133C7F8E430D7F8E430B3F5FA7FE9DB0023C7F8DC3004E0D7F8DC3083
:400480000133C7F8DC30D7F8DC30B3F5FA7FF5DB764B01221A60764B01221A60754B00221A60BEE1714B01221A60734B1B686D4AD35C87F8DB3097F8DB30002B06D10020F4
:4004C00004F0C2FB002004F0DDFB95E097F8DB30012B1CD1664B1B68002B18D1012004F0B3FB002004F0CEFB614B1B68002B40F08380D7F8EC30952B06DC5D4B01221A60F0
:400500005E4B00221A6077E000F000FA74E097F8DB30022B06D1012004F096FB012004F0B1FB69E097F8DB30032B1BD1504B1B68002B17D1002004F087FB012004F0A2FB66
:400540004B4B1B68002B57D1D7F80031952B06DC474B01221A60494B00221A604CE000F0EFF949E097F8DB30042B06D1002004F06BFB002004F086FB3EE097F8DB30052B4A
:400580001AD1012004F060FB002004F07BFB384B1B68002B30D1D7F8EC30952B09DC344B01221A60354B00221A60324B01221A6022E000F0ABF91FE097F8DB30062B06D10B
:4005C000012004F041FB012004F05CFB14E097F8DB30072B06D1002004F036FB012004F051FB09E097F8DB30082B05D1002004F02BFB002004F046FB1D4B1B68012B4AD1B4
:40060000D7F8F830952B09DCD7F8FC30952B05DC00F04CF91A4B00221A603CE0D7F8F830952B09DCD7F8F030952B05DC00F056F9134B02221A602EE0D7F8F830952B07DC21
:400640000F4B01221A600021002000F015F922E0D7F8F030952B15DC00F040F9084B02221A6018E074A5FF1F40A3FF1FDC82FF1F5093FF1FF882FF1FE082FF1FF482FF1F2F
:400680000483FF1FD7F8FC30952B04DC00F00EF96B4B00221A60002004F080FA002004F09BFA002004F0B2FA664B1B68664AD35C184604F04DFF5EA3D3E9002304F0AEFF88
:4006C00003460C461846214605F042FA07F148030A22194605F0A7FA5C4B1B6807F160010A22184605F09FFA584B1B68184604F02FFF51A3D3E9002304F090FF03460C46D3
:40070000184621464FF00002514B05F0B1F803460C46184621464FF000024FF0804305F0A7F803460C461846214605F011FA07F130030A22194605F076FA424B1B68424A2B
:40074000D35C184607F178030A22194605F06BFA3C4B1B6839460A22184605F064FA394B1B68394AD35C184604F0F2FE30A3D3E9002304F053FF03460C4625461C46334B55
:400780001B68184604F0E4FE2BA3D3E9002304F045FF02460B46104619464FF000022C4B05F066F802460B46104619464FF000024FF0804305F05CF802460B4620462946FC
:4007C00005F0A8F90346002B1DD0224B1B68012B03D097F8DB30022B15D1D7F8EC30952B03DDD7F80031952B0DDC012004F00EFA144B1B680133134A1360164B00221A6032
:40080000124B00221A60D7F80031952B02DC012004F0C4F9D7F8EC30952B02DC012004F0DBF90D4B00221A6004F0D4FC84E400BFC0266BD443442240EC51B81E856B344079
:400840000483FF1FE082FF1F40A3FF1FF482FF1F00804C405093FF1FE482FF1F80B500AFFA2003F0CDFCFA2003F08EFD03F034FC03F0F6FC00BF80BD80B582B000AF7860E9
:400880003960A52003F0CCFCA52003F08DFD00BF0837BD4680BD00BF80B500AF7D2003F0BFFC7D2003F080FD00BF80BD80B500AF084B1B68DBB2023BDBB2184603F0B0FC9A
:4008C000054B1B68DBB20233DBB2184603F06CFD00BF80BDCC80FF1FD080FF1F80B500AF084B1B68DBB20233DBB2184603F098FC054B1B68DBB2023BDBB2184603F054FD8E
:4009000000BF80BDCC80FF1FD080FF1F80B500AF094B1B68DBB2C3F10103DBB2184603F07FFC064B1B68DBB2073BDBB2184603F03BFD00BF80BD00BFCC80FF1FD080FF1F3E
:4009400080B500AF094B1B68DBB2073BDBB2184603F066FC064B1B68DBB2C3F10103DBB2184603F021FD00BF80BD00BFCC80FF1FD080FF1F80B586B000AFF860B9607A60A0
:4009800004237B6129E07B69002B0AD1194B1B781A46194B1A60174B5B781A46164B5A6010E07B69013B154A12F813301A46124B1A607B69013B114A5B0013445B781A4609
:4009C0000D4B5A607B695B000C4A13441946786800F016F87B69013B7B617B69002BD2DA7A68B968F86800F0CFFB00BF1837BD4680BD00BFF481FF1F0482FF1FF881FF1F0D
:400A000080B5ADF59A5D84B000AF07F110030C3B186007F11003103B1960002307F59A5202F10C021360002307F59A5202F108021360002307F59A5202F1040213600023D8
:400A400007F59A52136043E0002307F5995202F11C0213602EE0924907F59A531A681346DB0013445B001344CA1807F5995303F11C031B681344187807F5116107F59A533B
:400A80001A681346DB0013445B001344CA1807F5995303F11C031B68134402461A7007F5995303F11C031B68013307F5995202F11C02136007F5995303F11C031B68122B16
:400AC000C9DD07F59A531B68013307F59A52136007F59A531B680E2BB6DD07F29C43184640F274431A46002105F0AAF807F13003083B184640F274431A46002105F0A0F823
:400B0000684B196807F5236307F59A5202F10402126843F83210634B5A6807F5236107F59A5303F104031B68DB000B445A6007F59A5303F104031B68013307F59A5202F176
:400B400004021360002307F5995202F104021360002307F5995202F118021360002307F5995202F11402136018E207F5236307F59A5202F10802126853F8323007F5995207
:400B800002F11802136007F5236207F59A5303F108031B68DB0013445B6807F5995202F11402136007F59A5303F108031B68013307F59A5202F10802136007F5116107F510
:400BC000995303F118031A681346DB0013445B001344CA1807F5995303F114031B68134401221A7007F59A5303F10C031B68013307F59A5202F10C02136007F5995303F104
:400C000018031B685A1C07F11003083B1A6007F11003083B07F5995202F1140212685A6007F5995303F118031B685A1E07F11003083B9A6007F11003083B07F5995202F104
:400C400014021268DA6007F11003083B07F5995202F1180212681A6107F5995303F114031B685A1C07F11003083B5A6107F11003083B07F5995202F1180212689A6107F5CB
:400C8000995303F114031B685A1E07F11003083BDA61002307F5995202F11002136053E1D480FF1F0482FF1F07F11003083B07F5995202F11002126853F8323007F59952A5
:400CC000136007F11002083A07F5995303F110031B68DB0013445B6807F5985202F11C02136007F599531B68002B40F3228107F599531B680F2B00F31C8107F5985303F1E8
:400D00001C031B68002B40F3148107F5985303F11C031B68132B00F30C81C64907F599531A681346DB0013445B001344CA1807F5985303F11C031B6813441B78012B00F0C8
:400D4000F88007F5116107F599531A681346DB0013445B001344CA1807F5985303F11C031B6813441B78012B00F0E38007F5236307F59A5202F10402126807F599510968EA
:400D800043F8321007F5236207F59A5303F104031B68DB00134407F5985202F11C0212685A6007F59A5303F104031B68013307F59A5202F10402136007F5116107F599532C
:400DC0001A681346DB0013445B001344CA1807F5985303F11C031B68134431221A7007F29C4107F5995303F118031A681346DB0013445B00134407F5995202F114021268AB
:400E0000134451F82330581C07F29C4107F599531A681346DB0013445B00134407F5985202F11C021268134441F8230007F599531B685A1C07F5995303F118031B689A4273
:400E400014D107F13002083A07F5995319680B46DB000B445B000B4407F5985101F11C0109680B44012142F8231062E007F5985303F11C031B685A1C07F5995303F1140328
:400E80001B689A4214D107F13002083A07F5995319680B46DB000B445B000B4407F5985101F11C0109680B44022142F8231040E007F599531B685A1E07F5995303F11803B6
:400EC0001B689A4214D107F13002083A07F5995319680B46DB000B445B000B4407F5985101F11C0109680B44032142F8231020E007F5985303F11C031B685A1E07F5995392
:400F000003F114031B689A4213D107F13002083A07F5995319680B46DB000B445B000B4407F5985101F11C0109680B44042142F8231007F5995303F110031B68013307F581
:400F4000995202F11002136007F5995303F110031B68032B7FF7A8AE07F11003103B1B681B781A4607F5995303F118031B689A4214D107F11003103B1B6801331B781A469B
:400F800007F5995303F114031B689A4206D1012307F5995202F10402136013E007F59A5303F108031A6807F59A5303F104031B689A4207DA07F5995303F104031B68002B7F
:400FC0003FF4D3AD07F5995303F118031B6807F5995202F10C02136007F5995303F114031B6807F5995202F108021360124B1B685A0007F110030C3B1B68134407F599524F
:4010000002F118021268D2B21A700B4B1B685A0007F110030C3B1B68134407F5995202F114021268D2B25A70034B1B680133024A13608BE0D480FF1F1083FF1F07F1300288
:40104000083A07F5995303F10C0319680B46DB000B445B000B4407F5995101F1080109680B4452F8233007F5985202F11802136007F5985303F118031B68012B0BD107F57C
:40108000995303F10C031B68013307F5995202F10C02136037E007F5985303F118031B68022B0BD107F5995303F108031B68013307F5995202F10802136024E007F59853B6
:4010C00003F118031B68032B0BD107F5995303F10C031B68013B07F5995202F10C02136011E007F5985303F118031B68042B0AD107F5995303F108031B68013B07F599524E
:4011000002F1080213601E4B1B685A0007F110030C3B1B68134407F5995202F10C021268D2B21A70164B1B685A0007F110030C3B1B68134407F5995202F108021268D2B211
:401140005A700F4B1B6801330D4A13600D4B1A6807F5995303F10C031B689A427FF46EAF084B5A6807F5995303F108031B689A427FF464AF00BF07F59A571037BD4680BD02
:401180001083FF1F0482FF1F80B4ADF2244D00AF07F10C03186007F1080319603B1D1A600023C7F81C3440F2F313C7F8183425E0D7F818345B003A1D12681344197807F179
:4011C0001403D7F81C2403F81210D7F818345B003A1D12681344597807F11402D7F81C345B0013440A465A70D7F81C340133C7F81C34D7F81834013BC7F81834D7F8183465
:40120000002BD5DA0023C7F814341FE0D7F814345B003A1D1268134407F11402D7F8141412F811201A70D7F814345B003A1D12681A4407F11401D7F814345B000B445B7805
:401240005370D7F814340133C7F81434D7F81434B3F5FA7FDADB0023C7F81034DCE2D7F810345B003A1D126813441B7887F8FF33D7F810345B003A1D126813445B7887F8C6
:40128000FE33D7F8103401335B003A1D126813441B7887F80F34D7F8103401335B003A1D126813445B7887F80E34372387F80D3497F8FF2397F80F349A4205D197F8FE2381
:4012C00097F80E349A4207D097F80F34372B07D197F80E34372B03D1002387F80D342AE097F8FF335A1E97F80F349A4203D1012387F80D341FE097F8FF335A1C97F80F34C3
:401300009A4203D1022387F80D3414E097F8FE335A1C97F80E349A4203D1032387F80D3409E097F8FE335A1E97F80E349A4202D1042387F80D34D7F81034002B03D197F85E
:401340000D34C14A13600023C7F808340023C7F804340023C7F80034D7E0D7F800340133C7F8003497F8FF33372B05D1D7F810340133C7F81034CDE097F80D34032B03D0BE
:4013800097F80D34042B23D197F80F345A1C97F80E14AE481346DB0013445B00134403440B441B78002B0FD097F80F345A1E97F80E14A6481346DB0013445B00134403446E
:4013C0000B441B78002B27D10123C7F8083423E097F80F2497F80E34591C9C481346DB0013445B00134403440B441B78002B0FD097F80F2497F80E34591E94481346DB0050
:4014000013445B00134403440B441B78002B04D10123C7F8083400E000BF97F80D34012B12D1D7F810345B003A1D126813441B785A1E97F80F349A424AD00123C7F8043459
:401440000123C7F8083443E097F80D34022B12D1D7F810345B003A1D126813441B785A1C97F80F349A4233D00123C7F804340123C7F808342CE097F80D34032B12D1D7F804
:4014800010345B003A1D126813445B785A1C97F80E349A421CD00123C7F804340123C7F8083415E097F80D34042B11D1D7F810345B003A1D126813445B785A1E97F80E34C1
:4014C0009A4205D00123C7F804340123C7F80834D7F80834002B18D1D7F810340133C7F81034D7F8103401335B003A1D126813441B7887F80F34D7F8103401335B003A1D80
:40150000126813445B7887F80E34D7F80834002B3FF423AF97F80D34012B38D14A4B1B68012B09D14A4B1B681A4607F10C031B68134402221A70EEE0434B1B68022B09D1FB
:40154000434B1B681A4607F10C031B68134404221A70E0E03C4B1B68032B09D13C4B1B681A4607F10C031B68134401221A70D2E0354B1B68042B40F0CE80354B1B681A46DA
:4015800007F10C031B68134403221A70C3E097F80D34022B38D12C4B1B68012B09D12C4B1B681A4607F10C031B68134404221A70B1E0254B1B68022B09D1254B1B681A4629
:4015C00007F10C031B68134402221A70A3E01E4B1B68032B09D11E4B1B681A4607F10C031B68134403221A7095E0174B1B68042B40F09180164B1B681A4607F10C031B6871
:40160000134401221A7086E097F80D34032B3DD10D4B1B68012B09D10D4B1B681A4607F10C031B68134403221A7074E0064B1B68022B0FD1064B1B681A4607F10C031B6895
:40164000134401221A7066E01483FF1FD480FF1F0883FF1F764B1B68032B09D1754B1B681A4607F10C031B68134402221A7052E06F4B1B68042B4ED16E4B1B681A4607F181
:401680000C031B68134404221A7044E097F80D34042B37D1664B1B68012B09D1654B1B681A4607F10C031B68134401221A7032E05F4B1B68022B09D15E4B1B681A4607F141
:4016C0000C031B68134403221A7024E0584B1B68032B09D1574B1B681A4607F10C031B68134404221A7016E0514B1B68042B12D1504B1B681A4607F10C031B681344022260
:401700001A7008E04B4B1B681A4607F10C031B68134400221A70D7F80434012B11D1454B1B681A4607F10C031B681344414A1268114607F10C0212680A4412780432D2B25A
:401740001A703C4B1B681A4607F10C031B6813441B78052B09D0374B1B681A4607F10C031B6813441B78072B0DD1324B1B681A4607F108031B681344D7F80024D2B2013A20
:40178000D2B21A700AE02B4B1B681A4607F108031B681344D7F80024D2B21A7097F80D34002B03D097F80D34214A1360214B1B681A4607F10C031B6813441B78002B21D09F
:4017C0001D4B1B68002B1DD11A4B1B68013B07F10C021268134402221A70164B1B68013B07F1080212681344124A1268013A07F1080109680A4412780132D2B21A700E4B54
:4018000001221A600B4B1B6801330A4A1360D7F810340133C7F81034D7F81034B3F5F97F7FF71DAD00BF07F22447BD4680BC70471483FF1F0883FF1F1883FF1F80B582B0E3
:4018400000AF786039603A680021786804F0F8F900BF0837BD4680BD80B584B000AFF860B9607A607A68B968F86804F0DEF900BF1037BD4680BD00BF80B483B000AF03468D
:40188000FB71FEE780B487B000AF7860396000233B6100237B6127E07B699B007A6813441B68BB60BB68FB73BB6823F0FF03BB6014E03B695B003A6813441B781A46BB684B
:4018C000134419463B695B003A6813445B780B703B6901333B61FB7B013BFB73FB7B002BE7D17B6901337B617B692B2BD4D900BF1C37BD4680BC704780B582B000AF3C4B7F
:4019000004221A803B4B18221A703B4B3B221A803A4B1C221A703A4B3B221A80394B18221A70394B3B221A80384B18221A70384B81221A80374B18221A70374B06221A7013
:40194000364B52221A70364B364A1278D2B21A70354B40F619121A80344B41F251221A800023FB7019237B6014E0FB785B00DAB22F4B1B78DBB203F00103DBB21343DBB221
:4019800003F00303FB704FF4F07003F03DFC7B68013B7B607B68002B02D0FB78032BE4D17B68002B02D10320FFF766FF214B4FF480721A801F4B07221A701F4B00221A70F7
:4019C0001E4B48221A701B4B00221A701C4B00221A701C4B02221A701B4A1B4B1B78DBB243F01F03DBB2137000BF0837BD4680BD80400040824000408440004086400040B6
:401A0000884000408A4000408C4000408E40004090400040924000400043004000420040A14600400F01004922420040204200402542004004400040064000400840004054
:401A40000940004001400040A243004080B582B000AF214B1B78FB71204B1B78BB71204B1B787B711F4AFB7903F00703DBB213701D4AFB791B09DBB21370184ABB7943F0E0
:401A80000303DBB21370164A7B7943F00303DBB21370164B40221A70154BC7221A70154B80221A70144B0F221A70144B20221A70134B04221A700A2002F04CFA084A7B79CC
:401AC0001370064ABB7913700E4B44221A7000BF0837BD4680BD00BFCF010049F8460040F94600406E5800406F5800401D5100402D51004001590040205B0040235B004074
:401B0000585B00407658004080B586B000AF72B6574B61221A70FFF7EFFE554B01221A70544A544B1B78DBB243F00403DBB213700023FB7513E0FA7D13465B0013445B0079
:401B40004D4A13443B613B691A683B699B889BB219461046FFF772FEFB7D0133FB75FB7D062BE8D90023FB751CE0FA7D13469B0013445B00414A1344FB60FB681B68BB6016
:401B8000FB685B687B60FB681A7A5B7A1B0213437B807B881A467968B868FFF75DFEFB7D0133FB75FB7D002BDFD035494FF09040FFF768FE04213348FFF740FE0422324969
:401BC0003248FFF749FE324B324A1A60324A324B1B78DBB243F00203DBB213702F4A2F4B1B78DBB243F00203DBB213702C4A2C4B1B78DBB243F04003DBB21370294A294B85
:401C00001B78DBB243F01003DBB21370082226492648FFF721FE082225492648FFF71CFE0A2225492548FFF717FE082224492548FFF712FE0A2224492448FFF70DFE0822B0
:401C400023492448FFF708FE234A234B1B78DBB243F00803DBB21370FFF7F8FE0E2210491E48FFF7F9FD00BF1837BD4680BD00BF00480040E8460040CC5C0000F85C000001
:401C8000B000004800760040901000480876004058140140040404C40350014013500140A0430040C2430040581000480251004060100048C251004068100048F051004024
:401CC00074100048125100407C10004820510040881000483251004022430040B043004080B500AF03F05CFF03461B680C2B00D1FEE7FEE780B586B000AF224B7B61224BD5
:401D00003B61204B7B6135E03B691B68FB603B695B68BB603B699B683B6000237B600CE0FB681A68BB681A60BB680433BB60FB680433FB607B6804337B607A683B689A4239
:401D4000EED13B69DB683B6000237B6008E0BB6800221A60BB680433BB607B6804337B607A683B689A42F2D13B6910333B617B69013B7B617B69002BC6D103F017FFFEF7CC
:401D80008FF9FEE701000000005F000080B582B000AF194B194A1A60194A194B1B6843F40073136000237B600FE07B68032B04D8144A7B6852F8233000E0134B13497A6864
:401DC00041F822307B6801337B607B682F2BECD90F4B1B78DAB20F4B1A700F4B0B4A1A60FFF792FE01F08EFE0C4B00221A6000BF0837BD4680BD00BF0CED00E00004FA050F
:401E000014ED00E000000000E11C00000080FF1FBC760040C480FF1F08ED00E0C080FF1F80B582B000AF03460A46FB711346BB71094B1B78002B04D100F010F8064B01222C
:401E40001A70BA79FB791146184600F0D9F800BF0837BD4680BD00BF1C83FF1F80B582B000AF03F0D9F90346FB71544A534B1B78DBB243F00103DBB21370514A504B1B7805
:401E8000DBB243F00103DBB213704E4B01221A704D4B02221A704D4A4C4B1B78DBB203F07F03DBB21370002002F054F8484A484B1B78DBB223F00603DBB21370454A454B01
:401EC0001B78DBB223F02003DBB21370404A404B1B78DBB243F00103DBB21370012002F039F8282002F036F83B4A3B4B1B78DBB203F07F03DBB21370374A374B1B78DBB281
:401F000023F04003DBB21370314A314B1B78DBB243F00203DBB21370022002F01BF82C4A2B4B1B78DBB243F00403DBB213702B4B00221A702A4B00221A70FB79184603F057
:401F40006FF90721172002F041F82649172002F015F80721182002F039F82349182002F00DF80721152002F031F82049152002F005F80721032002F029F81D49032001F0CF
:401F8000FDFF0721042002F021F81A49042001F0F5FF0721052002F019F81749052001F0EDFF07210C2002F011F814490C2001F0E5FF00BF0837BD4680BD00BFA5430040DE
:401FC000B54300409D60004009600040106000409443004012600040F85100408460004085600040552A00003D230000492A000061290000A9290000F5290000612A000021
:4020000080B582B000AF03460A46FB711346BB712E4AFB7913702E4B00221A702D4B00221A702D4B00221A702C4B00221A702C4B00221A702B4B00221A702B4B00221A709A
:402040002A4B4FF400021A60284B4FF080721A60264B4FF400121A60244B08221A60234B10221A60214B20221A60BB79002B02D0012B09D011E01E4A1D4B1B78DBB223F04F
:402080000103DBB2137011E0194A194B1B78DBB243F00103DBB2137008E0154A144B1B78DBB243F00103DBB2137000BF114B03221A70114B80221A70012003F0A5F80F4B83
:4020C00004221A7000BF0837BD4680BDEDE9FF1FF0E9FF1F0CEAFF1F0FEAFF1F04EAFF1F0EEAFF1F11EAFF1FECE9FF1F00E100E00960004028600040086000401260004022
:4021000080B400AF0F4B00221A700F4B00221A700E4B00221A700E4B00221A700D4B00221A700D4B00221A700C4B00221A700C4B03221A700B4B80221A7000BFBD4680BC15
:40214000704700BFF0E9FF1F0CEAFF1F0FEAFF1F04EAFF1F0EEAFF1F11EAFF1FECE9FF1F286000400860004080B582B000AF0023FB71314B1B79DBB2184600F067F80346F1
:40218000BB712D4B1B78DBB25BB2002B15DA2A4B5B78DBB2212B00D048E0284B07221A80BA791346DB009B1A254A1344234A536000F03EFA0346FB7138E01F4B5B78DBB224
:4021C000202B02D0222B1AD030E01C4B07221A80BA791346DB009B1A194A1344174A5360BB79BA7917498A5CD2B242F00102D1B2144AD15400F09AFA0346FB7116E0BB7998
:402200000D4A9278D2B291B20F4A22F81310BB79BA790C498A5CD2B242F00202D1B2094AD15400F021FB0346FB7100BFFB7918460837BD4680BD00BF00600040F8E9FF1F5A
:402240000C82FF1FD4E9FF1FE8E9FF1F80B485B000AF0346FB710023FB73FF23BB7317E0FB7B104AD35C7B737A7B0F4913465B0013449B000B440A331B78DBB2FA799A4268
:4022800003D1FB7BBB730223FB73FB7B0133FB73FB7B012BE4D9BB7B18461437BD4680BC704700BFDCE9FF1F14EAFF1F80B485B000AF78600B46FB701346BB707B68DB78A3
:4022C00003F00303FB737B689B785BB2002B1ADAFB7B032B0AD0BB7803F001031449FA78CA54BB7843F00103BB701BE0BB789B08DBB203F001030F49FA78CA54BB7843F088
:402300000403BB700EE0FB7B032B0BD0BB785B08DBB203F001030849FA78CA54BB7843F00203BB70BB7818461437BD4680BC7047D8E9FF1FDCE9FF1FE0E9FF1F80B582B08B
:4023400000AF374B1B78BB71BB7903F01003002B62D00123FB7197F90630002B12DABB7903F00F03012B02D00023FB711CE000F061F82C4B1B78DBB25BB2002B14DA00237E
:40238000FB7111E0BB7903F04003002B02D000F095F809E0BB7903F02003002B02D000F0B3F801E00023FB71FB79002B34D01C4B1B78BB7197F90630002B2DDB1A4B1B78E7
:4023C000DAB21A4B1B78DBB21343BB71184ABB791370174B1B78DBB2BA799A421CD1114B1B78FB710E4B1B78DBB223F07F03BB71BB79002B0AD10A4B0A4A1278D2B21A70A3
:40240000074B1B78DBB203F00F03FB71054B1B78DBB2FA799A42E2D100BF0837BD4680BD286000400DEAFF1F82EAFF1F10EAFF1F2960004080B582B000AF1D4B1B78FB7144
:402440001B4AFB7913701A4B1B78FB7197F90730002B03DA174AFB79137025E0022000F045FA154B1B78DBB203F06003202B08D0402B0BD0002B0ED100F0F8FA0346FB713F
:402480000CE002F0D1FE0346FB7107E001F000FB0346FB7102E00023FB7100BFFB79002B02D1044B03221A7000BF0837BD4680BD286000400DEAFF1F0060004080B500AFF3
:4024C000104B1B78DBB2062B19D801A252F823F0FF240000FF240000ED240000FF240000F3240000FF240000F924000000F0F8F806E000F0A7F903E000F0D2F900E000BFDB
:4025000000BF80BDF0E9FF1F80B500AF124B1B78DBB2062B1DD801A252F823F0532500005325000039250000532500003F250000532500004525000000F0D8F80AE000F07B
:4025400027F907E0032000F0D1F9044B03221A7000E000BF00BF80BDF0E9FF1F0DEAFF1F80B483B000AF0023FB71294B1B78DBB29AB2284B1B889BB213449AB2254B1A803D
:4025800015E02549FB79254A52681278D2B2CA54224B5B680133214A5360FB790133FB711E4B1B889BB2013B9AB21C4B1A801B4B1B889BB2002B02D0FB79072BE1D9144B65
:4025C0001B78DBB2082B02D0FB79002B0FD0144B1B78DBB283F07F03DB43DAB2104B1A70104B0F221A70104B02221A7005E00D4B02221A700C4B02221A700C4AFB791370D9
:40260000034AFB79137000BF0C37BD4680BC7047ECE9FF1FEEE9FF1F00600040F8E9FF1F82EAFF1F0DEAFF1FF0E9FF1F10EAFF1F80B582B000AF164B1B889BB2002B02D1C4
:4026400000F02EF81EE0134B02221A70124B00221A7000F06BF9114BDB79DBB29BB21B029AB20E4B9B79DBB29BB21343FB80084B1B889BB2FA889A4202D2054AFB881380F8
:40268000FFF76EFF012318460837BD4680BD00BFF8E9FF1FF0E9FF1F82EAFF1F0060004080B400AF094B02221A70094B80221A70084B0F221A70084B00221A70074B0022F1
:4026C0001A7001231846BD4680BC7047F0E9FF1F82EAFF1F0DEAFF1FECE9FF1F10EAFF1F80B500AFFFF73CFF00BF80BD80B500AF0A4B1B78DBB29AB2094B1B889BB21344E6
:402700009AB2074B1A80074B00221A70012000F0EDF8054B03221A7000BF80BDECE9FF1FEEE9FF1FF0E9FF1F0DEAFF1F80B582B000AF124B04221A70114B80221A7000F0E3
:40274000F5F8104BDB79DBB29BB21B029AB20D4B9B79DBB29BB21343FB800B4B1B889BB2FA889A4202D2084AFB881380074B0B221A70012318460837BD4680BDF0E9FF1F82
:4027800082EAFF1F00600040F8E9FF1F0DEAFF1F80B483B000AF0023BB71234B1B78DBB203F00F03DBB2023BFB71FB799AB21F4B1B889BB213449AB21C4B1A8018E01C4B90
:4027C0005B681C49BA798A5CD2B21A70184B5B680133174A5360BB790133BB71FB79013BFB71134B1B889BB2013B9AB2104B1A800F4B1B889BB2002B02D0FB79002BDED10C
:402800000D4AFB7913700D4B1B78DBB283F07F03DB43DAB2094B1A70094B0B221A7000BF0C37BD4680BC704729600040EEE9FF1FF8E9FF1F0060004010EAFF1F82EAFF1F53
:402840000DEAFF1F80B500AF054B00221A70012000F04CF8034B03221A7000BF80BD00BFF0E9FF1F0DEAFF1F80B400AF084B06221A70084B06221A70074B80221A70074B8D
:4028800000221A7001231846BD4680BC704700BFF0E9FF1F0DEAFF1F82EAFF1F10EAFF1F80B500AF0D4B1B78DBB2002B0AD00C4A0A4B1B78DBB263F07F03DBB21370074B24
:4028C00000221A70074B00221A70012000F00EF8054B03221A7000BF80BD00BF0EEAFF1F08600040F0E9FF1F0DEAFF1F80B483B000AF0346FB710B4B9B68002B0CD0094B14
:402900009B68FA791A70074B9B68074A128892B25A80044B00229A6000BF0C37BD4680BC704700BFF8E9FF1FEEE9FF1F80B400AF094B00221A80094B9B68002B07D0074B85
:402940009B6800221A70054B9B6800225A8000BFBD4680BC704700BFEEE9FF1FF8E9FF1F80B400AF0D4B01221A700D4B9B7C0D4B1B7BDBB203F00303012B08D0094BDB7B78
:40298000DBB283F07F03DB43DAB2064BDA73054B01225A7300BFBD4680BC70470B600040FC5F004014EAFF1F80B400AF0E4B02221A700E4B93F822300D4B1B7EDBB203F065
:4029C0000303012B08D00A4BDB7EDBB283F07F03DB43DAB2064BDA76054B01225A7600BFBD4680BC704700BF0B600040FC5F004014EAFF1F80B400AF104B04221A70104BF0
:402A000093F832300F4B93F82430DBB203F00303012B0AD00B4B93F82730DBB283F07F03DB43DAB2074B83F82720064B012283F8252000BFBD4680BC704700BF0B60004019
:402A4000FC5F004014EAFF1F80B400AF00BFBD4680BC704780B500AFFFF752FB00BF80BD80B500AF01F03EF800BF80BD80B586B000AF0023FB759D4B1B78FB7100233B618A
:402A80009B4B00221A8097F90730002B80F20481964B5B78DBB20A2B00F21B8201A252F823F000BFEF2B0000D32E0000D32E0000D32E0000D32E0000D32E0000D12A0000AD
:402AC000D32E0000632C0000D32E0000792C0000864BDB78DBB2012B0ED100F049FEB860BB685B68824A5360814B12221A80FFF79FFD0346FB75EEE17C4BDB78DBB2022BA8
:402B000025D17A4B9B78DBB2184600F009FEB860BB68002B00F0DF81BB685B68744A5360734B5B6803331B78DBB29BB21B029AB26F4B5B6802331B78DBB29BB213439AB28A
:402B40006B4B1A80FFF774FD0346FB75C3E1674BDB78DBB2032B45D10023FB73654B3B6109E03B691B78BB71BB793A6913443B61FB7B0133FB735D4B9B78DBB2FA7B9A42C7
:402B800004D23B691B78DBB2002BEAD1574B9B78DBB2EE2B01D1584B3B61544B9B78DBB2002B0BD0514B9B78DAB2544B1B7C9A4204D1534800F0ACF9514B3B613B691B7823
:402BC000DBB2002B00F087813B691B78DBB29AB2474B1A80464A3B695360FFF729FD0346FB7578E102F020FB0346FB7573E1FB7903F00303002B20D0022B00D030E03C4B9E
:402C000002221A80394B1B79DBB203F07F023D4913465B0013449B000B4402331B78DAB2394B1A70384B00225A70314B364A5A60FFF7FEFC0346FB7512E02D4B02221A80EA
:402C4000324B1B78DAB2304B1A702F4B00225A70274B2D4A5A60FFF7EBFC0346FB7500BF40E1234B01221A80214B294A5A60FFF7DFFC0346FB7535E11D4B01221A801B4B45
:402C80001B79DBB21A46234B1344194A5360FFF7CFFC0346FB7525E1144B5B78DBB2013B0A2B00F21A8101A252F823F0B72D0000DB2E0000452E0000DB2E0000D92C00000D
:402CC000DB2E0000DB2E0000DB2E00001D2D0000DB2E0000732D0000044B9B78DAB20E4B1A70FFF7C1FD0346FB75FBE000600040F8E9FF1F705D0000785E0000185D0000F6
:402D0000A0EAFF1F14EAFF1F2083FF1F11EAFF1F0FEAFF1F80EAFF1F0EEAFF1F744B9B787B717B79002B06D07B79013BDBB2184600F0F6FCB8607B79002B02D0BB68002B39
:402D400003D17B79002B40F0CA806A4B1B78DBB27A799A4208D0674A7B791370664B01221A70012000F0DCF9FFF77EFD0346FB75B5E000F055FE0346002B00F0B2805C4BBF
:402D80001B793B715A4B1B79DAB25C4B1A703B795B4AD35CDAB23B795A49CB5CDBB29A4204D0554B01221A7000F08CFBFFF75CFD0346FB7595E0FB7903F00303012B20D044
:402DC000012B0CD3022B00D03BE0494B9B78DBB2002B31D100F078FD0346FB752CE0444B9B78DBB2012B29D1474B1B78DBB223F00203DAB2444B1A70FFF736FD0346FB757F
:402E00001CE03B4B1B79DBB2012B19D8384B9B78DBB2DB43DBB2364A1279D2B2114610463A4A125CD2B21340DAB2384B5A54FFF71BFD0346FB7503E000BF53E000BF51E0B6
:402E400000BF4FE0FB7903F00303012B20D0012B0CD3022B00D03BE0254B9B78DBB2002B31D100F0BDFC0346FB752CE0204B9B78DBB2012B29D1244B1B78DBB243F0020315
:402E8000DAB2214B1A70FFF7EFFC0346FB751CE0174B1B79DBB2012B19D8154B9B78DBB2DB43DBB2124A1279D2B211461046174A125CD2B21340DAB2144B5A54FFF7D4FC92
:402EC0000346FB7503E000BF0CE000BF0AE000BF08E000BF06E000BF04E000BF02E000BF00E000BFFB7D18461837BD4680BD00BF006000400FEAFF1F0CEAFF1F04EAFF1FF9
:402F0000F4E9FF1F80EAFF1F11EAFF1F84EAFF1FB0B58AB000AF7860324B07F114041D460FCD0FC42B682370002387F826307B68002B52D07B6822221A707B680133032269
:402F40001A7007F10C03184601F064F8022387F827303EE097F827307A68134497F8262007F128010A4412F81C2C1209D2B207F128010A4412F8142C1A7097F8273001334B
:402F80007A68134400221A7097F8273002337A68134497F8262007F128010A4412F81C2C02F00F0207F128010A4412F8142C1A7097F8273003337A68134400221A7097F86C
:402FC0002630013387F8263097F82730043387F8273097F82730212BBCD900BF2837BD46B0BD00BF045D000090B482B000AF0123FB7180E0464AFB791B0113440C221A70C6
:40300000FA79444913465B0013449B000B4405331B78DBB2002B1CD0FA793E4913465B0013449B000B4404331B78DBB25BB2002B07DA394AFB791B01134402330C221A7076
:403040000EE0354AFB791B011344023308221A7006E0314AFB791B011344023380221A702B48F979FA792B4C13465B0013449B00234406331B889BB2DAB20B01034406334D
:403080001A702348F979FA79224C13465B0013449B00234406331B889BB21B0A9BB2DAB20B01034407331A701948F979FA79194C13465B0013449B00234406331B889BB29C
:4030C000DAB20B01034404331A701148F979FA79104C13465B0013449B00234406331B889BB21B0A9BB2DAB20B01034405331A70FB790133FB71FB79082B7FF67BAF074BA1
:40310000FF221A7000BF0837BD4690BC704700BF7060004014EAFF1FFC5F00400A60004080B58AB000AF0346FB7100237B84002387F8273050E097F82720B34913465B000C
:4031400013449B000B4400221A7097F82720AE4913465B0013449B000B44023300221A7097F82720A84913465B0013449B000B44033300221A7097F82720A34913465B00AB
:4031800013449B000B44083300221A8097F827209D4913465B0013449B000B440A3300221A7097F82720984913465B0013449B000B44013300221A7097F8272092491346A7
:4031C0005B0013449B000B44053300221A7097F82730013387F8273097F82730082BAAD9FB79002B16D0002387F825300EE097F82530864A0021D15497F82530844A00218C
:40320000D15497F82530013387F8253097F82530012BECD97F4B1B78DBB2002B00F04A810023FB767B4B1B78DBB2013BDBB2184600F076FA78617B695B683B613B690733DD
:403240001B7803F04003002B08D0734B1B78DBB243F00103DAB2704B1A7007E06E4B1B78DBB223F00103DAB26B4B1A707B6908337B617B691B7887F82730012387F82530B9
:40328000B6E07B695B68FB61002387F82630A3E097F82520FB699B7803F07F039A4240F0938097F82520584913465B0013449B000B4408331B889AB2FB699B889A420CD246
:4032C00097F82520FB6998884F4913465B0013449B000B44083302461A80FB691B781A464A4B9B5CDAB2FB695B789A426CD197F82520FB699878444913465B0013449B0092
:403300000B44043302461A7097F82520FB69D8783D4913465B0013449B000B4402461A70FB69DB7803F00303FB73FB699B785BB2002B1CDA97F82520FB7B012B01D107202E
:4033400000E00D20304913465B0013449B000B44053302461A7097F825202B4913465B0013449B000B44013301221A701BE097F82520FB7B012B01D1052000E009202249CE
:4033800013465B0013449B000B44053302461A7097F825201C4913465B0013449B000B44013300221A70FB699B790A2B03D0FB699B79022B08D1FA7E97F825301946F869E6
:4033C000FEF774FF0346FB76FB690833FB6197F82630013387F8263097F8262097F827309A42FFF455AF97F82530013387F8253097F82530082B7FF644AF7B695B68FB61C6
:40340000002387F8253020E014EAFF1F80EAFF1FF4E9FF1F0FEAFF1F11EAFF1FFB699B7803F07F02FB691878244913465B0013449B000B440A3302461A70FB690833FB617B
:4034400097F82530013387F8253097F8252097F827309A42E2D300F09DF90246184B1A6000237B84012387F827301DE097F82720124913465B0013449B000B4406337A8CEC
:403480001A8097F827200D4913465B0013449B000B4408331B889AB27B8C13447B8497F82730013387F8273097F82730082BDDD9FFF79AFD00BF2837BD4680BD14EAFF1F04
:4034C00008EAFF1F90B585B000AF8F4B1B78DBB2002B00F015818C4B1B78DBB2013BDBB2184600F01DF978607B6808337B607B681B78FB707B685B68BB60844B1B78BB70C4
:403500000023FB73F7E0BB681B78BA789A4240F0EC80BB787E4AD35CDAB2BB685B789A4240F0E380BB689B7803F07F037B70BB68DB7803F003033B707A78764913465B0093
:4035400013449B000B44033300221A707A78BB689878704913465B0013449B000B44043302461A707A78BB68D8786A4913465B0013449B000B4402461A707A78BB68988838
:40358000644913465B0013449B000B44083302461A80BB689B785BB2002B1ADA7A783B78012B01D1072000E00D205A4913465B0013449B000B44053302461A707A785549E1
:4035C00013465B0013449B000B44013301221A7019E07A783B78012B01D1052000E009204C4913465B0013449B000B44053302461A707A78474913465B0013449B000B4420
:40360000013300221A70444A7B781B011344023301221A70404879787A783E4C13465B0013449B00234408331B889BB21B0A9BB2DAB20B0103441A70374879787A78354CE9
:4036400013465B0013449B00234408331B889BB2DAB20B01034401331A70304879787A782C4C13465B0013449B00234406331B889BB2DAB20B01034406331A70274879786A
:403680007A78244C13465B0013449B00234406331B889BB21B0A9BB2DAB20B01034407331A701E4879787A781A4C13465B0013449B00234406331B889BB2DAB20B01034499
:4036C00004331A70154879787A78124C13465B0013449B00234406331B889BB21B0A9BB2DAB20B01034405331A70BB680833BB60FB7B0133FB73FA7BFB789A42FFF403AF28
:4037000000BF1437BD4690BD0FEAFF1F04EAFF1F80EAFF1F14EAFF1FFC5F00407060004080B485B000AF0346FB710F4B1B78DBB20E4ADB0013445B68FB60FB681033FB60CD
:40374000FB681B78FA799A4202D30023FB6005E0FB79DB00FA6813445B68FB60FB6818461437BD4680BC7047EDE9FF1F705E000080B400AF054B1B78DBB2054ADB0013440E
:403780005B681846BD4680BC704700BFEDE9FF1F705E000080B584B000AF104B1B78DBB2013BDBB21846FFF7BBFFB860BB68002B0DD0BB685B681B79FB71FB790233DB005A
:4037C000BA681344BB60BB685B68FB6001E00023FB60FB6818461037BD4680BD0FEAFF1F80B582B000AF0023FB71344B1B79DBB203F07F03BB71BB79002B5AD0BB79082B60
:4038000057D8BA79B9792E480B465B000B449B00034402331B78DBB243F00103D8B2284913465B0013449B000B44023302461A70BA79234913465B0013449B000B44033354
:4038400000221A70BA79B9791D480B465B000B449B00034401331B78DBB243F00203D8B2174913465B0013449B000B44013302461A70BA79124913465B0013449B000B4401
:4038800004331B78DBB25BB2002B07DA0D4ABB791B01134402338D221A7006E0094ABB791B011344023389221A70FEF7DDFF0346FB71FB7918460837BD4680BD006000406B
:4038C00014EAFF1FFC5F004080B582B000AF0023FB71504B1B79DBB203F07F03BB71BB79002B00F09280BB79082B00F28E80BA79B97949480B465B000B449B00034402333F
:403900001B78DBB223F00103D8B2434913465B0013449B000B44023302461A70BA793E4913465B0013449B000B44033300221A703A49BB793948BA79120102441278D2B2DB
:4039400002F07F02D2B21B010B441A70BA79B97931480B465B000B449B00034401331B78DBB223F00203D8B22B4913465B0013449B000B44013302461A70BA792649134640
:403980005B0013449B000B4404331B78DBB25BB2002B1BDABA79204913465B0013449B000B4401331B78DBB2012B07D11B4ABB791B01134402330C221A7022E0174ABB796E
:4039C0001B01134402330D221A701AE0BA79124913465B0013449B000B4401331B78DBB2012B07D10D4ABB791B011344023308221A7006E0094ABB791B011344023309226A
:403A00001A70FEF731FF0346FB71FB7918460837BD4680BD0060004014EAFF1FFC5F004080B584B000AF0023FB73154B1B79BB73144B1B78DBB2013BDBB21846FFF770FEA5
:403A4000B860BB685B681B79FB71BA7BFB799A4202D9BB7B022B0ED8BB7BBA7B0A498A5CD1B20A4AD154BB7B054A9278D1B2064AD1540123FB73FB7B18461037BD4680BD8B
:403A8000006000400FEAFF1F80EAFF1FF4E9FF1F80B582B000AF0023FB710F4B1B78DBB25BB2002B12DA0C4B5B78DBB2012B00D00CE00A4B0A4A5A60094B1B789AB2074B02
:403AC0001A80FEF7B5FD0346FB7100BFFB7918460837BD4680BD00BF00600040F8E9FF1F8C5E000080B400AF054B1B78DBB203F040039B09DBB21846BD4680BC704700BFAB
:403B00008F45004080B483B000AF134B7F221A70124B80221A707F23FB710CE0FB79DB0003F1804303F5F043FA79013AD2B21A70FB79013BFB71FB79002BEFD1FB79DB0098
:403B400003F1804303F5F04300221A7000BF0C37BD4680BC704700BF2982FF1F2882FF1F80B485B000AF03460A46FB711346BB710123FB60FB79172B2FD8BB79002B0ED054
:403B8000FB791A01184B1344FA791101164A0A441278D2B242F02002D2B21A700DE0FB791A01114B1344FA7911010F4A0A441278D2B222F02002D2B21A70FB791A010A4B8A
:403BC0001344FA791101084A0A441278D2B242F00102D2B21A700023FB60FB6818461437BD4680BC704700BF1070004080B485B000AF0346FB710123FB60FB79172B1DD802
:403C0000FB791A01104B1344FA7911010E4A0A441279D2B242F00402D2B21A71FB791A01094B1344FA791101074A0A441278D2B242F00102D2B21A700023FB60FB681846D4
:403C40001437BD4680BC70471070004080B485B000AF03460A46FB711346BB710123FB60FB79172B1BD8FB791A01104B13441B78DBB223F00E03FB72FB791A010B4B13444B
:403C8000BA795200D2B252B202F00E0251B297F90B200A4352B2D2B21A700023FB60FB6818461437BD4680BC704700BF1070004080B485B000AF0346FB710B46BB80134627
:403CC0007B800123FB60BB8841F6FF72934202D14FF40053BB807B8841F6FF72934202D14FF400537B80FB79172B17D8FB79DB0003F1804303F5EC430433BB60BB68BA8879
:403D00001A80FB79DB0003F1804303F5EC430633BB60BB687A881A800023FB60FB6818461437BD4680BC704780B485B000AF03460A46FB711346BB710123FB60FB79172B52
:403D400007D8FB791A01064B1344BA795A720023FB60FB6818461437BD4680BC704700BF1070004090B484B000AF0446084611461A462346FB710346BB710B467B711346D9
:403D80003B710123FB60FB79172B34D8FB79DB0003F1804303F5EC43BA7902F07F02D1B27A79D201D2B20A43D2B21A70FB79DB0003F1804303F5EC433A7E1201D1B23A79ED
:403DC00002F00F02D2B20A43D2B25A70FB79DB0003F1804303F5EC433A7F02F00F02D2B29A70FB79DB0003F1804303F5EC430022DA700023FB60FB6818461037BD4690BCBC
:403E0000704700BF80B582B000AFFF23FB7101F003FA0346BB71104B1B78182B12D90F4B1B78FB710C4B1B78013BDAB20A4B1A70FB79DB0003F1804303F5F0431B78DAB2AF
:403E4000064B1A70BB79184601F0EAF9FB7918460837BD4680BD00BF2882FF1F2982FF1F90B484B000AF0446084611461A462346FB710346BB800B46BB711346FB7001232C
:403E8000FB6097F90730002B23DBBB8823F47F6323F00F039BB2002B1BD1FB79DB0003F1804303F5F043BB60BB68BA881A80FB79DB0003F1804303F5F043BA799A70FB79C5
:403EC000DB0003F1804303F5F043FA78DA700023FB60FB6818461037BD4690BC704700BF80B485B000AF0346FB710B46BB8013467B800123FB6097F90730002B17DBFB797A
:403F0000DB0003F1804303F5F0430433BB60BB68BA881A80FB79DB0003F1804303F5F0430633BB60BB687A881A800023FB60FB6818461437BD4680BC704700BF80B483B089
:403F400000AF0346FB7101BE00BF0C37BD4680BC704700BF80B582B000AF0346FB80FB88054A127802FB03F3184601F04DF900BF0837BD4680BD00BF3882FF1F80B584B06B
:403F800000AF03463960FB710F4B1B68FB60FB791F2B02D90020FFF7D1FFFB7903F01F0310339B00FA6813441B68BB60FB7903F01F0310339B00FA6813443A681A60BB6830
:403FC00018461037BD4680BD08ED00E080B582B000AF03460A46FB711346BB71BB79072B02D90020FFF7AAFFFB791F2B02D90020FFF7A4FFFB7903F01F0303F1604303F5FD
:404000006443BA795201D2B21A7000BF0837BD4680BD00BF80B483B000AF7860264B1B78DBB21A467B681A60244B1B78DBB21B027A6812681A437B681A60214B1B78DBB2BE
:404040001B047A6812681A437B681A601D4B1B78DBB21B067A6812681A437B681A607B680433194A1278D2B21A60184B1B78DBB21A027B6804337968043109680A431A6040
:40408000134B1B78DBB21A047B6804337968043109680A431A600F4B1B78DBB21A067B6804337968043109680A431A6000BF0C37BD4680BC704700BF0301004904010049A8
:4040C000EC460040020100490101004900010049050100490601004980B500AF064B1B78002B04D100F00AF8034B01221A7000F063F800BF80BD00BF2283FF1F80B582B0E9
:4041000000AF284A274B1B78DBB243F00203DBB21370254B1B78DBB223F07003FB71224AFB7943F01003DBB21370204A1F4B1B78DBB223F03003DBB213701C4A1B4B1B7823
:40414000DBB243F03003DBB21370184A174B1B78DBB223F00F03DBB21370144A134B1B78DBB243F00F03DBB21370FF2000F048F8002000F055F8002000F062F80C4A0C4B2F
:404180001B78DBB243F00103DBB21370094A094B1B78DBB243F00103DBB2137000BF0837BD4680BD004F0040024F00400B4F0040A3430040014F004080B400AF0D4A0D4B4A
:4041C0001B78DBB243F00103DBB213700A4A0A4B1B78DBB243F00103DBB21370074A074B1B78DBB243F00103DBB2137000BFBD4680BC7047A3430040B3430040004F00409E
:4042000080B483B000AF0346FB71044BFA7992B21A8000BF0C37BD4680BC7047044F004080B483B000AF0346FB71044BFA7992B21A8000BF0C37BD4680BC7047064F004090
:4042400080B483B000AF0346FB71044AFB79137000BF0C37BD4680BC704700BF034F004080B500AF064B1B78002B04D100F00AF8034B01221A7000F063F800BF80BD00BF2A
:404280002383FF1F80B582B000AF284A274B1B78DBB243F00203DBB21370254B1B78DBB223F07003FB71224AFB7943F01003DBB21370204A1F4B1B78DBB223F03003DBB259
:4042C00013701C4A1B4B1B78DBB243F03003DBB21370184A174B1B78DBB223F00F03DBB21370144A134B1B78DBB243F00F03DBB21370FF2000F048F8002000F055F80020C3
:4043000000F062F80C4A0C4B1B78DBB243F00203DBB21370094A094B1B78DBB243F00103DBB2137000BF0837BD4680BD0C4F00400E4F0040174F0040A34300400D4F004032
:4043400080B400AF0D4A0D4B1B78DBB243F00203DBB213700A4A0A4B1B78DBB243F00203DBB21370074A074B1B78DBB243F00103DBB2137000BFBD4680BC7047A34300404D
:40438000B34300400C4F004080B483B000AF0346FB71044BFA7992B21A8000BF0C37BD4680BC7047104F004080B483B000AF0346FB71044BFA7992B21A8000BF0C37BD46BA
:4043C00080BC7047124F004080B483B000AF0346FB71044AFB79137000BF0C37BD4680BC704700BF0F4F004080B500AF064B02221A6006490120FFF7C1FD07210120FFF78E
:40440000E5FD00BF80BD00BF80E100E05545000080B582B000AF0F2000F088F800F078F800F0FAFE0346FB71094A094B1B78DBB243F01003DBB21370FB79184600F0F0FE85
:40444000044B02221A6000BF0837BD4680BD00BF9064004000E100E080B500AF00F0E0F94FF4004000F00AFA074B00221A60074B1B78002B04D1FFF7B7FF044B01221A70BE
:40448000FFF7C6FF00BF80BD2883FF1F2483FF1F80B582B000AF0D4B02221A6000F0FEF90346FB80FB88A3F500439BB2BB80B7F90420074B1B6813443B60064B02221A6090
:4044C0003B6818460837BD4680BD00BF80E100E02883FF1F00E100E080B582B000AF7860084B02221A604FF4004000F0C7F9064A7B681360054B02221A6000BF0837BD460B
:4045000080BD00BF80E100E02883FF1F00E100E080B400AF044B1B78DBB203F00F03DBB21846BD4680BC70476064004080B483B000AF0346FB71FB7943F00703FB71044A42
:40454000FB79137000BF0C37BD4680BC704700BF8064004080B483B000AF144B1B78FB71FB7903F00103002B07D0114B1B6803F5FF437F330E4A13600AE0FB7903F002039C
:40458000002B05D00A4B1B68A3F50043084A1360FB7903F00403002B02D0054B00221A6000BF0C37BD4680BC704700BF606400402883FF1F80B500AF064B04221A60064984
:4045C0000220FFF7DBFC07210220FFF7FFFC00BF80BD00BF80E100E02147000080B582B000AF0F2000F088F800F078F800F014FE0346FB71094A094B1B78DBB243F0100354
:40460000DBB21370FB79184600F00AFE044B04221A6000BF0837BD4680BD00BF9765004000E100E080B500AF00F0D2F94FF4004000F0FCF9074B00221A60074B1B78002BB2
:4046400004D1FFF7B7FF044B01221A70FFF7C6FF00BF80BD3083FF1F2C83FF1F80B582B000AF0D4B04221A6000F0F0F90346FB80FB88A3F500439BB2BB80B7F90420074BB1
:404680001B6813443B60064B04221A603B6818460837BD4680BD00BF80E100E03083FF1F00E100E080B582B000AF7860084B04221A604FF4004000F0B9F9064A7B681360D6
:4046C000054B04221A6000BF0837BD4680BD00BF80E100E03083FF1F00E100E080B400AF044B1B78DBB203F00F03DBB21846BD4680BC70476765004080B483B000AF034657
:40470000FB71FB7943F00703FB71044AFB79137000BF0C37BD4680BC704700BF8765004080B483B000AF144B1B78FB71FB7903F00103002B07D0114B1B6803F5FF437F331C
:404740000E4A13600AE0FB7903F00203002B05D00A4B1B68A3F50043084A1360FB7903F00403002B02D0054B00221A6000BF0C37BD4680BC704700BF676500403083FF1FB5
:4047800080B582B000AF1C4B1B78DBB223F00703FB71194AFB791370174B1B78DBB223F00303FB71144AFB79137000F0B3F84FF4004000F08FF84FF4004000F05FF800209E
:4047C00000F040F800F04EF84FF4004000F092F800F022FD0346BB71084A084B1B78DBB243F01003DBB21370BB79184600F018FD00BF0837BD4680BD71640040946400409D
:4048000080B400AF054A054B1B78DBB263F07F03DBB2137000BFBD4680BC70477164004080B500AF064B1B78002B04D1FFF7A8FF034B01221A70FFF7E3FF00BF80BD00BF34
:404840003483FF1F80B483B000AF0346FB71044AFB79137000BF0C37BD4680BC704700BF8464004080B400AF034B1B78DBB21846BD4680BC704700BF6464004080B483B0A1
:4048800000AF0346FB80044AFB88138000BF0C37BD4680BC704700BF0C68004080B400AF044B1B78044B1B889BB21846BD4680BC704700BF066400408C68004080B400AFDE
:4048C000034B1B889BB21846BD4680BC704700BF8C68004080B483B000AF0346FB80044AFB88138000BF0C37BD4680BC704700BF4C68004080B483B000AF0346FB80044A22
:40490000FB88138000BF0C37BD4680BC704700BF6C68004080B500AF01E0FFF7CFFFFFF7A1FF034603F04003002BF6D100BF80BD80B582B000AF1C4B1B78DBB223F0070350
:40494000FB71194AFB791370174B1B78DBB223F00303FB71144AFB79137000F0B3F84FF4004000F08FF84FF4004000F05FF8002000F040F800F04EF84FF4004000F092F83B
:4049800000F04AFC0346BB71084A084B1B78DBB243F01003DBB21370BB79184600F040FC00BF0837BD4680BD7A6500409465004080B400AF054A054B1B78DBB263F07F0366
:4049C000DBB2137000BFBD4680BC70477A65004080B500AF064B1B78002B04D1FFF7A8FF034B01221A70FFF7E3FF00BF80BD00BF3583FF1F80B483B000AF0346FB71044AF1
:404A0000FB79137000BF0C37BD4680BC704700BF8465004080B400AF034B1B78DBB21846BD4680BC704700BF6465004080B483B000AF0346FB80044AFB88138000BF0C37F2
:404A4000BD4680BC704700BF106A004080B400AF044B1B78044B1B889BB21846BD4680BC704700BF08650040906A004080B400AF034B1B889BB21846BD4680BC704700BF95
:404A8000906A004080B483B000AF0346FB80044AFB88138000BF0C37BD4680BC704700BF506A004080B483B000AF0346FB80044AFB88138000BF0C37BD4680BC704700BFD8
:404AC000706A004080B500AF01E0FFF7CFFFFFF7A1FF034603F04003002BF6D100BF80BD80B483B000AF0346FB71044AFB79137000BF0C37BD4680BC704700BF7C64004029
:404B000080B582B000AF786000F03CF8786800F009F8072000F018F800F028F800BF0837BD4680BD80B485B000AF7860054B1B68FB60FB6858337A681A6000BF1437BD46A8
:404B400080BC704708ED00E080B483B000AF0346FB71054AFB795B01DBB2137000BF0C37BD4680BC704700BF06E400E080B400AF034B40221A6000BFBD4680BC704700BF71
:404B800000E100E080B400AF034B40221A6000BFBD4680BC704700BF80E100E080B485B000AF0346FB710B4B1B78DBB223F00803FB730849FB79DB00DBB203F00803DAB2EC
:404BC000FB7B1343DBB20B7000BF1437BD4680BC704700BF0051004080B485B000AF0346FB71094B1B78DBB203F07F03FB730649FB79DB01DAB2FB7B1343DBB20B7000BFAF
:404C00001437BD4680BC7047C051004080B485B000AF0346FB710B4B1B78DBB223F00203FB730849FB795B00DBB203F00203DAB2FB7B1343DBB20B7000BF1437BD4680BCCB
:404C4000704700BFC051004080B485B000AF0346FB710B4B1B78DBB223F01003FB730849FB791B01DBB203F01003DAB2FB7B1343DBB20B7000BF1437BD4680BC704700BF03
:404C8000F051004080B485B000AF0346FB710B4B1B78DBB223F02003FB730849FB795B01DBB203F02003DAB2FB7B1343DBB20B7000BF1437BD4680BC704700BFF051004028
:404CC00080B500AF41F6FF734FF480420121022000F0F8F903461A460A4B1A7041F6FF7341F6FF7201210C2000F01EFA03461A46054B1A70054800F049FA002000F058FA69
:404D000000BF80BD3C83FF1F3D83FF1FB54E000080B582B000AF414B1B781846FEF766FF3F4B1B781846FEF761FF3E4B1B78FF2B05D1FFF767F803461A463A4B1A70394B4F
:404D40001878384B1A7806230C21FFF789F8354B1B78354A92B245F6A0311846FFF7C0F82E4B1A782F4B1B7819461046FEF7DCFF2E4B1B78FF2B05D1FFF744F803461A464F
:404D80002A4B1A70294B1878284B1A7807230C21FFF766F8254B1B78234A91B2244A92B21846FFF79DF81E4B1A78204B1B7819461046FEF7B9FF194B1B7801211846FEF72B
:404DC000CFFE174B1B7801211846FEF7C9FE00F023FA0346FB71174A164B1B78DBB243F02003DBB21370FB79184600F019FA124A114B1B78DBB243F00103DBB213700E4A5F
:404E00000D4B1B78DBB243F00203DBB213700B4B01221A6000BF0837BD4680BD3C83FF1F3D83FF1F4082FF1F4083FF1F4182FF1F88EAFF1F986400407865004080E200E0F9
:404E400080B500AF084B1B68002B04D1FFF738FF054B01221A6000F033F8FFF759FF034B1B7800BF80BD00BF3883FF1F6B64004080B500AF00F0D8F800BF80BD80B483B06A
:404E800000AF0346FB80FB88C3F10503074A32F913309AB2064B1B881BB29BB2D31A9BB21BB218460C37BD4680BC704788EAFF1F9AEAFF1F80B400AF00BFBD4680BC7047BF
:404EC00080B500AF064B1B78002B04D100F00AF8034B01221A7000F01BF800BF80BD00BF4C83FF1F80B500AF074A074B1B78DBB243F00603DBB213700C2000F06BF8034B92
:404F000000221A8000BF80BD015900409CEAFF1F80B582B000AF00F07FF90346FB71254A244B1B78DBB243F00103DBB21370224A214B1B78DBB243F00103DBB213701F4B5A
:404F40001B78BB71BB7943F00203BB71BB7943F00103BB71194ABB791370194B18221A70184A184B1B78DBB243F04003DBB21370144A144B1B78DBB223F00303DBB2137090
:404F8000114BC8221A70114B02221A70104A104B1B78DBB243F00803DBB213700A20FEF7D9FFFB79184600F03BF900BF0837BD4680BD00BFAB430040BB4300400359004002
:404FC00006590040055900400059004014460040275B004080B584B000AF0346FB71FB790A2B07D00C2B02D0082B06D008E0C223FB730BE08223FB7308E04223FB7305E047
:40500000C223FB730020FEF799FF00BF054AFB7B1370FB79184600F017F800BF1037BD4680BD00BF0259004080B400AF054A054B1B78DBB243F00103DBB2137000BFBD464D
:4050400080BC70470059004080B584B000AF0346FB71FB790A2B08D00C2B02D0082B08D00BE04FF48053FB600DE04FF48063FB6009E04FF48073FB6005E00023FB6000207B
:40508000FEF75CFF00BF0C4B00221A80FB6842F2107202FB03F303F58063002B01DA03F2FF73DB121A46054B1A60054B00221A8000BF1037BD4680BD98EAFF1F94EAFF1FD5
:4050C0009AEAFF1F90B585B002AF0446084611461A462346FB710346BB710B46BB8013467B80104B01221A700E4B1878BA79F97900230193002300930123FEF733FE094BC9
:405100001B787A88B9881846FEF7D2FD054B1B7802211846FEF79AFD024B1B7818460C37BD4690BD4282FF1F90B585B002AF0446084611461A462346FB710346BB710B46BF
:40514000BB8013467B80104B00221A700E4B1878BA79F97900230193002300930023FEF701FE094B1B787A88B9881846FEF7A0FD054B1B7802211846FEF768FD024B1B78CF
:4051800018460C37BD4690BD4382FF1F80B485B000AF7860054B1B68FB60FB6840337A681A6000BF1437BD4680BC704708ED00E080B483B000AF0346FB71054AFB795B010C
:4051C000DBB2137000BF0C37BD4680BC704700BF00E400E080B400AF034B01221A6000BFBD4680BC704700BF00E100E080B400AF034B01221A6000BFBD4680BC704700BFDF
:4052000080E100E0000000000230800803D000BF01380046FCD17047EFF3108072B6704780F31088704700BF80B582B000AF0023BB711B4B1B78DBB203F00303012B02D02A
:40524000022B04D012E0164B1B79FB7111E0144B1B79DBB203F07F02124913465B0013449B000B440A331B78FB7102E00023FB7100BFFB79022B0ED80B4B1A68FB7913440F
:405280001B78022B04D1FCF76FFF0346BB7102E00023BB7100BFBB7918460837BD4680BD0060004014EAFF1F08EAFF1F81F0004102E000BF83F0004330B54FEA41044FEA11
:4052C000430594EA050F08BF90EA020F1FBF54EA000C55EA020C7FEA645C7FEA655C00F0E2804FEA5454D4EB5555B8BF6D420CDD2C4480EA020281EA030382EA000083EAE7
:40530000010180EA020281EA0303362D88BF30BD11F0004F4FEA01314FF4801C4CEA113102D0404261EB410113F0004F4FEA03334CEA133302D0524263EB430394EA050F38
:4053400000F0A780A4F10104D5F1200E0DDB02FA0EFC22FA05F2801841F1000103FA0EF2801843FA05F359410EE0A5F120050EF1200E012A03FA0EFC28BF4CF0020C43FAE2
:4053800005F3C01851EBE37101F0004507D54FF0000EDCF1000C7EEB00006EEB0101B1F5801F1BD3B1F5001F0CD349085FEA30004FEA3C0C04F101044FEA445212F5800F10
:4053C00080F09A80BCF1004F08BF5FEA500C50F1000041EB045141EA050130BD5FEA4C0C404141EB010111F4801FA4F10104E9D191F0000F04BF01460020B1FA81F308BFF3
:405400002033A3F10B03B3F120020CDA0C3208DD02F1140CC2F10C0201FA0CF021FA02F10CE002F11402D8BFC2F1200C01FA02F120FA0CFCDCBF41EA0C019040E41AA2BF52
:4054400001EB0451294330BD6FEA04041F3C1CDA0C340EDC04F11404C4F1200220FA04F001FA02F340EA030021FA04F345EA030130BDC4F10C04C4F1200220FA02F001FAD2
:4054800004F340EA0300294630BD21FA04F0294630BD94F0000F83F4801306BF81F480110134013D4EE77FEA645C18BF7FEA655C29D094EA050F08BF90EA020F05D054EAD7
:4054C000000C04BF1946104630BD91EA030F1EBF0021002030BD5FEA545C05D14000494128BF41F0004130BD14F580043CBF01F5801130BD01F0004545F0FE4141F4700178
:405500004FF0000030BD7FEA645C1ABF194610467FEA655C1CBF0B46024650EA013406BF52EA033591EA030F41F4002130BD00BF90F0000F04BF0021704730B54FF480647D
:4055400004F132044FF000054FF0000150E700BF90F0000F04BF0021704730B54FF4806404F1320410F0004548BF40424FF000013EE700BF42004FEAE2014FEA31014FEA31
:4055800002701FBF12F07F4393F07F4F81F06051704792F0000F14BF93F07F4F704730B54FF4607401F0004521F0004120E700BF50EA010208BF704730B54FF000050AE029
:4055C00050EA010208BF704730B511F0004502D5404261EB41014FF4806404F132045FEA915C3FF4DCAE4FF003025FEADC0C18BF03325FEADC0C18BF033202EBDC02C2F15D
:40560000200300FA03FC20FA02F001FA03FE40EA0E0021FA02F11444C1E600BF70B54FF0FF0C4CF4E06C1CEA11541DBF1CEA135594EA0C0F95EA0C0F00F0DEF82C4481EABE
:40564000030621EA4C5123EA4C5350EA013518BF52EA033541F4801143F4801338D0A0FB02CE4FF00005E1FB02E506F00042E0FB03E54FF00006E1FB03569CF0000F18BF21
:405680004EF0010EA4F1FF04B6F5007F64F5407404D25FEA4E0E6D4146EB060642EAC62141EA55514FEAC52040EA5E504FEACE2EB4F1FD0C88BFBCF5E06F1ED8BEF1004F70
:4056C00008BF5FEA500E50F1000041EB045170BD06F0004646EA010140EA020081EA0301B4EB5C04C2BFD4EB0C0541EA045170BD41F480114FF0000E013C00F3AB8014F1D4
:40570000360FDEBF002001F0004170BDC4F10004203C35DA0C341BDC04F11404C4F1200500FA05F320FA04F001FA05F240EA020001F0004221F0004110EBD37021FA04F6D0
:4057400042EB06015EEA430E08BF20EAD37070BDC4F10C04C4F1200500FA04F320FA05F001FA04F240EA020001F0004110EBD37041F100015EEA430E08BF20EAD37070BDE2
:40578000C4F1200500FA05F24EEA020E20FA04F301FA05F243EA020321FA04F001F0004121FA04F220EA020000EBD3705EEA430E08BF20EAD37070BD94F0000F0FD101F0D7
:4057C0000046400041EB010111F4801F08BF013CF7D041EA060195F0000F18BF704703F00046520043EB030313F4801F08BF013DF7D043EA0603704794EA0C0F0CEA13551D
:4058000018BF95EA0C0F0CD050EA410618BF52EA4306D1D181EA030101F000414FF0000070BD50EA410606BF1046194652EA430619D094EA0C0F02D150EA013613D195EAE6
:405840000C0F05D152EA03361CBF104619460AD181EA030101F0004141F0FE4141F470014FF0000070BD41F0FE4141F4780170BD70B54FF0FF0C4CF4E06C1CEA11541DBFA7
:405880001CEA135594EA0C0F95EA0C0F00F0A7F8A4EB050481EA030E52EA03354FEA013100F088804FEA03334FF0805545EA131343EA12634FEA022245EA111545EA1065FD
:4058C0004FEA00260EF000419D4208BF964244F1FD0404F5407402D25B084FEA3202B61A65EB03055B084FEA32024FF480104FF4002CB6EB020E75EB030E22BFB61A75463D
:4059000040EA0C005B084FEA3202B6EB020E75EB030E22BFB61A754640EA5C005B084FEA3202B6EB020E75EB030E22BFB61A754640EA9C005B084FEA3202B6EB020E75EB48
:40594000030E22BFB61A754640EADC0055EA060E18D04FEA051545EA16754FEA06164FEAC30343EA52734FEAC2025FEA1C1CC0D111F4801F0BD141EA00014FF000004FF0DD
:40598000004CB6E711F4801F04BF01430020B4F1FD0C88BFBCF5E06F3FF6AFAEB5EB030C04BFB6EB020C5FEA500C50F1000041EB045170BD0EF0004E4EEA113114EB5C04D2
:4059C000C2BFD4EB0C0541EA045170BD41F480114FF0000E013C90E645EA060E8DE60CEA135594EA0C0F08BF95EA0C0F3FF43BAF94EA0C0F0AD150EA01347FF434AF95EA00
:405A00000C0F7FF425AF104619462CE795EA0C0F06D152EA03353FF4FDAE1046194622E750EA410618BF52EA43067FF4C5AE50EA41047FF40DAF52EA43057FF4EBAE12E7C1
:405A40004FF0FF3C06E000BF4FF0010C02E000BF4FF0010C4DF804CD4FEA410C7FEA6C5C4FEA430C18BF7FEA6C5C1BD001B050EA410C0CBF52EA430C91EA030F02BF90EA30
:405A8000020F0020704710F1000F91EA030F58BF994208BF90422CBFD8176FEAE37040F0010070474FEA410C7FEA6C5C02D150EA013C07D14FEA430C7FEA6C5CD6D152EAF3
:405AC000033CD3D05DF8040B704700BF8446104662468C461946634600E000BF01B5FFF7B7FF002848BF10F1000F01BD4DF808EDFFF7F4FF0CBF012000205DF808FB00BF04
:405B00004DF808EDFFF7EAFF34BF012000205DF808FB00BF4DF808EDFFF7E0FF94BF012000205DF808FB00BF4DF808EDFFF7CEFF94BF012000205DF808FB00BF4DF808ED65
:405B4000FFF7C4FF34BF012000205DF808FB00BF4FEA410212F5001215D211D56FF47873B3EB625212D94FEAC12343F0004343EA505311F0004F23FA02F018BF4042704762
:405B80004FF00000704750EA013005D111F0004008BF6FF0004070474FF00000704700BF014B1868704700BFA482FF1F0E4B70B51E460E4C0025E41AA410A54204D056F8F9
:405BC000253098470135F8E700F088F9084B094C1E46E41AA4100025A54204D056F8253098470135F8E770BDE85E0000E85E0000E85E0000F05E0000931E222B10B50C4654
:405C000002D90020087010BD0A2A06D1002804DA2D230B704042012100E00021214400F017F8204610BDFFF7E7BF10B5431E0A44914204D011F8014B03F8014FF8E710BD09
:405C400003460244934202D003F8011BFAE77047F0B58BB003460F466D461A4C04F1200E2E4620686168083403C674453546F7D1217920683171911E222930604FF0000032
:405C800001D938701CE07D1EB3FBF2F402FB14330AAE334413F8283C411C05F8013F23460CB10846F0E77C543A18C11A8B4206DAF95C1478FC5402F801190133F5E73846F3
:405CC0000BB0F0BDB65E000000000000004F0040180040510040300000000140001000140140000800400140000A004C0140000210500140100000000050014048100048D6
:405D00001000000030313233343536373839414243444546000000001201000202000008B40432F2010001028001000009024300020101C0320904000001020201030524AE
:405D400000100104240202052406000105240100010705810308000A09040100020A000004070582024000000705030240000000040309042C034300790070007200650064
:405D8000730073002000530065006D00690063006F006E0064007500630074006F007200100355005300420055004100520054003803430044004300200043006F006D0001
:405DC0006D0075006E00690063006100740069006F006E00200049006E007400650072006600610063006500260343004400430020004400610074006100200049006E0057
:405E0000740065007200660061006300650000000203000000008103080002000100820240000A000100030240000A00020A0000010000002C5D000003000000145E0000CB
:405E400000000000000000000000000000000000000000002C5E000001000000185D0000000000000000000001000000305E000001000000585E000012034D0053004600E1
:405E80005400310030003000010000002800000000010400010000000000000000014359555342000000303030303100000000000000000043003031323334353637383906
:405EC0006162636465666768696A6B6C6D6E6F707172737475767778797A0000F8B500BFF8BC08BC9E4670474D0000008D1D0000F8B500BFF8BC08BC9E4670472900000065
:405F0000105F0000C880FF1FE00100002068000000000000A5000000A5000000010101010101010101010101010101010101010100010000000000000000000000000000C4
:405F400000010100010001010101010001010100010101000101000000010000000100000000000000010001010101000100010001010100010001010100010100000001FE
:405F800000010000000100010000000000010100010101000100010001000100010101000101000100010000000100010001000100000001010001000100010101000100C2
:405FC0000100010001010101000000010001000000010000000100000001010101000100010101010101010101010100010100000000000000000000000000000000000184
:406000000100010101010101010101010100010101010101000000000000000100000000000000000001010101010101010101010101010101010101010000000101000037
:406040000109050507010D0509090000010000000100000000C2010000000800C201000000080000A12000000000020000000000807F0000030000000087930360EA00001C
:406080003C00000000003075FFFFFFFF0000000000000000000000000000000000000000000000000000000000000000B45E000000000000000000000000000000000000F1
:4060C00000000000000000000000000000000000000000000000000000000000000000000000000000000000000000004482FF1F00000000000000000000000000000000BC
:40610000000000000000000000000000000000000000000000000000000000000000000000000000000000000000000000000000000000000000000000000000000000005F
:40614000000000000000000000000000000000000000000000000000000000000000000000000000000000000000000000000000000000000000000000000000000000001F
:4061800000000000000000000000000000000000000000000000000000000000000000000000000000000000000000000000000000000000000000000000000000000000DF
:4061C000000000000000000000000000000000000000000000000000000000000000000000000000000000000000000000000000000000000000000000000000000000009F
:020000040003F7
:0200000480007A
:4000000001450040044F004007520040015B004006640040036500404A0001403B010140500201404B0301403D0401404E0501406C06014052070140320801405509014079
:40004000520A01405C0B0140470C01405D0D0140340E01403A0F014053140140531501404A1601404E1701404D180140551901403D1A0140511B01400F4001401241014099
:400080000F42014010430140014401400F4501400A46014012470140064801400D4901400C4C0140044D014005500140035101407E0201200A4B0D20164B08400980108C67
:4000C00011C9181061047C402784800F846F88058A0F8C388F72846F870F8B0D01010302060409020A080B010D040E02170C19011B021E08240A29012A012B123008311090
:400100003201330434043503360237083B203E413F04540F5604580459045B045C035F01817F84B4864089FE8A018B018C708DC58F3A90C49196921093689401950E97F033
:400140009A029B019C809E14A201A404A6F0AA08ACC4ADA3AE20AF5CB0F0B202B3FFB40CB601BE40BF04D280D804D904DB04DF0100A00220051006220B010D200E220F408E
:4001800011081208154016801728180819441A401B101C021D101E081F0A21512204230827202B082D402F023008312035103601370939A23C103DA03E223F42480149802F
:4001C000580A59205A406202768080128202840887018C04C0E7C2F1C4F6CA14CCE6CEBDD60FD801E208050109011101170119011F012101220226013002330134015608C5
:40020000580459045B045C305D905F01800C81018302841885308704880189028B3D8D018E208F0290029418980299309B089D1C9E01A002A12CA310A401A520A704A80238
:40024000A901AB82AC14AD40B002B180B220B303B401B53CB61CB740B880BB08BE11BF40C005C704C9FFCA07CBFFCC40CD20CEF0CF05D008D804D904DA04DD04DF01E04089
:40028000E1A8E240E32000640380082009010A200B01104011081205165019221A021B841C401D20210122902310271029012A812B242E0232103380376A384439023B149E
:4002C0003D043E043F204B4053055D50665081418604870489028F10912092089701984099C09A049B409D209F01A204A312A458A574A638A701AA04B040B504B740C00FD8
:40030000C20FC43FCA8FCCFCCE6FD208D630D830E010E202E408E601EA01EC0100F70308045406A0070709010A070B020D371104120814C0163419571C772161230224A1EE
:40034000265228312AC22D602F0430F0320F330F37703980540F580459045B045F05810183028516872989018B828D288F1491019342993CA11CA90CAB30AD30AF0CB1808B
:40038000B340B53CB703BB80D608D804D904DB04DC03DD90DF0101020328062007680AA20F201314150416021706188019031B0820202144241025112620270128402B02C6
:4003C0002D102F4232203301362139BA3B803C103D823E04580259405A085B105C806124668079807B018301874088408C208D049124922A931A974599C09B409C209D0123
:400400009E029F2BA204A312A458A554A610A721AAA8AD10B280C07EC22DC4B6CAB9CCA5CEFFD61FD816DE08E404E60AEA04EC04EE0102020408061008100A080B100D0CE9
:400440000F02130F190B1A041B041D0C1F0121072201280829082A102B012C082E102F20300132043310341835203602370F3A204056410249FF4AFF4BFF4DA04F01501850
:40048000580459045A045F016040628064406540668068406A806C406D206E8080FD8202843086C9870F89948A0F8B608D73913093C994CF963099FD9B029C739D9E9F605E
:4004C000A49EA660A894AA60ADCFAF30B0FFB1FFBE01BF01C056C102C54EC6C2C703C81FC9FFCAFFCBFFCDAFCE07CF01D018D804D904DA04DF01E040E280E440E540E68004
:40050000E840EA80EC40ED20EE80010203280408051006400A220E0813141540168017201A801D101E221F212101240825502680272029402B022D502F41304032A0330172
:40054000354036203701380439B83A043B803DA040044604484049844A084D804E0850885120820283108B08908091AC9222931895029680970599829AA09B059C429D04C1
:400580009E029F1AA224A30AA448A560A611A720A880AE24AF01C07EC245C4D6CAB8CCBDCE3ED024D23CE004E60DEA4CEE840203031007010B200C010D20112114081720D5
:4005C0001A041B081E041F0420082302252429082B202D223002320433203408351F3601382039203E143F1056025739580C59045B0C5C335D305F0180048E019001980870
:40060000A202B008B404B603BE11D804D904DC39DF0101800240044209200A400B800E110F0813011480180219801A041B011C401F542424251029012C942E202F013010AA
:40064000322A3502360B37503A203B423C803D213E083F40450147015E1067206D086F5D7480760879017A807D80812082018301870189018C1091509203930396C4970867
:4006800098209A609B209C449D2B9E089F40A020A285A304A4C2A555A628A748AA40AE08B010B112C099C2EAC418CAF1CCF7CEFDD620D840DE10E024EA40EE8403151133B0
:4006C000130C19031B04213323042708292A2B04310F353039203B023F105401580459045B045C435D405F018283830484088702883C8AC28C2090FF94CF96309704983C5D
:400700009AC19C04A004A208A410A830AE0CAF01B104B23FB301B4B0B502B640B880BA28BF01C064C102C203C401C5C0C70EC812C9FFCAFFCBFFCC62CDA0CEF0CF41D00CF0
:40074000D401D804D904DA04DB0CDC04DD34DF01E640E702E910EA30EB10ED10EE10EF1200800102022804100691080409100B020D200F5212401302158017191C101D347B
:400780001E011F1020082102220124842720288029282B402C0230303102370438023D013F0444484580468047044D014F10570458105A845B025E407C087D848001814001
:4007C0008202840489048B448C048D109190931394809520972898289A719B1D9C809D2D9E8A9F40A030A180A285A301A4C0A505A628A708A904AA08B108C0FFC2F7C4F01A
:40080000CA17CC45CEC1D0F0D220D61FDE10E240E420E648EC04EE2001800204034005080B080D100F201301154017801A0C1B041D041E02210222012501260829202B1076
:400840002C042E082F023001360E37FF38083E443F405418580459045B045C035D405F01851489108B0C97039D10A10CA311A509A710A91CAB02B31FC021C104C50CC60EB0
:40088000C70BC815C9FFCAFFCBFFCEF0CF44D00CD608D804D904DA04DB04DC43DD94DF01E6C0EA40EB020102022804810580080109100B020E051180154116101C201D80A1
:4008C0001F4121082680288029282C802D012E082F0930403108340136293740380839203C803DAA3E203F2040804110420248205004524059035A905F0260016210630A51
:40090000658067086D406F01801081048210844085408A108E40919092059311941197A298289A019B1E9D019E809F01A205A310A540A638A704A908AB40B140B304B42123
:40094000B520B710C01EC2CBC4B1CAF7CCFACEF6D00DD68CD83CE090E201E440E810EA805608580459045B045C335D905F018040821183088710883089468AC38B218D04AC
:400980009108931094F395029608988099619A229B069D679E0CA051A121A2A2A4F3A507A604A760A906AF61B118B307B4F0B546B60FB720BA88BB08D602D711D804D9043C
:4009C000DB04DC44DD40DF010120022004010510080209080B120E110F08104111801208150417011D101E051F04250826022726284029012B182EA02F50300132283540CC
:400A000037293B023C913F085B405E206301640867086C016D146E1874407621771879807A028C028E018F08C056C2E9C43BCAF7CCF7CEF1D628D808E010E208020805C5A7
:400A40000604073A0810090E0BF00C040DFE0F01117F1601180419A31B5C22122301240425962768280430103202340C360137FF3E013F40405649FF4AFF4BFF4F015018E2
:400A8000540F580459045A045B045D015F056040624064406540668068806A806C806E8081018B01910197019901A101A901B701C036C9FFCAFFCBFFCD83CE03CF01D0187E
:400AC000D608D804D904DA04DB04DC33DD91DF01E040E240E440E540E680E880EA80EC80EE800042032805100620070608080B040C080F201080122013101501160217085F
:400B000018081B8A2002254028822B222C082D01300132313510370A38C03B143E22450448064A084E0859015A185B805E406004610466407801808681048404870488506D
:400B400089408D048E4090849101923A931C980899019A229B8E9C529E40A084A330A504A780AF02B101B702C0EFC226C4BECAA3CCE5CEAED040D22CD61FD816DE01E204F5
:400B8000E45BE680EC04EE0206010C0114011A01200126012C013401403246E047C2483849FF4AFF4BFF4D834E034F015018580459045A045C335D015F01604062406440A3
:400BC0006540668068806A806C806E80800185608710880489408B088D02913894089503960199609B089C089D03A158A320A778A808A904AA06AF04B004B104B202B30269
:400C0000B401B578B608B701B880B988BE51BF05D40FD604D804D904DB04DF01038806200702080809800A020E200F28100415011602170819411A081B081D102208238518
:400C400029022A102B222C042D012E10308832113610370A39803B143D043E223F084504460454145502560458505906620280048194840C860288108942908091849222B0
:400C80009318970599029A329B0C9C029E409F02A088A330A608A880AB10AE10B708C0AAC265C4B2CA8FCCEFCEEED060D60FD801E20CE404E608EA0213021F0126013001B7
:400CC000330235014046410149FF4AFF4BFF4DA04F01501852035302580459045A045B045C335D305F016040628064406540668068406A806C406D206E80800181018601B1
:400D00008701880189018C019401950199019C01A101A401AF01B001B101C042C101C503C6C2C74EC83DC9FFCAFFCBFFCDAFCE07CF01D018D804D904DA04DC33DF01E04097
:400D4000E280E440E540E680E840EA80EC40ED20EE8000840102020804040501070808840B020C040E0212201480160817141A401C801D011F0222022628271829022B0275
:400D80002D022E082F0132283620374138043A203B023C843E20400A4102440245024B084E04501653406D806E107802790280108744880889018A048B048E429004915294
:400DC000920293029690982499029A209B659C409D28A020A205A442A540A628A740A880AF20B404B501C07FC2A5C474CAD9CCB6CE77D09DD220E080E4A4EE41061C081CA2
:400E00000AA30CA10E0E16081CA11E1626802C402E8330803260340F361A38083AA03E015280580459045B045C345F01840187028A018C08920893049404980299029E0891
:400E40009F01A001A108A402A704A802A908AF02B008B104B204B308B401B502B602B701B908BE15BF11D280D401D804D904DB04DC04DD10DF0101A80420072108080A0290
:400E80000C080E4A1020114014201512168019A81A801B401C201D821F10246025042610270129022D042E802F4430403180322833023501376038043A203B023D085C40DB
:400EC0005D015F04724075018101820183408408850488108A108B108C0C900C91539202938E9680982099029A209B209C409D28A020A22CA302A502A740AE20B220B402FC
:400F0000C0E7C2F5C475CAF1CCB7CE47D6D0E2B0E430E680EC04EEC01220168030803301350837203A203B023E8083208620C430CCF0CE70E290034005020820090132107B
:400F4000371081028D0197029D089F01A480AA20C030C250CC30E420EC8052805A015E018508962097029B409D089F11A480AC20D420D6C0E610EC101B011F028302868013
:400F80009F01A680A880AB51B201B610C630E020E610EA20EC80EE20871009025120548059105C406210662081028C809710C208D407D604D803E4021B042740840897104B
:400FC0009D109E30A520A840C608C80108080B020F10460283408D2097129B409C089D109E30A520AB04B701C20ED004E402EA02062087019F01A301C020E24019105E017D
