:400000000080002011000000251C0000251C000080B500AF024A034B1B68136001F034FEBC760040FA46004010B5054C237833B9044B13B10448AFF300800123237010BD62
:400040000083FF1F0000000088630000084B10B51BB108490848AFF300800848036803B910BD074B002BFBD0BDE81040184700BF000000000483FF1F88630000C880FF1FB8
:400080000000000080B400AF034B01221A6000BFBD4680BC704700BF3883FF1F80B400AF034B01221A6000BFBD4680BC704700BF4C83FF1F90B5ADF6340D02AF62B60121E2
:4000C000002002F05FF805F0BFF804F025FE04F0A9FE9B4801F06EFF012005F031F901F029FF01F03FFF974805F03AF900F0ACFB00F0D2FB924801F05DFF01F0DFFF0023FC
:40010000C7F8243821E007F58263D7F82428372103F8121007F58262D7F824385B00134437225A7007F50772D7F82438134400221A7007F12802D7F82438134437221A7028
:40014000D7F824380133C7F82438D7F82438B3F5FA7FD8DB4FF47A6004F032FB7A4800F053FB07F5826207F1280107F50773184600F000FC754800F047FB0023C7F82038DE
:400180001FE007F58263D7F8202813F81230194607F58262D7F820385B0013445B7807F11C0000930B466A4A0A2105F0B3FC07F11C03184600F028FBD7F820380133C7F8F3
:4001C0002038D7F82038B3F5FA7FDADB614800F01BFB0023C7F81C3815E007F50772D7F81C3813441B7807F110005B4A0A2105F091FC07F11003184600F006FBD7F81C3877
:400200000133C7F81C38D7F81C38B3F5FA7FE4DB524800F0F9FA0023C7F8183816E007F12802D7F8183813441B78381D4C4A0A2105F070FC3B1D184600F0E6FA494800F026
:40024000E3FAD7F818380133C7F81838D7F81838B3F5FA7FE3DB444B1B68012B68D101F0EBFE424B1B68002B11D104F06DFD03461A463F4B1A6004F0EDFD03461A463D4BB9
:400280001A603A4B1B680133384A13604BE0374B00221A6004F058FD03461A46364B1A6004F0D8FD03461A46344B1A60324B1A682F4B1B68D31A324A1360304B1A682D4BA5
:4002C0001B68D31A2F4A13602E4B1B6883EAE372A2EBE3722A4B1B68002BB8BF5B421344DA0F13445B10C7F8F837274B1A68D7F8F8371344244A1360234B1B68184605F06D
:40030000FFF903462149184605F04EFA0346184605F09AFB02461E4B1A60002004F026FD002004F0A9FD104B00221A6001F078FE174B1B68174A93422EDD00F0ADFA8AE79E
:400340009D000000850000008C630000A0630000AC630000B8630000C8630000D0630000DC630000E06300004C83FF1F5083FF1FCCD2FF1F9CA3FF1FE4A3FF1F9893FF1F7A
:40038000E0A3FF1F70E2FF1F3483FF1F25314C3E5483FF1F7F969800002005F067F8BA4B1B68012B7FF457AF03F0C6FFB74B1C68002001F0DDFD03461A46B54B43F82420E3
:4003C000B24B1C68012001F0D3FD03461A46B14B43F82420AD4B1C68022001F0C9FD03461A46AD4B43F82420A84B1C68032001F0BFFD03461A46A94B43F82420A34B1C682C
:40040000042001F0B5FD03461A46A54B43F824209E4B1C68052001F0ABFD03461A46A14B43F82420994B1B680133984A1360974B1B68B3F57A7F40F0D081012005F016F803
:40044000924B00221A600023C7F814380023C7F810380023C7F80C380023C7F808380023C7F804380023C7F800380023C7F8FC3758E0874AD7F8FC3752F8233040F6B8324E
:40048000934204DDD7F814380133C7F81438814AD7F8FC3752F8233040F6B832934204DDD7F810380133C7F810387B4AD7F8FC3752F8233040F6B832934204DDD7F80C384D
:4004C0000133C7F80C38754AD7F8FC3752F8233040F6B832934204DDD7F808380133C7F808386F4AD7F8FC3752F8233040F6B832934204DDD7F804380133C7F80438694A34
:40050000D7F8FC3752F8233040F6B832934204DDD7F800380133C7F80038D7F8FC370133C7F8FC37D7F8FC37B3F57A7FA1DBD7F81038952B03DC002004F0B6FF02E001204B
:4005400004F0B2FFD7F80C38952B03DC002004F055FF02E0012004F051FFD7F80438952B03DC002004F068FF02E0012004F064FF4D4B00221A604D4B00221A60D7F8143873
:40058000952B16DCD7F80C38952B12DCD7F80038952B0EDCD7F80838952B0ADCD7F81038952B06DCD7F80438952B02DC00F074F913E13F4B1B68012B14D106E000F0A6F91C
:4005C0003A4B1B680133394A1360384B1B6842F210729342F2D1374B00221A60344B00221A60FAE0344B1B68012B14D106E000F0A7F92E4B1B6801332C4A13602B4B1B68C7
:4006000042F210729342F2D12A4B00221A602A4B00221A60E1E0D7F81438952B17DCD7F80C38952B03DDD7F81038952B0FDC214B1B68012B0BD11D4B1B6801331B4A136058
:400640001B4B01221A601D4B00221A60C5E0D7F80038952B34DCD7F80C38952B03DDD7F80438952B2CDC134B1B68012B28D10F4B1B6801330D4A13600F4B01221A600F4B3F
:4006800002221A60A9E000BF3883FF1F3C83FF1FBC93FF1F8CB3FF1F2CC3FF1FE8A3FF1FF883FF1FD0D2FF1F1C81FF1F7083FF1F4083FF1F6C83FF1F4483FF1F7483FF1F11
:4006C000D7F80438952B04DCD7F81038952B40F38480D7F81438952B03DCD7F80038952B7BDDD7F80C38952B0CDCD7F81038952B08DC00F0DBF83C4B01221A603B4B002263
:400700001A606AE0D7F80C38952B0CDCD7F80438952B08DC00F0E2F8344B02221A60324B01221A6059E0D7F80C38952B15DC304B01221A602D4B01221A602B4B01221A604D
:400740002C4B1C682C4B1B68184605F07DF903461946204600F086F83FE0D7F80438952B08DC00F0BBF8204B01221A601F4B02221A6032E0D7F81038952B08DC00F096F873
:40078000194B01221A60194B00221A6025E0D7F81438952B06DC194B01221A60134B00221A601AE0D7F80038952B06DC144B01221A600E4B02221A600FE00C4B1B68002BF1
:4007C00002D100F0A3F808E0084B1B68012B02D100F0B6F801E000F0B3F80A4B00221A6003F09EFD37E500BF6C83FF1F7483FF1F1C81FF1F5483FF1F1081FF1F4083FF1F08
:400800004483FF1F3883FF1F80B582B000AF786000BF01F0CDFF0346002BFAD07B683F3300221A707B683E3321221A70786805F0A3F903469BB21946786801F083FF00BFB8
:400840000837BD4680BD00BF80B500AFFA2004F04BF9FA2004F00CFA04F0B2F804F074F900BF80BD80B582B000AF78603960084B1B68DBB2184604F047F9064B1B68DBB218
:40088000184604F005FA00BF0837BD4680BD00BF2081FF1F2481FF1F80B500AF7D2004F033F97D2004F0F4F900BF80BD80B500AF084B1B68DBB2023BDBB2184604F024F9CD
:4008C000054B1B68DBB20233DBB2184604F0E0F900BF80BD2081FF1F2481FF1F80B500AF084B1B68DBB20233DBB2184604F00CF9054B1B68DBB2023BDBB2184604F0C8F990
:4009000000BF80BD2081FF1F2481FF1F80B500AF094B1B68DBB2C3F10103DBB2184604F0F3F8064B1B68DBB2073BDBB2184604F0AFF900BF80BD00BF2081FF1F2481FF1F08
:4009400080B500AF094B1B68DBB2073BDBB2184604F0DAF8064B1B68DBB2C3F10103DBB2184604F095F900BF80BD00BF2081FF1F2481FF1F80B586B000AFF860B9607A6014
:4009800004237B6129E07B69002B0AD1194B1B781A46194B1A60174B5B781A46164B5A6010E07B69013B154A12F813301A46124B1A607B69013B114A5B0013445B781A4609
:4009C0000D4B5A607B695B000C4A13441946786800F016F87B69013B7B617B69002BD2DA7A68B968F86800F0CFFB00BF1837BD4680BD00BF4882FF1F5882FF1F4C82FF1F0F
:400A000080B5ADF59A5D84B000AF07F110030C3B186007F11003103B1960002307F59A5202F10C021360002307F59A5202F108021360002307F59A5202F1040213600023D8
:400A400007F59A52136043E0002307F5995202F11C0213602EE0924907F59A531A681346DB0013445B001344CA1807F5995303F11C031B681344187807F5116107F59A533B
:400A80001A681346DB0013445B001344CA1807F5995303F11C031B68134402461A7007F5995303F11C031B68013307F5995202F11C02136007F5995303F11C031B68122B16
:400AC000C9DD07F59A531B68013307F59A52136007F59A531B680E2BB6DD07F29C43184640F274431A46002105F00BF807F13003083B184640F274431A46002105F001F861
:400B0000684B196807F5236307F59A5202F10402126843F83210634B5A6807F5236107F59A5303F104031B68DB000B445A6007F59A5303F104031B68013307F59A5202F176
:400B400004021360002307F5995202F104021360002307F5995202F118021360002307F5995202F11402136018E207F5236307F59A5202F10802126853F8323007F5995207
:400B800002F11802136007F5236207F59A5303F108031B68DB0013445B6807F5995202F11402136007F59A5303F108031B68013307F59A5202F10802136007F5116107F510
:400BC000995303F118031A681346DB0013445B001344CA1807F5995303F114031B68134401221A7007F59A5303F10C031B68013307F59A5202F10C02136007F5995303F104
:400C000018031B685A1C07F11003083B1A6007F11003083B07F5995202F1140212685A6007F5995303F118031B685A1E07F11003083B9A6007F11003083B07F5995202F104
:400C400014021268DA6007F11003083B07F5995202F1180212681A6107F5995303F114031B685A1C07F11003083B5A6107F11003083B07F5995202F1180212689A6107F5CB
:400C8000995303F114031B685A1E07F11003083BDA61002307F5995202F11002136053E12881FF1F5882FF1F07F11003083B07F5995202F11002126853F8323007F59952FC
:400CC000136007F11002083A07F5995303F110031B68DB0013445B6807F5985202F11C02136007F599531B68002B40F3228107F599531B680F2B00F31C8107F5985303F1E8
:400D00001C031B68002B40F3148107F5985303F11C031B68132B00F30C81C64907F599531A681346DB0013445B001344CA1807F5985303F11C031B6813441B78012B00F0C8
:400D4000F88007F5116107F599531A681346DB0013445B001344CA1807F5985303F11C031B6813441B78012B00F0E38007F5236307F59A5202F10402126807F599510968EA
:400D800043F8321007F5236207F59A5303F104031B68DB00134407F5985202F11C0212685A6007F59A5303F104031B68013307F59A5202F10402136007F5116107F599532C
:400DC0001A681346DB0013445B001344CA1807F5985303F11C031B68134431221A7007F29C4107F5995303F118031A681346DB0013445B00134407F5995202F114021268AB
:400E0000134451F82330581C07F29C4107F599531A681346DB0013445B00134407F5985202F11C021268134441F8230007F599531B685A1C07F5995303F118031B689A4273
:400E400014D107F13002083A07F5995319680B46DB000B445B000B4407F5985101F11C0109680B44012142F8231062E007F5985303F11C031B685A1C07F5995303F1140328
:400E80001B689A4214D107F13002083A07F5995319680B46DB000B445B000B4407F5985101F11C0109680B44022142F8231040E007F599531B685A1E07F5995303F11803B6
:400EC0001B689A4214D107F13002083A07F5995319680B46DB000B445B000B4407F5985101F11C0109680B44032142F8231020E007F5985303F11C031B685A1E07F5995392
:400F000003F114031B689A4213D107F13002083A07F5995319680B46DB000B445B000B4407F5985101F11C0109680B44042142F8231007F5995303F110031B68013307F581
:400F4000995202F11002136007F5995303F110031B68032B7FF7A8AE07F11003103B1B681B781A4607F5995303F118031B689A4214D107F11003103B1B6801331B781A469B
:400F800007F5995303F114031B689A4206D1012307F5995202F10402136013E007F59A5303F108031A6807F59A5303F104031B689A4207DA07F5995303F104031B68002B7F
:400FC0003FF4D3AD07F5995303F118031B6807F5995202F10C02136007F5995303F114031B6807F5995202F108021360124B1B685A0007F110030C3B1B68134407F599524F
:4010000002F118021268D2B21A700B4B1B685A0007F110030C3B1B68134407F5995202F114021268D2B25A70034B1B680133024A13608BE02881FF1F8083FF1F07F13002C3
:40104000083A07F5995303F10C0319680B46DB000B445B000B4407F5995101F1080109680B4452F8233007F5985202F11802136007F5985303F118031B68012B0BD107F57C
:40108000995303F10C031B68013307F5995202F10C02136037E007F5985303F118031B68022B0BD107F5995303F108031B68013307F5995202F10802136024E007F59853B6
:4010C00003F118031B68032B0BD107F5995303F10C031B68013B07F5995202F10C02136011E007F5985303F118031B68042B0AD107F5995303F108031B68013B07F599524E
:4011000002F1080213601E4B1B685A0007F110030C3B1B68134407F5995202F10C021268D2B21A70164B1B685A0007F110030C3B1B68134407F5995202F108021268D2B211
:401140005A700F4B1B6801330D4A13600D4B1A6807F5995303F10C031B689A427FF46EAF084B5A6807F5995303F108031B689A427FF464AF00BF07F59A571037BD4680BD02
:401180008083FF1F5882FF1F80B4ADF21C4D00AF07F10C03186007F1080319603B1D1A600023C7F8143440F2F313C7F810342DE0D7F8103407F108021268134446221A7014
:4011C000D7F810345B003A1D12681344197807F11403D7F8142403F81210D7F810345B003A1D12681344597807F11402D7F814345B0013440A465A70D7F814340133C7F833
:401200001434D7F81034013BC7F81034D7F81034002BCDDA0023C7F80C341FE0D7F80C345B003A1D1268134407F11402D7F80C1412F811201A70D7F80C345B003A1D12687F
:401240001A4407F11401D7F80C345B000B445B785370D7F80C340133C7F80C34D7F80C34B3F5FA7FDADB0023C7F8083471E2D7F808345B003A1D126813441B7887F8FF334A
:40128000D7F808345B003A1D126813445B7887F8FE33D7F8083401335B003A1D126813441B7887F80734D7F8083401335B003A1D126813445B7887F80634372387F80534AE
:4012C00097F8FF2397F807349A4205D197F8FE2397F806349A4207D097F80734372B07D197F80634372B03D1002387F805342AE097F8FF335A1E97F807349A4203D10123D6
:4013000087F805341FE097F8FF335A1C97F807349A4203D1022387F8053414E097F8FE335A1C97F806349A4203D1032387F8053409E097F8FE335A1E97F806349A4202D14E
:40134000042387F80534D7F80834002B03D197F80534BD4A13600023C7F80034C6E097F8FF33372B05D1D7F808340133C7F80834C1E097F80534032B03D097F80534042BF2
:4013800023D197F807345A1C97F80614AF481346DB0013445B00134403440B441B78002B0FD097F807345A1E97F80614A7481346DB0013445B00134403440B441B78002B7E
:4013C00027D10123C7F8003423E097F8072497F80634591C9D481346DB0013445B00134403440B441B78002B0FD097F8072497F80634591E95481346DB0013445B0013447A
:4014000003440B441B78002B04D10123C7F8003400E000BF97F80534012B0FD1D7F808345B003A1D126813441B785A1E97F807349A423ED00123C7F800343AE097F80534B3
:40144000022B0FD1D7F808345B003A1D126813441B785A1C97F807349A422AD00123C7F8003426E097F80534032B0FD1D7F808345B003A1D126813445B785A1C97F8063495
:401480009A4216D00123C7F8003412E097F80534042B0ED1D7F808345B003A1D126813445B785A1E97F806349A4202D00123C7F80034D7F80034002B18D1D7F808340133CE
:4014C000C7F80834D7F8083401335B003A1D126813441B7887F80734D7F8083401335B003A1D126813445B7887F80634D7F80034002B3FF434AF97F80534012B38D1524BB6
:401500001B68012B09D1524B1B681A4607F10C031B68134402221A70EFE04B4B1B68022B09D14B4B1B681A4607F10C031B68134404221A70E1E0444B1B68032B09D1444BB0
:401540001B681A4607F10C031B68134401221A70D3E03D4B1B68042B40F0CF803C4B1B681A4607F10C031B68134403221A70C4E097F80534022B38D1334B1B68012B09D1EB
:40158000334B1B681A4607F10C031B68134404221A70B2E02C4B1B68022B09D12C4B1B681A4607F10C031B68134402221A70A4E0254B1B68032B09D1254B1B681A4607F1F3
:4015C0000C031B68134403221A7096E01E4B1B68042B40F092801E4B1B681A4607F10C031B68134401221A7087E097F80534032B3ED1154B1B68012B09D1154B1B681A460E
:4016000007F10C031B68134403221A7075E00E4B1B68022B09D10E4B1B681A4607F10C031B68134401221A7067E0074B1B68032B10D1074B1B681A4607F10C031B681344D7
:4016400002221A7059E000BF8483FF1F2881FF1F7883FF1F454B1B68042B4ED1444B1B681A4607F10C031B68134404221A7044E097F80534042B37D13C4B1B68012B09D128
:401680003B4B1B681A4607F10C031B68134401221A7032E0354B1B68022B09D1344B1B681A4607F10C031B68134403221A7024E02E4B1B68032B09D12D4B1B681A4607F1CA
:4016C0000C031B68134404221A7016E0274B1B68042B12D1264B1B681A4607F10C031B68134402221A7008E0214B1B681A4607F10C031B68134400221A7097F80534002BBA
:4017000003D097F80534194A1360194B1B681A4607F10C031B6813441B78002B0FD0154B1B68002B0BD1124B1B68013B07F10C021268134402221A700E4B01221A600C4B9B
:401740001B6801330A4A1360D7F808340133C7F80834D7F80834B3F5F97F7FF788AD00BF07F21C47BD4680BC704700BF8483FF1F7883FF1F8883FF1F80B582B000AF7860B6
:4017800039603A680021786804F0BBF900BF0837BD4680BD80B584B000AFF860B9607A607A68B968F86804F0A1F900BF1037BD4680BD00BF80B483B000AF0346FB71FEE7FE
:4017C00080B487B000AF7860396000233B6100237B6127E07B699B007A6813441B68BB60BB68FB73BB6823F0FF03BB6014E03B695B003A6813441B781A46BB6813441946A7
:401800003B695B003A6813445B780B703B6901333B61FB7B013BFB73FB7B002BE7D17B6901337B617B692B2BD4D900BF1C37BD4680BC704780B582B000AF3C4B04221A8035
:401840003B4B18221A703B4B3B221A803A4B1C221A703A4B3B221A80394B18221A70394B3B221A80384B18221A70384B81221A80374B18221A70374B06221A70364B52229F
:401880001A70364B364A1278D2B21A70354B40F619121A80344B41F251221A800023FB7019237B6014E0FB785B00DAB22F4B1B78DBB203F00103DBB21343DBB203F00303DE
:4018C000FB704FF4F07003F00FFE7B68013B7B607B68002B02D0FB78032BE4D17B68002B02D10320FFF766FF214B4FF480721A801F4B07221A701F4B00221A701E4B48220A
:401900001A701B4B00221A701C4B00221A701C4B02221A701B4A1B4B1B78DBB243F01F03DBB2137000BF0837BD4680BD804000408240004084400040864000408840004041
:401940008A4000408C4000408E40004090400040924000400043004000420040A14600400F0100492242004020420040254200400440004006400040084000400940004094
:4019800001400040A243004080B582B000AF214B1B78FB71204B1B78BB71204B1B787B711F4AFB7903F00703DBB213701D4AFB791B09DBB21370184ABB7943F00303DBB297
:4019C0001370164A7B7943F00303DBB21370164B40221A70154BC7221A70154B80221A70144B0F221A70144B20221A70134B04221A700A2002F006FF084A7B791370064A8E
:401A0000BB7913700E4B44221A7000BF0837BD4680BD00BFCF010049F8460040F94600406E5800406F5800401D5100402D51004001590040205B0040235B0040585B004014
:401A40007658004080B586B000AF72B6584B61221A70FFF7EFFE564B01221A70554A554B1B78DBB243F00403DBB213700023FB7513E0FA7D13465B0013445B004E4A13443A
:401A80003B613B691A683B699B889BB219461046FFF772FEFB7D0133FB75FB7D062BE8D90023FB751CE0FA7D13469B0013445B00424A1344FB60FB681B68BB60FB685B689E
:401AC0007B60FB681A7A5B7A1B0213437B807B881A467968B868FFF75DFEFB7D0133FB75FB7D002BDFD036494FF09040FFF768FE04213448FFF740FE042233493348FFF7DC
:401B000049FE334B334A1A60334B324A1A60334A324B1B78DBB243F00203DBB21370304A2F4B1B78DBB243F00203DBB213702D4A2C4B1B78DBB243F04003DBB213702A4AAF
:401B4000294B1B78DBB243F01003DBB21370082226492748FFF71EFE082226492648FFF719FE0A2225492648FFF714FE082225492548FFF70FFE0A2224492548FFF70AFE31
:401B8000082224492448FFF705FE244A234B1B78DBB243F00803DBB21370FFF7F5FE0E2210491F48FFF7F6FD00BF1837BD4680BD00480040E8460040E4630000106400001E
:401BC000B00000480076004058100048087600405814014004040044D81A01400350014013500140A0430040C2430040201000480251004028100048C25100403010004897
:401C0000F05100403C100048125100404410004820510040501000483251004022430040B043004080B500AF03F034FF03461B680C2B00D1FEE7FEE780B584B000AF7860C4
:401C40000F4B1A687B6813441A460E4BD31A802B09DC0B4B1B68FB60094B1A687B681344074A136007E003F015FF02460C2313604FF0FF33FB60FB6818461037BD4680BD24
:401C80006082FF1F68E3FF1F80B586B000AF224B7B61224B3B61204B7B6135E03B691B68FB603B695B68BB603B699B683B6000237B600CE0FB681A68BB681A60BB680433E7
:401CC000BB60FB680433FB607B6804337B607A683B689A42EED13B69DB683B6000237B6008E0BB6800221A60BB680433BB607B6804337B607A683B689A42F2D13B69103323
:401D00003B617B69013B7B617B69002BC6D103F0C7FEFEF7CFF9FEE7010000002866000080B582B000AF194B194A1A60194A194B1B6843F40073136000237B600FE07B68EE
:401D4000032B04D8144A7B6852F8233000E0134B13497A6841F822307B6801337B607B682F2BECD90F4B1B78DAB20F4B1A700F4B0B4A1A60FFF766FE02F0FAFA0C4B002241
:401D80001A6000BF0837BD4680BD00BF0CED00E00004FA0514ED00E000000000251C00000080FF1FBC760040C480FF1F08ED00E0C080FF1F80B500AF41F6FF734FF4804277
:401DC0000121022002F024FA03461A460A4B1A7041F6FF7341F6FF7201210C2002F04AFA03461A46054B1A70054802F075FA002002F084FA00BF80BD9083FF1F9183FF1F12
:401E0000A91F000080B582B000AF414B1B78184602F022FB3F4B1B78184602F01DFB3E4B1B78FF2B05D102F023FC03461A463A4B1A70394B1878384B1A7806230C2102F05D
:401E400045FC354B1B78354A92B245F6A031184602F07CFC2E4B1A782F4B1B781946104602F098FB2E4B1B78FF2B05D102F000FC03461A462A4B1A70294B1878284B1A787A
:401E800007230C2102F022FC254B1B78234A91B2244A92B2184602F059FC1E4B1A78204B1B781946104602F075FB194B1B780121184602F08BFA174B1B780121184602F04C
:401EC00085FA03F019FB0346FB71174A164B1B78DBB243F02003DBB21370FB79184603F00FFB124A114B1B78DBB243F00103DBB213700E4A0D4B1B78DBB243F00203DBB2DC
:401F000013700B4B01221A6000BF0837BD4680BD9083FF1F9183FF1F6482FF1F9483FF1F6582FF1F74E2FF1F996400407E64004080E200E080B500AF084B1B68002B04D17D
:401F4000FFF738FF054B01221A6002F05FF8FFF759FF034B1B7800BF80BD00BF8C83FF1F6764004080B500AF02F004F900BF80BD80B483B000AF0346FB80FB88C3F10503F4
:401F8000074A32F913309AB2064B1B881BB29BB2D31A9BB21BB218460C37BD4680BC704774E2FF1F36E3FF1F80B400AF00BFBD4680BC704780B582B000AF786000F03CF815
:401FC000786800F009F8072000F018F800F028F800BF0837BD4680BD80B485B000AF7860054B1B68FB60FB6854337A681A6000BF1437BD4680BC704708ED00E080B483B0FB
:4020000000AF0346FB71054AFB795B01DBB2137000BF0C37BD4680BC704700BF05E400E080B400AF034B20221A6000BFBD4680BC704700BF00E100E080B400AF034B2022F8
:402040001A6000BFBD4680BC704700BF80E100E080B582B000AF42F20F7000F05DF842F20F7000F073F803F047FA0346FB710A4A094B1B78DBB243F01003DBB21370FB799A
:40208000184603F03DFA00F06FF8002000F028F800BF0837BD4680BD9D64004080B400AF054A054B1B78DBB263F07F03DBB2137000BFBD4680BC70477D64004080B500AF51
:4020C000064B1B78002B04D1FFF7C2FF034B01221A70FFF7E3FF00BF80BD00BFA083FF1F80B483B000AF0346FB71044AFB79137000BF0C37BD4680BC704700BF8D6400407E
:4021000080B400AF034B1B78DBB21846BD4680BC704700BF6D64004080B582B000AF78607968034802F030FC00BF0837BD4680BD2B64004080B400AF034B1B6823F07F435C
:402140001846BD4680BC70474B64004080B582B000AF78607968034802F016FC00BF0837BD4680BD0B64004080B500AF01E0FFF7E1FFFFF7C5FF034603F00803002BF6D183
:4021800000BF80BD80B582B000AF03460A46FB711346BB71094B1B78002B04D100F010F8064B01221A70BA79FB791146184600F0D9F800BF0837BD4680BD00BFA183FF1F4A
:4021C00080B582B000AF03F097F90346FB71544A534B1B78DBB243F00103DBB21370514A504B1B78DBB243F00103DBB213704E4B01221A704D4B02221A704D4A4C4B1B7804
:40220000DBB203F07F03DBB21370002002F0FAFA484A484B1B78DBB223F00603DBB21370454A454B1B78DBB223F02003DBB21370404A404B1B78DBB243F00103DBB2137014
:40224000012002F0DFFA282002F0DCFA3B4A3B4B1B78DBB203F07F03DBB21370374A374B1B78DBB223F04003DBB21370314A314B1B78DBB243F00203DBB21370022002F0B6
:40228000C1FA2C4A2B4B1B78DBB243F00403DBB213702B4B00221A702A4B00221A70FB79184603F02DF90721172002F0E7FA2649172002F0BBFA0721182002F0DFFA2349C9
:4022C000182002F0B3FA0721152002F0D7FA2049152002F0ABFA0721012002F0CFFA1D49012002F0A3FA0721022002F0C7FA1A49022002F09BFA0721032002F0BFFA174939
:40230000032002F093FA07210C2002F0B7FA14490C2002F08BFA00BF0837BD4680BD00BFA5430040B54300409D60004009600040106000409443004012600040F8510040BF
:4023400084600040856000407D2F000065280000712F0000892E0000D12E00001D2F0000892F000080B582B000AF03460A46FB711346BB712E4AFB7913702E4B00221A704D
:402380002D4B00221A702D4B00221A702C4B00221A702C4B00221A702B4B00221A702B4B00221A702A4B4FF400021A60284B4FF080721A60264B4FF400121A60244B022226
:4023C0001A60234B04221A60214B08221A60BB79002B02D0012B09D011E01E4A1D4B1B78DBB223F00103DBB2137011E0194A194B1B78DBB243F00103DBB2137008E0154AA1
:40240000144B1B78DBB243F00103DBB2137000BF114B03221A70114B80221A70012003F063F80F4B04221A7000BF0837BD4680BD99E2FF1F9CE2FF1FB8E2FF1FBBE2FF1F25
:40244000B0E2FF1FBAE2FF1FBDE2FF1F98E2FF1F00E100E00960004028600040086000401260004080B400AF0F4B00221A700F4B00221A700E4B00221A700E4B00221A7018
:402480000D4B00221A700D4B00221A700C4B00221A700C4B03221A700B4B80221A7000BFBD4680BC704700BF9CE2FF1FB8E2FF1FBBE2FF1FB0E2FF1FBAE2FF1FBDE2FF1FDF
:4024C00098E2FF1F286000400860004080B483B000AF0346FB71FA79064913465B0013449B000B4401331B78DBB218460C37BD4680BC7047C0E2FF1FB0B485B000AF034616
:402500003960FB711346BB80FB79002B6DD0FB79082B6AD8B988FA79364813465B0013449B00034406331B889BB2C3F5007399420CD9FA792F4913465B0013449B000B442A
:4025400006331B889BB2C3F50073BB802A4CF979BB881B0A9BB2D8B2FA79264D13465B0013449B002B4403331B78DBB20343DAB20B0123441A70204AFB79B988C9B21B01CF
:40258000134401330A461A703B68002B13D00023FB810CE01948FB79FA8939680A4412781B01034408331A70FB890133FB81FA89BB889A42EED3FA790E4913465B00134415
:4025C0009B000B44013300221A700B48F979FA79084C13465B0013449B00234405331B78DAB20B01034402331A7000BF1437BD46B0BC7047C0E2FF1FFC5F00407060004074
:4026000080B582B000AF0023FB71314B1B79DBB2184600F067F80346BB712D4B1B78DBB25BB2002B15DA2A4B5B78DBB2212B00D048E0284B07221A80BA791346DB009B1A0C
:40264000254A1344234A536000F086FA0346FB7138E01F4B5B78DBB2202B02D0222B1AD030E01C4B07221A80BA791346DB009B1A194A1344174A5360BB79BA7917498A5C48
:40268000D2B242F00102D1B2144AD15400F0E2FA0346FB7116E0BB790D4A9278D2B291B20F4A22F81310BB79BA790C498A5CD2B242F00202D1B2094AD15400F069FB0346FE
:4026C000FB7100BFFB7918460837BD4680BD00BF00600040A4E2FF1F6882FF1F80E2FF1F94E2FF1F80B485B000AF0346FB710023FB73FF23BB7317E0FB7B104AD35C7B73AD
:402700007A7B0F4913465B0013449B000B440A331B78DBB2FA799A4203D1FB7BBB730223FB73FB7B0133FB73FB7B012BE4D9BB7B18461437BD4680BC704700BF88E2FF1F0D
:40274000C0E2FF1F80B584B000AF78600B467B80144B1B781A46144B9B5CFB73FA7B134913465B0013449B000B4408331B889BB27A889A420CD9FA7B0C4913465B001344BE
:402780009B000B4408331B887B80002002F00CF87A88FB7B79681846FFF7AEFE00BF1037BD4680BDA283FF1F84E2FF1FC0E2FF1F80B500AF054B1B781A46054B9B5CDBB21F
:4027C0001846FFF783FE0346184680BDA283FF1F84E2FF1F80B485B000AF78600B46FB701346BB707B68DB7803F00303FB737B689B785BB2002B1ADAFB7B032B0AD0BB78B9
:4028000003F001031449FA78CA54BB7843F00103BB701BE0BB789B08DBB203F001030F49FA78CA54BB7843F00403BB700EE0FB7B032B0BD0BB785B08DBB203F00103084972
:40284000FA78CA54BB7843F00203BB70BB7818461437BD4680BC704784E2FF1F88E2FF1F8CE2FF1F80B582B000AF374B1B78BB71BB7903F01003002B62D00123FB7197F9BA
:402880000630002B12DABB7903F00F03012B02D00023FB711CE000F061F82C4B1B78DBB25BB2002B14DA0023FB7111E0BB7903F04003002B02D000F095F809E0BB7903F08F
:4028C0002003002B02D000F0B3F801E00023FB71FB79002B34D01C4B1B78BB7197F90630002B2DDB1A4B1B78DAB21A4B1B78DBB21343BB71184ABB791370174B1B78DBB2C5
:40290000BA799A421CD1114B1B78FB710E4B1B78DBB223F07F03BB71BB79002B0AD10A4B0A4A1278D2B21A70074B1B78DBB203F00F03FB71054B1B78DBB2FA799A42E2D136
:4029400000BF0837BD4680BD28600040B9E2FF1F2EE3FF1FBCE2FF1F2960004080B582B000AF1D4B1B78FB711B4AFB7913701A4B1B78FB7197F90730002B03DA174AFB7903
:40298000137025E0022000F045FA154B1B78DBB203F06003202B08D0402B0BD0002B0ED100F0F8FA0346FB710CE002F0ADFD0346FB7107E001F000FB0346FB7102E0002394
:4029C000FB7100BFFB79002B02D1044B03221A7000BF0837BD4680BD28600040B9E2FF1F0060004080B500AF104B1B78DBB2062B19D801A252F823F0272A0000272A0000BA
:402A0000152A0000272A00001B2A0000272A0000212A000000F0F8F806E000F0A7F903E000F0D2F900E000BF00BF80BD9CE2FF1F80B500AF124B1B78DBB2062B1DD801A2D0
:402A400052F823F07B2A00007B2A0000612A00007B2A0000672A00007B2A00006D2A000000F0D8F80AE000F027F907E0032000F0D1F9044B03221A7000E000BF00BF80BD9B
:402A80009CE2FF1FB9E2FF1F80B483B000AF0023FB71294B1B78DBB29AB2284B1B889BB213449AB2254B1A8015E02549FB79254A52681278D2B2CA54224B5B680133214A31
:402AC0005360FB790133FB711E4B1B889BB2013B9AB21C4B1A801B4B1B889BB2002B02D0FB79072BE1D9144B1B78DBB2082B02D0FB79002B0FD0144B1B78DBB283F07F0304
:402B0000DB43DAB2104B1A70104B0F221A70104B02221A7005E00D4B02221A700C4B02221A700C4AFB791370034AFB79137000BF0C37BD4680BC704798E2FF1F9AE2FF1F3C
:402B400000600040A4E2FF1F2EE3FF1FB9E2FF1F9CE2FF1FBCE2FF1F80B582B000AF164B1B889BB2002B02D100F02EF81EE0134B02221A70124B00221A7000F06BF9114B93
:402B8000DB79DBB29BB21B029AB20E4B9B79DBB29BB21343FB80084B1B889BB2FA889A4202D2054AFB881380FFF76EFF012318460837BD4680BD00BFA4E2FF1F9CE2FF1F29
:402BC0002EE3FF1F0060004080B400AF094B02221A70094B80221A70084B0F221A70084B00221A70074B00221A7001231846BD4680BC70479CE2FF1F2EE3FF1FB9E2FF1F9A
:402C000098E2FF1FBCE2FF1F80B500AFFFF73CFF00BF80BD80B500AF0A4B1B78DBB29AB2094B1B889BB213449AB2074B1A80074B00221A70012000F0EDF8054B03221A70C4
:402C400000BF80BD98E2FF1F9AE2FF1F9CE2FF1FB9E2FF1F80B582B000AF124B04221A70114B80221A7000F0F5F8104BDB79DBB29BB21B029AB20D4B9B79DBB29BB21343BB
:402C8000FB800B4B1B889BB2FA889A4202D2084AFB881380074B0B221A70012318460837BD4680BD9CE2FF1F2EE3FF1F00600040A4E2FF1FB9E2FF1F80B483B000AF0023AE
:402CC000BB71234B1B78DBB203F00F03DBB2023BFB71FB799AB21F4B1B889BB213449AB21C4B1A8018E01C4B5B681C49BA798A5CD2B21A70184B5B680133174A5360BB79D1
:402D00000133BB71FB79013BFB71134B1B889BB2013B9AB2104B1A800F4B1B889BB2002B02D0FB79002BDED10D4AFB7913700D4B1B78DBB283F07F03DB43DAB2094B1A7074
:402D4000094B0B221A7000BF0C37BD4680BC7047296000409AE2FF1FA4E2FF1F00600040BCE2FF1F2EE3FF1FB9E2FF1F80B500AF054B00221A70012000F04CF8034B03225D
:402D80001A7000BF80BD00BF9CE2FF1FB9E2FF1F80B400AF084B06221A70084B06221A70074B80221A70074B00221A7001231846BD4680BC704700BF9CE2FF1FB9E2FF1F84
:402DC0002EE3FF1FBCE2FF1F80B500AF0D4B1B78DBB2002B0AD00C4A0A4B1B78DBB263F07F03DBB21370074B00221A70074B00221A70012000F00EF8054B03221A7000BF06
:402E000080BD00BFBAE2FF1F086000409CE2FF1FB9E2FF1F80B483B000AF0346FB710B4B9B68002B0CD0094B9B68FA791A70074B9B68074A128892B25A80044B00229A6097
:402E400000BF0C37BD4680BC704700BFA4E2FF1F9AE2FF1F80B400AF094B00221A80094B9B68002B07D0074B9B6800221A70054B9B6800225A8000BFBD4680BC704700BF4D
:402E80009AE2FF1FA4E2FF1F80B400AF0D4B01221A700D4B9B7C0D4B1B7BDBB203F00303012B08D0094BDB7BDBB283F07F03DB43DAB2064BDA73054B01225A7300BFBD468F
:402EC00080BC70470B600040FC5F0040C0E2FF1F80B400AF0E4B02221A700E4B93F822300D4B1B7EDBB203F00303012B08D00A4BDB7EDBB283F07F03DB43DAB2064BDA76C3
:402F0000054B01225A7600BFBD4680BC704700BF0B600040FC5F0040C0E2FF1F80B400AF104B04221A70104B93F832300F4B93F82430DBB203F00303012B0AD00B4B93F8F8
:402F40002730DBB283F07F03DB43DAB2074B83F82720064B012283F8252000BFBD4680BC704700BF0B600040FC5F0040C0E2FF1F80B400AF00BFBD4680BC704780B500AF90
:402F8000FFF770FA00BF80BD80B500AF01F0E0F900BF80BD80B586B000AF0023FB759D4B1B78FB7100233B619B4B00221A8097F90730002B80F20481964B5B78DBB20A2BB7
:402FC00000F21B8201A252F823F000BF17310000FB330000FB330000FB330000FB330000FB330000F92F0000FB3300008B310000FB330000A1310000864BDB78DBB2012B66
:403000000ED100F049FEB860BB685B68824A5360814B12221A80FFF79FFD0346FB75EEE17C4BDB78DBB2022B25D17A4B9B78DBB2184600F009FEB860BB68002B00F0DF810F
:40304000BB685B68744A5360734B5B6803331B78DBB29BB21B029AB26F4B5B6802331B78DBB29BB213439AB26B4B1A80FFF774FD0346FB75C3E1674BDB78DBB2032B45D1C1
:403080000023FB73654B3B6109E03B691B78BB71BB793A6913443B61FB7B0133FB735D4B9B78DBB2FA7B9A4204D23B691B78DBB2002BEAD1574B9B78DBB2EE2B01D1584B1C
:4030C0003B61544B9B78DBB2002B0BD0514B9B78DAB2544B1B7C9A4204D1534800F0ACF9514B3B613B691B78DBB2002B00F087813B691B78DBB29AB2474B1A80464A3B690E
:403100005360FFF729FD0346FB7578E102F0FCF90346FB7573E1FB7903F00303002B20D0022B00D030E03C4B02221A80394B1B79DBB203F07F023D4913465B0013449B009B
:403140000B4402331B78DAB2394B1A70384B00225A70314B364A5A60FFF7FEFC0346FB7512E02D4B02221A80324B1B78DAB2304B1A702F4B00225A70274B2D4A5A60FFF708
:40318000EBFC0346FB7500BF40E1234B01221A80214B294A5A60FFF7DFFC0346FB7535E11D4B01221A801B4B1B79DBB21A46234B1344194A5360FFF7CFFC0346FB7525E1C4
:4031C000144B5B78DBB2013B0A2B00F21A8101A252F823F0DF320000033400006D330000033400000132000003340000033400000334000045320000033400009B320000A0
:40320000044B9B78DAB20E4B1A70FFF7C1FD0346FB75FBE000600040A4E2FF1F88640000906500003064000040E3FF1FC0E2FF1FA483FF1FBDE2FF1FBBE2FF1F2CE3FF1FD1
:40324000BAE2FF1F744B9B787B717B79002B06D07B79013BDBB2184600F0F6FCB8607B79002B02D0BB68002B03D17B79002B40F0CA806A4B1B78DBB27A799A4208D0674AF3
:403280007B791370664B01221A70012000F0DCF9FFF77EFD0346FB75B5E000F055FE0346002B00F0B2805C4B1B793B715A4B1B79DAB25C4B1A703B795B4AD35CDAB23B7916
:4032C0005A49CB5CDBB29A4204D0554B01221A7000F08CFBFFF75CFD0346FB7595E0FB7903F00303012B20D0012B0CD3022B00D03BE0494B9B78DBB2002B31D100F078FD14
:403300000346FB752CE0444B9B78DBB2012B29D1474B1B78DBB223F00203DAB2444B1A70FFF736FD0346FB751CE03B4B1B79DBB2012B19D8384B9B78DBB2DB43DBB2364A14
:403340001279D2B2114610463A4A125CD2B21340DAB2384B5A54FFF71BFD0346FB7503E000BF53E000BF51E000BF4FE0FB7903F00303012B20D0012B0CD3022B00D03BE0E5
:40338000254B9B78DBB2002B31D100F0BDFC0346FB752CE0204B9B78DBB2012B29D1244B1B78DBB243F00203DAB2214B1A70FFF7EFFC0346FB751CE0174B1B79DBB2012BA3
:4033C00019D8154B9B78DBB2DB43DBB2124A1279D2B211461046174A125CD2B21340DAB2144B5A54FFF7D4FC0346FB7503E000BF0CE000BF0AE000BF08E000BF06E000BF19
:4034000004E000BF02E000BF00E000BFFB7D18461837BD4680BD00BF00600040BBE2FF1FB8E2FF1FB0E2FF1FA0E2FF1F2CE3FF1FBDE2FF1F30E3FF1FB0B58AB000AF7860E1
:40344000324B07F114041D460FCD0FC42B682370002387F826307B68002B52D07B6822221A707B68013303221A7007F10C03184601F028FA022387F827303EE097F8273071
:403480007A68134497F8262007F128010A4412F81C2C1209D2B207F128010A4412F8142C1A7097F8273001337A68134400221A7097F8273002337A68134497F8262007F13B
:4034C00028010A4412F81C2C02F00F0207F128010A4412F8142C1A7097F8273003337A68134400221A7097F82630013387F8263097F82730043387F8273097F82730212BA9
:40350000BCD900BF2837BD46B0BD00BF1C64000090B482B000AF0123FB7180E0464AFB791B0113440C221A70FA79444913465B0013449B000B4405331B78DBB2002B1CD081
:40354000FA793E4913465B0013449B000B4404331B78DBB25BB2002B07DA394AFB791B01134402330C221A700EE0354AFB791B011344023308221A7006E0314AFB791B0167
:403580001344023380221A702B48F979FA792B4C13465B0013449B00234406331B889BB2DAB20B01034406331A702348F979FA79224C13465B0013449B00234406331B8805
:4035C0009BB21B0A9BB2DAB20B01034407331A701948F979FA79194C13465B0013449B00234406331B889BB2DAB20B01034404331A701148F979FA79104C13465B00134443
:403600009B00234406331B889BB21B0A9BB2DAB20B01034405331A70FB790133FB71FB79082B7FF67BAF074BFF221A7000BF0837BD4690BC704700BF70600040C0E2FF1F62
:40364000FC5F00400A60004080B58AB000AF0346FB7100237B84002387F8273050E097F82720B34913465B0013449B000B4400221A7097F82720AE4913465B0013449B0001
:403680000B44023300221A7097F82720A84913465B0013449B000B44033300221A7097F82720A34913465B0013449B000B44083300221A8097F827209D4913465B001344C7
:4036C0009B000B440A3300221A7097F82720984913465B0013449B000B44013300221A7097F82720924913465B0013449B000B44053300221A7097F82730013387F82730F1
:4037000097F82730082BAAD9FB79002B16D0002387F825300EE097F82530864A0021D15497F82530844A0021D15497F82530013387F8253097F82530012BECD97F4B1B7873
:40374000DBB2002B00F04A810023FB767B4B1B78DBB2013BDBB2184600F076FA78617B695B683B613B6907331B7803F04003002B08D0734B1B78DBB243F00103DAB2704BB3
:403780001A7007E06E4B1B78DBB223F00103DAB26B4B1A707B6908337B617B691B7887F82730012387F82530B6E07B695B68FB61002387F82630A3E097F82520FB699B783D
:4037C00003F07F039A4240F0938097F82520584913465B0013449B000B4408331B889AB2FB699B889A420CD297F82520FB6998884F4913465B0013449B000B4408330246F8
:403800001A80FB691B781A464A4B9B5CDAB2FB695B789A426CD197F82520FB699878444913465B0013449B000B44043302461A7097F82520FB69D8783D4913465B00134443
:403840009B000B4402461A70FB69DB7803F00303FB73FB699B785BB2002B1CDA97F82520FB7B012B01D1072000E00D20304913465B0013449B000B44053302461A7097F846
:4038800025202B4913465B0013449B000B44013301221A701BE097F82520FB7B012B01D1052000E00920224913465B0013449B000B44053302461A7097F825201C4913460C
:4038C0005B0013449B000B44013300221A70FB699B790A2B03D0FB699B79022B08D1FA7E97F825301946F869FEF774FF0346FB76FB690833FB6197F82630013387F8263027
:4039000097F8262097F827309A42FFF455AF97F82530013387F8253097F82530082B7FF644AF7B695B68FB61002387F8253020E0C0E2FF1F2CE3FF1FA0E2FF1FBBE2FF1F4C
:40394000BDE2FF1FFB699B7803F07F02FB691878244913465B0013449B000B440A3302461A70FB690833FB6197F82530013387F8253097F8252097F827309A42E2D300F018
:403980009DF90246184B1A6000237B84012387F827301DE097F82720124913465B0013449B000B4406337A8C1A8097F827200D4913465B0013449B000B4408331B889AB2E9
:4039C0007B8C13447B8497F82730013387F8273097F82730082BDDD9FFF79AFD00BF2837BD4680BDC0E2FF1FB4E2FF1F90B585B000AF8F4B1B78DBB2002B00F015818C4BA1
:403A00001B78DBB2013BDBB2184600F01DF978607B6808337B607B681B78FB707B685B68BB60844B1B78BB700023FB73F7E0BB681B78BA789A4240F0EC80BB787E4AD35C47
:403A4000DAB2BB685B789A4240F0E380BB689B7803F07F037B70BB68DB7803F003033B707A78764913465B0013449B000B44033300221A707A78BB689878704913465B008B
:403A800013449B000B44043302461A707A78BB68D8786A4913465B0013449B000B4402461A707A78BB689888644913465B0013449B000B44083302461A80BB689B785BB2A6
:403AC000002B1ADA7A783B78012B01D1072000E00D205A4913465B0013449B000B44053302461A707A78554913465B0013449B000B44013301221A7019E07A783B78012BFE
:403B000001D1052000E009204C4913465B0013449B000B44053302461A707A78474913465B0013449B000B44013300221A70444A7B781B011344023301221A70404879784B
:403B40007A783E4C13465B0013449B00234408331B889BB21B0A9BB2DAB20B0103441A70374879787A78354C13465B0013449B00234408331B889BB2DAB20B010344013388
:403B80001A70304879787A782C4C13465B0013449B00234406331B889BB2DAB20B01034406331A70274879787A78244C13465B0013449B00234406331B889BB21B0A9BB266
:403BC000DAB20B01034407331A701E4879787A781A4C13465B0013449B00234406331B889BB2DAB20B01034404331A70154879787A78124C13465B0013449B0023440633B9
:403C00001B889BB21B0A9BB2DAB20B01034405331A70BB680833BB60FB7B0133FB73FA7BFB789A42FFF403AF00BF1437BD4690BDBBE2FF1FB0E2FF1F2CE3FF1FC0E2FF1FD5
:403C4000FC5F00407060004080B485B000AF0346FB710F4B1B78DBB20E4ADB0013445B68FB60FB681033FB60FB681B78FA799A4202D30023FB6005E0FB79DB00FA68134424
:403C80005B68FB60FB6818461437BD4680BC704799E2FF1F8865000080B400AF054B1B78DBB2054ADB0013445B681846BD4680BC704700BF99E2FF1F8865000080B584B0C5
:403CC00000AF104B1B78DBB2013BDBB21846FFF7BBFFB860BB68002B0DD0BB685B681B79FB71FB790233DB00BA681344BB60BB685B68FB6001E00023FB60FB6818461037DA
:403D0000BD4680BDBBE2FF1F80B582B000AF0023FB71344B1B79DBB203F07F03BB71BB79002B5AD0BB79082B57D8BA79B9792E480B465B000B449B00034402331B78DBB276
:403D400043F00103D8B2284913465B0013449B000B44023302461A70BA79234913465B0013449B000B44033300221A70BA79B9791D480B465B000B449B00034401331B7831
:403D8000DBB243F00203D8B2174913465B0013449B000B44013302461A70BA79124913465B0013449B000B4404331B78DBB25BB2002B07DA0D4ABB791B01134402338D2284
:403DC0001A7006E0094ABB791B011344023389221A70FEF7DDFF0346FB71FB7918460837BD4680BD00600040C0E2FF1FFC5F004080B582B000AF0023FB71504B1B79DBB2BC
:403E000003F07F03BB71BB79002B00F09280BB79082B00F28E80BA79B97949480B465B000B449B00034402331B78DBB223F00103D8B2434913465B0013449B000B4402339A
:403E400002461A70BA793E4913465B0013449B000B44033300221A703A49BB793948BA79120102441278D2B202F07F02D2B21B010B441A70BA79B97931480B465B000B4448
:403E80009B00034401331B78DBB223F00203D8B22B4913465B0013449B000B44013302461A70BA79264913465B0013449B000B4404331B78DBB25BB2002B1BDABA79204904
:403EC00013465B0013449B000B4401331B78DBB2012B07D11B4ABB791B01134402330C221A7022E0174ABB791B01134402330D221A701AE0BA79124913465B0013449B0056
:403F00000B4401331B78DBB2012B07D10D4ABB791B011344023308221A7006E0094ABB791B011344023309221A70FEF731FF0346FB71FB7918460837BD4680BD006000405E
:403F4000C0E2FF1FFC5F004080B584B000AF0023FB73154B1B79BB73144B1B78DBB2013BDBB21846FFF770FEB860BB685B681B79FB71BA7BFB799A4202D9BB7B022B0ED86A
:403F8000BB7BBA7B0A498A5CD1B20A4AD154BB7B054A9278D1B2064AD1540123FB73FB7B18461037BD4680BD00600040BBE2FF1F2CE3FF1FA0E2FF1F80B582B000AF00238C
:403FC000FB710F4B1B78DBB25BB2002B12DA0C4B5B78DBB2012B00D00CE00A4B0A4A5A60094B1B789AB2074B1A80FEF7B5FD0346FB7100BFFB7918460837BD4680BD00BF6B
:4040000000600040A4E2FF1FA465000080B500AF064B1B78002B04D100F00AF8034B01221A7000F01BF800BF80BD00BFA683FF1F80B500AF074A074B1B78DBB243F0060396
:40404000DBB213700C2000F06BF8034B00221A8000BF80BD015900403CE3FF1F80B582B000AF01F049FA0346FB71254A244B1B78DBB243F00103DBB21370224A214B1B7825
:40408000DBB243F00103DBB213701F4B1B78BB71BB7943F00203BB71BB7943F00103BB71194ABB791370194B18221A70184A184B1B78DBB243F04003DBB21370144A144B6A
:4040C0001B78DBB223F00303DBB21370114BC8221A70114B02221A70104A104B1B78DBB243F00803DBB213700A2000F08BFBFB79184601F005FA00BF0837BD4680BD00BF1B
:40410000AB430040BB4300400359004006590040055900400059004014460040275B004080B584B000AF0346FB71FB790A2B07D00C2B02D0082B06D008E0C223FB730BE0C0
:404140008223FB7308E04223FB7305E0C223FB73002000F029FB00BF054AFB7B1370FB79184600F017F800BF1037BD4680BD00BF0259004080B400AF054A054B1B78DBB2EB
:4041800043F00103DBB2137000BFBD4680BC70470059004080B584B000AF0346FB71FB790A2B08D00C2B02D0082B08D00BE04FF48053FB600DE04FF48063FB6009E04FF412
:4041C0008073FB6005E00023FB60002000F0ECFA00BF0C4B00221A80FB6842F2107202FB03F303F58063002B01DA03F2FF73DB121A46054B1A60054B00221A8000BF1037C9
:40420000BD4680BD34E3FF1F38E3FF1F36E3FF1F90B585B002AF0446084611461A462346FB710346BB710B46BB8013467B80104B01221A700E4B1878BA79F97900230193A8
:4042400000230093012300F0C3F9094B1B787A88B988184600F062F9054B1B780221184600F02AF9024B1B7818460C37BD4690BD8282FF1F90B585B002AF04460846114661
:404280001A462346FB710346BB710B46BB8013467B80104B00221A700E4B1878BA79F9790023019300230093002300F091F9094B1B787A88B988184600F030F9054B1B7851
:4042C0000221184600F0F8F8024B1B7818460C37BD4690BD8382FF1F80B485B000AF7860054B1B68FB60FB6840337A681A6000BF1437BD4680BC704708ED00E080B483B0DD
:4043000000AF0346FB71054AFB795B01DBB2137000BF0C37BD4680BC704700BF00E400E080B400AF034B01221A6000BFBD4680BC704700BF00E100E080B400AF034B012218
:404340001A6000BFBD4680BC704700BF80E100E080B400AF054B1B78DBB203F040039B09DBB21846BD4680BC704700BF8F45004080B483B000AF134B7F221A70124B80228F
:404380001A707F23FB710CE0FB79DB0003F1804303F5F043FA79013AD2B21A70FB79013BFB71FB79002BEFD1FB79DB0003F1804303F5F04300221A7000BF0C37BD4680BCF3
:4043C000704700BF8582FF1F8482FF1F80B485B000AF03460A46FB711346BB710123FB60FB79172B2FD8BB79002B0ED0FB791A01184B1344FA791101164A0A441278D2B259
:4044000042F02002D2B21A700DE0FB791A01114B1344FA7911010F4A0A441278D2B222F02002D2B21A70FB791A010A4B1344FA791101084A0A441278D2B242F00102D2B248
:404440001A700023FB60FB6818461437BD4680BC704700BF1070004080B485B000AF0346FB710123FB60FB79172B1DD8FB791A01104B1344FA7911010E4A0A441279D2B241
:4044800042F00402D2B21A71FB791A01094B1344FA791101074A0A441278D2B242F00102D2B21A700023FB60FB6818461437BD4680BC70471070004080B485B000AF034665
:4044C0000A46FB711346BB710123FB60FB79172B1BD8FB791A01104B13441B78DBB223F00E03FB72FB791A010B4B1344BA795200D2B252B202F00E0251B297F90B200A430B
:4045000052B2D2B21A700023FB60FB6818461437BD4680BC704700BF1070004080B485B000AF0346FB710B46BB8013467B800123FB60BB8841F6FF72934202D14FF4005315
:40454000BB807B8841F6FF72934202D14FF400537B80FB79172B17D8FB79DB0003F1804303F5EC430433BB60BB68BA881A80FB79DB0003F1804303F5EC430633BB60BB6855
:404580007A881A800023FB60FB6818461437BD4680BC704780B485B000AF03460A46FB711346BB710123FB60FB79172B07D8FB791A01064B1344BA795A720023FB60FB6812
:4045C00018461437BD4680BC704700BF1070004090B484B000AF0446084611461A462346FB710346BB710B467B7113463B710123FB60FB79172B34D8FB79DB0003F1804354
:4046000003F5EC43BA7902F07F02D1B27A79D201D2B20A43D2B21A70FB79DB0003F1804303F5EC433A7E1201D1B23A7902F00F02D2B20A43D2B25A70FB79DB0003F180432F
:4046400003F5EC433A7F02F00F02D2B29A70FB79DB0003F1804303F5EC430022DA700023FB60FB6818461037BD4690BC704700BF80B582B000AFFF23FB7100F03DFF0346CC
:40468000BB71104B1B78182B12D90F4B1B78FB710C4B1B78013BDAB20A4B1A70FB79DB0003F1804303F5F0431B78DAB2064B1A70BB79184600F024FFFB7918460837BD46E4
:4046C00080BD00BF8482FF1F8582FF1F90B484B000AF0446084611461A462346FB710346BB800B46BB711346FB700123FB6097F90730002B23DBBB8823F47F6323F00F0395
:404700009BB2002B1BD1FB79DB0003F1804303F5F043BB60BB68BA881A80FB79DB0003F1804303F5F043BA799A70FB79DB0003F1804303F5F043FA78DA700023FB60FB688E
:4047400018461037BD4690BC704700BF80B485B000AF0346FB710B46BB8013467B800123FB6097F90730002B17DBFB79DB0003F1804303F5F0430433BB60BB68BA881A803D
:40478000FB79DB0003F1804303F5F0430633BB60BB687A881A800023FB60FB6818461437BD4680BC704700BF80B483B000AF0346FB7101BE00BF0C37BD4680BC704700BF35
:4047C00080B582B000AF786008E00C4B1B68184600F08AFE7B68A3F500437B607B68B3F5004FF2D8064B1B687A6802FB03F3184600F07AFE00BF0837BD4680BD9882FF1F11
:404800009082FF1F80B582B000AF0346FB80FB88054A127802FB03F3184600F065FE00BF0837BD4680BD00BF9482FF1F80B584B000AF03463960FB710F4B1B68FB60FB792B
:404840001F2B02D90020FFF7AFFFFB7903F01F0310339B00FA6813441B68BB60FB7903F01F0310339B00FA6813443A681A60BB6818461037BD4680BD08ED00E080B582B011
:4048800000AF03460A46FB711346BB71BB79072B02D90020FFF788FFFB791F2B02D90020FFF782FFFB7903F01F0303F1604303F56443BA795201D2B21A7000BF0837BD465D
:4048C00080BD00BF80B483B000AF7860264B1B78DBB21A467B681A60244B1B78DBB21B027A6812681A437B681A60214B1B78DBB21B047A6812681A437B681A601D4B1B7802
:40490000DBB21B067A6812681A437B681A607B680433194A1278D2B21A60184B1B78DBB21A027B6804337968043109680A431A60134B1B78DBB21A047B68043379680431DB
:4049400009680A431A600F4B1B78DBB21A067B6804337968043109680A431A6000BF0C37BD4680BC704700BF0301004904010049EC46004002010049010100490001004958
:40498000050100490601004980B485B000AF786039607B68FB603B68DAB2FB681A70FB6801333A68120AD2B21A70FB6802333A68120CD2B21A7000BF1437BD4680BC7047AC
:4049C00080B500AF064B1B78002B04D100F00AF8034B01221A7000F063F800BF80BD00BFA783FF1F80B582B000AF284A274B1B78DBB243F00203DBB21370254B1B78DBB2C2
:404A000023F07003FB71224AFB7943F01003DBB21370204A1F4B1B78DBB223F03003DBB213701C4A1B4B1B78DBB243F03003DBB21370184A174B1B78DBB223F00F03DBB20C
:404A40001370144A134B1B78DBB243F00F03DBB21370FF2000F048F8002000F055F8002000F062F80C4A0C4B1B78DBB243F00103DBB21370094A094B1B78DBB243F001035A
:404A8000DBB2137000BF0837BD4680BD004F0040024F00400B4F0040A3430040014F004080B400AF0D4A0D4B1B78DBB243F00103DBB213700A4A0A4B1B78DBB243F001033F
:404AC000DBB21370074A074B1B78DBB243F00103DBB2137000BFBD4680BC7047A3430040B3430040004F004080B483B000AF0346FB71044BFA7992B21A8000BF0C37BD468C
:404B000080BC7047044F004080B483B000AF0346FB71044BFA7992B21A8000BF0C37BD4680BC7047064F004080B483B000AF0346FB71044AFB79137000BF0C37BD4680BCA6
:404B4000704700BF034F004080B500AF064B1B78002B04D100F00AF8034B01221A7000F063F800BF80BD00BFA883FF1F80B582B000AF284A274B1B78DBB243F00203DBB24A
:404B80001370254B1B78DBB223F07003FB71224AFB7943F01003DBB21370204A1F4B1B78DBB223F03003DBB213701C4A1B4B1B78DBB243F03003DBB21370184A174B1B78B7
:404BC000DBB223F00F03DBB21370144A134B1B78DBB243F00F03DBB21370FF2000F048F8002000F055F8002000F062F80C4A0C4B1B78DBB243F00203DBB21370094A094BF0
:404C00001B78DBB243F00103DBB2137000BF0837BD4680BD0C4F00400E4F0040174F0040A34300400D4F004080B400AF0D4A0D4B1B78DBB243F00203DBB213700A4A0A4B8C
:404C40001B78DBB243F00203DBB21370074A074B1B78DBB243F00103DBB2137000BFBD4680BC7047A3430040B34300400C4F004080B483B000AF0346FB71044BFA7992B245
:404C80001A8000BF0C37BD4680BC7047104F004080B483B000AF0346FB71044BFA7992B21A8000BF0C37BD4680BC7047124F004080B483B000AF0346FB71044AFB791370AF
:404CC00000BF0C37BD4680BC704700BF0F4F004080B400AF00BFBD4680BC704780B582B000AF0F2000F06AF800F05AF800F004FC0346FB71074A074B1B78DBB243F0100340
:404D0000DBB21370FB79184600F0FAFB00BF0837BD4680BD9765004080B500AF00F034F94FF4004000F05EF9064B1B78002B04D1FFF7CEFF034B01221A70FFF7CFFF00BF42
:404D400080BD00BFA983FF1F80B582B000AF00F059F90346FB80FB88A3F500439BB2BB80B7F9043018460837BD4680BD80B584B000AF0346FB80B7F90630002B04DBFB88DB
:404D8000A3F50043FB8103E0FB88A3F50043FB81FB89184600F026F900BF1037BD4680BD80B400AF044B1B78DBB203F00F03DBB21846BD4680BC70476765004080B483B0FD
:404DC00000AF0346FB71044AFB79137000BF0C37BD4680BC704700BF8765004080B400AF00BFBD4680BC704780B582B000AF0F2000F06AF800F05AF800F07EFB0346FB7198
:404E0000074A074B1B78DBB243F01003DBB21370FB79184600F074FB00BF0837BD4680BD9565004080B500AF00F086F94FF4004000F0B0F9064B1B78002B04D1FFF7CEFF9A
:404E4000034B01221A70FFF7CFFF00BF80BD00BFAA83FF1F80B582B000AF00F0ABF90346FB80FB88A3F500439BB2BB80B7F9043018460837BD4680BD80B584B000AF0346F7
:404E8000FB80B7F90630002B04DBFB88A3F50043FB8103E0FB88A3F50043FB81FB89184600F078F900BF1037BD4680BD80B400AF044B1B78DBB203F00F03DBB21846BD4622
:404EC00080BC70476565004080B483B000AF0346FB71044AFB79137000BF0C37BD4680BC704700BF8565004080B582B000AF1C4B1B78DBB223F00703FB71194AFB79137044
:404F0000174B1B78DBB223F00303FB71144AFB79137000F0B3F84FF4004000F08FF84FF4004000F05FF8002000F040F800F04EF84FF4004000F092F800F0DEFA0346BB71FE
:404F4000084A084B1B78DBB243F01003DBB21370BB79184600F0D4FA00BF0837BD4680BD756500409B65004080B400AF054A054B1B78DBB263F07F03DBB2137000BFBD46E5
:404F800080BC70477565004080B500AF064B1B78002B04D1FFF7A8FF034B01221A70FFF7E3FF00BF80BD00BFAB83FF1F80B483B000AF0346FB71044AFB79137000BF0C3793
:404FC000BD4680BC704700BF8B65004080B400AF034B1B78DBB21846BD4680BC704700BF6B65004080B483B000AF0346FB80044AFB88138000BF0C37BD4680BC704700BF63
:405000000C68004080B400AF044B1B78044B1B889BB21846BD4680BC704700BF066400408C68004080B400AF034B1B889BB21846BD4680BC704700BF8C68004080B483B0F8
:4050400000AF0346FB80044AFB88138000BF0C37BD4680BC704700BF4C68004080B483B000AF0346FB80044AFB88138000BF0C37BD4680BC704700BF6C68004080B500AFC1
:4050800001E0FFF7CFFFFFF7A1FF034603F04003002BF6D100BF80BD80B582B000AF1C4B1B78DBB223F00703FB71194AFB791370174B1B78DBB223F00303FB71144AFB79EF
:4050C000137000F0B3F84FF4004000F08FF84FF4004000F05FF8002000F040F800F04EF84FF4004000F092F800F006FA0346BB71084A084B1B78DBB243F01003DBB21370D3
:40510000BB79184600F0FCF900BF0837BD4680BD746500409465004080B400AF054A054B1B78DBB263F07F03DBB2137000BFBD4680BC70477465004080B500AF064B1B784B
:40514000002B04D1FFF7A8FF034B01221A70FFF7E3FF00BF80BD00BFAC83FF1F80B483B000AF0346FB71044AFB79137000BF0C37BD4680BC704700BF8465004080B400AFE4
:40518000034B1B78DBB21846BD4680BC704700BF6465004080B483B000AF0346FB80044AFB88138000BF0C37BD4680BC704700BF0C6A004080B400AF044B1B78044B1B8803
:4051C0009BB21846BD4680BC704700BF066500408C6A004080B400AF034B1B889BB21846BD4680BC704700BF8C6A004080B483B000AF0346FB80044AFB88138000BF0C37C4
:40520000BD4680BC704700BF4C6A004080B483B000AF0346FB80044AFB88138000BF0C37BD4680BC704700BF6C6A004080B500AF01E0FFF7CFFFFFF7A1FF034603F040031A
:40524000002BF6D100BF80BD80B500AF064B1B78002B04D100F00AF8034B01221A7000F025F800BF80BD00BFAD83FF1F80B400AF094B72221A70094B20221A70084B062285
:405280001A70084B47221A70074B02221A7000BFBD4680BC704700BF806400408B64004023640040336400408F64004080B582B000AF00F021F90346FB71114A104B1B7868
:4052C000DBB243F02003DBB213700E4A0D4B1B78DBB243F01003DBB213700B4A0A4B1B78DBB243F01003DBB2137000F00FF8FB79184600F005F900BF0837BD4680BD00BFC1
:40530000906400409B6400409F64004080B400AF094A094B1B78DBB243F01003DBB21370064A064B1B78DBB243F01003DBB2137000BFBD4680BC7047A2430040B243004091
:4053400080B483B000AF0346FB71044AFB79137000BF0C37BD4680BC704700BF7464004080B582B000AF786000F03CF8786800F009F8072000F018F800F028F800BF083736
:40538000BD4680BD80B485B000AF7860054B1B68FB60FB6850337A681A6000BF1437BD4680BC704708ED00E080B483B000AF0346FB71054AFB795B01DBB2137000BF0C377C
:4053C000BD4680BC704700BF04E400E080B400AF034B10221A6000BFBD4680BC704700BF00E100E080B400AF034B10221A6000BFBD4680BC704700BF80E100E080B485B023
:4054000000AF0346FB710B4B1B78DBB223F00803FB730849FB79DB00DBB203F00803DAB2FB7B1343DBB20B7000BF1437BD4680BC704700BF0051004080B485B000AF0346CA
:40544000FB71094B1B78DBB203F07F03FB730649FB79DB01DAB2FB7B1343DBB20B7000BF1437BD4680BC7047C051004080B485B000AF0346FB710B4B1B78DBB223F00203BE
:40548000FB730849FB795B00DBB203F00203DAB2FB7B1343DBB20B7000BF1437BD4680BC704700BFC051004080B485B000AF0346FB710B4B1B78DBB223F01003FB73084941
:4054C000FB791B01DBB203F01003DAB2FB7B1343DBB20B7000BF1437BD4680BC704700BFF0510040000000000230800803D000BF01380046FCD17047EFF3108072B6704749
:4055000080F31088704700BF80B582B000AF0023BB711B4B1B78DBB203F00303012B02D0022B04D012E0164B1B79FB7111E0144B1B79DBB203F07F02124913465B00134469
:405540009B000B440A331B78FB7102E00023FB7100BFFB79022B0ED80B4B1A68FB7913441B78022B04D1FDF74BF80346BB7102E00023BB7100BFBB7918460837BD4680BD69
:4055800000600040C0E2FF1FB4E2FF1F80F0004002E000BF81F0004142001FBF5FEA410392EA030F7FEA226C7FEA236C6AD04FEA1262D2EB1363C1BFD2184140484041409C
:4055C000B8BF5B42192B88BF704710F0004F40F4000020F07F4018BF404211F0004F41F4000121F07F4118BF494292EA030F3FD0A2F1010241FA03FC10EB0C00C3F12003A6
:4056000001FA03F100F0004302D5494260EB4000B0F5000F13D3B0F1807F06D340084FEA310102F10102FE2A51D2B1F1004F40EBC25008BF20F0010040EA03007047490021
:4056400040EB000010F4000FA2F10102EDD1B0FA80FCACF1080CB2EB0C0200FA0CF0AABF00EBC25052421843BCBFD0401843704792F0000F81F4000106BF80F400000132BB
:40568000013BB5E74FEA41037FEA226C18BF7FEA236C21D092EA030F04D092F0000F08BF0846704790EA010F1CBF0020704712F07F4F04D1400028BF40F00040704712F1ED
:4056C00000723CBF00F50000704700F0004343F0FE4040F4000070477FEA226216BF08467FEA23630146420206BF5FEA412390EA010F40F4800070474FF0000304E000BF2C
:4057000010F0004348BF40425FEA000C08BF704743F0964301464FF000001CE050EA010208BF70474FF000030AE000BF50EA010208BF704711F0004302D5404261EB4101B0
:405740005FEA010C02BF84460146002043F0B64308BFA3F18053A3F50003BCFA8CF2083AA3EBC25310DB01FA02FC634400FA02FCC2F12002BCF1004F20FA02F243EB020041
:4057800008BF20F00100704702F1200201FA02FCC2F1200250EA4C0021FA02F243EB020008BF20EADC7070474FF0FF0C1CEAD0521EBF1CEAD15392EA0C0F93EA0C0F6FD0F7
:4057C0001A4480EA010C400218BF5FEA41211ED04FF0006343EA501043EA5111A0FB01310CF00040B1F5000F3EBF490041EAD3715B0040EA010062F17F02FD2A1DD8B3F1D7
:40580000004F40EBC25008BF20F00100704790F0000F0CF0004C08BF49024CEA502040EA51207F3AC2BFD2F1FF0340EAC250704740F400004FF00003013A5DDC12F1190F1C
:40584000DCBF00F000407047C2F10002410021FA02F1C2F1200200FA02FC5FEA310040F1000053EA4C0308BF20EADC70704792F0000F00F0004C02BF400010F4000F013AAE
:40588000F9D040EA0C0093F0000F01F0004C02BF490011F4000F013BF9D041EA0C018FE70CEAD15392EA0C0F18BF93EA0C0F0AD030F0004C18BF31F0004CD8D180EA01008B
:4058C00000F00040704790F0000F17BF90F0004F084691F0000F91F0004F14D092EA0C0F01D142020FD193EA0C0F03D14B0218BF084608D180EA010000F0004040F0FE40AE
:4059000040F40000704740F0FE4040F4400070474FF0FF0C1CEAD0521EBF1CEAD15392EA0C0F93EA0C0F69D0A2EB030280EA010C49024FEA402037D04FF0805343EA1111AD
:4059400043EA10130CF000408B4238BF5B0042F17D024FF4000C8B4224BF5B1A40EA0C00B3EB510F24BFA3EB510340EA5C00B3EB910F24BFA3EB910340EA9C00B3EBD10F50
:4059800024BFA3EBD10340EADC001B0118BF5FEA1C1CE0D1FD2A3FF650AF8B4240EBC25008BF20F0010070470CF0004C4CEA50207F32C2BFD2F1FF0340EAC250704740F477
:4059C00000004FF00003013A37E792F0000F00F0004C02BF400010F4000F013AF9D040EA0C0093F0000F01F0004C02BF490011F4000F013BF9D041EA0C0195E70CEAD15331
:405A000092EA0C0F08D142027FF47DAF93EA0C0F7FF470AF084676E793EA0C0F04D14B023FF44CAF08466EE730F0004C18BF31F0004CCAD130F000427FF45CAF31F0004324
:405A40007FF43CAF5FE700BF4FEA4002B2F1FE4F0FD34FF09E03B3EB12620DD94FEA002343F0004310F0004F23FA02F018BF404270474FF00000704712F1610F01D14202DF
:405A800005D110F0004008BF6FF0004070474FF000007047014B1868704700BFFC82FF1F0E4B70B51E460E4C0025E41AA410A54204D056F8253098470135F8E700F0A2FDEB
:405AC000084B094C1E46E41AA4100025A54204D056F8253098470135F8E770BD1066000010660000106600001866000010B5431E0A44914204D011F8014B03F8014FF8E7CA
:405B000010BD03460244934202D003F8011BFAE7704700000CB430B5164B0C1E9DB01D6804DA8B232B604FF0FF301EE04FF40273ADF814300CBF234604F1FF330493079301
:405B40004FF6FF7302900690ADF81630209A21AB02A92846019300F071F8431CBCBF8B232B6014B1029B00221A701DB0BDE8304002B07047FC82FF1F034613F8012B002A1D
:405B8000FBD1181A013870472DE9F0478E6882469E420C46914698463ED88A8912F4906F3AD02568096902236F1A656905EB450595FBF3F57B1C43449D4238BF1D465305F1
:405BC0000FD5294600F040FB064698B13A462169FFF78CFFA38923F4906343F08003A38113E02A4600F08EFB064670B92169504600F0DEFA0C23CAF80030A3894FF0FF3003
:405C000043F04003A381BDE8F08726613E44266046466561ED1BA560464528BF464649463246206800F0A8FAA36800209B1BA36023681E442660BDE8F08700002DE9F04FD9
:405C40009DB003938B8980461C060D4616460DD50B695BB9402100F0F7FA2860286118B90C23C8F80030CDE040236B610023099320238DF82930DFF89CB130238DF82A30D7
:405C800037463C4614F8013B1BB9B7EB060910D003E0252BF9D02746F3E74B46324629464046FFF771FF013000F0A780099B4B4409933B78002B00F0A08000234FF0FF32F9
:405CC00004930793059206938DF853301A930126052221784E4800F041FA671C049B38B14B4A3C46801A06FA00F018430490EFE7D90644BF20228DF853201A0744BF2B22E8
:405D00008DF8532022782A2A03D0079A00210A200BE0039A111D12680391002A10DA524243F00200079204900BE027463B780134303B092B03D800FB02320121F5E701B157
:405D400007923B782E2B1ED17B782A2B0AD1039B02371A1D1B680392002BB8BF4FF0FF33059310E0002319460593781C0A2407463A780130303A092A03D804FB01210123E2
:405D8000F5E703B1059103223978224800F0E6F940B14023CBEB000003FA00F0049B013718430490397806221B487E1C8DF8281000F0D4F988B1194B33B9039B073323F02D
:405DC00007030833039314E003AB00932A46144B04A94046AFF3008007E003AB00932A460F4B04A9404600F093F8B0F1FF3F824603D0099B5344099342E7AB895B0601D4EB
:405E0000099801E04FF0FF301DB0BDE8F08F00BFCE650000D4650000D865000000000000895B00002DE9F04791461F460A698B6806469342B8BF1346C9F8003091F8432078
:405E40000C46DDF8208012B10133C9F800302368990642BFD9F800300233C9F80030256815F0060510D104F1190A07E00123524639463046C04701301AD00135E368D9F87F
:405E800000209B1A9D42F1DB94F843302268003318BF012392060FD5E118302081F843005A1C94F845102244023382F8431003E04FF0FF30BDE8F08704F1430239463046CF
:405EC000C0470130F4D02268D9F80050E36802F00602042A08BF5D1B2269A3680CBF25EAE57500259342C4BF9B1AED184FF000091A344D4509D00123224639463046C047BF
:405F00000130D5D009F10109F3E70020BDE8F0872DE9F04317460A7E85B06E2A984606460C460C9B01F1430E00F0AE8011D8632A22D009D8002A00F0BB80582A40F0CA8058
:405F400081F84520834955E0642A1ED0692A1CD0C0E0732A00F0B08009D86F2A2ED0702A40F0B8800A6842F020020A603EE0752A24D0782A3AD0ADE01A6801F14205111D6D
:405F80001960136884F84230A8E021681A6811F0800F02D0111D196008E011F0400F02F10401196002D0B2F9003000E01368002B3CDA2D225B4284F8432037E021681A6884
:405FC00011F0800F02D0111D196007E011F0400F02F10401196001D0138800E01368227E5C496F2A14BF0A2208221BE078225A4984F845202268186812F0800F00F1040574
:406000001D6003D1550601D5038800E00368D00744BF42F0200222601BB9226822F0200222601022002084F8430001E049490A226568002DA56008DB206820F00400206096
:406040002BB9002D7DD175460CE0002B79D07546B3FBF2F002FB1033CB5C05F8013D03460028F5D1082A0BD12368DA0708D5236962689A42DEBF302305F8013C05F1FF35A5
:40608000C5EB0E0323612EE008681A6810F0800F496903D0101D1860136808E010F0400F02F104001860136801D0198000E0196000232361754616E01A68111D1960156885
:4060C00000216268284600F049F808B1401B6060636804E004F1420584F8422001232361002384F84330CDF800803B4603AA21463046FFF797FE013002D14FF0FF3026E06C
:4061000023692A4639463046C0470130F5D023689B0710D5002504F1190907E001234A4639463046C0470130E7D00135E368039A9B1A9D42F2DBE068039B9842B8BF184690
:4061400005E00B7804F1420584F842308AE705B0BDE8F083DF650000F065000010B5C9B202449042034605D01C7801308C42F8D1184610BD002010BD884210B501EB02034C
:4061800001D8421E0BE09842FBD28118D21AD34204D013F8014D01F8014DF8E710BD994204D011F8014B02F8014FF8E710BD000038B50546002944D051F8043C0C1F002B0C
:4061C000B8BFE41800F0D4F81E4A1368114613B96360146030E0A3420DD92268A018834201BF18685B681218226063600C6023E0A24203D813465A68002AF9D118681918F1
:40620000A1420BD12168014458188242196013D110685268014419605A600DE002D90C232B6009E021686018824201BF106852680918216062605C602846BDE8384000F0D9
:4062400098B838BDB483FF1F70B5CD1C25F0030508350C2D38BF0C25002D064601DBA94202D90C23336046E000F082F8234B1C681A462146A1B10B685B1B0ED40B2B03D966
:406280000B60CC18CD501EE08C420BBF63684B681360636018BF0C4615E00C464968E9E7174C23681BB9304600F052F820602946304600F04DF8431C18D0C41C24F00304E9
:4062C000A0420DD12560304600F053F804F10B00231D20F00700C31A0ED05A42E25070BD211A304600F034F80130EBD10C233360304600F03EF8002070BD00BFB483FF1F22
:40630000B083FF1FF8B5074615460E4621B91146BDE8F840FFF798BF1AB9FFF749FF2846F8BD00F027F885420ED929463846FFF78BFF044650B131462A46FFF7D7FB314639
:406340003846FFF735FF01E03046F8BD2046F8BD38B5064C0023054608462360FBF76CFC431C02D1236803B12B6038BD64E3FF1F7047704751F8040C0028BEBF091851F84A
:40638000043CC01804387047000000005374617274696E67205061746866696E640D0A00535155415245530D0A0000002575202575200D0A00000000494E535452554354DF
:4063C000494F4E530D0A00002575200D0A00000044495354414E4345530D0A00257500000D0A0000004F00401800405100403000000001400010001401400008004001403F
:40640000000A004C01400002105001401000000000500140101000481000000030313233343536373839414243444546000000001201000202000008B40432F20100010268
:406440008001000009024300020101C032090400000102020103052400100104240202052406000105240100010705810308000A09040100020A00000407058202400000F0
:406480000705030240000000040309042C0343007900700072006500730073002000530065006D00690063006F006E0064007500630074006F0072001003550053004200E3
:4064C00055004100520054003803430044004300200043006F006D006D0075006E00690063006100740069006F006E00200049006E00740065007200660061006300650034
:40650000260343004400430020004400610074006100200049006E00740065007200660061006300650000000203000000008103080002000100820240000A0001000302B5
:4065400040000A00020A00000100000044640000030000002C650000000000000000000000000000000000000000000044650000010000003064000000000000000000004A
:406580000100000048650000010000007065000012034D00530046005400310030003000010000002800000000010400010000000000000000014359555342000000303061
:4065C0003030310000000000000000004300232D302B2000686C4C0065666745464700303132333435363738394142434445460030313233343536373839616263646566D4
:4066000000000000F8B500BFF8BC08BC9E4670474D000000211D0000F8B500BFF8BC08BC9E4670472900000038660000C880FF1F3802000068600000000000000A00000098
:40664000435333303120323031360A0000000000000000000000000000000000000000000000000000000000000000000000000000000000000000000000000000000000FD
:40668000000070411E0000001E00000001000000A5000000A5000000010101010101010101010101010101010101010100000000000100000000000000000000000101018A
:4066C0000101010001000101010101010100010001010000000000000000000000000001000100010100010001010101010001000101010001000101000100000001000079
:406700000001000100000001000101000101010001000100010001000101010001010000000000010001000100010001000000010100010101010100010001010100010037
:4067400001010101000000000000000100000001000100000001010101010101010001010100010001010100010100000000000000000001000100000000000101000101FB
:4067800001010101010001000101010101000101000000000000000100000000000000000001010101010101010101010101010101010101010000000101000001090505A1
:4067C00007010D0509090000010000000100000068E3FF1FFFFF000000C2010000000800C201000000080000A1200000000002000000FFFF807F000003000000008793038E
:4068000060EA00003C000000000030750000000000000000000000000000000000000000000000000000000000000000CC65000000000000000000000000000000000000FC
:4068400000000000000000000000000000000000000000000000000000000000000000000000000000000000000000009C82FF1F00000000000000000000000000000000DC
:4068800000000000000000000000000000000000000000000000000000000000000000000000000000000000000000000000000000000000000000000000000000000000D8
:4068C0000000000000000000000000000000000000000000000000000000000000000000000000000000000000000000000000000000000000000000000000000000000098
:406900000000000000000000000000000000000000000000000000000000000000000000000000000000000000000000000000000000000000000000000000000000000057
:406940000000000000000000000000000000000000000000000000000000000000000000000000000000000000000000000000000000000000000000000000000000000017
:020000040003F7
:0200000480007A
:4000000001450040044F004008520040015B004005640040046500404C0001403B010140490201404C0301404D040140550501405A060140540701403D080140530901406C
:40004000430A01405A0B0140630C01404D0D0140470E0140360F014029140140531501405916014058170140401801404E190140271A0140561B01400C40014012410140C8
:40008000124201400E430140024401400C4501400E46014010470140084801400B4901400B4C01400A4D014005500140035101407E0201200A1B0D20161B08800980108984
:4000C00011851810191061047C402784807289058B388D0D8F0F846F850F870F8B6F030C04130510064C09610B0E0D4C0F03100311101204141316C419101E881F0822805D
:4001000024202561264527062B232C8A2D102E54310F32C83310340F35603630388039203A283B023F1456025712580459045B045C445D405F01889E89848A608B108C73AF
:400140008D7791C093249430950196C997F298FD99B79A029B409CCF9E309F07A494A660A708A9C1AB12AE0FB10FB4FFB7F0BE10D804D904DF01032004C005200604080284
:400180000A110C100DC00E080F2012901340174418221A111B601F1020082205234025802602274229402A102B202D202F103290330234103746382239083B403C403F208C
:4001C000410142405A085C085D0469146A40708072047310800285018C10C0C4C2EDC4ADCA6ECCFDCE3FD602E208E60101010D011301190121012701290137015804590462
:400200005C335F01807C810882828408850288CF89068A308CFF8F11911192C3943C953196C19706981099079B309C049D04A020A106A331A508A60CA830A908AC04AD37DC
:40024000AE08B108B2B0B307B470B510B63FB720B980BA88BB08C006C604C9FFCA07CBFFCC40CD20CEF0CF05D008D804D904DA04DC44DD04DF01E040E1A8E240E320002440
:40028000038204400A240B450C180F021082110813101602171119601A281B802020210C234A254028082BA22C182D022E023080310A3210371139023B543C403D023F0244
:4002C00044084510480452905340800181018740880489108B208D8091939204931094809508962098089D449E149F04A084A202A684A712AB40B211B320B504C08FC2EF76
:40030000C4DFCAEFCCAFCE9FD204E008E226E481E606E804EA100308060C07100B021108131014801501162218F31A041B011C301EC3204022112318270428F32A082C51E8
:400340002EA2311C340F350336F03A223F014035410142064404450C470E481149FF4AFF4BFF4C624DA04EF04F41500C5608580459045A045B045C945D945F016640670219
:4003800069106A306B106D106E106F128096826884A3865C8A0190C5923A947F9C0E9EF0A4FEA601B0FFBE01D804D904DC30DF0103200402051006200740080809100A02F7
:4003C0000D800EA010021110130116101A021B621D012122230428022B622C182E803002312C35023601371038043B113C403D024002410649204A204B405208582459806E
:40040000600C631168026B02804086088980900291999208934094C49701982499209A809B149C109D069E04A1D0A202A40AA507A604A712AB14B280B30BB420C074C2B764
:40044000C42BCA73CCA7CE97D00BD20CD60ED80EE008E4C8E606EA0DEC04020204D1060410D11208147C1C011E0424AD26102E1D301D32E0340338084026410549FF4AFF7C
:400480004BFF4DA04F015018580459045A045C305F016040628064406540668068406A806C406D206E808202830486088703880289048E0299019A019E04A004A208A6014A
:4004C000B002B20CB301B401B502B704BE11BF40C026C105C53EC624C7C0C82FC9FFCAFFCBFFCDAFCE07CF01D018D401D804D90FDA04DB0FDC34DD30DF01E040E280E44064
:40050000E540E680E840EA80EC40ED20EE800014024003020501062009010A080B410D800EA0122013021610174018481B041C081D101EA01F05210822982C182E902F80C3
:40054000321036013710381039023B043D083F484120453048A04A024B104E024F905010510253405A40790189418A108F0190049181920893059480989099019AA09B5672
:400580009D109E14A008A180A226A50DA651A888AB10AE20B010B140B604C03FC2B3C4ACCAF0CCA4CE17D024D23CD608DE01E220E440EA09EE0300F7019E0360053007C9C4
:4005C00009940B600CA10DFD0E520F0215CF1607173018541AA01C7724C02573263428312AC22B0F2E0830F031FF320F38203E103F01580459045F018104850889018F0183
:4006000091809340952097109B049D409F80A302A708A910AA01AB20AD02B401B5FFBF10D602D73AD804D904DB0EDC03DD30DF0100400128050106020AA00C400E24100867
:4006400012211510174819201CA81D011E201F082120274029682A112B402F28300A3110325036043708386039853C803D103E063F2058046010682A690570107140782000
:400680007928884489048C208E229010920495A096E0980499049C429DA99E299F08A150A204A310A620A780A944AA01AD20AF08B080B120B402B780C097C2ECC4E7CA6F0E
:4006C000CC4FCEFFD602D802DE02E040E220E4C0E620EA60EC2028012C01320138083E045608580459045B045C335D905F0180B0824083048404860288C08A208C028E0466
:400700008F0296F098809A109C029E049F08A070A301A401A8C0AA10AC02AE0CB008B101B201B308B4F0B502B606B704BA80BE04C056C9FFCAFFCBFFCF01D018D418D8047F
:40074000D904DA04DB04DD41DF01E040E240E440E540E680E880EA80EC80EE8001080201044005050708088009080AA00C800D800E040F20100E1260144015201620174098
:4007800018101C401D201E0A1F08242025102680274029202C803020310832603580380839903A413B083E403F024C014E0859405B105D0162106302640267088020821075
:4007C000854087408F10900A911192049420958096A097809C209D209E19A008A1C0A208A310A420A680A840A940AA01B030B101B601C0F5C2EDC4FFCA84CC1ECE9DD230D5
:40080000D68CD83CE440E602E820EA48EC80EE20050408010C010F0117011A011B021E01230224012A012C01310133013502360137043F51405649FF4AFF4BFF4D834E0311
:400840004F0150185608580459045A045B045C135D915F016040624064406540668068806A806C806E8086108C018E029002920193019404960898089A049C049E08A0014B
