:400000000080002011000000410C0000410C000080B500AF024A034B1B68136000F01AFEBC760040FA46004010B5054C237833B9044B13B10448AFF300800123237010BD65
:40004000C881FF1F00000000D8480000084B10B51BB108490848AFF300800848036803B910BD074B002BFBD0BDE81040184700BF00000000CC81FF1FD8480000C880FF1FC2
:400080000000000080B400AF034B01221A6000BFBD4680BC704700BF0082FF1F80B400AF034B01221A6000BFBD4680BC704700BF1482FF1F90B589B000AF62B601210020E1
:4000C00001F046F803F0B8FE03F01EFC03F0A2FCA84800F055FF012003F02AFF00F010FF00F026FFA44803F033FF00F089FA00F0AFFAA04800F044FF00F0C6FF9F4B1B68AB
:40010000012B66D100F07EFF9D4B1B68002B11D103F012FC03461A469A4B1A6003F092FC03461A46984B1A60954B1B680133944A136049E0924B00221A6003F0FDFB034629
:400140001A46924B1A6003F07DFC03461A46904B1A608E4B1A688B4B1B68D31A8D4A13608B4B1A68884B1B68D31A8B4A13608A4B1B6883EAE372A2EBE372864B1B68002B15
:40018000B8BF5B421344DA0F13445B103B60834B1A683B681344814A1360804B1B68184604F090F903467E49184604F0DFF90346184604F02BFB02467A4B1A60002003F048
:4001C000CDFB002003F050FC6C4B00221A6000F00DFF744B1B68744A934202DD00F038FA8CE7002003F03AFF704B1B68012B85D102F0BCFE6E4B1C68002000F09FFE034655
:400200001A466C4B43F82420694B1C68012000F095FE03461A46684B43F82420644B1C68022000F08BFE03461A46644B43F824205F4B1C68032000F081FE03461A46604BB8
:4002400043F824205A4B1C68042000F077FE03461A465C4B43F82420554B1C68052000F06DFE03461A46584B43F82420504B1B6801334F4A13604E4B1B68B3F57A7F40F0C4
:40028000A681012003F0EAFE494B00221A600023FB610023BB6100237B6100233B610023FB600023BB6000237B6044E0414A7B6852F8233040F6B832934202DDFB6901331A
:4002C000FB613D4A7B6852F8233040F6B832934202DDBB690133BB61384A7B6852F8233040F6B832934202DD7B6901337B61344A7B6852F8233040F6B832934202DD3B6913
:4003000001333B612F4A7B6852F8233040F6B832934202DDFB680133FB602B4A7B6852F8233040F6B832934202DDBB680133BB607B6801337B607B68B3F57A7FB6DBBB69C8
:40034000952B03DC002003F0A7FE02E0012003F0A3FE7B69952B03DC002003F047FE02E0012003F043FEFB68952B2FDC002003F05BFE2EE09D000000850000001482FF1FFF
:400380001882FF1F78D1FF1F48A2FF1F90A2FF1F4492FF1F8CA2FF1F1CE1FF1FFC81FF1F3010493E1C82FF1F3F420F000082FF1F0482FF1F6892FF1F38B2FF1FD8C1FF1FA2
:4003C00094A2FF1FA482FF1F7CD1FF1F012003F02BFE824B00221A60814B00221A60FB69952B11DC7B69952B0EDCBB68952B0BDC3B69952B08DCBB69952B05DCFB68952B53
:4004000002DC00F025F9E2E0764B1B68012B14D106E000F08BF9724B1B680133704A13606F4B1B6843F698229342F2D16E4B00221A606C4B00221A60C9E06C4B1B68012B3F
:4004400014D106E000F08CF9654B1B680133644A1360634B1B6843F698229342F2D1624B00221A60614B00221A60B0E0FB69952B15DC7B69952B02DDBB69952B0FDC5A4BCB
:400480001B68012B0BD1564B1B680133544A1360544B01221A60564B00221A6097E0BB68952B15DC7B69952B02DDFB68952B0FDC4D4B1B68012B0BD1494B1B680133484AF3
:4004C00013604A4B01221A60494B02221A607EE0FB68952B02DCBB69952B78DDFB69952B02DCBB68952B72DD7B69952B0BDCBB69952B08DC00F0B6F83B4B01221A603C4BBE
:4005000000221A6063E07B69952B0BDCFB68952B08DC00F0BFF8364B02221A60324B01221A6054E07B69952B15DC2C4B01221A602F4B01221A602C4B01221A602D4B1C6866
:400540002D4B1B68184604F061F903461946204600F064F83BE0FB68952B08DC00F09AF8214B01221A60224B02221A602FE0BB69952B08DC00F076F81B4B01221A601C4B23
:4005800000221A6023E0FB69952B06DC154B01221A60174B00221A6019E0BB68952B06DC124B01221A60124B02221A600FE0104B1B68002B02D100F085F808E00C4B1B68EE
:4005C000012B02D100F098F801E000F095F80B4B00221A6002F0BEFC90E500BF1C81FF1F3882FF1F0882FF1F3482FF1F0C82FF1F3C82FF1F1C82FF1F1081FF1F0082FF1FAA
:4006000080B500AFFA2003F067F8FA2003F028F902F0CEFF03F090F800BF80BD80B582B000AF78603960084B1B68DBB2184603F063F8064B1B68DBB2184603F021F900BFE5
:400640000837BD4680BD00BF2081FF1F2481FF1F80B500AF7D2003F04FF87D2003F010F900BF80BD80B500AF084B1B68DBB2023BDBB2184603F040F8054B1B68DBB202333B
:40068000DBB2184603F0FCF800BF80BD2081FF1F2481FF1F80B500AF084B1B68DBB20233DBB2184603F028F8054B1B68DBB2023BDBB2184603F0E4F800BF80BD2081FF1F5E
:4006C0002481FF1F80B500AF0A4B1B68DAB26FF006039B1ADBB2184603F00EF8054B1B68DAB26FF004039B1ADBB2184603F0C8F800BF80BD2081FF1F80B500AF0A4B1B685F
:40070000DAB26FF004039B1ADBB2184602F0F4FF054B1B68DAB26FF006039B1ADBB2184603F0AEF800BF80BD2081FF1F80B500AF094B1B68DBB2C3F10103DBB2184602F0AA
:40074000DBFF064B1B68DBB2073BDBB2184603F097F800BF80BD00BF2081FF1F2481FF1F80B500AF094B1B68DBB2073BDBB2184602F0C2FF064B1B68DBB2C3F10103DBB284
:40078000184603F07DF800BF80BD00BF2081FF1F2481FF1F80B582B000AF786039603A680021786804F08FF800BF0837BD4680BD80B584B000AFF860B9607A607A68B968ED
:4007C000F86804F075F800BF1037BD4680BD00BF80B483B000AF0346FB71FEE780B487B000AF7860396000233B6100237B6127E07B699B007A6813441B68BB60BB68FB734C
:40080000BB6823F0FF03BB6014E03B695B003A6813441B781A46BB68134419463B695B003A6813445B780B703B6901333B61FB7B013BFB73FB7B002BE7D17B6901337B6186
:400840007B692B2BD4D900BF1C37BD4680BC704780B582B000AF3C4B04221A803B4B18221A703B4B3B221A803A4B1C221A703A4B3B221A80394B18221A70394B3B221A80D9
:40088000384B18221A70384B81221A80374B18221A70374B06221A70364B52221A70364B364A1278D2B21A70354B40F619121A80344B41F251221A800023FB7019237B60C0
:4008C00014E0FB785B00DAB22F4B1B78DBB203F00103DBB21343DBB203F00303FB704FF4F07003F0F9FB7B68013B7B607B68002B02D0FB78032BE4D17B68002B02D1032087
:40090000FFF766FF214B4FF480721A801F4B07221A701F4B00221A701E4B48221A701B4B00221A701C4B00221A701C4B02221A701B4A1B4B1B78DBB243F01F03DBB2137007
:4009400000BF0837BD4680BD80400040824000408440004086400040884000408A4000408C4000408E40004090400040924000400043004000420040A14600400F0100495A
:400980002242004020420040254200400440004006400040084000400940004001400040A243004080B582B000AF214B1B78FB71204B1B78BB71204B1B787B711F4AFB7917
:4009C00003F00703DBB213701D4AFB791B09DBB21370184ABB7943F00303DBB21370164A7B7943F00303DBB21370164B40221A70154BC7221A70154B80221A70144B0F2223
:400A00001A70144B20221A70134B04221A700A2002F0F0FC084A7B791370064ABB7913700E4B44221A7000BF0837BD4680BD00BFCF010049F8460040F94600406E580040B9
:400A40006F5800401D5100402D51004001590040205B0040235B0040585B00407658004080B586B000AF72B6584B61221A70FFF7EFFE564B01221A70554A554B1B78DBB26D
:400A800043F00403DBB213700023FB7513E0FA7D13465B0013445B004E4A13443B613B691A683B699B889BB219461046FFF772FEFB7D0133FB75FB7D062BE8D90023FB7590
:400AC0001CE0FA7D13469B0013445B00424A1344FB60FB681B68BB60FB685B687B60FB681A7A5B7A1B0213437B807B881A467968B868FFF75DFEFB7D0133FB75FB7D002BEF
:400B0000DFD036494FF09040FFF768FE04213448FFF740FE042233493348FFF749FE334B334A1A60334B324A1A60334A324B1B78DBB243F00203DBB21370304A2F4B1B781B
:400B4000DBB243F00203DBB213702D4A2C4B1B78DBB243F04003DBB213702A4A294B1B78DBB243F01003DBB21370082226492748FFF71EFE082226492648FFF719FE0A2254
:400B800025492648FFF714FE082225492548FFF70FFE0A2224492548FFF70AFE082224492448FFF705FE244A234B1B78DBB243F00803DBB21370FFF7F5FE0E2210491F4826
:400BC000FFF7F6FD00BF1837BD4680BD00480040E8460040DC48000008490000B00000480076004058100048087600405814014004040044D81A01400350014013500140D3
:400C0000A0430040C2430040201000480251004028100048C251004030100048F05100403C100048125100404410004820510040501000483251004022430040B04300409E
:400C400080B500AF03F008FE03461B680C2B00D1FEE7FEE780B586B000AF224B7B61224B3B61204B7B6135E03B691B68FB603B695B68BB603B699B683B6000237B600CE001
:400C8000FB681A68BB681A60BB680433BB60FB680433FB607B6804337B607A683B689A42EED13B69DB683B6000237B6008E0BB6800221A60BB680433BB607B6804337B60A2
:400CC0007A683B689A42F2D13B6910333B617B69013B7B617B69002BC6D103F0C3FDFFF7E9F9FEE701000000EC4A000080B582B000AF194B194A1A60194A194B1B6843F42C
:400D00000073136000237B600FE07B68032B04D8144A7B6852F8233000E0134B13497A6841F822307B6801337B607B682F2BECD90F4B1B78DAB20F4B1A700F4B0B4A1A6094
:400D4000FFF78EFE02F02EF90C4B00221A6000BF0837BD4680BD00BF0CED00E00004FA0514ED00E000000000410C00000080FF1FBC760040C480FF1F08ED00E0C080FF1F39
:400D800080B500AF41F6FF734FF480420121022002F058F803461A460A4B1A7041F6FF7341F6FF7201210C2002F07EF803461A46054B1A70054802F0A9F8002002F0B8F867
:400DC00000BF80BD4482FF1F4582FF1F750F000080B582B000AF414B1B78184602F056F93F4B1B78184602F051F93E4B1B78FF2B05D102F057FA03461A463A4B1A70394B84
:400E00001878384B1A7806230C2102F079FA354B1B78354A92B245F6A031184602F0B0FA2E4B1A782F4B1B781946104602F0CCF92E4B1B78FF2B05D102F034FA03461A461D
:400E40002A4B1A70294B1878284B1A7807230C2102F056FA254B1B78234A91B2244A92B2184602F08DFA1E4B1A78204B1B781946104602F0A9F9194B1B780121184602F0EA
:400E8000BFF8174B1B780121184602F0B9F803F02BF90346FB71174A164B1B78DBB243F02003DBB21370FB79184603F021F9124A114B1B78DBB243F00103DBB213700E4AF9
:400EC0000D4B1B78DBB243F00203DBB213700B4B01221A6000BF0837BD4680BD4482FF1F4582FF1F2881FF1F4882FF1F2981FF1F20E1FF1F996400407E64004080E200E001
:400F000080B500AF084B1B68002B04D1FFF738FF054B01221A6001F093FEFFF759FF034B1B7800BF80BD00BF4082FF1F6764004080B500AF01F038FF00BF80BD80B483B017
:400F400000AF0346FB80FB88C3F10503074A32F913309AB2064B1B881BB29BB2D31A9BB21BB218460C37BD4680BC704720E1FF1FCAE1FF1F80B400AF00BFBD4680BC704788
:400F800080B582B000AF786000F03CF8786800F009F8072000F018F800F028F800BF0837BD4680BD80B485B000AF7860054B1B68FB60FB6854337A681A6000BF1437BD4668
:400FC00080BC704708ED00E080B483B000AF0346FB71054AFB795B01DBB2137000BF0C37BD4680BC704700BF05E400E080B400AF034B20221A6000BFBD4680BC704700BF4E
:4010000000E100E080B400AF034B20221A6000BFBD4680BC704700BF80E100E080B582B000AF42F20F7000F05DF842F20F7000F073F803F059F80346FB710A4A094B1B78FD
:40104000DBB243F01003DBB21370FB79184603F04FF800F06FF8002000F028F800BF0837BD4680BD9D64004080B400AF054A054B1B78DBB263F07F03DBB2137000BFBD4632
:4010800080BC70477D64004080B500AF064B1B78002B04D1FFF7C2FF034B01221A70FFF7E3FF00BF80BD00BF5482FF1F80B483B000AF0346FB71044AFB79137000BF0C3709
:4010C000BD4680BC704700BF8D64004080B400AF034B1B78DBB21846BD4680BC704700BF6D64004080B582B000AF78607968034802F042FA00BF0837BD4680BD2B64004040
:4011000080B400AF034B1B6823F07F431846BD4680BC70474B64004080B582B000AF78607968034802F028FA00BF0837BD4680BD0B64004080B500AF01E0FFF7E1FFFFF737
:40114000C5FF034603F00803002BF6D100BF80BD80B582B000AF03460A46FB711346BB71094B1B78002B04D100F010F8064B01221A70BA79FB791146184600F0D9F800BF1D
:401180000837BD4680BD00BF5582FF1F80B582B000AF02F0A9FF0346FB71544A534B1B78DBB243F00103DBB21370514A504B1B78DBB243F00103DBB213704E4B01221A7011
:4011C0004D4B02221A704D4A4C4B1B78DBB203F07F03DBB21370002002F00CF9484A484B1B78DBB223F00603DBB21370454A454B1B78DBB223F02003DBB21370404A404BB4
:401200001B78DBB243F00103DBB21370012002F0F1F8282002F0EEF83B4A3B4B1B78DBB203F07F03DBB21370374A374B1B78DBB223F04003DBB21370314A314B1B78DBB2DB
:4012400043F00203DBB21370022002F0D3F82C4A2B4B1B78DBB243F00403DBB213702B4B00221A702A4B00221A70FB79184602F03FFF0721172002F0F9F82649172002F0D2
:40128000CDF80721182002F0F1F82349182002F0C5F80721152002F0E9F82049152002F0BDF80721012002F0E1F81D49012002F0B5F80721022002F0D9F81A49022002F0A8
:4012C000ADF80721032002F0D1F81749032002F0A5F807210C2002F0C9F814490C2002F09DF800BF0837BD4680BD00BFA5430040B54300409D600040096000401060004027
:401300009443004012600040F85100408460004085600040B11B000099140000A51B0000BD1A0000051B0000511B0000BD1B000080B582B000AF03460A46FB711346BB71FE
:401340002E4AFB7913702E4B00221A702D4B00221A702D4B00221A702C4B00221A702C4B00221A702B4B00221A702B4B00221A702A4B4FF400021A60284B4FF080721A60B5
:40138000264B4FF400121A60244B02221A60234B04221A60214B08221A60BB79002B02D0012B09D011E01E4A1D4B1B78DBB223F00103DBB2137011E0194A194B1B78DBB2AC
:4013C00043F00103DBB2137008E0154A144B1B78DBB243F00103DBB2137000BF114B03221A70114B80221A70012002F075FE0F4B04221A7000BF0837BD4680BD2DE1FF1F4D
:4014000030E1FF1F4CE1FF1F4FE1FF1F44E1FF1F4EE1FF1F51E1FF1F2CE1FF1F00E100E00960004028600040086000401260004080B400AF0F4B00221A700F4B00221A705E
:401440000E4B00221A700E4B00221A700D4B00221A700D4B00221A700C4B00221A700C4B03221A700B4B80221A7000BFBD4680BC704700BF30E1FF1F4CE1FF1F4FE1FF1F93
:4014800044E1FF1F4EE1FF1F51E1FF1F2CE1FF1F286000400860004080B582B000AF374B1B78BB71BB7903F01003002B62D00123FB7197F90630002B12DABB7903F00F031D
:4014C000012B02D00023FB711CE000F061F82C4B1B78DBB25BB2002B14DA0023FB7111E0BB7903F04003002B02D000F095F809E0BB7903F02003002B02D000F0B3F801E04D
:401500000023FB71FB79002B34D01C4B1B78BB7197F90630002B2DDB1A4B1B78DAB21A4B1B78DBB21343BB71184ABB791370174B1B78DBB2BA799A421CD1114B1B78FB71DD
:401540000E4B1B78DBB223F07F03BB71BB79002B0AD10A4B0A4A1278D2B21A70074B1B78DBB203F00F03FB71054B1B78DBB2FA799A42E2D100BF0837BD4680BD286000405B
:401580004DE1FF1FC2E1FF1F50E1FF1F2960004080B582B000AF1D4B1B78FB711B4AFB7913701A4B1B78FB7197F90730002B03DA174AFB79137025E0022000F045FA154BEC
:4015C0001B78DBB203F06003202B08D0402B0BD0002B0ED100F0F8FA0346FB710CE002F075FE0346FB7107E001F000FB0346FB7102E00023FB7100BFFB79002B02D1044BEC
:4016000003221A7000BF0837BD4680BD286000404DE1FF1F0060004080B500AF104B1B78DBB2062B19D801A252F823F05B1600005B160000491600005B1600004F16000071
:401640005B1600005516000000F0F8F806E000F0A7F903E000F0D2F900E000BF00BF80BD30E1FF1F80B500AF124B1B78DBB2062B1DD801A252F823F0AF160000AF160000BF
:4016800095160000AF1600009B160000AF160000A116000000F0D8F80AE000F027F907E0032000F0D1F9044B03221A7000E000BF00BF80BD30E1FF1F4DE1FF1F80B483B094
:4016C00000AF0023FB71294B1B78DBB29AB2284B1B889BB213449AB2254B1A8015E02549FB79254A52681278D2B2CA54224B5B680133214A5360FB790133FB711E4B1B88EE
:401700009BB2013B9AB21C4B1A801B4B1B889BB2002B02D0FB79072BE1D9144B1B78DBB2082B02D0FB79002B0FD0144B1B78DBB283F07F03DB43DAB2104B1A70104B0F228F
:401740001A70104B02221A7005E00D4B02221A700C4B02221A700C4AFB791370034AFB79137000BF0C37BD4680BC70472CE1FF1F2EE1FF1F0060004038E1FF1FC2E1FF1F6D
:401780004DE1FF1F30E1FF1F50E1FF1F80B582B000AF164B1B889BB2002B02D100F02EF81EE0134B02221A70124B00221A7000F06BF9114BDB79DBB29BB21B029AB20E4B31
:4017C0009B79DBB29BB21343FB80084B1B889BB2FA889A4202D2054AFB881380FFF76EFF012318460837BD4680BD00BF38E1FF1F30E1FF1FC2E1FF1F0060004080B400AF83
:40180000094B02221A70094B80221A70084B0F221A70084B00221A70074B00221A7001231846BD4680BC704730E1FF1FC2E1FF1F4DE1FF1F2CE1FF1F50E1FF1F80B500AF09
:40184000FFF73CFF00BF80BD80B500AF0A4B1B78DBB29AB2094B1B889BB213449AB2074B1A80074B00221A70012000F0EDF8054B03221A7000BF80BD2CE1FF1F2EE1FF1F7C
:4018800030E1FF1F4DE1FF1F80B582B000AF124B04221A70114B80221A7000F0F5F8104BDB79DBB29BB21B029AB20D4B9B79DBB29BB21343FB800B4B1B889BB2FA889A4278
:4018C00002D2084AFB881380074B0B221A70012318460837BD4680BD30E1FF1FC2E1FF1F0060004038E1FF1F4DE1FF1F80B483B000AF0023BB71234B1B78DBB203F00F0397
:40190000DBB2023BFB71FB799AB21F4B1B889BB213449AB21C4B1A8018E01C4B5B681C49BA798A5CD2B21A70184B5B680133174A5360BB790133BB71FB79013BFB71134B89
:401940001B889BB2013B9AB2104B1A800F4B1B889BB2002B02D0FB79002BDED10D4AFB7913700D4B1B78DBB283F07F03DB43DAB2094B1A70094B0B221A7000BF0C37BD4612
:4019800080BC7047296000402EE1FF1F38E1FF1F0060004050E1FF1FC2E1FF1F4DE1FF1F80B500AF054B00221A70012000F04CF8034B03221A7000BF80BD00BF30E1FF1FEF
:4019C0004DE1FF1F80B400AF084B06221A70084B06221A70074B80221A70074B00221A7001231846BD4680BC704700BF30E1FF1F4DE1FF1FC2E1FF1F50E1FF1F80B500AF8C
:401A00000D4B1B78DBB2002B0AD00C4A0A4B1B78DBB263F07F03DBB21370074B00221A70074B00221A70012000F00EF8054B03221A7000BF80BD00BF4EE1FF1F08600040B7
:401A400030E1FF1F4DE1FF1F80B483B000AF0346FB710B4B9B68002B0CD0094B9B68FA791A70074B9B68074A128892B25A80044B00229A6000BF0C37BD4680BC704700BFEC
:401A800038E1FF1F2EE1FF1F80B400AF094B00221A80094B9B68002B07D0074B9B6800221A70054B9B6800225A8000BFBD4680BC704700BF2EE1FF1F38E1FF1F80B400AF6B
:401AC0000D4B01221A700D4B9B7C0D4B1B7BDBB203F00303012B08D0094BDB7BDBB283F07F03DB43DAB2064BDA73054B01225A7300BFBD4680BC70470B600040FC5F00404B
:401B000054E1FF1F80B400AF0E4B02221A700E4B93F822300D4B1B7EDBB203F00303012B08D00A4BDB7EDBB283F07F03DB43DAB2064BDA76054B01225A7600BFBD4680BCFB
:401B4000704700BF0B600040FC5F004054E1FF1F80B400AF104B04221A70104B93F832300F4B93F82430DBB203F00303012B0AD00B4B93F82730DBB283F07F03DB43DAB2F7
:401B8000074B83F82720064B012283F8252000BFBD4680BC704700BF0B600040FC5F004054E1FF1F80B400AF00BFBD4680BC704780B500AFFFF73CFC00BF80BD80B500AF46
:401BC00001F0E0F900BF80BD80B586B000AF0023FB759D4B1B78FB7100233B619B4B00221A8097F90730002B80F20481964B5B78DBB20A2B00F21B8201A252F823F000BF7D
:401C00004B1D00002F2000002F2000002F2000002F2000002F2000002D1C00002F200000BF1D00002F200000D51D0000864BDB78DBB2012B0ED100F049FEB860BB685B680B
:401C4000824A5360814B12221A80FFF79FFD0346FB75EEE17C4BDB78DBB2022B25D17A4B9B78DBB2184600F009FEB860BB68002B00F0DF81BB685B68744A5360734B5B681F
:401C800003331B78DBB29BB21B029AB26F4B5B6802331B78DBB29BB213439AB26B4B1A80FFF774FD0346FB75C3E1674BDB78DBB2032B45D10023FB73654B3B6109E03B6903
:401CC0001B78BB71BB793A6913443B61FB7B0133FB735D4B9B78DBB2FA7B9A4204D23B691B78DBB2002BEAD1574B9B78DBB2EE2B01D1584B3B61544B9B78DBB2002B0BD079
:401D0000514B9B78DAB2544B1B7C9A4204D1534800F0ACF9514B3B613B691B78DBB2002B00F087813B691B78DBB29AB2474B1A80464A3B695360FFF729FD0346FB7578E1E1
:401D400002F0C4FA0346FB7573E1FB7903F00303002B20D0022B00D030E03C4B02221A80394B1B79DBB203F07F023D4913465B0013449B000B4402331B78DAB2394B1A70D6
:401D8000384B00225A70314B364A5A60FFF7FEFC0346FB7512E02D4B02221A80324B1B78DAB2304B1A702F4B00225A70274B2D4A5A60FFF7EBFC0346FB7500BF40E1234B9F
:401DC00001221A80214B294A5A60FFF7DFFC0346FB7535E11D4B01221A801B4B1B79DBB21A46234B1344194A5360FFF7CFFC0346FB7525E1144B5B78DBB2013B0A2B00F264
:401E00001A8101A252F823F0131F000037200000A11F000037200000351E0000372000003720000037200000791E000037200000CF1E0000044B9B78DAB20E4B1A70FFF76D
:401E4000C1FD0346FB75FBE00060004038E1FF1F80490000884A000028490000ECE1FF1F54E1FF1F5882FF1F51E1FF1F4FE1FF1FC0E1FF1F4EE1FF1F744B9B787B717B799B
:401E8000002B06D07B79013BDBB2184600F0F6FCB8607B79002B02D0BB68002B03D17B79002B40F0CA806A4B1B78DBB27A799A4208D0674A7B791370664B01221A7001203D
:401EC00000F0DCF9FFF77EFD0346FB75B5E000F055FE0346002B00F0B2805C4B1B793B715A4B1B79DAB25C4B1A703B795B4AD35CDAB23B795A49CB5CDBB29A4204D0554B39
:401F000001221A7000F08CFBFFF75CFD0346FB7595E0FB7903F00303012B20D0012B0CD3022B00D03BE0494B9B78DBB2002B31D100F078FD0346FB752CE0444B9B78DBB29A
:401F4000012B29D1474B1B78DBB223F00203DAB2444B1A70FFF736FD0346FB751CE03B4B1B79DBB2012B19D8384B9B78DBB2DB43DBB2364A1279D2B2114610463A4A125C2E
:401F8000D2B21340DAB2384B5A54FFF71BFD0346FB7503E000BF53E000BF51E000BF4FE0FB7903F00303012B20D0012B0CD3022B00D03BE0254B9B78DBB2002B31D100F03A
:401FC000BDFC0346FB752CE0204B9B78DBB2012B29D1244B1B78DBB243F00203DAB2214B1A70FFF7EFFC0346FB751CE0174B1B79DBB2012B19D8154B9B78DBB2DB43DBB208
:40200000124A1279D2B211461046174A125CD2B21340DAB2144B5A54FFF7D4FC0346FB7503E000BF0CE000BF0AE000BF08E000BF06E000BF04E000BF02E000BF00E000BFA5
:40204000FB7D18461837BD4680BD00BF006000404FE1FF1F4CE1FF1F44E1FF1F34E1FF1FC0E1FF1F51E1FF1FC4E1FF1FB0B58AB000AF7860324B07F114041D460FCD0FC4F6
:402080002B682370002387F826307B68002B52D07B6822221A707B68013303221A7007F10C03184601F006FA022387F827303EE097F827307A68134497F8262007F12801D7
:4020C0000A4412F81C2C1209D2B207F128010A4412F8142C1A7097F8273001337A68134400221A7097F8273002337A68134497F8262007F128010A4412F81C2C02F00F0272
:4021000007F128010A4412F8142C1A7097F8273003337A68134400221A7097F82630013387F8263097F82730043387F8273097F82730212BBCD900BF2837BD46B0BD00BF66
:402140001449000090B482B000AF0123FB7180E0464AFB791B0113440C221A70FA79444913465B0013449B000B4405331B78DBB2002B1CD0FA793E4913465B0013449B00BA
:402180000B4404331B78DBB25BB2002B07DA394AFB791B01134402330C221A700EE0354AFB791B011344023308221A7006E0314AFB791B011344023380221A702B48F9793E
:4021C000FA792B4C13465B0013449B00234406331B889BB2DAB20B01034406331A702348F979FA79224C13465B0013449B00234406331B889BB21B0A9BB2DAB20B010344D8
:4022000007331A701948F979FA79194C13465B0013449B00234406331B889BB2DAB20B01034404331A701148F979FA79104C13465B0013449B00234406331B889BB21B0A64
:402240009BB2DAB20B01034405331A70FB790133FB71FB79082B7FF67BAF074BFF221A7000BF0837BD4690BC704700BF7060004054E1FF1FFC5F00400A60004080B58AB03F
:4022800000AF0346FB7100237B84002387F8273050E097F82720B34913465B0013449B000B4400221A7097F82720AE4913465B0013449B000B44023300221A7097F8272083
:4022C000A84913465B0013449B000B44033300221A7097F82720A34913465B0013449B000B44083300221A8097F827209D4913465B0013449B000B440A3300221A7097F83F
:402300002720984913465B0013449B000B44013300221A7097F82720924913465B0013449B000B44053300221A7097F82730013387F8273097F82730082BAAD9FB79002BEB
:4023400016D0002387F825300EE097F82530864A0021D15497F82530844A0021D15497F82530013387F8253097F82530012BECD97F4B1B78DBB2002B00F04A810023FB767B
:402380007B4B1B78DBB2013BDBB2184600F076FA78617B695B683B613B6907331B7803F04003002B08D0734B1B78DBB243F00103DAB2704B1A7007E06E4B1B78DBB223F031
:4023C0000103DAB26B4B1A707B6908337B617B691B7887F82730012387F82530B6E07B695B68FB61002387F82630A3E097F82520FB699B7803F07F039A4240F0938097F84B
:402400002520584913465B0013449B000B4408331B889AB2FB699B889A420CD297F82520FB6998884F4913465B0013449B000B44083302461A80FB691B781A464A4B9B5C71
:40244000DAB2FB695B789A426CD197F82520FB699878444913465B0013449B000B44043302461A7097F82520FB69D8783D4913465B0013449B000B4402461A70FB69DB7821
:4024800003F00303FB73FB699B785BB2002B1CDA97F82520FB7B012B01D1072000E00D20304913465B0013449B000B44053302461A7097F825202B4913465B0013449B002E
:4024C0000B44013301221A701BE097F82520FB7B012B01D1052000E00920224913465B0013449B000B44053302461A7097F825201C4913465B0013449B000B44013300224D
:402500001A70FB699B790A2B03D0FB699B79022B08D1FA7E97F825301946F86901F08EFE0346FB76FB690833FB6197F82630013387F8263097F8262097F827309A42FFF44D
:4025400055AF97F82530013387F8253097F82530082B7FF644AF7B695B68FB61002387F8253020E054E1FF1FC0E1FF1F34E1FF1F4FE1FF1F51E1FF1FFB699B7803F07F0224
:40258000FB691878244913465B0013449B000B440A3302461A70FB690833FB6197F82530013387F8253097F8252097F827309A42E2D300F09DF90246184B1A6000237B84B7
:4025C000012387F827301DE097F82720124913465B0013449B000B4406337A8C1A8097F827200D4913465B0013449B000B4408331B889AB27B8C13447B8497F82730013323
:4026000087F8273097F82730082BDDD9FFF79AFD00BF2837BD4680BD54E1FF1F48E1FF1F90B585B000AF8F4B1B78DBB2002B00F015818C4B1B78DBB2013BDBB2184600F08E
:402640001DF978607B6808337B607B681B78FB707B685B68BB60844B1B78BB700023FB73F7E0BB681B78BA789A4240F0EC80BB787E4AD35CDAB2BB685B789A4240F0E38061
:40268000BB689B7803F07F037B70BB68DB7803F003033B707A78764913465B0013449B000B44033300221A707A78BB689878704913465B0013449B000B44043302461A7006
:4026C0007A78BB68D8786A4913465B0013449B000B4402461A707A78BB689888644913465B0013449B000B44083302461A80BB689B785BB2002B1ADA7A783B78012B01D102
:40270000072000E00D205A4913465B0013449B000B44053302461A707A78554913465B0013449B000B44013301221A7019E07A783B78012B01D1052000E009204C491346A5
:402740005B0013449B000B44053302461A707A78474913465B0013449B000B44013300221A70444A7B781B011344023301221A70404879787A783E4C13465B0013449B00EB
:40278000234408331B889BB21B0A9BB2DAB20B0103441A70374879787A78354C13465B0013449B00234408331B889BB2DAB20B01034401331A70304879787A782C4C1346C8
:4027C0005B0013449B00234406331B889BB2DAB20B01034406331A70274879787A78244C13465B0013449B00234406331B889BB21B0A9BB2DAB20B01034407331A701E48E7
:4028000079787A781A4C13465B0013449B00234406331B889BB2DAB20B01034404331A70154879787A78124C13465B0013449B00234406331B889BB21B0A9BB2DAB20B019B
:40284000034405331A70BB680833BB60FB7B0133FB73FA7BFB789A42FFF403AF00BF1437BD4690BD4FE1FF1F44E1FF1FC0E1FF1F54E1FF1FFC5F00407060004080B485B044
:4028800000AF0346FB710F4B1B78DBB20E4ADB0013445B68FB60FB681033FB60FB681B78FA799A4202D30023FB6005E0FB79DB00FA6813445B68FB60FB6818461437BD46DF
:4028C00080BC70472DE1FF1F804A000080B400AF054B1B78DBB2054ADB0013445B681846BD4680BC704700BF2DE1FF1F804A000080B584B000AF104B1B78DBB2013BDBB2F3
:402900001846FFF7BBFFB860BB68002B0DD0BB685B681B79FB71FB790233DB00BA681344BB60BB685B68FB6001E00023FB60FB6818461037BD4680BD4FE1FF1F80B582B0AB
:4029400000AF0023FB71344B1B79DBB203F07F03BB71BB79002B5AD0BB79082B57D8BA79B9792E480B465B000B449B00034402331B78DBB243F00103D8B2284913465B00C6
:4029800013449B000B44023302461A70BA79234913465B0013449B000B44033300221A70BA79B9791D480B465B000B449B00034401331B78DBB243F00203D8B217491346E3
:4029C0005B0013449B000B44013302461A70BA79124913465B0013449B000B4404331B78DBB25BB2002B07DA0D4ABB791B01134402338D221A7006E0094ABB791B011344F6
:402A0000023389221A70FEF7DDFF0346FB71FB7918460837BD4680BD0060004054E1FF1FFC5F004080B582B000AF0023FB71504B1B79DBB203F07F03BB71BB79002B00F076
:402A40009280BB79082B00F28E80BA79B97949480B465B000B449B00034402331B78DBB223F00103D8B2434913465B0013449B000B44023302461A70BA793E4913465B001E
:402A800013449B000B44033300221A703A49BB793948BA79120102441278D2B202F07F02D2B21B010B441A70BA79B97931480B465B000B449B00034401331B78DBB223F013
:402AC0000203D8B22B4913465B0013449B000B44013302461A70BA79264913465B0013449B000B4404331B78DBB25BB2002B1BDABA79204913465B0013449B000B440133F8
:402B00001B78DBB2012B07D11B4ABB791B01134402330C221A7022E0174ABB791B01134402330D221A701AE0BA79124913465B0013449B000B4401331B78DBB2012B07D1AB
:402B40000D4ABB791B011344023308221A7006E0094ABB791B011344023309221A70FEF731FF0346FB71FB7918460837BD4680BD0060004054E1FF1FFC5F004080B584B082
:402B800000AF0023FB73154B1B79BB73144B1B78DBB2013BDBB21846FFF770FEB860BB685B681B79FB71BA7BFB799A4202D9BB7B022B0ED8BB7BBA7B0A498A5CD1B20A4A87
:402BC000D154BB7B054A9278D1B2064AD1540123FB73FB7B18461037BD4680BD006000404FE1FF1FC0E1FF1F34E1FF1F80B582B000AF0023FB710F4B1B78DBB25BB2002B05
:402C000012DA0C4B5B78DBB2012B00D00CE00A4B0A4A5A60094B1B789AB2074B1A80FEF7B5FD0346FB7100BFFB7918460837BD4680BD00BF0060004038E1FF1F9C4A00009F
:402C400080B500AF064B1B78002B04D100F00AF8034B01221A7000F01BF800BF80BD00BF5A82FF1F80B500AF074A074B1B78DBB243F00603DBB213700C2000F06BF8034B27
:402C800000221A8000BF80BD01590040D0E1FF1F80B582B000AF01F027FA0346FB71254A244B1B78DBB243F00103DBB21370224A214B1B78DBB243F00103DBB213701F4B28
:402CC0001B78BB71BB7943F00203BB71BB7943F00103BB71194ABB791370194B18221A70184A184B1B78DBB243F04003DBB21370144A144B1B78DBB223F00303DBB2137033
:402D0000114BC8221A70114B02221A70104A104B1B78DBB243F00803DBB213700A2000F069FBFB79184601F0E3F900BF0837BD4680BD00BFAB430040BB4300400359004074
:402D400006590040055900400059004014460040275B004080B584B000AF0346FB71FB790A2B07D00C2B02D0082B06D008E0C223FB730BE08223FB7308E04223FB7305E0E9
:402D8000C223FB73002000F029FB00BF054AFB7B1370FB79184600F017F800BF1037BD4680BD00BF0259004080B400AF054A054B1B78DBB243F00103DBB2137000BFBD4669
:402DC00080BC70470059004080B584B000AF0346FB71FB790A2B08D00C2B02D0082B08D00BE04FF48053FB600DE04FF48063FB6009E04FF48073FB6005E00023FB6000201E
:402E000000F0ECFA00BF0C4B00221A80FB6842F2107202FB03F303F58063002B01DA03F2FF73DB121A46054B1A60054B00221A8000BF1037BD4680BDC8E1FF1FCCE1FF1F9B
:402E4000CAE1FF1F90B585B002AF0446084611461A462346FB710346BB710B46BB8013467B80104B01221A700E4B1878BA79F9790023019300230093012300F0C3F9094BBE
:402E80001B787A88B988184600F062F9054B1B780221184600F02AF9024B1B7818460C37BD4690BD2A81FF1F90B585B002AF0446084611461A462346FB710346BB710B466D
:402EC000BB8013467B80104B00221A700E4B1878BA79F9790023019300230093002300F091F9094B1B787A88B988184600F030F9054B1B780221184600F0F8F8024B1B78DF
:402F000018460C37BD4690BD2B81FF1F80B485B000AF7860054B1B68FB60FB6840337A681A6000BF1437BD4680BC704708ED00E080B483B000AF0346FB71054AFB795B01C7
:402F4000DBB2137000BF0C37BD4680BC704700BF00E400E080B400AF034B01221A6000BFBD4680BC704700BF00E100E080B400AF034B01221A6000BFBD4680BC704700BF81
:402F800080E100E080B400AF054B1B78DBB203F040039B09DBB21846BD4680BC704700BF8F45004080B483B000AF134B7F221A70124B80221A707F23FB710CE0FB79DB007E
:402FC00003F1804303F5F043FA79013AD2B21A70FB79013BFB71FB79002BEFD1FB79DB0003F1804303F5F04300221A7000BF0C37BD4680BC704700BF2D81FF1F2C81FF1F8D
:4030000080B485B000AF03460A46FB711346BB710123FB60FB79172B2FD8BB79002B0ED0FB791A01184B1344FA791101164A0A441278D2B242F02002D2B21A700DE0FB7928
:403040001A01114B1344FA7911010F4A0A441278D2B222F02002D2B21A70FB791A010A4B1344FA791101084A0A441278D2B242F00102D2B21A700023FB60FB6818461437CB
:40308000BD4680BC704700BF1070004080B485B000AF0346FB710123FB60FB79172B1DD8FB791A01104B1344FA7911010E4A0A441279D2B242F00402D2B21A71FB791A0153
:4030C000094B1344FA791101074A0A441278D2B242F00102D2B21A700023FB60FB6818461437BD4680BC70471070004080B485B000AF03460A46FB711346BB710123FB604F
:40310000FB79172B1BD8FB791A01104B13441B78DBB223F00E03FB72FB791A010B4B1344BA795200D2B252B202F00E0251B297F90B200A4352B2D2B21A700023FB60FB68AB
:4031400018461437BD4680BC704700BF1070004080B485B000AF0346FB710B46BB8013467B800123FB60BB8841F6FF72934202D14FF40053BB807B8841F6FF72934202D14E
:403180004FF400537B80FB79172B17D8FB79DB0003F1804303F5EC430433BB60BB68BA881A80FB79DB0003F1804303F5EC430633BB60BB687A881A800023FB60FB681846DC
:4031C0001437BD4680BC704780B485B000AF03460A46FB711346BB710123FB60FB79172B07D8FB791A01064B1344BA795A720023FB60FB6818461437BD4680BC704700BF63
:403200001070004090B484B000AF0446084611461A462346FB710346BB710B467B7113463B710123FB60FB79172B34D8FB79DB0003F1804303F5EC43BA7902F07F02D1B235
:403240007A79D201D2B20A43D2B21A70FB79DB0003F1804303F5EC433A7E1201D1B23A7902F00F02D2B20A43D2B25A70FB79DB0003F1804303F5EC433A7F02F00F02D2B2EC
:403280009A70FB79DB0003F1804303F5EC430022DA700023FB60FB6818461037BD4690BC704700BF80B582B000AFFF23FB7100F01BFF0346BB71104B1B78182B12D90F4B87
:4032C0001B78FB710C4B1B78013BDAB20A4B1A70FB79DB0003F1804303F5F0431B78DAB2064B1A70BB79184600F002FFFB7918460837BD4680BD00BF2C81FF1F2D81FF1FE9
:4033000090B484B000AF0446084611461A462346FB710346BB800B46BB711346FB700123FB6097F90730002B23DBBB8823F47F6323F00F039BB2002B1BD1FB79DB0003F106
:40334000804303F5F043BB60BB68BA881A80FB79DB0003F1804303F5F043BA799A70FB79DB0003F1804303F5F043FA78DA700023FB60FB6818461037BD4690BC704700BF9F
:4033800080B485B000AF0346FB710B46BB8013467B800123FB6097F90730002B17DBFB79DB0003F1804303F5F0430433BB60BB68BA881A80FB79DB0003F1804303F5F0434A
:4033C0000633BB60BB687A881A800023FB60FB6818461437BD4680BC704700BF80B483B000AF0346FB7101BE00BF0C37BD4680BC704700BF80B582B000AF0346FB80FB88DD
:40340000054A127802FB03F3184600F065FE00BF0837BD4680BD00BF3C81FF1F80B584B000AF03463960FB710F4B1B68FB60FB791F2B02D90020FFF7D1FFFB7903F01F0391
:4034400010339B00FA6813441B68BB60FB7903F01F0310339B00FA6813443A681A60BB6818461037BD4680BD08ED00E080B582B000AF03460A46FB711346BB71BB79072BF8
:4034800002D90020FFF7AAFFFB791F2B02D90020FFF7A4FFFB7903F01F0303F1604303F56443BA795201D2B21A7000BF0837BD4680BD00BF80B483B000AF7860264B1B78DE
:4034C000DBB21A467B681A60244B1B78DBB21B027A6812681A437B681A60214B1B78DBB21B047A6812681A437B681A601D4B1B78DBB21B067A6812681A437B681A607B685D
:403500000433194A1278D2B21A60184B1B78DBB21A027B6804337968043109680A431A60134B1B78DBB21A047B6804337968043109680A431A600F4B1B78DBB21A067B68E1
:4035400004337968043109680A431A6000BF0C37BD4680BC704700BF0301004904010049EC460040020100490101004900010049050100490601004980B485B000AF786092
:4035800039607B68FB603B68DAB2FB681A70FB6801333A68120AD2B21A70FB6802333A68120CD2B21A7000BF1437BD4680BC704780B500AF064B1B78002B04D100F00AF895
:4035C000034B01221A7000F063F800BF80BD00BF5B82FF1F80B582B000AF284A274B1B78DBB243F00203DBB21370254B1B78DBB223F07003FB71224AFB7943F01003DBB238
:403600001370204A1F4B1B78DBB223F03003DBB213701C4A1B4B1B78DBB243F03003DBB21370184A174B1B78DBB223F00F03DBB21370144A134B1B78DBB243F00F03DBB294
:403640001370FF2000F048F8002000F055F8002000F062F80C4A0C4B1B78DBB243F00103DBB21370094A094B1B78DBB243F00103DBB2137000BF0837BD4680BD004F0040C2
:40368000024F00400B4F0040A3430040014F004080B400AF0D4A0D4B1B78DBB243F00103DBB213700A4A0A4B1B78DBB243F00103DBB21370074A074B1B78DBB243F0010326
:4036C000DBB2137000BFBD4680BC7047A3430040B3430040004F004080B483B000AF0346FB71044BFA7992B21A8000BF0C37BD4680BC7047044F004080B483B000AF0346C5
:40370000FB71044BFA7992B21A8000BF0C37BD4680BC7047064F004080B483B000AF0346FB71044AFB79137000BF0C37BD4680BC704700BF034F004080B500AF064B1B78CF
:40374000002B04D100F00AF8034B01221A7000F063F800BF80BD00BF5C82FF1F80B582B000AF284A274B1B78DBB243F00203DBB21370254B1B78DBB223F07003FB71224A0A
:40378000FB7943F01003DBB21370204A1F4B1B78DBB223F03003DBB213701C4A1B4B1B78DBB243F03003DBB21370184A174B1B78DBB223F00F03DBB21370144A134B1B782B
:4037C000DBB243F00F03DBB21370FF2000F048F8002000F055F8002000F062F80C4A0C4B1B78DBB243F00203DBB21370094A094B1B78DBB243F00103DBB2137000BF0837B0
:40380000BD4680BD0C4F00400E4F0040174F0040A34300400D4F004080B400AF0D4A0D4B1B78DBB243F00203DBB213700A4A0A4B1B78DBB243F00203DBB21370074A074BFA
:403840001B78DBB243F00103DBB2137000BFBD4680BC7047A3430040B34300400C4F004080B483B000AF0346FB71044BFA7992B21A8000BF0C37BD4680BC7047104F004033
:4038800080B483B000AF0346FB71044BFA7992B21A8000BF0C37BD4680BC7047124F004080B483B000AF0346FB71044AFB79137000BF0C37BD4680BC704700BF0F4F00409F
:4038C00080B400AF00BFBD4680BC704780B582B000AF0F2000F06AF800F05AF800F004FC0346FB71074A074B1B78DBB243F01003DBB21370FB79184600F0FAFB00BF0837E4
:40390000BD4680BD9765004080B500AF00F034F94FF4004000F05EF9064B1B78002B04D1FFF7CEFF034B01221A70FFF7CFFF00BF80BD00BF5D82FF1F80B582B000AF00F01C
:4039400059F90346FB80FB88A3F500439BB2BB80B7F9043018460837BD4680BD80B584B000AF0346FB80B7F90630002B04DBFB88A3F50043FB8103E0FB88A3F50043FB8127
:40398000FB89184600F026F900BF1037BD4680BD80B400AF044B1B78DBB203F00F03DBB21846BD4680BC70476765004080B483B000AF0346FB71044AFB79137000BF0C377A
:4039C000BD4680BC704700BF8765004080B400AF00BFBD4680BC704780B582B000AF0F2000F06AF800F05AF800F07EFB0346FB71074A074B1B78DBB243F01003DBB213703E
:403A0000FB79184600F074FB00BF0837BD4680BD9565004080B500AF00F086F94FF4004000F0B0F9064B1B78002B04D1FFF7CEFF034B01221A70FFF7CFFF00BF80BD00BF4D
:403A40005E82FF1F80B582B000AF00F0ABF90346FB80FB88A3F500439BB2BB80B7F9043018460837BD4680BD80B584B000AF0346FB80B7F90630002B04DBFB88A3F5004309
:403A8000FB8103E0FB88A3F50043FB81FB89184600F078F900BF1037BD4680BD80B400AF044B1B78DBB203F00F03DBB21846BD4680BC70476565004080B483B000AF0346A3
:403AC000FB71044AFB79137000BF0C37BD4680BC704700BF8565004080B582B000AF1C4B1B78DBB223F00703FB71194AFB791370174B1B78DBB223F00303FB71144AFB79DB
:403B0000137000F0B3F84FF4004000F08FF84FF4004000F05FF8002000F040F800F04EF84FF4004000F092F800F0DEFA0346BB71084A084B1B78DBB243F01003DBB21370D0
:403B4000BB79184600F0D4FA00BF0837BD4680BD756500409B65004080B400AF054A054B1B78DBB263F07F03DBB2137000BFBD4680BC70477565004080B500AF064B1B783F
:403B8000002B04D1FFF7A8FF034B01221A70FFF7E3FF00BF80BD00BF5F82FF1F80B483B000AF0346FB71044AFB79137000BF0C37BD4680BC704700BF8B65004080B400AF01
:403BC000034B1B78DBB21846BD4680BC704700BF6B65004080B483B000AF0346FB80044AFB88138000BF0C37BD4680BC704700BF0C68004080B400AF044B1B78044B1B88D4
:403C00009BB21846BD4680BC704700BF066400408C68004080B400AF034B1B889BB21846BD4680BC704700BF8C68004080B483B000AF0346FB80044AFB88138000BF0C379E
:403C4000BD4680BC704700BF4C68004080B483B000AF0346FB80044AFB88138000BF0C37BD4680BC704700BF6C68004080B500AF01E0FFF7CFFFFFF7A1FF034603F04003F4
:403C8000002BF6D100BF80BD80B582B000AF1C4B1B78DBB223F00703FB71194AFB791370174B1B78DBB223F00303FB71144AFB79137000F0B3F84FF4004000F08FF84FF462
:403CC000004000F05FF8002000F040F800F04EF84FF4004000F092F800F006FA0346BB71084A084B1B78DBB243F01003DBB21370BB79184600F0FCF900BF0837BD4680BD8D
:403D0000746500409465004080B400AF054A054B1B78DBB263F07F03DBB2137000BFBD4680BC70477465004080B500AF064B1B78002B04D1FFF7A8FF034B01221A70FFF786
:403D4000E3FF00BF80BD00BF6082FF1F80B483B000AF0346FB71044AFB79137000BF0C37BD4680BC704700BF8465004080B400AF034B1B78DBB21846BD4680BC704700BF52
:403D80006465004080B483B000AF0346FB80044AFB88138000BF0C37BD4680BC704700BF0C6A004080B400AF044B1B78044B1B889BB21846BD4680BC704700BF066500408D
:403DC0008C6A004080B400AF034B1B889BB21846BD4680BC704700BF8C6A004080B483B000AF0346FB80044AFB88138000BF0C37BD4680BC704700BF4C6A004080B483B0D1
:403E000000AF0346FB80044AFB88138000BF0C37BD4680BC704700BF6C6A004080B500AF01E0FFF7CFFFFFF7A1FF034603F04003002BF6D100BF80BD80B500AF064B1B788A
:403E4000002B04D100F00AF8034B01221A7000F025F800BF80BD00BF6182FF1F80B400AF094B72221A70094B20221A70084B06221A70084B47221A70074B02221A7000BF0D
:403E8000BD4680BC704700BF806400408B64004023640040336400408F64004080B582B000AF00F021F90346FB71114A104B1B78DBB243F02003DBB213700E4A0D4B1B78D5
:403EC000DBB243F01003DBB213700B4A0A4B1B78DBB243F01003DBB2137000F00FF8FB79184600F005F900BF0837BD4680BD00BF906400409B6400409F64004080B400AF72
:403F0000094A094B1B78DBB243F01003DBB21370064A064B1B78DBB243F01003DBB2137000BFBD4680BC7047A2430040B243004080B483B000AF0346FB71044AFB7913702E
:403F400000BF0C37BD4680BC704700BF7464004080B582B000AF786000F03CF8786800F009F8072000F018F800F028F800BF0837BD4680BD80B485B000AF7860054B1B6857
:403F8000FB60FB6850337A681A6000BF1437BD4680BC704708ED00E080B483B000AF0346FB71054AFB795B01DBB2137000BF0C37BD4680BC704700BF04E400E080B400AF33
:403FC000034B10221A6000BFBD4680BC704700BF00E100E080B400AF034B10221A6000BFBD4680BC704700BF80E100E080B485B000AF0346FB710B4B1B78DBB223F008039F
:40400000FB730849FB79DB00DBB203F00803DAB2FB7B1343DBB20B7000BF1437BD4680BC704700BF0051004080B485B000AF0346FB71094B1B78DBB203F07F03FB730649C4
:40404000FB79DB01DAB2FB7B1343DBB20B7000BF1437BD4680BC7047C051004080B485B000AF0346FB710B4B1B78DBB223F00203FB730849FB795B00DBB203F00203DAB245
:40408000FB7B1343DBB20B7000BF1437BD4680BC704700BFC051004080B485B000AF0346FB710B4B1B78DBB223F01003FB730849FB791B01DBB203F01003DAB2FB7B134379
:4040C000DBB20B7000BF1437BD4680BC704700BFF0510040000000000230800803D000BF01380046FCD17047EFF3108072B6704780F31088704700BF80B582B000AF00231E
:40410000FB71314B1B79DBB2184600F067F80346BB712D4B1B78DBB25BB2002B15DA2A4B5B78DBB2212B00D048E0284B07221A80BA791346DB009B1A254A1344234A536044
:40414000FDF724FB0346FB7138E01F4B5B78DBB2202B02D0222B1AD030E01C4B07221A80BA791346DB009B1A194A1344174A5360BB79BA7917498A5CD2B242F00102D1B234
:40418000144AD154FDF780FB0346FB7116E0BB790D4A9278D2B291B20F4A22F81310BB79BA790C498A5CD2B242F00202D1B2094AD154FDF707FC0346FB7100BFFB791846DC
:4041C0000837BD4680BD00BF0060004038E1FF1F4481FF1FD4E1FF1FE8E1FF1F80B485B000AF0346FB710023FB73FF23BB7317E0FB7B104AD35C7B737A7B0F4913465B007A
:4042000013449B000B440A331B78DBB2FA799A4203D1FB7BBB730223FB73FB7B0133FB73FB7B012BE4D9BB7B18461437BD4680BC704700BFDCE1FF1F54E1FF1F80B485B0E4
:4042400000AF78600B46FB701346BB707B68DB7803F00303FB737B689B785BB2002B1ADAFB7B032B0AD0BB7803F001031449FA78CA54BB7843F00103BB701BE0BB789B08BD
:40428000DBB203F001030F49FA78CA54BB7843F00403BB700EE0FB7B032B0BD0BB785B08DBB203F001030849FA78CA54BB7843F00203BB70BB7818461437BD4680BC70472A
:4042C000D8E1FF1FDCE1FF1FE0E1FF1F80B582B000AF0023BB711B4B1B78DBB203F00303012B02D0022B04D012E0164B1B79FB7111E0144B1B79DBB203F07F02124913465E
:404300005B0013449B000B440A331B78FB7102E00023FB7100BFFB79022B0ED80B4B1A68FB7913441B78022B04D1FFF7E5FE0346BB7102E00023BB7100BFBB7918460837A7
:40434000BD4680BD0060004054E1FF1F48E1FF1F80F0004002E000BF81F0004142001FBF5FEA410392EA030F7FEA226C7FEA236C6AD04FEA1262D2EB1363C1BFD218414091
:4043800048404140B8BF5B42192B88BF704710F0004F40F4000020F07F4018BF404211F0004F41F4000121F07F4118BF494292EA030F3FD0A2F1010241FA03FC10EB0C00C6
:4043C000C3F1200301FA03F100F0004302D5494260EB4000B0F5000F13D3B0F1807F06D340084FEA310102F10102FE2A51D2B1F1004F40EBC25008BF20F0010040EA03009D
:404400007047490040EB000010F4000FA2F10102EDD1B0FA80FCACF1080CB2EB0C0200FA0CF0AABF00EBC25052421843BCBFD0401843704792F0000F81F4000106BF80F440
:4044400000000132013BB5E74FEA41037FEA226C18BF7FEA236C21D092EA030F04D092F0000F08BF0846704790EA010F1CBF0020704712F07F4F04D1400028BF40F00040C6
:40448000704712F100723CBF00F50000704700F0004343F0FE4040F4000070477FEA226216BF08467FEA23630146420206BF5FEA412390EA010F40F4800070474FF0000367
:4044C00004E000BF10F0004348BF40425FEA000C08BF704743F0964301464FF000001CE050EA010208BF70474FF000030AE000BF50EA010208BF704711F0004302D54042EE
:4045000061EB41015FEA010C02BF84460146002043F0B64308BFA3F18053A3F50003BCFA8CF2083AA3EBC25310DB01FA02FC634400FA02FCC2F12002BCF1004F20FA02F235
:4045400043EB020008BF20F00100704702F1200201FA02FCC2F1200250EA4C0021FA02F243EB020008BF20EADC7070474FF0FF0C1CEAD0521EBF1CEAD15392EA0C0F93EA73
:404580000C0F6FD01A4480EA010C400218BF5FEA41211ED04FF0006343EA501043EA5111A0FB01310CF00040B1F5000F3EBF490041EAD3715B0040EA010062F17F02FD2A68
:4045C0001DD8B3F1004F40EBC25008BF20F00100704790F0000F0CF0004C08BF49024CEA502040EA51207F3AC2BFD2F1FF0340EAC250704740F400004FF00003013A5DDC01
:4046000012F1190FDCBF00F000407047C2F10002410021FA02F1C2F1200200FA02FC5FEA310040F1000053EA4C0308BF20EADC70704792F0000F00F0004C02BF400010F41F
:40464000000F013AF9D040EA0C0093F0000F01F0004C02BF490011F4000F013BF9D041EA0C018FE70CEAD15392EA0C0F18BF93EA0C0F0AD030F0004C18BF31F0004CD8D1FE
:4046800080EA010000F00040704790F0000F17BF90F0004F084691F0000F91F0004F14D092EA0C0F01D142020FD193EA0C0F03D14B0218BF084608D180EA010000F0004003
:4046C00040F0FE4040F40000704740F0FE4040F4400070474FF0FF0C1CEAD0521EBF1CEAD15392EA0C0F93EA0C0F69D0A2EB030280EA010C49024FEA402037D04FF08053E1
:4047000043EA111143EA10130CF000408B4238BF5B0042F17D024FF4000C8B4224BF5B1A40EA0C00B3EB510F24BFA3EB510340EA5C00B3EB910F24BFA3EB910340EA9C00D1
:40474000B3EBD10F24BFA3EBD10340EADC001B0118BF5FEA1C1CE0D1FD2A3FF650AF8B4240EBC25008BF20F0010070470CF0004C4CEA50207F32C2BFD2F1FF0340EAC25036
:40478000704740F400004FF00003013A37E792F0000F00F0004C02BF400010F4000F013AF9D040EA0C0093F0000F01F0004C02BF490011F4000F013BF9D041EA0C0195E7B2
:4047C0000CEAD15392EA0C0F08D142027FF47DAF93EA0C0F7FF470AF084676E793EA0C0F04D14B023FF44CAF08466EE730F0004C18BF31F0004CCAD130F000427FF45CAFC1
:4048000031F000437FF43CAF5FE700BF4FEA4002B2F1FE4F0FD34FF09E03B3EB12620DD94FEA002343F0004310F0004F23FA02F018BF404270474FF00000704712F1610FE3
:4048400001D1420205D110F0004008BF6FF0004070474FF000007047014B1868704700BFC081FF1F0E4B70B51E460E4C0025E41AA410A54204D056F8253098470135F8E7F3
:4048800000F022F9084B094C1E46E41AA4100025A54204D056F8253098470135F8E770BDD44A0000D44A0000D44A0000DC4A000010B5431E0A44914204D011F8014B03F8A0
:4048C000014FF8E710BD03460244934202D003F8011BFAE77047000000000000004F0040180040510040300000000140001000140140000800400140000A004C0140000267
:40490000105001401000000000500140101000481000000030313233343536373839414243444546000000001201000202000008B40432F20100010280010000090243004D
:40494000020101C032090400000102020103052400100104240202052406000105240100010705810308000A09040100020A00000407058202400000070503024000000089
:40498000040309042C0343007900700072006500730073002000530065006D00690063006F006E0064007500630074006F0072001003550053004200550041005200540013
:4049C0003803430044004300200043006F006D006D0075006E00690063006100740069006F006E00200049006E007400650072006600610063006500260343004400430098
:404A000020004400610074006100200049006E00740065007200660061006300650000000203000000008103080002000100820240000A000100030240000A00020A00006D
:404A4000010000003C49000003000000244A000000000000000000000000000000000000000000003C4A00000100000028490000000000000000000001000000404A0000BC
:404A800001000000684A000012034D0053004600540031003000300001000000280000000001040001000000000000000001435955534200000030303030310000000000BC
:404AC0000000000043000000F8B500BFF8BC08BC9E4670474D000000ED0C0000F8B500BFF8BC08BC9E46704729000000004B0000C880FF1F000100004860000000000000AC
:404B0000000000000A000000435333303120323031360A0000000000000000000000000000000000000000000000000000000000000000000000000000000000000000004E
:404B40000000000000000000000070411E0000001E00000001000000A7000000A7000000FFFFFFFF807F0000030000000087930360EA00003C0000000000307500C20100F0
:404B800000000800C201000000080000A120000000000200000000000000000000000000000000000000000000000000000000000000000000000000C44A00000000000051
:404BC00000000000000000000000000000000000000000000000000000000000000000000000000000000000000000000000000000000000000000006081FF1F00000000B6
:404C00000000000000000000000000000000000000000000000000000000000000000000000000000000000000000000000000000000000000000000000000000000000074
:404C40000000000000000000000000000000000000000000000000000000000000000000000000000000000000000000000000000000000000000000000000000000000034
:404C800000000000000000000000000000000000000000000000000000000000000000000000000000000000000000000000000000000000000000000000000000000000F4
:404CC00000000000000000000000000000000000000000000000000000000000000000000000000000000000000000000000000000000000000000000000000000000000B4
:020000040003F7
:0200000480007A
:4000000001450040044F004008520040015B004005640040046500404C0001403B010140490201404C0301404D040140550501405A060140540701403D080140530901406C
:40004000430A01405A0B0140630C01404D0D0140470E0140360F014029140140531501405916014058170140401801404E190140271A0140561B01400C40014012410140C8
:40008000124201400E430140024401400C4501400E46014010470140084801400B4901400B4C01400A4D014005500140035101407E0201200A1B0D20161B08800980108984
:4000C00011851810191061047C402784807289058B388D0D8F0F846F850F870F8B6F030C04130510064C09610B0E0D4C0F03100311101204141316C419101E881F0822805D
:4001000024202561264527062B232C8A2D102E54310F32C83310340F35603630388039203A283B023F1456025712580459045B045C445D405F01889E89848A608B108C73AF
:400140008D7791C093249430950196C997F298FD99B79A029B409CCF9E309F07A494A660A708A9C1AB12AE0FB10FB4FFB7F0BE10D804D904DF01032004C005200604080284
:400180000A110C100DC00E080F2012901340174418221A111B601F1020082205234025802602274229402A102B202D202F103290330234103746382239083B403C403F208C
:4001C000410142405A085C085D0469146A40708072047310800285018C10C0C4C2EDC4ADCA6ECCFDCE3FD602E208E60101010D011301190121012701290137015804590462
:400200005C335F01807C810882828408850288CF89068A308CFF8F11911192C3943C953196C19706981099079B309C049D04A020A106A331A508A60CA830A908AC04AD37DC
:40024000AE08B108B2B0B307B470B510B63FB720B980BA88BB08C006C604C9FFCA07CBFFCC40CD20CEF0CF05D008D804D904DA04DC44DD04DF01E040E1A8E240E320002440
:40028000038204400A240B450C180F021082110813101602171119601A281B802020210C234A254028082BA22C182D022E023080310A3210371139023B543C403D023F0244
:4002C00044084510480452905340800181018740880489108B208D8091939204931094809508962098089D449E149F04A084A202A684A712AB40B211B320B504C08FC2EF76
:40030000C4DFCAEFCCAFCE9FD204E008E226E481E606E804EA100308060C07100B021108131014801501162218F31A041B011C301EC3204022112318270428F32A082C51E8
:400340002EA2311C340F350336F03A223F014035410142064404450C470E481149FF4AFF4BFF4C624DA04EF04F41500C5608580459045A045B045C945D945F016640670219
:4003800069106A306B106D106E106F128096826884A3865C8A0190C5923A947F9C0E9EF0A4FEA601B0FFBE01D804D904DC30DF0103200402051006200740080809100A02F7
:4003C0000D800EA010021110130116101A021B621D012122230428022B622C182E803002312C35023601371038043B113C403D024002410649204A204B405208582459806E
:40040000600C631168026B02804086088980900291999208934094C49701982499209A809B149C109D069E04A1D0A202A40AA507A604A712AB14B280B30BB420C074C2B764
:40044000C42BCA73CCA7CE97D00BD20CD60ED80EE008E4C8E606EA0DEC04020204D1060410D11208147C1C011E0424AD26102E1D301D32E0340338084026410549FF4AFF7C
:400480004BFF4DA04F015018580459045A045C305F016040628064406540668068406A806C406D206E808202830486088703880289048E0299019A019E04A004A208A6014A
:4004C000B002B20CB301B401B502B704BE11BF40C026C105C53EC624C7C0C82FC9FFCAFFCBFFCDAFCE07CF01D018D401D804D90FDA04DB0FDC34DD30DF01E040E280E44064
:40050000E540E680E840EA80EC40ED20EE800014024003020501062009010A080B410D800EA0122013021610174018481B041C081D101EA01F05210822982C182E902F80C3
:40054000321036013710381039023B043D083F484120453048A04A024B104E024F905010510253405A40790189418A108F0190049181920893059480989099019AA09B5672
:400580009D109E14A008A180A226A50DA651A888AB10AE20B010B140B604C03FC2B3C4ACCAF0CCA4CE17D024D23CD608DE01E220E440EA09EE0300F7019E0360053007C9C4
:4005C00009940B600CA10DFD0E520F0215CF1607173018541AA01C7724C02573263428312AC22B0F2E0830F031FF320F38203E103F01580459045F018104850889018F0183
:4006000091809340952097109B049D409F80A302A708A910AA01AB20AD02B401B5FFBF10D602D73AD804D904DB0EDC03DD30DF0100400128050106020AA00C400E24100867
:4006400012211510174819201CA81D011E201F082120274029682A112B402F28300A3110325036043708386039853C803D103E063F2058046010682A690570107140782000
:400680007928884489048C208E229010920495A096E0980499049C429DA99E299F08A150A204A310A620A780A944AA01AD20AF08B080B120B402B780C097C2ECC4E7CA6F0E
:4006C000CC4FCEFFD602D802DE02E040E220E4C0E620EA60EC2028012C01320138083E045608580459045B045C335D905F0180B0824083048404860288C08A208C028E0466
:400700008F0296F098809A109C029E049F08A070A301A401A8C0AA10AC02AE0CB008B101B201B308B4F0B502B606B704BA80BE04C056C9FFCAFFCBFFCF01D018D418D8047F
:40074000D904DA04DB04DD41DF01E040E240E440E540E680E880EA80EC80EE8001080201044005050708088009080AA00C800D800E040F20100E1260144015201620174098
:4007800018101C401D201E0A1F08242025102680274029202C803020310832603580380839903A413B083E403F024C014E0859405B105D0162106302640267088020821075
:4007C000854087408F10900A911192049420958096A097809C209D209E19A008A1C0A208A310A420A680A840A940AA01B030B101B601C0F5C2EDC4FFCA84CC1ECE9DD230D5
:40080000D68CD83CE440E602E820EA48EC80EE20050408010C010F0117011A011B021E01230224012A012C01310133013502360137043F51405649FF4AFF4BFF4D834E0311
:400840004F0150185608580459045A045B045C135D915F016040624064406540668068806A806C806E8086108C018E029002920193019404960898089A049C049E08A0014B
:40088000A222A801AA02AB02AC04AE08AF04B003B102B210B304B40CB620B701BA22C056C5ECC702C813C9FFCAFFCBFFCD83CE03CF01D018D280D401D804D904DA04DB0414
:4008C000DD11DF01E040E240E440E540E680E880EA80EC80EE80018002100520060108040A480B010C600D101282131014201590188019801A481B141E02220223112408E5
:400900002752280429802B042D102F4830403242341036083E083F4049054A084B404C014E08520859055B405D40664070017340833884808B028F109204942095A096A033
:400940009D209E41A008A1C0A320A4A0A708A804B020B334B584C0C5C2CFC4EBCA8CCC61CE50D23CD61BD810E232E602E8A0EC200A010C0112011401260128012C013201B3
:4009800052035302580459045B045C335D305F01811482108509871088028A058B408C028D4C8E048F1191209402960C98049A029B409F03A110A51CA742A950AB0CB008CF
:4009C000B201B340B406B520B610B71FBA20BF14C032C106C5E0C6C0C7B0C82AC9FFCAFFCBFFCEF0CF44D00CD401D804D904DA04DB04DC40DD44DF01E6C0EA40EB020120DE
:400A00000201046006400AA00E241024134019041C401D801E241F2025442680270829202C802F1430043250330835023680372039A03A013B403C143E403F2244204720DB
:400A40004D024E0857115C105D825F08680A831084028D048E48C0D3C26CC407CAE4CCBECEFDD060D220D6F0E4400C030E0C170118011C081D012803300231013201340890
:400A80003604380A3E143F015280540F580459045B045C305F0581048901930C9F04A101AB02AF01B108B301B504B702BF14D280D40FD804D904DB04DC03DF0100800522B6
:400AC000068007100A010B0C0E020F9210081410150419081A051B02220125112680272029202BE12C482E102F02300832803310374239143B103C103D0259405A165C40E8
:400B00005E085F25612464206508724077407A04812089028B209050911093099640985099449B129C209D209E80A048A120A201A380A510A702A840AB20AD02AF02B10802
:400B4000B480B510B704C071C2B3C422CABFCC9ECEA6D6FFD806DE04E402E601E822EA01EE0208C50A3A0E0118FE1A011CA31E5C20962268240E26F0287F32FF3E044053C8
:400B8000410449FF4AFF4BFF4DA04F015018580459045A045C305F016040628064406540668068406A806C406D206E808004860C89098A018D019204930699069D09A1022B
:400BC000A304AE02B008B108B202B301B401B502B604B704B90ABE40BF54C053C104C53EC6C0C742C83BC9FFCAFFCBFFCDAFCE07CF01D018D40FD804D904DA04DB04DF0106
:400C0000E040E280E440E540E680E840EA80EC40ED20EE80002801020604070209400A400B010C200D400E08120114881724181019921D08225123102B402C102D202F80B3
:400C40003080311032013601371038A03D103E903F4040204301446046404701484049844D8050085121520158095AA0614062808140842188108BC08C108E0490609180B5
:400C80009210938894909502975098909A409B149E04A084A142A285A340A510A782A820AA49AE40B304B404C0CEC2C8C471CAE1CCADCE3CD0C3D218D60FE001E404E801EC
:400CC000EA08EE0100100405064A084A09D80A050B040D011407171E196E1A801C4F204321B6220C23082630284C29D82A032B022D102F023020311E32C033E0341035012B
:400D0000360F39083E103F105608580459045B045D905F01830487088B018D21932095249B109D20A122A528A602A920AE01AF02B001B202B320B51FB920BF10D804D904DB
:400D4000DC33DF01004001280505070408430A080D080E061022124016801728184019081A801D011E0A1F88202022202508261A2710284029682B422C082E802F803001D9
:400D80003120324435043710382039853A403D803E105D406580800881408320861088048A048E528F0490209105958096C099649A149D989E08A022A170A620A7C0AA449B
:400DC000AC10B040B320B402C077C2EBC47DCABFCC6FCE3FD610D810E280E4C8E610E89007020B010D020E02130219022102220125022902310234013602370158045904F1
:400E00005C335F01850289018D049304970299049D04A104A504AB04AF01B101B304B702BF41D40FD804D904DB04DC33DF0500060220030204420518060107010A1A1101A1
:400E4000121115841618180219101A0A1BC02002214022822641271029082A102B402D042ED02F8431103301340635103680382439803A083C403D203F085E8A5F206604D7
:400E800067047E08800282208310860289088B048E808F20906091019240930495809608980499089A149C029D10A110A22CA306A740A908AF0CB010B20CB680B70CC0FDA2
:400EC000C207C4EDCAF7CCF5CE7ED6F0D860DE20E006E280E402E860EC701308168032423402364039483E8069406A80C430CCF0CE700380071008243080808084028602C7
:400F00008B1895089B089C02A642B640C030C250CC10E260E64053108420864088048F109320940298249B10A380A640A801AD04D420E410E640EA10EC2018201B011E80FB
:400F40006080648088808C1094029810A380AC10C630D8C0EE408D01E0080A205006550157205B0164048488A101C208D407D606D8011B02260887409C849F01A40AA72258
:400F8000AF02B404B610C608C801E808EA0208800B400C084608974098019C849F01A40AA720B001B608C20ED004EC04EE020402838094029810A240A381C020E4201A0275
:400FC0006302641086019810A301B240C640D640D880E44058016740872098019C049E089F01A402A720D602D8018002860887019E089F01A402B004B340E804EC0110095A
:4010000011011A091C091D0100AB010F100A00001B01000000000000190019011B011B01530808000000000000C6C600040000004000023030000000C0000000008B8B0071
:401040008040400008001008080008C7C70000000073730030000000000100000000000000000000000000000000000000000000000000000000000000000000000000009B
:401080000000000000000000000000000000000000000000000000000000000000000000000000000000000000000000000000000000000000000000000000000000000030
:4010C00000000000000000000000000000000000000000000000000000000000000000000000000000000000000000000000000000000000000000000000000000000000F0
:4011000000000000000000000000000000000000000000000000000000000000000000000000000000000000000000000000000000000000000000000000000000000000AF
:40114000000000000000000000000000000000000000000000000000000000000000000000000000000000000000000000000000000000000000000000000000000000006F
:0200000490006A
:0400000000004005B7
:0200000490105A
:04000000BC90ACAF55
:0200000490303A
:020000000C46AC
:0200000490402A
:4000000000000000000000000000000000000000000000000000000000000000000000000000000000000000000000000000000000000000000000000000000000000000C0
:400040000000000000000000000000000000000000000000000000000000000000000000000000000000000000000000000000000000000000000000000000000000000080
:400080000000000000000000000000000000000000000000000000000000000000000000000000000000000000000000000000000000000000000000000000000000000040
:4000C0000000000000000000000000000000000000000000000000000000000000000000000000000000000000000000000000000000000000000000000000000000000000
:0200000490501A
:0C00000000012E16106900012E381CAF04
:00000001FF