:400000000080002011000000850B0000850B000080B500AF024A034B1B68136000F0BCFDBC760040FA46004010B5054C237833B9044B13B10448AFF300800123237010BD3E
:40004000C881FF1F0000000020420000084B10B51BB108490848AFF300800848036803B910BD074B002BFBD0BDE81040184700BF00000000CC81FF1F20420000C880FF1F3E
:400080000000000080B400AF034B01221A6000BFBD4680BC704700BF0082FF1F80B400AF034B01221A6000BFBD4680BC704700BF1482FF1F90B589B000AF62B601210020E1
:4000C00000F0E8FF03F0E2FD03F0C0FB03F018FCAC4800F0F7FE012003F054FE00F0B2FE00F0C8FEA84803F05DFE00F0DBF900F001FAA44800F0E6FE00F068FFA34B1B6898
:40010000A34A934202DD00F0F5F9F7E7002003F0CFFEA04B1B68012BF0D102F0C9FE9E4B1C68002000F0ACFE03461A469B4B43F82420994B1C68012000F0A2FE03461A4677
:40014000974B43F82420944B1C68022000F098FE03461A46934B43F824208F4B1C68032000F08EFE03461A468F4B43F824208A4B1C68042000F084FE03461A468B4B43F865
:400180002420854B1C68052000F07AFE03461A46874B43F82420804B1B6801337E4A13607D4B1B68B3F57A7F40F06781012003F07FFE794B00221A600023FB610023BB61B0
:4001C00000237B6100233B610023FB600023BB6000237B6044E0714A7B6852F8233040F6B832934202DDFB690133FB616C4A7B6852F8233040F6B832934202DDBB690133FE
:40020000BB61684A7B6852F8233040F6B832934202DD7B6901337B61634A7B6852F8233040F6B832934202DD3B6901333B615F4A7B6852F8233040F6B832934202DDFB68D3
:400240000133FB605A4A7B6852F8233040F6B832934202DDBB680133BB607B6801337B607B68B3F57A7FB6DBBB69952B03DC002003F03CFE02E0012003F038FE7B69952B9E
:4002800003DC002003F0DCFD02E0012003F0D8FDFB68952B03DC002003F0F0FD02E0012003F0ECFD434B00221A60FB69952B11DC7B69952B0EDCBB68952B0BDC3B69952BD0
:4002C00008DCBB69952B05DCFB68952B02DC00F011F9D2E0384B1B68012B0BD100F0A8F9BB69952B02DC344B00221A60334B00221A60C2E0324B1B68012B0BD100F0B2F9CD
:40030000FB68952B02DC2E4B00221A602B4B00221A60B2E0FB69952B10DC7B69952B02DDBB69952B0ADC254B1B68012B06D1224B01221A60234B00221A609EE0BB68952B3B
:4003400010DC7B69952B02DDFB68952B0ADC1B4B1B68012B06D11B4B02221A60184B01221A608AE07B69952B2EDCBB69952B2BDC00F0CAF8114B01221A60124B00221A606E
:400380007BE000BF9D000000850000001C82FF1FFFC99A3B0082FF1F0482FF1F6492FF1F34B2FF1FD4C1FF1F90A2FF1FA082FF1F78D1FF1F1C81FF1F0882FF1F3082FF1F6F
:4003C0000C82FF1F3882FF1F7B69952B0BDCFB68952B08DC00F0B0F82B4B02221A602B4B01221A6049E07B69952B12DC284B01221A60254B01221A60244B01221A60254BD4
:400400001868254B1968254B1B681A4600F058F833E0FB68952B08DC00F08EF81B4B01221A60194B02221A6027E0BB69952B08DC00F06AF8154B01221A60134B00221A600B
:400440001BE0FB69952B02DC00F08EF815E0BB68952B02DC00F0A0F80FE00B4B1B68002B02D100F0B1F808E0074B1B68012B02D100F012F901E000F0C1F8094B00221A603B
:4004800002F00AFD3AE600BF3882FF1F3082FF1F1C81FF1F2082FF1F2482FF1F1081FF1F0082FF1F80B500AFFA2003F0B7F8FA2003F078F903F01EF803F0E0F800BF80BD40
:4004C00080B584B000AFF860B9607A60074B1B68DBB2184603F0B2F8054B1B68DBB2184603F070F900BF1037BD4680BD2081FF1F2481FF1F80B500AF7D2003F09FF87D20B2
:4005000003F060F900BF80BD80B500AF084B1B68DBB2033BDBB2184603F090F8054B1B68DBB20333DBB2184603F04CF900BF80BD2081FF1F2481FF1F80B500AF084B1B6897
:40054000DBB20333DBB2184603F078F8054B1B68DBB2033BDBB2184603F034F900BF80BD2081FF1F2481FF1F80B500AF084B1B68DBB2063BDBB2184603F060F8054B1B68B2
:40058000DBB20633DBB2184603F01CF900BF80BD2081FF1F2481FF1F80B500AF084B1B68DBB20633DBB2184603F048F8054B1B68DBB2063BDBB2184603F004F900BF80BDEE
:4005C0002081FF1F2481FF1F80B500AF0A4B1B68DAB26FF006039B1ADBB2184603F02EF8054B1B68DAB26FF004039B1ADBB2184603F0E8F800BF80BD2081FF1F80B500AF39
:400600000A4B1B68DAB26FF004039B1ADBB2184603F014F8054B1B68DAB26FF006039B1ADBB2184603F0CEF800BF80BD2081FF1F80B500AF094B1B68DBB2C3F10503DBB2E5
:40064000184602F0FBFF064B1B68DBB20B3BDBB2184603F0B7F800BF80BD00BF2081FF1F2481FF1F80B500AF094B1B68DBB20B3BDBB2184602F0E2FF064B1B68DBB2C3F15E
:400680000503DBB2184603F09DF800BF80BD00BF2081FF1F2481FF1F80B500AF0A4B1B68DAB26FF005039B1ADBB2184602F0C6FF064B1B68DAB26FF005039B1ADBB2184615
:4006C00003F080F800BF80BD2081FF1F2481FF1F80B582B000AF786039603A680021786803F095FD00BF0837BD4680BD80B584B000AFF860B9607A607A68B968F86803F06B
:400700007BFD00BF1037BD4680BD00BF80B483B000AF0346FB71FEE780B487B000AF7860396000233B6100237B6127E07B699B007A6813441B68BB60BB68FB73BB6823F01F
:40074000FF03BB6014E03B695B003A6813441B781A46BB68134419463B695B003A6813445B780B703B6901333B61FB7B013BFB73FB7B002BE7D17B6901337B617B692A2B44
:40078000D4D900BF1C37BD4680BC704780B582B000AF3D4B04221A803C4B18221A703C4B3B221A803B4B18221A703B4B3B221A803A4B18221A703A4B81221A80394B1822CD
:4007C0001A70394B40F257221A80384B1C221A70374B06221A70374B52221A70364B374A1278D2B21A70364B40F619121A80354B41F251221A800023FB7019237B6014E038
:40080000FB785B00DAB2304B1B78DBB203F00103DBB21343DBB203F00303FB704FF4F07003F082FB7B68013B7B607B68002B02D0FB78032BE4D17B68002B02D10320FFF7BB
:4008400065FF224B4FF480721A80204B07221A701F4B00221A701F4B48221A701B4B00221A701D4B00221A701C4B02221A701C4A1B4B1B78DBB243F01F03DBB2137000BFFB
:400880000837BD4680BD00BF80400040824000408440004086400040884000408A4000408C4000408E40004090400040924000400043004000420040A14600400F0100491B
:4008C0002242004020420040254200400440004006400040084000400940004001400040A243004080B582B000AF214B1B78FB71204B1B78BB71204B1B787B711F4AFB79D8
:4009000003F00703DBB213701D4AFB791B09DBB21370184ABB7943F00303DBB21370164A7B7943F00303DBB21370164B40221A70154BC7221A70154B80221A70144B0F22E3
:400940001A70144B20221A70134B04221A700A2002F0F2FC084A7B791370064ABB7913700E4B44221A7000BF0837BD4680BD00BFCF010049F8460040F94600406E58004078
:400980006F5800401D5100402D51004001590040205B0040235B0040585B00407658004080B586B000AF72B6584B61221A70FFF7EDFE564B01221A70554A554B1B78DBB230
:4009C00043F00403DBB213700023FB7513E0FA7D13465B0013445B004E4A13443B613B691A683B699B889BB219461046FFF770FEFB7D0133FB75FB7D072BE8D90023FB7552
:400A00001CE0FA7D13469B0013445B00424A1344FB60FB681B68BB60FB685B687B60FB681A7A5B7A1B0213437B807B881A467968B868FFF75BFEFB7D0133FB75FB7D012BB0
:400A4000DFD936494FF09040FFF766FE04213448FFF73EFE042233493348FFF747FE334B334A1A60334B344A1A60344A334B1B78DBB243F00203DBB21370314A304B1B78D3
:400A8000DBB243F00203DBB213702E4A2D4B1B78DBB243F04003DBB213702B4A2A4B1B78DBB243F01003DBB21370082227492848FFF71CFE082227492748FFF717FE0A2211
:400AC00026492748FFF712FE082226492648FFF70DFE0A2225492648FFF708FE082225492548FFF703FE254A244B1B78DBB243F00803DBB21370FFF7F5FE0E2211492048E3
:400B0000FFF7F4FD00BF1837BD4680BD00480040E84600402442000054420000AC000048007600401010004808760040D80401400404008458140140040400C40350014008
:400B400013500140A0430040C2430040D80F004802510040E00F0048C2510040E80F0048F0510040F40F004812510040FC0F004820510040081000483251004022430040A3
:400B8000B043004080B500AF03F00AFB03461B680C2B00D1FEE7FEE780B586B000AF224B7B61224B3B61204B7B6135E03B691B68FB603B695B68BB603B699B683B60002357
:400BC0007B600CE0FB681A68BB681A60BB680433BB60FB680433FB607B6804337B607A683B689A42EED13B69DB683B6000237B6008E0BB6800221A60BB680433BB607B68AE
:400C000004337B607A683B689A42F2D13B6910333B617B69013B7B617B69002BC6D103F0C5FAFFF747FAFEE7010000004044000080B582B000AF194B194A1A60194A194BE8
:400C40001B6843F40073136000237B600FE07B68032B04D8144A7B6852F8233000E0134B13497A6841F822307B6801337B607B682F2BECD90F4B1B78DAB20F4B1A700F4B6A
:400C80000B4A1A60FFF78CFE02F02EF90C4B00221A6000BF0837BD4680BD00BF0CED00E00004FA0514ED00E000000000850B00000080FF1FBC760040C480FF1F08ED00E048
:400CC000C080FF1F80B500AF41F6FF734FF480420121022002F058F803461A460A4B1A7041F6FF7341F6FF7201210C2002F07EF803461A46054B1A70054802F0A9F800206C
:400D000002F0B8F800BF80BD4082FF1F4182FF1FB90E000080B582B000AF414B1B78184602F056F93F4B1B78184602F051F93E4B1B78FF2B05D102F057FA03461A463A4B75
:400D40001A70394B1878384B1A7806230C2102F079FA354B1B78354A92B245F6A031184602F0B0FA2E4B1A782F4B1B781946104602F0CCF92E4B1B78FF2B05D102F034FA79
:400D800003461A462A4B1A70294B1878284B1A7807230C2102F056FA254B1B78234A91B2244A92B2184602F08DFA1E4B1A78204B1B781946104602F0A9F9194B1B78012152
:400DC000184602F0BFF8174B1B780121184602F0B9F803F0B1F80346FB71174A164B1B78DBB243F02003DBB21370FB79184603F0A7F8124A114B1B78DBB243F00103DBB23B
:400E000013700E4A0D4B1B78DBB243F00203DBB213700B4B01221A6000BF0837BD4680BD4082FF1F4182FF1F2881FF1F4482FF1F2981FF1F1CE1FF1F9A6500407A6400403A
:400E400080E200E080B500AF084B1B68002B04D1FFF738FF054B01221A6001F093FEFFF759FF034B1B7800BF80BD00BF3C82FF1F6B65004080B500AF01F038FF00BF80BDFC
:400E800080B483B000AF0346FB80FB88C3F10503074A32F913309AB2064B1B881BB29BB2D31A9BB21BB218460C37BD4680BC70471CE1FF1FC6E1FF1F80B400AF00BFBD46DD
:400EC00080BC704780B582B000AF786000F03CF8786800F009F8072000F018F800F028F800BF0837BD4680BD80B485B000AF7860054B1B68FB60FB6854337A681A6000BF84
:400F00001437BD4680BC704708ED00E080B483B000AF0346FB71054AFB795B01DBB2137000BF0C37BD4680BC704700BF05E400E080B400AF034B20221A6000BFBD4680BC36
:400F4000704700BF00E100E080B400AF034B20221A6000BFBD4680BC704700BF80E100E080B582B000AF42F20F7000F05DF842F20F7000F073F802F0DFFF0346FB710A4AA3
:400F8000094B1B78DBB243F01003DBB21370FB79184602F0D5FF00F06FF8002000F028F800BF0837BD4680BD9964004080B400AF054A054B1B78DBB263F07F03DBB2137046
:400FC00000BFBD4680BC70477765004080B500AF064B1B78002B04D1FFF7C2FF034B01221A70FFF7E3FF00BF80BD00BF5082FF1F80B483B000AF0346FB71044AFB79137013
:4010000000BF0C37BD4680BC704700BF8964004080B400AF034B1B78DBB21846BD4680BC704700BF6964004080B582B000AF78607968034802F042FA00BF0837BD4680BDD5
:401040002865004080B400AF034B1B6823F07F431846BD4680BC70474865004080B582B000AF78607968034802F028FA00BF0837BD4680BD0865004080B500AF01E0FFF705
:40108000E1FFFFF7C5FF034603F00803002BF6D100BF80BD80B582B000AF03460A46FB711346BB71094B1B78002B04D100F010F8064B01221A70BA79FB791146184600F098
:4010C000D9F800BF0837BD4680BD00BF5182FF1F80B582B000AF02F02FFF0346FB71544A534B1B78DBB243F00103DBB21370514A504B1B78DBB243F00103DBB213704E4B6D
:4011000001221A704D4B02221A704D4A4C4B1B78DBB203F07F03DBB21370002002F00CF9484A484B1B78DBB223F00603DBB21370454A454B1B78DBB223F02003DBB21370DC
:40114000404A404B1B78DBB243F00103DBB21370012002F0F1F8282002F0EEF83B4A3B4B1B78DBB203F07F03DBB21370374A374B1B78DBB223F04003DBB21370314A314BA7
:401180001B78DBB243F00203DBB21370022002F0D3F82C4A2B4B1B78DBB243F00403DBB213702B4B00221A702A4B00221A70FB79184602F0C5FE0721172002F0F9F8264917
:4011C000172002F0CDF80721182002F0F1F82349182002F0C5F80721152002F0E9F82049152002F0BDF80721012002F0E1F81D49012002F0B5F80721022002F0D9F81A4954
:40120000022002F0ADF80721032002F0D1F81749032002F0A5F807210C2002F0C9F814490C2002F09DF800BF0837BD4680BD00BFA5430040B54300409D6000400960004083
:40124000106000409443004012600040F85100408460004085600040F51A0000DD130000E91A0000011A0000491A0000951A0000011B000080B582B000AF03460A46FB71BD
:401280001346BB712E4AFB7913702E4B00221A702D4B00221A702D4B00221A702C4B00221A702C4B00221A702B4B00221A702B4B00221A702A4B4FF400021A60284B4FF05D
:4012C00080721A60264B4FF400121A60244B02221A60234B04221A60214B08221A60BB79002B02D0012B09D011E01E4A1D4B1B78DBB223F00103DBB2137011E0194A194B21
:401300001B78DBB243F00103DBB2137008E0154A144B1B78DBB243F00103DBB2137000BF114B03221A70114B80221A70012002F0FBFD0F4B04221A7000BF0837BD4680BD94
:4013400029E1FF1F2CE1FF1F48E1FF1F4BE1FF1F40E1FF1F4AE1FF1F4DE1FF1F28E1FF1F00E100E00960004028600040086000401260004080B400AF0F4B00221A700F4BBF
:4013800000221A700E4B00221A700E4B00221A700D4B00221A700D4B00221A700C4B00221A700C4B03221A700B4B80221A7000BFBD4680BC704700BF2CE1FF1F48E1FF1FFE
:4013C0004BE1FF1F40E1FF1F4AE1FF1F4DE1FF1F28E1FF1F286000400860004080B582B000AF374B1B78BB71BB7903F01003002B62D00123FB7197F90630002B12DABB79A9
:4014000003F00F03012B02D00023FB711CE000F061F82C4B1B78DBB25BB2002B14DA0023FB7111E0BB7903F04003002B02D000F095F809E0BB7903F02003002B02D000F094
:40144000B3F801E00023FB71FB79002B34D01C4B1B78BB7197F90630002B2DDB1A4B1B78DAB21A4B1B78DBB21343BB71184ABB791370174B1B78DBB2BA799A421CD1114B11
:401480001B78FB710E4B1B78DBB223F07F03BB71BB79002B0AD10A4B0A4A1278D2B21A70074B1B78DBB203F00F03FB71054B1B78DBB2FA799A42E2D100BF0837BD4680BDE5
:4014C0002860004049E1FF1FBEE1FF1F4CE1FF1F2960004080B582B000AF1D4B1B78FB711B4AFB7913701A4B1B78FB7197F90730002B03DA174AFB79137025E0022000F090
:4015000045FA154B1B78DBB203F06003202B08D0402B0BD0002B0ED100F0F8FA0346FB710CE002F0FBFD0346FB7107E001F000FB0346FB7102E00023FB7100BFFB79002BAA
:4015400002D1044B03221A7000BF0837BD4680BD2860004049E1FF1F0060004080B500AF104B1B78DBB2062B19D801A252F823F09F1500009F1500008D1500009F1500006D
:40158000931500009F1500009915000000F0F8F806E000F0A7F903E000F0D2F900E000BF00BF80BD2CE1FF1F80B500AF124B1B78DBB2062B1DD801A252F823F0F3150000D8
:4015C000F3150000D9150000F3150000DF150000F3150000E515000000F0D8F80AE000F027F907E0032000F0D1F9044B03221A7000E000BF00BF80BD2CE1FF1F49E1FF1F6D
:4016000080B483B000AF0023FB71294B1B78DBB29AB2284B1B889BB213449AB2254B1A8015E02549FB79254A52681278D2B2CA54224B5B680133214A5360FB790133FB7153
:401640001E4B1B889BB2013B9AB21C4B1A801B4B1B889BB2002B02D0FB79072BE1D9144B1B78DBB2082B02D0FB79002B0FD0144B1B78DBB283F07F03DB43DAB2104B1A70D0
:40168000104B0F221A70104B02221A7005E00D4B02221A700C4B02221A700C4AFB791370034AFB79137000BF0C37BD4680BC704728E1FF1F2AE1FF1F0060004034E1FF1F6F
:4016C000BEE1FF1F49E1FF1F2CE1FF1F4CE1FF1F80B582B000AF164B1B889BB2002B02D100F02EF81EE0134B02221A70124B00221A7000F06BF9114BDB79DBB29BB21B02E6
:401700009AB20E4B9B79DBB29BB21343FB80084B1B889BB2FA889A4202D2054AFB881380FFF76EFF012318460837BD4680BD00BF34E1FF1F2CE1FF1FBEE1FF1F006000408D
:4017400080B400AF094B02221A70094B80221A70084B0F221A70084B00221A70074B00221A7001231846BD4680BC70472CE1FF1FBEE1FF1F49E1FF1F28E1FF1F4CE1FF1FDF
:4017800080B500AFFFF73CFF00BF80BD80B500AF0A4B1B78DBB29AB2094B1B889BB213449AB2074B1A80074B00221A70012000F0EDF8054B03221A7000BF80BD28E1FF1F8A
:4017C0002AE1FF1F2CE1FF1F49E1FF1F80B582B000AF124B04221A70114B80221A7000F0F5F8104BDB79DBB29BB21B029AB20D4B9B79DBB29BB21343FB800B4B1B889BB276
:40180000FA889A4202D2084AFB881380074B0B221A70012318460837BD4680BD2CE1FF1FBEE1FF1F0060004034E1FF1F49E1FF1F80B483B000AF0023BB71234B1B78DBB20E
:4018400003F00F03DBB2023BFB71FB799AB21F4B1B889BB213449AB21C4B1A8018E01C4B5B681C49BA798A5CD2B21A70184B5B680133174A5360BB790133BB71FB79013B0F
:40188000FB71134B1B889BB2013B9AB2104B1A800F4B1B889BB2002B02D0FB79002BDED10D4AFB7913700D4B1B78DBB283F07F03DB43DAB2094B1A70094B0B221A7000BF4F
:4018C0000C37BD4680BC7047296000402AE1FF1F34E1FF1F006000404CE1FF1FBEE1FF1F49E1FF1F80B500AF054B00221A70012000F04CF8034B03221A7000BF80BD00BFAD
:401900002CE1FF1F49E1FF1F80B400AF084B06221A70084B06221A70074B80221A70074B00221A7001231846BD4680BC704700BF2CE1FF1F49E1FF1FBEE1FF1F4CE1FF1F19
:4019400080B500AF0D4B1B78DBB2002B0AD00C4A0A4B1B78DBB263F07F03DBB21370074B00221A70074B00221A70012000F00EF8054B03221A7000BF80BD00BF4AE1FF1F40
:40198000086000402CE1FF1F49E1FF1F80B483B000AF0346FB710B4B9B68002B0CD0094B9B68FA791A70074B9B68074A128892B25A80044B00229A6000BF0C37BD4680BC83
:4019C000704700BF34E1FF1F2AE1FF1F80B400AF094B00221A80094B9B68002B07D0074B9B6800221A70054B9B6800225A8000BFBD4680BC704700BF2AE1FF1F34E1FF1FA9
:401A000080B400AF0D4B01221A700D4B9B7C0D4B1B7BDBB203F00303012B08D0094BDB7BDBB283F07F03DB43DAB2064BDA73054B01225A7300BFBD4680BC70470B600040C3
:401A4000FC5F004050E1FF1F80B400AF0E4B02221A700E4B93F822300D4B1B7EDBB203F00303012B08D00A4BDB7EDBB283F07F03DB43DAB2064BDA76054B01225A7600BF64
:401A8000BD4680BC704700BF0B600040FC5F004050E1FF1F80B400AF104B04221A70104B93F832300F4B93F82430DBB203F00303012B0AD00B4B93F82730DBB283F07F0327
:401AC000DB43DAB2074B83F82720064B012283F8252000BFBD4680BC704700BF0B600040FC5F004050E1FF1F80B400AF00BFBD4680BC704780B500AFFFF73CFC00BF80BD45
:401B000080B500AF01F0E0F900BF80BD80B586B000AF0023FB759D4B1B78FB7100233B619B4B00221A8097F90730002B80F20481964B5B78DBB20A2B00F21B8201A252F82B
:401B400023F000BF8F1C0000731F0000731F0000731F0000731F0000731F0000711B0000731F0000031D0000731F0000191D0000864BDB78DBB2012B0ED100F049FEB860FD
:401B8000BB685B68824A5360814B12221A80FFF79FFD0346FB75EEE17C4BDB78DBB2022B25D17A4B9B78DBB2184600F009FEB860BB68002B00F0DF81BB685B68744A53607B
:401BC000734B5B6803331B78DBB29BB21B029AB26F4B5B6802331B78DBB29BB213439AB26B4B1A80FFF774FD0346FB75C3E1674BDB78DBB2032B45D10023FB73654B3B61D0
:401C000009E03B691B78BB71BB793A6913443B61FB7B0133FB735D4B9B78DBB2FA7B9A4204D23B691B78DBB2002BEAD1574B9B78DBB2EE2B01D1584B3B61544B9B78DBB2B2
:401C4000002B0BD0514B9B78DAB2544B1B7C9A4204D1534800F0ACF9514B3B613B691B78DBB2002B00F087813B691B78DBB29AB2474B1A80464A3B695360FFF729FD034665
:401C8000FB7578E102F04AFA0346FB7573E1FB7903F00303002B20D0022B00D030E03C4B02221A80394B1B79DBB203F07F023D4913465B0013449B000B4402331B78DAB256
:401CC000394B1A70384B00225A70314B364A5A60FFF7FEFC0346FB7512E02D4B02221A80324B1B78DAB2304B1A702F4B00225A70274B2D4A5A60FFF7EBFC0346FB7500BFE1
:401D000040E1234B01221A80214B294A5A60FFF7DFFC0346FB7535E11D4B01221A801B4B1B79DBB21A46234B1344194A5360FFF7CFFC0346FB7525E1144B5B78DBB2013BBC
:401D40000A2B00F21A8101A252F823F0571E00007B1F0000E51E00007B1F0000791D00007B1F00007B1F00007B1F0000BD1D00007B1F0000131E0000044B9B78DAB20E4BA5
:401D80001A70FFF7C1FD0346FB75FBE00060004034E1FF1FD4420000DC4300007C420000E8E1FF1F50E1FF1F5482FF1F4DE1FF1F4BE1FF1FBCE1FF1F4AE1FF1F744B9B78F5
:401DC0007B717B79002B06D07B79013BDBB2184600F0F6FCB8607B79002B02D0BB68002B03D17B79002B40F0CA806A4B1B78DBB27A799A4208D0674A7B791370664B0122C9
:401E00001A70012000F0DCF9FFF77EFD0346FB75B5E000F055FE0346002B00F0B2805C4B1B793B715A4B1B79DAB25C4B1A703B795B4AD35CDAB23B795A49CB5CDBB29A42C2
:401E400004D0554B01221A7000F08CFBFFF75CFD0346FB7595E0FB7903F00303012B20D0012B0CD3022B00D03BE0494B9B78DBB2002B31D100F078FD0346FB752CE0444B87
:401E80009B78DBB2012B29D1474B1B78DBB223F00203DAB2444B1A70FFF736FD0346FB751CE03B4B1B79DBB2012B19D8384B9B78DBB2DB43DBB2364A1279D2B21146104641
:401EC0003A4A125CD2B21340DAB2384B5A54FFF71BFD0346FB7503E000BF53E000BF51E000BF4FE0FB7903F00303012B20D0012B0CD3022B00D03BE0254B9B78DBB2002BFB
:401F000031D100F0BDFC0346FB752CE0204B9B78DBB2012B29D1244B1B78DBB243F00203DAB2214B1A70FFF7EFFC0346FB751CE0174B1B79DBB2012B19D8154B9B78DBB281
:401F4000DB43DBB2124A1279D2B211461046174A125CD2B21340DAB2144B5A54FFF7D4FC0346FB7503E000BF0CE000BF0AE000BF08E000BF06E000BF04E000BF02E000BF5A
:401F800000E000BFFB7D18461837BD4680BD00BF006000404BE1FF1F48E1FF1F40E1FF1F30E1FF1FBCE1FF1F4DE1FF1FC0E1FF1FB0B58AB000AF7860324B07F114041D46E3
:401FC0000FCD0FC42B682370002387F826307B68002B52D07B6822221A707B68013303221A7007F10C03184601F006FA022387F827303EE097F827307A68134497F826200A
:4020000007F128010A4412F81C2C1209D2B207F128010A4412F8142C1A7097F8273001337A68134400221A7097F8273002337A68134497F8262007F128010A4412F81C2C14
:4020400002F00F0207F128010A4412F8142C1A7097F8273003337A68134400221A7097F82630013387F8263097F82730043387F8273097F82730212BBCD900BF2837BD4650
:40208000B0BD00BF6842000090B482B000AF0123FB7180E0464AFB791B0113440C221A70FA79444913465B0013449B000B4405331B78DBB2002B1CD0FA793E4913465B00F4
:4020C00013449B000B4404331B78DBB25BB2002B07DA394AFB791B01134402330C221A700EE0354AFB791B011344023308221A7006E0314AFB791B011344023380221A70F2
:402100002B48F979FA792B4C13465B0013449B00234406331B889BB2DAB20B01034406331A702348F979FA79224C13465B0013449B00234406331B889BB21B0A9BB2DAB206
:402140000B01034407331A701948F979FA79194C13465B0013449B00234406331B889BB2DAB20B01034404331A701148F979FA79104C13465B0013449B00234406331B8844
:402180009BB21B0A9BB2DAB20B01034405331A70FB790133FB71FB79082B7FF67BAF074BFF221A7000BF0837BD4690BC704700BF7060004050E1FF1FFC5F00400A60004001
:4021C00080B58AB000AF0346FB7100237B84002387F8273050E097F82720B34913465B0013449B000B4400221A7097F82720AE4913465B0013449B000B44023300221A70AB
:4022000097F82720A84913465B0013449B000B44033300221A7097F82720A34913465B0013449B000B44083300221A8097F827209D4913465B0013449B000B440A33002242
:402240001A7097F82720984913465B0013449B000B44013300221A7097F82720924913465B0013449B000B44053300221A7097F82730013387F8273097F82730082BAAD932
:40228000FB79002B16D0002387F825300EE097F82530864A0021D15497F82530844A0021D15497F82530013387F8253097F82530012BECD97F4B1B78DBB2002B00F04A8131
:4022C0000023FB767B4B1B78DBB2013BDBB2184600F076FA78617B695B683B613B6907331B7803F04003002B08D0734B1B78DBB243F00103DAB2704B1A7007E06E4B1B78FE
:40230000DBB223F00103DAB26B4B1A707B6908337B617B691B7887F82730012387F82530B6E07B695B68FB61002387F82630A3E097F82520FB699B7803F07F039A4240F00D
:40234000938097F82520584913465B0013449B000B4408331B889AB2FB699B889A420CD297F82520FB6998884F4913465B0013449B000B44083302461A80FB691B781A461C
:402380004A4B9B5CDAB2FB695B789A426CD197F82520FB699878444913465B0013449B000B44043302461A7097F82520FB69D8783D4913465B0013449B000B4402461A700D
:4023C000FB69DB7803F00303FB73FB699B785BB2002B1CDA97F82520FB7B012B01D1072000E00D20304913465B0013449B000B44053302461A7097F825202B4913465B002A
:4024000013449B000B44013301221A701BE097F82520FB7B012B01D1052000E00920224913465B0013449B000B44053302461A7097F825201C4913465B0013449B000B4471
:40244000013300221A70FB699B790A2B03D0FB699B79022B08D1FA7E97F825301946F86901F014FE0346FB76FB690833FB6197F82630013387F8263097F8262097F8273001
:402480009A42FFF455AF97F82530013387F8253097F82530082B7FF644AF7B695B68FB61002387F8253020E050E1FF1FBCE1FF1F30E1FF1F4BE1FF1F4DE1FF1FFB699B789E
:4024C00003F07F02FB691878244913465B0013449B000B440A3302461A70FB690833FB6197F82530013387F8253097F8252097F827309A42E2D300F09DF90246184B1A6026
:4025000000237B84012387F827301DE097F82720124913465B0013449B000B4406337A8C1A8097F827200D4913465B0013449B000B4408331B889AB27B8C13447B8497F84C
:402540002730013387F8273097F82730082BDDD9FFF79AFD00BF2837BD4680BD50E1FF1F44E1FF1F90B585B000AF8F4B1B78DBB2002B00F015818C4B1B78DBB2013BDBB21A
:40258000184600F01DF978607B6808337B607B681B78FB707B685B68BB60844B1B78BB700023FB73F7E0BB681B78BA789A4240F0EC80BB787E4AD35CDAB2BB685B789A4267
:4025C00040F0E380BB689B7803F07F037B70BB68DB7803F003033B707A78764913465B0013449B000B44033300221A707A78BB689878704913465B0013449B000B44043306
:4026000002461A707A78BB68D8786A4913465B0013449B000B4402461A707A78BB689888644913465B0013449B000B44083302461A80BB689B785BB2002B1ADA7A783B78EE
:40264000012B01D1072000E00D205A4913465B0013449B000B44053302461A707A78554913465B0013449B000B44013301221A7019E07A783B78012B01D1052000E0092056
:402680004C4913465B0013449B000B44053302461A707A78474913465B0013449B000B44013300221A70444A7B781B011344023301221A70404879787A783E4C13465B00B0
:4026C00013449B00234408331B889BB21B0A9BB2DAB20B0103441A70374879787A78354C13465B0013449B00234408331B889BB2DAB20B01034401331A70304879787A7868
:402700002C4C13465B0013449B00234406331B889BB2DAB20B01034406331A70274879787A78244C13465B0013449B00234406331B889BB21B0A9BB2DAB20B0103440733C6
:402740001A701E4879787A781A4C13465B0013449B00234406331B889BB2DAB20B01034404331A70154879787A78124C13465B0013449B00234406331B889BB21B0A9BB204
:40278000DAB20B01034405331A70BB680833BB60FB7B0133FB73FA7BFB789A42FFF403AF00BF1437BD4690BD4BE1FF1F40E1FF1FBCE1FF1F50E1FF1FFC5F004070600040E6
:4027C00080B485B000AF0346FB710F4B1B78DBB20E4ADB0013445B68FB60FB681033FB60FB681B78FA799A4202D30023FB6005E0FB79DB00FA6813445B68FB60FB68184685
:402800001437BD4680BC704729E1FF1FD443000080B400AF054B1B78DBB2054ADB0013445B681846BD4680BC704700BF29E1FF1FD443000080B584B000AF104B1B78DBB29C
:40284000013BDBB21846FFF7BBFFB860BB68002B0DD0BB685B681B79FB71FB790233DB00BA681344BB60BB685B68FB6001E00023FB60FB6818461037BD4680BD4BE1FF1F0E
:4028800080B582B000AF0023FB71344B1B79DBB203F07F03BB71BB79002B5AD0BB79082B57D8BA79B9792E480B465B000B449B00034402331B78DBB243F00103D8B22849D4
:4028C00013465B0013449B000B44023302461A70BA79234913465B0013449B000B44033300221A70BA79B9791D480B465B000B449B00034401331B78DBB243F00203D8B2A9
:40290000174913465B0013449B000B44013302461A70BA79124913465B0013449B000B4404331B78DBB25BB2002B07DA0D4ABB791B01134402338D221A7006E0094ABB7970
:402940001B011344023389221A70FEF7DDFF0346FB71FB7918460837BD4680BD0060004050E1FF1FFC5F004080B582B000AF0023FB71504B1B79DBB203F07F03BB71BB79E3
:40298000002B00F09280BB79082B00F28E80BA79B97949480B465B000B449B00034402331B78DBB223F00103D8B2434913465B0013449B000B44023302461A70BA793E4978
:4029C00013465B0013449B000B44033300221A703A49BB793948BA79120102441278D2B202F07F02D2B21B010B441A70BA79B97931480B465B000B449B00034401331B78C0
:402A0000DBB223F00203D8B22B4913465B0013449B000B44013302461A70BA79264913465B0013449B000B4404331B78DBB25BB2002B1BDABA79204913465B0013449B009B
:402A40000B4401331B78DBB2012B07D11B4ABB791B01134402330C221A7022E0174ABB791B01134402330D221A701AE0BA79124913465B0013449B000B4401331B78DBB2ED
:402A8000012B07D10D4ABB791B011344023308221A7006E0094ABB791B011344023309221A70FEF731FF0346FB71FB7918460837BD4680BD0060004050E1FF1FFC5F0040AC
:402AC00080B584B000AF0023FB73154B1B79BB73144B1B78DBB2013BDBB21846FFF770FEB860BB685B681B79FB71BA7BFB799A4202D9BB7B022B0ED8BB7BBA7B0A498A5CB6
:402B0000D1B20A4AD154BB7B054A9278D1B2064AD1540123FB73FB7B18461037BD4680BD006000404BE1FF1FBCE1FF1F30E1FF1F80B582B000AF0023FB710F4B1B78DBB232
:402B40005BB2002B12DA0C4B5B78DBB2012B00D00CE00A4B0A4A5A60094B1B789AB2074B1A80FEF7B5FD0346FB7100BFFB7918460837BD4680BD00BF0060004034E1FF1F12
:402B8000F043000080B500AF064B1B78002B04D100F00AF8034B01221A7000F01BF800BF80BD00BF5682FF1F80B500AF074A074B1B78DBB243F00603DBB213700C2000F06A
:402BC0006BF8034B00221A8000BF80BD01590040CCE1FF1F80B582B000AF01F0ADF90346FB71254A244B1B78DBB243F00103DBB21370224A214B1B78DBB243F00103DBB2A4
:402C000013701F4B1B78BB71BB7943F00203BB71BB7943F00103BB71194ABB791370194B18221A70184A184B1B78DBB243F04003DBB21370144A144B1B78DBB223F0030316
:402C4000DBB21370114BC8221A70114B02221A70104A104B1B78DBB243F00803DBB213700A2000F069FBFB79184601F069F900BF0837BD4680BD00BFAB430040BB4300403B
:402C80000359004006590040055900400059004014460040275B004080B584B000AF0346FB71FB790A2B07D00C2B02D0082B06D008E0C223FB730BE08223FB7308E0422361
:402CC000FB7305E0C223FB73002000F029FB00BF054AFB7B1370FB79184600F017F800BF1037BD4680BD00BF0259004080B400AF054A054B1B78DBB243F00103DBB2137099
:402D000000BFBD4680BC70470059004080B584B000AF0346FB71FB790A2B08D00C2B02D0082B08D00BE04FF48053FB600DE04FF48063FB6009E04FF48073FB6005E0002397
:402D4000FB60002000F0ECFA00BF0C4B00221A80FB6842F2107202FB03F303F58063002B01DA03F2FF73DB121A46054B1A60054B00221A8000BF1037BD4680BDC4E1FF1FB0
:402D8000C8E1FF1FC6E1FF1F90B585B002AF0446084611461A462346FB710346BB710B46BB8013467B80104B01221A700E4B1878BA79F9790023019300230093012300F0CC
:402DC000C3F9094B1B787A88B988184600F062F9054B1B780221184600F02AF9024B1B7818460C37BD4690BD2A81FF1F90B585B002AF0446084611461A462346FB7103469B
:402E0000BB710B46BB8013467B80104B00221A700E4B1878BA79F9790023019300230093002300F091F9094B1B787A88B988184600F030F9054B1B780221184600F0F8F802
:402E4000024B1B7818460C37BD4690BD2B81FF1F80B485B000AF7860054B1B68FB60FB6840337A681A6000BF1437BD4680BC704708ED00E080B483B000AF0346FB71054A78
:402E8000FB795B01DBB2137000BF0C37BD4680BC704700BF00E400E080B400AF034B01221A6000BFBD4680BC704700BF00E100E080B400AF034B01221A6000BFBD4680BCE8
:402EC000704700BF80E100E080B400AF054B1B78DBB203F040039B09DBB21846BD4680BC704700BF8F45004080B483B000AF134B7F221A70124B80221A707F23FB710CE018
:402F0000FB79DB0003F1804303F5F043FA79013AD2B21A70FB79013BFB71FB79002BEFD1FB79DB0003F1804303F5F04300221A7000BF0C37BD4680BC704700BF2D81FF1FC9
:402F40002C81FF1F80B485B000AF03460A46FB711346BB710123FB60FB79172B2FD8BB79002B0ED0FB791A01184B1344FA791101164A0A441278D2B242F02002D2B21A707F
:402F80000DE0FB791A01114B1344FA7911010F4A0A441278D2B222F02002D2B21A70FB791A010A4B1344FA791101084A0A441278D2B242F00102D2B21A700023FB60FB68D4
:402FC00018461437BD4680BC704700BF1070004080B485B000AF0346FB710123FB60FB79172B1DD8FB791A01104B1344FA7911010E4A0A441279D2B242F00402D2B21A71FA
:40300000FB791A01094B1344FA791101074A0A441278D2B242F00102D2B21A700023FB60FB6818461437BD4680BC70471070004080B485B000AF03460A46FB711346BB71FF
:403040000123FB60FB79172B1BD8FB791A01104B13441B78DBB223F00E03FB72FB791A010B4B1344BA795200D2B252B202F00E0251B297F90B200A4352B2D2B21A700023AB
:40308000FB60FB6818461437BD4680BC704700BF1070004080B485B000AF0346FB710B46BB8013467B800123FB60BB8841F6FF72934202D14FF40053BB807B8841F6FF72F9
:4030C000934202D14FF400537B80FB79172B17D8FB79DB0003F1804303F5EC430433BB60BB68BA881A80FB79DB0003F1804303F5EC430633BB60BB687A881A800023FB60B6
:40310000FB6818461437BD4680BC704780B485B000AF03460A46FB711346BB710123FB60FB79172B07D8FB791A01064B1344BA795A720023FB60FB6818461437BD4680BCD8
:40314000704700BF1070004090B484B000AF0446084611461A462346FB710346BB710B467B7113463B710123FB60FB79172B34D8FB79DB0003F1804303F5EC43BA7902F084
:403180007F02D1B27A79D201D2B20A43D2B21A70FB79DB0003F1804303F5EC433A7E1201D1B23A7902F00F02D2B20A43D2B25A70FB79DB0003F1804303F5EC433A7F02F03E
:4031C0000F02D2B29A70FB79DB0003F1804303F5EC430022DA700023FB60FB6818461037BD4690BC704700BF80B582B000AFFF23FB7100F0A1FE0346BB71104B1B78182B73
:4032000012D90F4B1B78FB710C4B1B78013BDAB20A4B1A70FB79DB0003F1804303F5F0431B78DAB2064B1A70BB79184600F088FEFB7918460837BD4680BD00BF2C81FF1FAB
:403240002D81FF1F90B484B000AF0446084611461A462346FB710346BB800B46BB711346FB700123FB6097F90730002B23DBBB8823F47F6323F00F039BB2002B1BD1FB79CA
:40328000DB0003F1804303F5F043BB60BB68BA881A80FB79DB0003F1804303F5F043BA799A70FB79DB0003F1804303F5F043FA78DA700023FB60FB6818461037BD4690BC07
:4032C000704700BF80B485B000AF0346FB710B46BB8013467B800123FB6097F90730002B17DBFB79DB0003F1804303F5F0430433BB60BB68BA881A80FB79DB0003F18043C0
:4033000003F5F0430633BB60BB687A881A800023FB60FB6818461437BD4680BC704700BF80B483B000AF0346FB7101BE00BF0C37BD4680BC704700BF80B582B000AF034670
:40334000FB80FB88054A127802FB03F3184600F0EBFD00BF0837BD4680BD00BF3C81FF1F80B584B000AF03463960FB710F4B1B68FB60FB791F2B02D90020FFF7D1FFFB79E4
:4033800003F01F0310339B00FA6813441B68BB60FB7903F01F0310339B00FA6813443A681A60BB6818461037BD4680BD08ED00E080B582B000AF03460A46FB711346BB710A
:4033C000BB79072B02D90020FFF7AAFFFB791F2B02D90020FFF7A4FFFB7903F01F0303F1604303F56443BA795201D2B21A7000BF0837BD4680BD00BF80B483B000AF78603D
:40340000264B1B78DBB21A467B681A60244B1B78DBB21B027A6812681A437B681A60214B1B78DBB21B047A6812681A437B681A601D4B1B78DBB21B067A6812681A437B6876
:403440001A607B680433194A1278D2B21A60184B1B78DBB21A027B6804337968043109680A431A60134B1B78DBB21A047B6804337968043109680A431A600F4B1B78DBB248
:403480001A067B6804337968043109680A431A6000BF0C37BD4680BC704700BF0301004904010049EC460040020100490101004900010049050100490601004980B485B0D7
:4034C00000AF786039607B68FB603B68DAB2FB681A70FB6801333A68120AD2B21A70FB6802333A68120CD2B21A7000BF1437BD4680BC704780B500AF064B1B78002B04D1C1
:4035000000F00AF8034B01221A7000F063F800BF80BD00BF5782FF1F80B582B000AF284A274B1B78DBB243F00203DBB21370254B1B78DBB223F07003FB71224AFB7943F0AA
:403540001003DBB21370204A1F4B1B78DBB223F03003DBB213701C4A1B4B1B78DBB243F03003DBB21370184A174B1B78DBB223F00F03DBB21370144A134B1B78DBB243F054
:403580000F03DBB21370FF2000F048F8002000F055F8002000F062F80C4A0C4B1B78DBB243F00103DBB21370094A094B1B78DBB243F00103DBB2137000BF0837BD4680BD73
:4035C000004F0040024F00400B4F0040A3430040014F004080B400AF0D4A0D4B1B78DBB243F00103DBB213700A4A0A4B1B78DBB243F00103DBB21370074A074B1B78DBB28F
:4036000043F00103DBB2137000BFBD4680BC7047A3430040B3430040004F004080B483B000AF0346FB71044BFA7992B21A8000BF0C37BD4680BC7047044F004080B483B046
:4036400000AF0346FB71044BFA7992B21A8000BF0C37BD4680BC7047064F004080B483B000AF0346FB71044AFB79137000BF0C37BD4680BC704700BF034F004080B500AF7C
:40368000064B1B78002B04D100F00AF8034B01221A7000F063F800BF80BD00BF5882FF1F80B582B000AF284A274B1B78DBB243F00203DBB21370254B1B78DBB223F07003C3
:4036C000FB71224AFB7943F01003DBB21370204A1F4B1B78DBB223F03003DBB213701C4A1B4B1B78DBB243F03003DBB21370184A174B1B78DBB223F00F03DBB21370144A05
:40370000134B1B78DBB243F00F03DBB21370FF2000F048F8002000F055F8002000F062F80C4A0C4B1B78DBB243F00203DBB21370094A094B1B78DBB243F00103DBB213707D
:4037400000BF0837BD4680BD0C4F00400E4F0040174F0040A34300400D4F004080B400AF0D4A0D4B1B78DBB243F00203DBB213700A4A0A4B1B78DBB243F00203DBB2137060
:40378000074A074B1B78DBB243F00103DBB2137000BFBD4680BC7047A3430040B34300400C4F004080B483B000AF0346FB71044BFA7992B21A8000BF0C37BD4680BC7047F0
:4037C000104F004080B483B000AF0346FB71044BFA7992B21A8000BF0C37BD4680BC7047124F004080B483B000AF0346FB71044AFB79137000BF0C37BD4680BC704700BF5F
:403800000F4F004080B400AF00BFBD4680BC704780B582B000AF0F2000F03EF800F02EF800F08AFB0346FB71074A074B1B78DBB243F01003DBB21370FB79184600F080FB51
:4038400000BF0837BD4680BD9565004080B500AF00F0DCF84FF4004000F006F9064B1B78002B04D1FFF7CEFF034B01221A70FFF7CFFF00BF80BD00BF5982FF1F80B400AFB9
:40388000044B1B78DBB203F00F03DBB21846BD4680BC70476565004080B483B000AF0346FB71044AFB79137000BF0C37BD4680BC704700BF8565004080B400AF00BFBD4613
:4038C00080BC704780B582B000AF0F2000F03EF800F02EF800F030FB0346FB71074A074B1B78DBB243F01003DBB21370FB79184600F026FB00BF0837BD4680BD9264004014
:4039000080B500AF00F04AF94FF4004000F074F9064B1B78002B04D1FFF7CEFF034B01221A70FFF7CFFF00BF80BD00BF5A82FF1F80B400AF044B1B78DBB203F00F03DBB291
:403940001846BD4680BC70476264004080B483B000AF0346FB71044AFB79137000BF0C37BD4680BC704700BF8264004080B582B000AF1C4B1B78DBB223F00703FB71194A77
:40398000FB791370174B1B78DBB223F00303FB71144AFB79137000F0A3F84FF4004000F07FF84FF4004000F05FF8002000F040F800F04EF84FF4004000F082F800F0BCFA64
:4039C0000346BB71084A084B1B78DBB243F01003DBB21370BB79184600F0B2FA00BF0837BD4680BD756400409564004080B400AF054A054B1B78DBB263F07F03DBB21370F2
:403A000000BFBD4680BC70477564004080B500AF064B1B78002B04D1FFF7A8FF034B01221A70FFF7E3FF00BF80BD00BF5B82FF1F80B483B000AF0346FB71044AFB791370BA
:403A400000BF0C37BD4680BC704700BF8564004080B400AF034B1B78DBB21846BD4680BC704700BF6564004080B483B000AF0346FB80044AFB88138000BF0C37BD4680BC7A
:403A8000704700BF0C68004080B400AF034B1B889BB21846BD4680BC704700BF8C68004080B483B000AF0346FB80044AFB88138000BF0C37BD4680BC704700BF4C6800408B
:403AC00080B483B000AF0346FB80044AFB88138000BF0C37BD4680BC704700BF6C68004080B500AF01E0FFF7CFFFFFF7B1FF034603F04003002BF6D100BF80BD80B582B0BA
:403B000000AF1C4B1B78DBB223F00703FB71194AFB791370174B1B78DBB223F00303FB71144AFB79137000F0A3F84FF4004000F07FF84FF4004000F05FF8002000F040F889
:403B400000F04EF84FF4004000F082F800F0F4F90346BB71084A084B1B78DBB243F01003DBB21370BB79184600F0EAF900BF0837BD4680BD726400409465004080B400AFE0
:403B8000054A054B1B78DBB263F07F03DBB2137000BFBD4680BC70477264004080B500AF064B1B78002B04D1FFF7A8FF034B01221A70FFF7E3FF00BF80BD00BF5C82FF1FA7
:403BC00080B483B000AF0346FB71044AFB79137000BF0C37BD4680BC704700BF8465004080B400AF034B1B78DBB21846BD4680BC704700BF6465004080B483B000AF034609
:403C0000FB80044AFB88138000BF0C37BD4680BC704700BF0C6A004080B400AF034B1B889BB21846BD4680BC704700BF8C6A004080B483B000AF0346FB80044AFB88138090
:403C400000BF0C37BD4680BC704700BF4C6A004080B483B000AF0346FB80044AFB88138000BF0C37BD4680BC704700BF6C6A004080B500AF01E0FFF7CFFFFFF7B1FF034614
:403C800003F04003002BF6D100BF80BD80B500AF064B1B78002B04D100F00AF8034B01221A7000F025F800BF80BD00BF5D82FF1F80B400AF094B72221A70094B20221A70F1
:403CC000084B06221A70084B47221A70074B02221A7000BFBD4680BC704700BF8B640040886400402E6400403E6400408764004080B582B000AF00F01FF90346FB71114A9D
:403D0000104B1B78DBB243F02003DBB213700E4A0D4B1B78DBB243F01003DBB213700B4A0A4B1B78DBB243F01003DBB2137000F00FF8FB79184600F003F900BF0837BD46A6
:403D400080BD00BF9B640040986400409764004080B400AF094A094B1B78DBB243F00803DBB21370064A064B1B78DBB243F00803DBB2137000BFBD4680BC7047A2430040B0
:403D8000B243004080B483B000AF0346FB71044AFB79137000BF0C37BD4680BC704700BF7C64004080B582B000AF786000F03CF8786800F009F8072000F018F800F028F8CD
:403DC00000BF0837BD4680BD80B485B000AF7860054B1B68FB60FB6850337A681A6000BF1437BD4680BC704708ED00E080B483B000AF0346FB71054AFB795B01DBB2137056
:403E000000BF0C37BD4680BC704700BF04E400E080B400AF034B10221A6000BFBD4680BC704700BF00E100E080B400AF034B10221A6000BFBD4680BC704700BF80E100E05F
:403E400080B485B000AF0346FB710B4B1B78DBB223F00803FB730849FB79DB00DBB203F00803DAB2FB7B1343DBB20B7000BF1437BD4680BC704700BF0051004080B485B02F
:403E800000AF0346FB71094B1B78DBB203F07F03FB730649FB79DB01DAB2FB7B1343DBB20B7000BF1437BD4680BC7047C051004080B485B000AF0346FB710B4B1B78DBB2B4
:403EC00023F00203FB730849FB795B00DBB203F00203DAB2FB7B1343DBB20B7000BF1437BD4680BC704700BFC051004080B485B000AF0346FB710B4B1B78DBB223F01003BE
:403F0000FB730849FB791B01DBB203F01003DAB2FB7B1343DBB20B7000BF1437BD4680BC704700BFF05100400230800803D000BF01380046FCD17047EFF3108072B670475F
:403F400080F31088704700BF80B582B000AF0023FB71314B1B79DBB2184600F067F80346BB712D4B1B78DBB25BB2002B15DA2A4B5B78DBB2212B00D048E0284B07221A804E
:403F8000BA791346DB009B1A254A1344234A5360FDF79EFB0346FB7138E01F4B5B78DBB2202B02D0222B1AD030E01C4B07221A80BA791346DB009B1A194A1344174A536063
:403FC000BB79BA7917498A5CD2B242F00102D1B2144AD154FDF7FAFB0346FB7116E0BB790D4A9278D2B291B20F4A22F81310BB79BA790C498A5CD2B242F00202D1B2094A9D
:40400000D154FDF781FC0346FB7100BFFB7918460837BD4680BD00BF0060004034E1FF1F4481FF1FD0E1FF1FE4E1FF1F80B485B000AF0346FB710023FB73FF23BB7317E059
:40404000FB7B104AD35C7B737A7B0F4913465B0013449B000B440A331B78DBB2FA799A4203D1FB7BBB730223FB73FB7B0133FB73FB7B012BE4D9BB7B18461437BD4680BCC5
:40408000704700BFD8E1FF1F50E1FF1F80B485B000AF78600B46FB701346BB707B68DB7803F00303FB737B689B785BB2002B1ADAFB7B032B0AD0BB7803F001031449FA78FE
:4040C000CA54BB7843F00103BB701BE0BB789B08DBB203F001030F49FA78CA54BB7843F00403BB700EE0FB7B032B0BD0BB785B08DBB203F001030849FA78CA54BB7843F06A
:404100000203BB70BB7818461437BD4680BC7047D4E1FF1FD8E1FF1FDCE1FF1F80B582B000AF0023BB711B4B1B78DBB203F00303012B02D0022B04D012E0164B1B79FB71C2
:4041400011E0144B1B79DBB203F07F02124913465B0013449B000B440A331B78FB7102E00023FB7100BFFB79022B0ED80B4B1A68FB7913441B78022B04D1FFF7E5FE0346BD
:40418000BB7102E00023BB7100BFBB7918460837BD4680BD0060004050E1FF1F44E1FF1F014B1868704700BFC081FF1F0E4B70B51E460E4C0025E41AA410A54204D056F8E3
:4041C000253098470135F8E700F028F9084B094C1E46E41AA4100025A54204D056F8253098470135F8E770BD2844000028440000284400003044000010B5431E0A44914204
:4042000004D011F8014B03F8014FF8E710BD03460244934202D003F8011BFAE77047000000000000004F0040180040510040300000000140800E000F01400001001401405C
:40424000000800400140000A004C01400002105001401000800E0140480F0048800000500140C80F0048100030313233343536373839414243444546000000001201000206
:4042800002000008B40432F2010001028001000009024300020101C032090400000102020103052400100104240202052406000105240100010705810308000A09040100C8
:4042C000020A000004070582024000000705030240000000040309042C0343007900700072006500730073002000530065006D00690063006F006E006400750063007400C3
:404300006F007200100355005300420055004100520054003803430044004300200043006F006D006D0075006E00690063006100740069006F006E00200049006E0074009D
:40434000650072006600610063006500260343004400430020004400610074006100200049006E007400650072006600610063006500000002030000000081030800020006
:404380000100820240000A000100030240000A00020A000001000000904200000300000078430000000000000000000000000000000000000000000090430000010000006D
:4043C0007C4200000000000000000000010000009443000001000000BC43000012034D00530046005400310030003000010000002800000000010400010000000000000018
:4044000000014359555342000000303030303100000000000000000043000000F8B500BFF8BC08BC9E4670474D000000310C0000F8B500BFF8BC08BC9E4670472900000010
:4044400050440000C880FF1F0001000048600000000000000A000000435333303120323031360A000000000000000000000000000000000000000000000000000000000072
:404480000000000000000000000000000000000000000000000000000A0000001E0000001E00000001000000A9000000A9000000FFFFFFFF807F0000030000000087930348
:4044C00060EA00003C0000000000307500C2010000000800C201000000080000A1200000000002000000000000000000000000000000000000000000000000000000000038
:40450000000000000000000018440000000000000000000000000000000000000000000000000000000000000000000000000000000000000000000000000000000000001F
:4045400000000000000000006081FF1F000000000000000000000000000000000000000000000000000000000000000000000000000000000000000000000000000000003C
:4045800000000000000000000000000000000000000000000000000000000000000000000000000000000000000000000000000000000000000000000000000000000000FB
:4045C00000000000000000000000000000000000000000000000000000000000000000000000000000000000000000000000000000000000000000000000000000000000BB
:40460000000000000000000000000000000000000000000000000000000000000000000000000000000000000000000000000000000000000000000000000000000000007A
:40464000000000000000000000000000000000000000000000000000000000000000000000000000000000000000000000000000000000000000000000000000000000003A
:020000040003F7
:0200000480007A
:4000000001450040044F004006520040015B004006640040036500403F000140320101404C020140450301404404014050050140580601404F0701403308014051090140A9
:400040003E0A0140520B01403C0C0140520D01401D0E0140340F01403D1401404A1501405E160140531701404F180140551901403F1A01404B1B01400E4001401B410140EA
:400080000D420140104301400F450140124601401147014008480140084901400D4C0140064D014005500140035101407E0201100A1B0D10161B0940108311061810610455
:4000C0007C402784820F856F870F8838890D8B72846F850F8A05002001600240031804400620080809280A100B500C100D500E080F2810061405157818031B011C061F0419
:4001000020082290240826102702282029382A402C202D182E402F603007310432803378346035023618370138023AA0580459045F0187088F019D04A304AB02B102B301F7
:40014000B504B708BF10D608D804D904DB04DC02DD90DF010006018003080602070809080A080B410C9912AA1608180419E61B082002210C226224882688271028082944C1
:400180002E102F40310832403310374039103B413E803F045E805F106680670480808408850286048A08C0CFC2FFC44FCAAECC1ECE5DD630D830E20C000101010502070C91
:4001C00009040B0211021208130414031502170418081C032008231027012A042F013002311032083308340135063604370138223B203E143F405280540F580459045B049B
:400200005F01807F81208340850D871089208B408C0E8D118EF08F0890C59111923A930494FE95409601973D9B029CA39D209E5C9F40A11CA201A896AA68AD01AF04B11D94
:40024000B2FFB360B703BB08BE04D804D904DF0101820330050208040A020B410C800D0A0E1411101288150117201A201D021E221F21228C23402404251126442760294250
:400280002E042F41325536053820390A3B403C023D213E085C085EA1768078047908850486018D10908091089510961097D1988099E29C119E029F40A408A884AE40AF0847
:4002C000C019C2FDC45ACAD9CCCFCEEFD6F0E004E201E408E602EA08EE08007705FD07020D9E0F6010C011CF122413301530160817C918841A102001217322F22607270F0A
:4003000028B72A402CC12D942E122F60340F35FF36F03F105608580459045B045D905F01810485018C048D08900197049F03A304A508A808A908AA03AC08AE04AF01B00220
:40034000B104B204B302B401B501B608B708B880B980BE14BF51D280D40FD804D904DB04DF050102058008010A280E801014124013401550162017041A061B101E891F0888
:40038000221025062705281029422A402B502D112E812F2430013205368839083B403C803D4A4501470258405C805E0A5F2063016504661077407F20820183088D10908485
:4003C0009108920893409420950296869780988499729A829B109E08A101A280A489A508A808A902AC11AF10B202C088C21EC4CFCAFBCC53CEDAD6F8D868DE40E602EA0275
:40040000EE0302010501061E081009010A0210D812041501186E19011CB61D011E0820D8220223012501301E34E03501360138283E044024410649FF4AFF4BFF4DA04F010C
:400440005018580459045A045C205F016040628064406540668068406A806C406D206E80800286048E019E02A208B004B208B402B601BE10C024C106C52EC6C4C703C81F50
:40048000C9FFCAFFCBFFCDAFCE07CF01D018D401D804D904DA04DB04DC20DD30DF01E040E280E440E540E680E840EA80EC40ED20EE80008A0404052209020B420E461301C1
:4004C00015401642182019801A881C221E441F22251028102C102E02300C32A0340436A03A023B143F144120430145204701484049044A084E0852105344584059105A0104
:400500005B0484108A2090849101930194209680978899309A229B539D849E10A004A102A350A4C9A518A608A720AA08AC44AD01AF20B040C07DC2D1C418CAC2CC7ECE671A
:40054000D0A5D224D60FE080E204E880EA20EE030004010804FF0710080809080C040E080F1012831302143C16C218CF19011A301C201F01203C22C1241028302D042E0C46
:4005800030403108323F331034B035043703380239023A283F155418580459045B045C935D305F019B01B101D401D804D904DB04DC22DD40DF010204040405200680070185
:4005C0000A080B600C800D080E4810061101144017641C801D181F20234024402554268028042F02302231013204340136803710392A3B403C803D103E013F084504461045
:40060000588059065E026650831089018A02913A92C1940496089742988099209AC09B659C269D109E03A080A180A214A306A40AA508A608A780A904AE01B201B310B40402
:40064000B501C0F2C2FEC4FBCA14CCB7CEFFD68BD830E080E220EA2003041202170123022A013104320233023501360152035302580459045B045C205D205F018167840477
:400680008506880489468B218C028D088F1090019121940495619706980499079B609E089F61A104A208A401A502A801AB10AF08B001B118B204B307B402B546B608B720B5
:4006C000BB08BE54D602D711D804D904DB04DC33DD30DF01008001800202040C0510060208020D080E8A0F10120815011610171019041A021C901E401F50202021152308F9
:400700002594262427402A102B882C802D202E8830083590360437023A403B823C083D823F105C1069106A806E846F187484760877248E2191019408952A960C9740988034
:4007400099209A809B039C249E019F08A140A210A306A412A514A602A708AD11AF10B204B410C0E0C2F8C472CAF1CCF2CEF1D620E410E602EA80EE0102C80310041306E438
:40078000071009100A800E350F101145138A172018CA19081A341B821C131D031E6C1FCC2110250F290F2C032D042E042F41310F34F03510360F37E03AA03F50404541036B
:4007C00045C047EB483249FF4AFF4BFF4EF04F44500C5608580459045A045B045C335D935F0166C06A406B02D804D904DC22DF0100200422058006200A080B600C400D20D2
:400800001006130816021C041D301F402610274228042C402E042F493002320435203745392A3B403C843D403E323F02444046204DC04F02540857025C105E40652066804B
:4008400067066D806F01824084088E02902291019210940C952A960C97C498809B049C2C9D109E819F43A040A304A40AA514A602A708AC04AF01B080B120B610C0F2C2CEB3
:40088000C487CAF4CCF3CEFFD0C0D210D630D830E241E6020E0114021A011C0430013204340136023E544003464049FF4A074BFF4C404D204EF04F055008580459045A04AC
:4008C0005C245D035F01604061A862406320020104240501060208280B020C080E800F01162019201A211B011D011E101F0124122640270428042E062F4830023204351045
:400900003745392A3B403EB03F0540104514470248404B014C044D014E024F085010800286018B40C0F1C2B7C420CAE4CCF3CEFFD0E2D230E22000CF0230047305840710D6
:4009400008940A600C9E0E6010FD11C112021312170719771DC01F242308243026C929012A0F2BF22DB72F4030FF330F37F03E01540F580459045B045F05820485018901E6
:400980008C029001940499019D019E09A202A402A701A901AA04AF01B008B202B404B601B701BE54D40FD804D904DB04DC20DF010006012002400322074208010B800C80B4
:4009C0000D400E60110C12081509172019011C101D201E412002210422482402280129212C142D402E083248332236A039043F1458405A155C145F41610462107B40800142
:400A000086088D408E109141920493D5984499249A109B629C109E40A080A104A2B0A362A401A520A608AC40AF20C09FC2B8C476CA7DCC3FCE62D6FFD806DE01E404E6023D
:400A4000E801EC20004A01A30205035C05960620076808430A0C0C100F0116101805190E1A4A1BF01C4F204C21FE22032301257F268028072DC52F3A30C03220341035FFCA
:400A8000360F3E103F104032410649FF4AFF4BFF4DA04F015018580459045A045F016040628064406540668068406A806C406D206E808001840194019A01A401A801AE0107
:400AC000B001C032C106C54EC6C2C703C81FC9FFCAFFCBFFCDAFCE07CF01D018D280D804D904DA04DB04DC22DD40DF01E040E280E440E540E680E840EA80EC40ED20EE80AF
:400B000002A004800520068007200B140D080E020F09101411401648170819011C801E261F40270828102E882F62300432A0352039403B143C863D083F08422043104620DC
:400B40004710480849064B024C084F205080510852107102810182808444860487048D029084914192089350970699209A209B529C149D029E40A220A372A480A528A689FD
:400B8000AB04AC40AF10B201B410C0FCC2E6C477CAD2CC2ECEDED066D224E004E20AE440E604EA09EE08403149FF4AFF4BFF4F0150185608580459045A045B045C225D9449
:400BC0005F016040624064406540668068806A806C806E80800281028704880489108B208F089180921093409520971099089A019D049E02A140A204A380A501A608A8017B
:400C0000AB01AC08AF02B1FFB41FB820BB20BE10BF01C031C9FFCAFFCBFFCD83CE03CF01D018D608D804D904DA04DB04DC32DD94DF01E040E240E440E540E680E880EA8044
:400C4000EC80EE80025403020511081009020A200B020D140F4010A4134014041503164019101A0820042102281429012A482B042C042D012F1030A83381351139283A1619
:400C80003B663F444108434044204508460147405A405D105E105F80600264018004830485148A018D088E409040913A9280934094049501960897229C279D079E059F105A
:400CC000A140A428A780A910AC02AE10B040B322B580B609C05FC27FC45FCAEFCCAFCE5FD05AD618D818E004E451EC40EE800401060408050E021004120116051C052608E6
:400D000028052E053002320834043601403445EC4720482349FF4AFF4BFF4D834E034F0150185602573D580459045A045B0F5C225D245F0160406240644065406680688028
:400D40006A806C806E80820184018F039001940195019801A001A601B001B301B502D401D804D90FDB0FDC22DD20DF01021003090501061008400A200B400D040F4810018E
:400D80001204130414501640180819011A021B0E1E8027182A503011311132103308370839083B403D8041094906510152015A105E40604068A86B01720A730479017D0171
:400DC0007E4082408310874090409108929093409408962299109A549D079E0B9F11A148A4A8A640A706AB80B240C037C27DC437CA0CCC47CE1AD003D614D801DE81E4040F
:400E0000EC2010201680308032023402364038083B103E808601C430CCF0CE70E210000206200A4233208242840287019201940896029C02A020A320A480A642AC80AE0138
:400E4000AF30C030C250CC10E020E280E410E640EC40EE10531086409201A021A480A640A701A804AE20D420E640E810EE801B011E2063106710808087108A109201A0201E
:400E8000A480A701B001B310C630D8C0E23009015001528055805A025D205F0180088480A280B680C208D407D607E8021B08260887408F019402960297019C809D20A408D4
:400EC000A580A708AB08B501C608C801E408EA0808800B400C0844018B019402960297409C809D20A408A580B208C20ED004E001EE01050125028D019201A020A301C02019
:400F0000C8805E0163029201A301A820B102D6C0E8806101630281818920940296029C019D20A301A580D602D802E00480019402B001B201E804EC04101D11011A151C1C9F
:400F40001D0100AB010F100A00200340DC00220210D040001000AC010901D0021400000C008000100000200300D000000C03710400030008000000001F00E0C0000F003032
:400F800000880820000000043506020004CE000003FFFFFF62A0F0410C00000000000000040404003303000100000000000040020010301000101012000000000000000028
:400FC00000000000000000001D0100000000000005010D011D011C01530808000000000000C6C600040000004000023030000000C0000000008B8B008040400008001008F9
:40100000080008C7C70000000073730030000000000100000000000000000000000000000000000000000000000000000000000000000000000000000000000000000000FB
:401040000000000000000000000000000000000000000000000000000000000000000000000000000000000000000000000000000000000000000000000000000000000070
:401080000000000000000000000000000000000000000000000000000000000000000000000000000000000000000000000000000000000000000000000000000000000030
:4010C00000000000000000000000000000000000000000000000000000000000000000000000000000000000000000000000000000000000000000000000000000000000F0
:4011000000000000000000000000000000000000000000000000000000000000000000000000000000000000000000000000000000000000000000000000000000000000AF
:0200000490006A
:0400000000004005B7
:0200000490105A
:04000000BC90ACAF55
:0200000490303A
:02000000F79572
:0200000490402A
:4000000000000000000000000000000000000000000000000000000000000000000000000000000000000000000000000000000000000000000000000000000000000000C0
:400040000000000000000000000000000000000000000000000000000000000000000000000000000000000000000000000000000000000000000000000000000000000080
:400080000000000000000000000000000000000000000000000000000000000000000000000000000000000000000000000000000000000000000000000000000000000040
:4000C0000000000000000000000000000000000000000000000000000000000000000000000000000000000000000000000000000000000000000000000000000000000000
:0200000490501A
:0C00000000012E16106900012E3507FECD
:00000001FF