:400000000080002011000000751500007515000080B500AF024A034B1B68136001F0B4FABC760040FA46004010B5054C237833B9044B13B10448AFF300800123237010BD54
:400040008882FF1F00000000F0240000084B10B51BB108490848AFF300800848036803B910BD074B002BFBD0BDE81040184700BF000000008C82FF1FF0240000C880FF1F58
:400080000000000080B400AF034B01221A6000BFBD4680BC704700BFCC82FF1F80B582B000AF62B6012001F035FF012001F014FF02F01EF802F034F8374801F0BFFE00F0B6
:4000C0007BF800F097F800237B601CE0334A7B68372102F81310314A7B685B00134437225A702F4A7B68134400221A702D4A7B68134400221A702B4A7B68134437221A70BE
:400100007B6801337B607B68B3F5FA7FDEDB234A2449234800F078F801F01AFF0346002B0CBF01230023DBB2184601F0F3FE1E4B1B681B4AD35C002B14D11C4B1B68002B69
:4001400003D01B4B1B68052B0CDD1A4B4FF47A721A60154B1B680133134A1360012001F0BBFE18E0002001F0B7FE104B01221A600021002000F02EF80B4B1B68084AD35C83
:40018000002B05D10A4B1B680133094A1360C3E7074B00221A60BFE78500000038D6FF1F58A5FF1F20A3FF1FC882FF1FC482FF1FC082FF1FD082FF1F80B500AFFA2001F0F6
:4001C00049FDFA2001F00AFE01F0B0FC01F072FD00BF80BD80B582B000AF78603960AF2001F048FDAF2001F009FE00BF0837BD4680BD00BF80B500AF7D2001F03BFD7D2016
:4002000001F0FCFD00BF80BD80B586B000AFF860B9607A6004237B6129E07B69002B0AD1194B1B781A46194B1A60174B5B781A46164B5A6010E07B69013B154A12F81330DC
:400240001A46124B1A607B69013B114A5B0013445B781A460D4B5A607B695B000C4A13441946786800F016F87B69013B7B617B69002BD2DA7A68B968F86800F0CFFB00BF19
:400280001837BD4680BD00BFEC81FF1FFC81FF1FF081FF1F80B5ADF59A5D84B000AF07F110030C3B186007F11003103B1960002307F59A5202F10C021360002307F59A5267
:4002C00002F108021360002307F59A5202F104021360002307F59A52136043E0002307F5995202F11C0213602EE0924907F59A531A681346DB0013445B001344CA1807F579
:40030000995303F11C031B681344187807F5116107F59A531A681346DB0013445B001344CA1807F5995303F11C031B68134402461A7007F5995303F11C031B68013307F507
:40034000995202F11C02136007F5995303F11C031B68122BC9DD07F59A531B68013307F59A52136007F59A531B680E2BB6DD07F29C43184640F274431A46002102F0AFF841
:4003800007F13003083B184640F274431A46002102F0A5F8684B196807F5236307F59A5202F10402126843F83210634B5A6807F5236107F59A5303F104031B68DB000B4469
:4003C0005A6007F59A5303F104031B68013307F59A5202F104021360002307F5995202F104021360002307F5995202F118021360002307F5995202F11402136018E207F5D8
:40040000236307F59A5202F10802126853F8323007F5995202F11802136007F5236207F59A5303F108031B68DB0013445B6807F5995202F11402136007F59A5303F1080397
:400440001B68013307F59A5202F10802136007F5116107F5995303F118031A681346DB0013445B001344CA1807F5995303F114031B68134401221A7007F59A5303F10C0301
:400480001B68013307F59A5202F10C02136007F5995303F118031B685A1C07F11003083B1A6007F11003083B07F5995202F1140212685A6007F5995303F118031B685A1E0D
:4004C00007F11003083B9A6007F11003083B07F5995202F114021268DA6007F11003083B07F5995202F1180212681A6107F5995303F114031B685A1C07F11003083B5A6196
:4005000007F11003083B07F5995202F1180212689A6107F5995303F114031B685A1E07F11003083BDA61002307F5995202F11002136053E1CC80FF1FFC81FF1F07F11003C7
:40054000083B07F5995202F11002126853F8323007F59952136007F11002083A07F5995303F110031B68DB0013445B6807F5985202F11C02136007F599531B68002B40F3E5
:40058000228107F599531B680F2B00F31C8107F5985303F11C031B68002B40F3148107F5985303F11C031B68132B00F30C81C64907F599531A681346DB0013445B00134402
:4005C000CA1807F5985303F11C031B6813441B78012B00F0F88007F5116107F599531A681346DB0013445B001344CA1807F5985303F11C031B6813441B78012B00F0E38041
:4006000007F5236307F59A5202F10402126807F59951096843F8321007F5236207F59A5303F104031B68DB00134407F5985202F11C0212685A6007F59A5303F104031B685D
:40064000013307F59A5202F10402136007F5116107F599531A681346DB0013445B001344CA1807F5985303F11C031B68134431221A7007F29C4107F5995303F118031A68FB
:400680001346DB0013445B00134407F5995202F114021268134451F82330581C07F29C4107F599531A681346DB0013445B00134407F5985202F11C021268134441F823008B
:4006C00007F599531B685A1C07F5995303F118031B689A4214D107F13002083A07F5995319680B46DB000B445B000B4407F5985101F11C0109680B44012142F8231062E05F
:4007000007F5985303F11C031B685A1C07F5995303F114031B689A4214D107F13002083A07F5995319680B46DB000B445B000B4407F5985101F11C0109680B44022142F884
:40074000231040E007F599531B685A1E07F5995303F118031B689A4214D107F13002083A07F5995319680B46DB000B445B000B4407F5985101F11C0109680B44032142F8FC
:40078000231020E007F5985303F11C031B685A1E07F5995303F114031B689A4213D107F13002083A07F5995319680B46DB000B445B000B4407F5985101F11C0109680B442D
:4007C000042142F8231007F5995303F110031B68013307F5995202F11002136007F5995303F110031B68032B7FF7A8AE07F11003103B1B681B781A4607F5995303F1180333
:400800001B689A4214D107F11003103B1B6801331B781A4607F5995303F114031B689A4206D1012307F5995202F10402136013E007F59A5303F108031A6807F59A5303F19A
:4008400004031B689A4207DA07F5995303F104031B68002B3FF4D3AD07F5995303F118031B6807F5995202F10C02136007F5995303F114031B6807F5995202F1080213604B
:40088000124B1B685A0007F110030C3B1B68134407F5995202F118021268D2B21A700B4B1B685A0007F110030C3B1B68134407F5995202F114021268D2B25A70034B1B686E
:4008C0000133024A13608BE0CC80FF1F1483FF1F07F13002083A07F5995303F10C0319680B46DB000B445B000B4407F5995101F1080109680B4452F8233007F5985202F167
:400900001802136007F5985303F118031B68012B0BD107F5995303F10C031B68013307F5995202F10C02136037E007F5985303F118031B68022B0BD107F5995303F108032C
:400940001B68013307F5995202F10802136024E007F5985303F118031B68032B0BD107F5995303F10C031B68013B07F5995202F10C02136011E007F5985303F118031B6873
:40098000042B0AD107F5995303F108031B68013B07F5995202F1080213601E4B1B685A0007F110030C3B1B68134407F5995202F10C021268D2B21A70164B1B685A0007F118
:4009C00010030C3B1B68134407F5995202F108021268D2B25A700F4B1B6801330D4A13600D4B1A6807F5995303F10C031B689A427FF46EAF084B5A6807F5995303F108038C
:400A00001B689A427FF464AF00BF07F59A571037BD4680BD1483FF1FFC81FF1F80B4ADF2244D00AF07F10C03186007F1080319603B1D1A600023C7F81C3440F2F313C7F865
:400A4000183425E0D7F818345B003A1D12681344197807F11403D7F81C2403F81210D7F818345B003A1D12681344597807F11402D7F81C345B0013440A465A70D7F81C3434
:400A80000133C7F81C34D7F81834013BC7F81834D7F81834002BD5DA0023C7F814341FE0D7F814345B003A1D1268134407F11402D7F8141412F811201A70D7F814345B009D
:400AC0003A1D12681A4407F11401D7F814345B000B445B785370D7F814340133C7F81434D7F81434B3F5FA7FDADB0023C7F81034DCE2D7F810345B003A1D126813441B7817
:400B000087F8FF33D7F810345B003A1D126813445B7887F8FE33D7F8103401335B003A1D126813441B7887F80F34D7F8103401335B003A1D126813445B7887F80E34372314
:400B400087F80D3497F8FF2397F80F349A4205D197F8FE2397F80E349A4207D097F80F34372B07D197F80E34372B03D1002387F80D342AE097F8FF335A1E97F80F349A4265
:400B800003D1012387F80D341FE097F8FF335A1C97F80F349A4203D1022387F80D3414E097F8FE335A1C97F80E349A4203D1032387F80D3409E097F8FE335A1E97F80E345D
:400BC0009A4202D1042387F80D34D7F81034002B03D197F80D34C14A13600023C7F808340023C7F804340023C7F80034D7E0D7F800340133C7F8003497F8FF33372B05D1D7
:400C0000D7F810340133C7F81034CDE097F80D34032B03D097F80D34042B23D197F80F345A1C97F80E14AE481346DB0013445B00134403440B441B78002B0FD097F80F34C8
:400C40005A1E97F80E14A6481346DB0013445B00134403440B441B78002B27D10123C7F8083423E097F80F2497F80E34591C9C481346DB0013445B00134403440B441B7860
:400C8000002B0FD097F80F2497F80E34591E94481346DB0013445B00134403440B441B78002B04D10123C7F8083400E000BF97F80D34012B12D1D7F810345B003A1D126802
:400CC00013441B785A1E97F80F349A424AD00123C7F804340123C7F8083443E097F80D34022B12D1D7F810345B003A1D126813441B785A1C97F80F349A4233D00123C7F85A
:400D000004340123C7F808342CE097F80D34032B12D1D7F810345B003A1D126813445B785A1C97F80E349A421CD00123C7F804340123C7F8083415E097F80D34042B11D1E7
:400D4000D7F810345B003A1D126813445B785A1E97F80E349A4205D00123C7F804340123C7F80834D7F80834002B18D1D7F810340133C7F81034D7F8103401335B003A1D74
:400D8000126813441B7887F80F34D7F8103401335B003A1D126813445B7887F80E34D7F80834002B3FF423AF97F80D34012B38D14A4B1B68012B09D14A4B1B681A4607F1E1
:400DC0000C031B68134402221A70EEE0434B1B68022B09D1434B1B681A4607F10C031B68134404221A70E0E03C4B1B68032B09D13C4B1B681A4607F10C031B681344012234
:400E00001A70D2E0354B1B68042B40F0CE80354B1B681A4607F10C031B68134403221A70C3E097F80D34022B38D12C4B1B68012B09D12C4B1B681A4607F10C031B681344EF
:400E400004221A70B1E0254B1B68022B09D1254B1B681A4607F10C031B68134402221A70A3E01E4B1B68032B09D11E4B1B681A4607F10C031B68134403221A7095E0174B2B
:400E80001B68042B40F09180164B1B681A4607F10C031B68134401221A7086E097F80D34032B3DD10D4B1B68012B09D10D4B1B681A4607F10C031B68134403221A7074E0FB
:400EC000064B1B68022B0FD1064B1B681A4607F10C031B68134401221A7066E01883FF1FCC80FF1F0C83FF1F764B1B68032B09D1754B1B681A4607F10C031B681344022245
:400F00001A7052E06F4B1B68042B4ED16E4B1B681A4607F10C031B68134404221A7044E097F80D34042B37D1664B1B68012B09D1654B1B681A4607F10C031B681344012241
:400F40001A7032E05F4B1B68022B09D15E4B1B681A4607F10C031B68134403221A7024E0584B1B68032B09D1574B1B681A4607F10C031B68134404221A7016E0514B1B6828
:400F8000042B12D1504B1B681A4607F10C031B68134402221A7008E04B4B1B681A4607F10C031B68134400221A70D7F80434012B11D1454B1B681A4607F10C031B681344BB
:400FC000414A1268114607F10C0212680A4412780432D2B21A703C4B1B681A4607F10C031B6813441B78052B09D0374B1B681A4607F10C031B6813441B78072B0DD1324BAC
:401000001B681A4607F108031B681344D7F80024D2B2013AD2B21A700AE02B4B1B681A4607F108031B681344D7F80024D2B21A7097F80D34002B03D097F80D34214A136093
:40104000214B1B681A4607F10C031B6813441B78002B21D01D4B1B68002B1DD11A4B1B68013B07F10C021268134402221A70164B1B68013B07F1080212681344124A12681B
:40108000013A07F1080109680A4412780132D2B21A700E4B01221A600B4B1B6801330A4A1360D7F810340133C7F81034D7F81034B3F5F97F7FF71DAD00BF07F22447BD46BD
:4010C00080BC70471883FF1F0C83FF1F1C83FF1F80B582B000AF786039603A680021786801F0FDF900BF0837BD4680BD80B584B000AFF860B9607A607A68B968F86801F0D4
:40110000E3F900BF1037BD4680BD00BF80B483B000AF0346FB71FEE780B487B000AF7860396000233B6100237B6127E07B699B007A6813441B68BB60BB68FB73BB6823F0B1
:40114000FF03BB6014E03B695B003A6813441B781A46BB68134419463B695B003A6813445B780B703B6901333B61FB7B013BFB73FB7B002BE7D17B6901337B617B692B2B39
:40118000D4D900BF1C37BD4680BC704780B582B000AF3C4B04221A803B4B18221A703B4B3B221A803A4B1C221A703A4B3B221A80394B18221A70394B3B221A80384B18220D
:4011C0001A70384B81221A80374B18221A70374B06221A70364B52221A70364B364A1278D2B21A70354B40F619121A80344B41F251221A800023FB7019237B6014E0FB78CD
:401200005B00DAB22F4B1B78DBB203F00103DBB21343DBB203F00303FB704FF4F07001F017F97B68013B7B607B68002B02D0FB78032BE4D17B68002B02D10320FFF766FF2F
:40124000214B4FF480721A801F4B07221A701F4B00221A701E4B48221A701B4B00221A701C4B00221A701C4B02221A701B4A1B4B1B78DBB243F01F03DBB2137000BF08371B
:40128000BD4680BD80400040824000408440004086400040884000408A4000408C4000408E40004090400040924000400043004000420040A14600400F010049224200406B
:4012C00020420040254200400440004006400040084000400940004001400040A243004080B582B000AF214B1B78FB71204B1B78BB71204B1B787B711F4AFB7903F0070375
:40130000DBB213701D4AFB791B09DBB21370184ABB7943F00303DBB21370164A7B7943F00303DBB21370164B40221A70154BC7221A70154B80221A70144B0F221A70144BED
:4013400020221A70134B04221A700A2000F0DAFB084A7B791370064ABB7913700E4B44221A7000BF0837BD4680BD00BFCF010049F8460040F94600406E5800406F5800406B
:401380001D5100402D51004001590040205B0040235B0040585B00407658004080B586B000AF72B6574B61221A70FFF7EFFE554B01221A70544A544B1B78DBB243F00403F5
:4013C000DBB213700023FB7513E0FA7D13465B0013445B004D4A13443B613B691A683B699B889BB219461046FFF772FEFB7D0133FB75FB7D062BE8D90023FB751CE0FA7D0F
:4014000013469B0013445B00414A1344FB60FB681B68BB60FB685B687B60FB681A7A5B7A1B0213437B807B881A467968B868FFF75DFEFB7D0133FB75FB7D002BDFD03549EC
:401440004FF09040FFF768FE04213348FFF740FE042232493248FFF749FE324B324A1A60324A324B1B78DBB243F00203DBB213702F4A2F4B1B78DBB243F00203DBB21370A6
:401480002C4A2C4B1B78DBB243F04003DBB21370294A294B1B78DBB243F01003DBB21370082226492648FFF721FE082225492648FFF71CFE0A2225492548FFF717FE0822CE
:4014C00024492548FFF712FE0A2224492448FFF70DFE082223492448FFF708FE234A234B1B78DBB243F00803DBB21370FFF7F8FE0E2210491E48FFF7F9FD00BF1837BD46E7
:4015000080BD00BF00480040E8460040F424000020250000B0000048007600404C10004808760040D8180140040400440350014013500140A0430040C243004014100048C3
:40154000025100401C100048C251004024100048F051004030100048125100403810004820510040441000483251004022430040B043004080B500AF00F07AFF03461B6858
:401580000C2B00D1FEE7FEE780B586B000AF224B7B61224B3B61204B7B6135E03B691B68FB603B695B68BB603B699B683B6000237B600CE0FB681A68BB681A60BB68043385
:4015C000BB60FB680433FB607B6804337B607A683B689A42EED13B69DB683B6000237B6008E0BB6800221A60BB680433BB607B6804337B607A683B689A42F2D13B6910332A
:401600003B617B69013B7B617B69002BC6D100F035FFFEF743FDFEE7010000005025000080B582B000AF194B194A1A60194A194B1B6843F40073136000237B600FE07B682A
:40164000032B04D8144A7B6852F8233000E0134B13497A6841F822307B6801337B607B682F2BECD90F4B1B78DAB20F4B1A700F4B0B4A1A60FFF792FE00F01CF80C4B0022FE
:401680001A6000BF0837BD4680BD00BF0CED00E00004FA0514ED00E000000000751500000080FF1FBC760040C480FF1F08ED00E0C080FF1F80B483B000AF134B7F221A7028
:4016C000124B80221A707F23FB710CE0FB79DB0003F1804303F5F043FA79013AD2B21A70FB79013BFB71FB79002BEFD1FB79DB0003F1804303F5F04300221A7000BF0C3720
:40170000BD4680BC704700BF0582FF1F0482FF1F80B485B000AF03460A46FB711346BB710123FB60FB79172B2FD8BB79002B0ED0FB791A01184B1344FA791101164A0A4414
:401740001278D2B242F02002D2B21A700DE0FB791A01114B1344FA7911010F4A0A441278D2B222F02002D2B21A70FB791A010A4B1344FA791101084A0A441278D2B242F0AE
:401780000102D2B21A700023FB60FB6818461437BD4680BC704700BF1070004080B485B000AF0346FB710123FB60FB79172B1DD8FB791A01104B1344FA7911010E4A0A44B6
:4017C0001279D2B242F00402D2B21A71FB791A01094B1344FA791101074A0A441278D2B242F00102D2B21A700023FB60FB6818461437BD4680BC70471070004080B485B03B
:4018000000AF03460A46FB711346BB710123FB60FB79172B1BD8FB791A01104B13441B78DBB223F00E03FB72FB791A010B4B1344BA795200D2B252B202F00E0251B297F977
:401840000B200A4352B2D2B21A700023FB60FB6818461437BD4680BC704700BF1070004080B485B000AF0346FB710B46BB8013467B800123FB60BB8841F6FF72934202D120
:401880004FF40053BB807B8841F6FF72934202D14FF400537B80FB79172B17D8FB79DB0003F1804303F5EC430433BB60BB68BA881A80FB79DB0003F1804303F5EC430633EA
:4018C000BB60BB687A881A800023FB60FB6818461437BD4680BC704780B485B000AF03460A46FB711346BB710123FB60FB79172B07D8FB791A01064B1344BA795A7200237F
:40190000FB60FB6818461437BD4680BC704700BF1070004090B484B000AF0446084611461A462346FB710346BB710B467B7113463B710123FB60FB79172B34D8FB79DB0039
:4019400003F1804303F5EC43BA7902F07F02D1B27A79D201D2B20A43D2B21A70FB79DB0003F1804303F5EC433A7E1201D1B23A7902F00F02D2B20A43D2B25A70FB79DB001C
:4019800003F1804303F5EC433A7F02F00F02D2B29A70FB79DB0003F1804303F5EC430022DA700023FB60FB6818461037BD4690BC704700BF80B582B000AFFF23FB7100F087
:4019C0004FFD0346BB71104B1B78182B12D90F4B1B78FB710C4B1B78013BDAB20A4B1A70FB79DB0003F1804303F5F0431B78DAB2064B1A70BB79184600F036FDFB7918466E
:401A00000837BD4680BD00BF0482FF1F0582FF1F90B484B000AF0446084611461A462346FB710346BB800B46BB711346FB700123FB6097F90730002B23DBBB8823F47F6364
:401A400023F00F039BB2002B1BD1FB79DB0003F1804303F5F043BB60BB68BA881A80FB79DB0003F1804303F5F043BA799A70FB79DB0003F1804303F5F043FA78DA70002314
:401A8000FB60FB6818461037BD4690BC704700BF80B485B000AF0346FB710B46BB8013467B800123FB6097F90730002B17DBFB79DB0003F1804303F5F0430433BB60BB6848
:401AC000BA881A80FB79DB0003F1804303F5F0430633BB60BB687A881A800023FB60FB6818461437BD4680BC704700BF80B483B000AF0346FB7101BE00BF0C37BD4680BCBC
:401B0000704700BF80B582B000AF0346FB80FB88054A127802FB03F3184600F099FC00BF0837BD4680BD00BF1482FF1F80B500AF064B1B78002B04D100F00AF8034B012247
:401B40001A7000F063F800BF80BD00BF2083FF1F80B582B000AF284A274B1B78DBB243F00203DBB21370254B1B78DBB223F07003FB71224AFB7943F01003DBB21370204A90
:401B80001F4B1B78DBB223F03003DBB213701C4A1B4B1B78DBB243F03003DBB21370184A174B1B78DBB223F00F03DBB21370144A134B1B78DBB243F00F03DBB21370FF207A
:401BC00000F048F8002000F055F8002000F062F80C4A0C4B1B78DBB243F00103DBB21370094A094B1B78DBB243F00103DBB2137000BF0837BD4680BD004F0040024F00406E
:401C00000B4F0040A3430040014F004080B400AF0D4A0D4B1B78DBB243F00103DBB213700A4A0A4B1B78DBB243F00103DBB21370074A074B1B78DBB243F00103DBB2137041
:401C400000BFBD4680BC7047A3430040B3430040004F004080B483B000AF0346FB71044BFA7992B21A8000BF0C37BD4680BC7047044F004080B483B000AF0346FB71044BB4
:401C8000FA7992B21A8000BF0C37BD4680BC7047064F004080B483B000AF0346FB71044AFB79137000BF0C37BD4680BC704700BF034F004080B500AF064B1B78002B04D125
:401CC00000F00AF8034B01221A7000F063F800BF80BD00BF2183FF1F80B582B000AF284A274B1B78DBB243F00203DBB21370254B1B78DBB223F07003FB71224AFB7943F038
:401D00001003DBB21370204A1F4B1B78DBB223F03003DBB213701C4A1B4B1B78DBB243F03003DBB21370184A174B1B78DBB223F00F03DBB21370144A134B1B78DBB243F0AC
:401D40000F03DBB21370FF2000F048F8002000F055F8002000F062F80C4A0C4B1B78DBB243F00203DBB21370094A094B1B78DBB243F00103DBB2137000BF0837BD4680BDCA
:401D80000C4F00400E4F0040174F0040A34300400D4F004080B400AF0D4A0D4B1B78DBB243F00203DBB213700A4A0A4B1B78DBB243F00203DBB21370074A074B1B78DBB2B5
:401DC00043F00103DBB2137000BFBD4680BC7047A3430040B34300400C4F004080B483B000AF0346FB71044BFA7992B21A8000BF0C37BD4680BC7047104F004080B483B087
:401E000000AF0346FB71044BFA7992B21A8000BF0C37BD4680BC7047124F004080B483B000AF0346FB71044AFB79137000BF0C37BD4680BC704700BF0F4F004080B582B039
:401E400000AF786000F03CF8786800F009F8072000F018F800F028F800BF0837BD4680BD80B485B000AF7860054B1B68FB60FB6850337A681A6000BF1437BD4680BC704711
:401E800008ED00E080B483B000AF0346FB71054AFB795B01DBB2137000BF0C37BD4680BC704700BF04E400E080B400AF034B10221A6000BFBD4680BC704700BF00E100E0C2
:401EC00080B400AF034B10221A6000BFBD4680BC704700BF80E100E080B485B000AF0346FB710B4B1B78DBB223F01003FB730849FB791B01DBB203F01003DAB2FB7B1343AD
:401F0000DBB20B7000BF1437BD4680BC704700BFF051004080B485B000AF0346FB710B4B1B78DBB223F02003FB730849FB795B01DBB203F02003DAB2FB7B1343DBB20B704E
:401F400000BF1437BD4680BC704700BFF051004080B400AF054B1B78DBB203F020035B09DBB21846BD4680BC704700BFF151004080B500AF41F6FF734FF48042012102205C
:401F800000F0DCF903461A460A4B1A7041F6FF7341F6FF7201210C2000F002FA03461A46054B1A70054800F02DFA002000F03CFA00BF80BD2883FF1F2983FF1F2D2100003F
:401FC00080B582B000AF414B1B781846FFF7E6FB3F4B1B781846FFF7E1FB3E4B1B78FF2B05D1FFF7E7FC03461A463A4B1A70394B1878384B1A7806230C21FFF709FD354B82
:402000001B78354A92B245F6A0311846FFF740FD2E4B1A782F4B1B7819461046FFF75CFC2E4B1B78FF2B05D1FFF7C4FC03461A462A4B1A70294B1878284B1A7807230C21C8
:40204000FFF7E6FC254B1B78234A91B2244A92B21846FFF71DFD1E4B1A78204B1B7819461046FFF739FC194B1B7801211846FFF74FFB174B1B7801211846FFF749FB00F086
:40208000EFF90346FB71174A164B1B78DBB243F02003DBB21370FB79184600F0E5F9124A114B1B78DBB243F00103DBB213700E4A0D4B1B78DBB243F00203DBB213700B4B0E
:4020C00001221A6000BF0837BD4680BD2883FF1F2983FF1F1C82FF1F2C83FF1F1D82FF1FC8E9FF1F9B6500407764004080E200E080B500AF084B1B68002B04D1FFF738FFD9
:40210000054B01221A6000F017F8FFF759FF034B1B7800BF80BD00BF2483FF1F6464004080B500AF00F0BCF800BF80BD80B400AF00BFBD4680BC704780B500AF064B1B7818
:40214000002B04D100F00AF8034B01221A7000F01BF800BF80BD00BF3883FF1F80B500AF074A074B1B78DBB243F00603DBB213700C2000F06BF8034B00221A8000BF80BD63
:4021800001590040DCE9FF1F80B582B000AF00F067F90346FB71254A244B1B78DBB243F00103DBB21370224A214B1B78DBB243F00103DBB213701F4B1B78BB71BB7943F073
:4021C0000203BB71BB7943F00103BB71194ABB791370194B18221A70184A184B1B78DBB243F04003DBB21370144A144B1B78DBB223F00303DBB21370114BC8221A70114B38
:4022000002221A70104A104B1B78DBB243F00803DBB213700A20FFF775FCFB79184600F023F900BF0837BD4680BD00BFAB430040BB4300400359004006590040055900401C
:402240000059004014460040275B004080B584B000AF0346FB71FB790A2B07D00C2B02D0082B06D008E0C223FB730BE08223FB7308E04223FB7305E0C223FB730020FFF7C8
:4022800035FC00BF054AFB7B1370FB79184600F017F800BF1037BD4680BD00BF0259004080B400AF054A054B1B78DBB243F00103DBB2137000BFBD4680BC7047005900403E
:4022C00080B584B000AF0346FB71FB790A2B08D00C2B02D0082B08D00BE04FF48053FB600DE04FF48063FB6009E04FF48073FB6005E00023FB600020FFF7F8FB00BF0C4BB6
:4023000000221A80FB6842F2107202FB03F303F58063002B01DA03F2FF73DB121A46054B1A60054B00221A8000BF1037BD4680BDD8E9FF1FD4E9FF1FDAE9FF1F90B585B00F
:4023400002AF0446084611461A462346FB710346BB710B46BB8013467B80104B01221A700E4B1878BA79F97900230193002300930123FFF7CFFA094B1B787A88B9881846C5
:40238000FFF76EFA054B1B7802211846FFF736FA024B1B7818460C37BD4690BD1E82FF1F90B585B002AF0446084611461A462346FB710346BB710B46BB8013467B80104BA7
:4023C00000221A700E4B1878BA79F97900230193002300930023FFF79DFA094B1B787A88B9881846FFF73CFA054B1B7802211846FFF704FA024B1B7818460C37BD4690BDA9
:402400001F82FF1F80B485B000AF7860054B1B68FB60FB6840337A681A6000BF1437BD4680BC704708ED00E080B483B000AF0346FB71054AFB795B01DBB2137000BF0C37BC
:40244000BD4680BC704700BF00E400E0000000000230800803D000BF01380046FCD17047EFF3108072B6704780F31088704700BF014B1868704700BF8082FF1F0E4B70B5E2
:402480001E460E4C0025E41AA410A54204D056F8253098470135F8E700F048F8084B094C1E46E41AA4100025A54204D056F8253098470135F8E770BD3825000038250000E9
:4024C000382500004025000010B5431E0A44914204D011F8014B03F8014FF8E710BD03460244934202D003F8011BFAE77047000000000000004F0040180040510040300026
:4025000000000140001000140140000800400140000A004C014000021050014010000000005001400410004810004300F8B500BFF8BC08BC9E4670474D00000021160000DF
:40254000F8B500BFF8BC08BC9E4670472900000060250000C880FF1FC001000058670000000000000101010101010101010101010101010101010101000000000001000033
:4025800000000000000000000001010101010100010001010101010101000100010100000000000000000000000000010001000101000100010101010100010001010100FC
:4025C00001000101000100000001000000010001000000010001010001010100010001000100010001010100010100000000000100010001000100010000000101000101BC
:402600000101010001000101010001000101010100000000000000010000000100010000000101010101010101000101010001000101010001010000000000000000000179
:402640000001000000000001010001010101010101000100010101010100010100000000000000010000000000000000000101010101010101010101010101010101010134
:4026800001000000010100000109050507010D05090900000100000001000000807F0000030000000087930360EA00003C00000000003075FFFFFFFF00000000000000008F
:4026C0000000000000000000000000000000000000000000000000002A2500000000000000000000000000000000000000000000000000000000000000000000000000008B
:402700000000000000000000000000000000000000000000000000002082FF1F000000000000000000000000000000000000000000000000000000000000000000000000D9
:402740000000000000000000000000000000000000000000000000000000000000000000000000000000000000000000000000000000000000000000000000000000000059
:402780000000000000000000000000000000000000000000000000000000000000000000000000000000000000000000000000000000000000000000000000000000000019
:4027C00000000000000000000000000000000000000000000000000000000000000000000000000000000000000000000000000000000000000000000000000000000000D9
:402800000000000000000000000000000000000000000000000000000000000000000000000000000000000000000000000000000000000000000000000000000000000098
:020000040003F7
:0200000480007A
:4000000001450040044F004007520040015B004005640040046500404700014042010140510201404703014054040140570501404F0601405507014068080140570901403A
:400040003D0A0140550B01403F0C0140580D01403E0E0140390F01405A1401404D150140461601405317014029180140471901402C1A01404F1B0140104001400F410140FE
:400080000B4201401143014004440140134501400D46014011470140084801400C490140064C0140074D014005500140035101407E0201200A270D20162708401045110664
:4000C0001810191061047C402784810F830F860D8C728D38866F880F896F8B050403140216011A031C011E02240328032C032D013002310134013F014015410345EC46B081
:40010000480B49FF4AFF4BFF4EF04F44500C5280580459045A045B045C335D045F0166C06A406B02810483F0860788C189818A128B128CC08DB78E248F409001917792F250
:40014000970898779B079CB79DC19E409F22A1C0A208A314A884AA10B1F0B30FB40FB6F0D40FD804D904DB04DF01002001200210040405400604080A09080A020B480E04D2
:400180000F8111441201131017211A481C041D501F4021012750280429082A112B012F8032013401375439843A083B103C023F6040A04102420148104A014B0250105C4224
:4001C0005E205F0471028148824084018605871489018C10C0E4C2D7C457CA8FCCF1CEBED00AD208D6F0E00CE221E408E6060130020103C904C5063A09940B600CA30DFD4A
:400200000E5C0F02100E117312F0187F1B0F1D9E1F6020FE21CF2201233028962A6832FF35FF3E043F10580459045F018103830C8403850A8705880889408A108C088D0CEC
:400240008E308F039006934095259640971A99109B209C109D109E089F20A005A340A408A510A610A7A0A806A907AD0FB040B140B220B330B407B580B618B70FB820BA8036
:40028000BB08BF01D401D804D904DB04DD40DF0100100322040405410A220B800E040F88110812841640172218121A861B601C20210122982323270428A02A402B042F8052
:4002C000310332583401375038263A043B803C023F60584259205A08640267028601884093829440954096059751988899709A019B509C059E0C9F25A401A611A7D1A82022
:40030000AC10AD08AF04C0B7C25DC45ECA8FCCBFCEBFD60FE020E20CE640E808EE0C004002080601103816021C601E082060221026042A782C582E2030043202340136789F
:40034000405349FF4AFF4BFF4F0150185401580459045A045B0C5C305D315F016040624064406540668068806A806C806E80852187108B028D018F08934097399D199F20E6
:40038000A121A308A538AB04AF04B103B340B539B704BF40C053C9FFCAFFCBFFCD83CE03CF01D018D608D804D904DA04DB04DC03DD91DF01E040E240E440E540E680E88021
:4003C000EA80EC80EE8000020108050406060708080109400A200C04111A1340140A1522180819481B82242425022641280A29042A012C022F68300436893A0A3C243F8092
:40040000410843084548474048024C024D104F2058405A405D8061046310664079407D027F80840287018C208E018F089382946496089750980C99109A019B509C219E0844
:400440009F01A010A288A360A401A506A610A793AA01AC04B101B540C0ECC22DC4DFCAFFCCD2CE73D042D218D618D810DE08E602EA08EE0100010408059E061007600D9488
:400480000F601002153017C91A021B0F1DFD1E011F0221CF22042330241825732E18301032083406360137FF39083E453F44405345EC4702481349FF4AFF4BFF4D834E03A7
:4004C0004F01501852805401580459045A045B045C095D115F016040624064406540668068806A806C806E8081018404900494049A039C01B001B301B404B602B820BE106C
:40050000BF04D203D302D80CD904DB04DC33DD30DF01032004020710080A09200A020B200D200E400F02164117041A461C401D201E222204272129242B022F6033883590D2
:40054000368839203A043B023C043F8045084C024D014F0455085D015E805F04680469C074027940820283A08D408F20900C912093829440954096689750997C9A449B50FD
:400580009C019E029F01A080A2C8A360A403A508A610A710A904ADA1AE08B0C0B510C034C2DFC4B0CACECC7ACE57D040D210D6D0DE08E604E802EA84EC40EE060040011CE1
:4005C000021103020430052006C30D100E0C1120152018F3190C1A041B111D401F032114248025102622270C28F329092A082B102C512EA2332034F03540360F371F3A805A
:400600003F104031410549FF4AFF4BFF4DA04F015018580459045A045C445F016040628064406540668068406A806C406D206E80810185018D018E0691019209940D990121
:40064000A101AB01AC01AE08B008B202B401B604B701BE51C031C105C50EC6C2C743C83DC9FFCAFFCBFFCDAFCE07CF01D018D804D904DA04DC30DF01E040E280E440E54054
:40068000E680E840EA80EC40ED20EE8002010404054006800AA00E04120214041550162019A01A601C041D40200226502710280829012CA02F0431023220340435103640F2
:4006C0003701390A3B403E043F824002430444124543470449044A024C014E025004521553C08008828088018D188F049002915A928C934894249780981099109AA09B0194
:400700009C019D419E049F10A0A0A108A301A503A6B0A750AB02AE20AF04B210B401B580C0B1C24CC4E1CAE5CCF5CEDBD05AD218E040E410E840EC40EE8410021C0428020A
:400740002A0530023404360138023E10580459045C305F018210863088038E08960198039C02A240A620AA04AC10AE20B004B203B440B638B808BE44C062C104C205C401E3
:40078000C7CEC830C9FFCAFFCBFFCC62CDA0CEF0CF41D00CD608D804D904DA04DB04DC30DD94DF01E640E702E910EA30EB10ED10EE10EF120404055006800A020B800C209C
:4007C0000D200E020F221204154016681A8A1D881FA229012E012F10310232A0350336A0390A3B403D023F404480458047104C044E025601570458805B405D805F14640216
:40080000652066A86D4085018B108F209008911A9205936894209540981099109A409B419C039D229E019F10A080A120A203A502A6A0A7D4AB12AD04AE01B010B108B2025F
:40084000B502B720C0F0C2E9C4F2CAC1CCBDCE9BD0B0D230D670D870E240E820EA40010703600502083309610A040B060D670E8013081506168018331A0C1B211C0A1D0400
:400880001E3420402121221525062608276128032A142B102D082F103080312032603318340F350736103740380839803A203B203E4156025710580459045B045C445D40B9
:4008C0005F0183029301AB02B301B502BF10D418D804D904DB04DC33DD40DF01010205110621079009020A010B200D280E02100212A013401404161017021C021D201E20A4
:400900001F06210422042304240A2510260427802B042D642F80300134023584371038023D213E8859015E406306661067086D106E046F017584760877207B0385208881D9
:40094000910792409320942895409608980499109AC09B409C829DA09E289F22A082A108A201A522A6B4A760A910AC04AE80AF04B120B240C0C8C2EDC47DCAF4CCF1CEF17A
:40098000D611D80CE020E284E640E8020102030105030B041101130215031B0323032503310433013502580459045C335F01801081FF841085CF87308801897C8A0E8B8203
:4009C0008D048E038F0891049208962C970C980199309A269C2C9D089E03A010A13CA3C1A410A510ABC3AD20B010B370B42AB53FB60FB7B0BAA0BBA2BE01D608D804D904F7
:400A0000DB04DC44DD90DF01010202800320040C05100680074209020A080B200D200E220F80100212201440150517051D101E42210123142519274529022B202C402D80AD
:400A40002E28310232243402364437203820390A3C043D625C80664081028402850587108B108C80C0FCC2FEC435CAF3CCF7CEF7D610D810E004E448E60401050202030A2A
:400A8000040408010D6C0E010F03115F1503170C1D6A1F05200423802D372E013001310F3202338036043770388039803E414043410249FF4AFF4BFF4DA04F01501856080E
:400AC000580459045A045B045D905F016040628064406540668068406A806C406D206E80800C820390019C0CAC08B002B208B401B604B888BE14C043C102C52CC643C70E49
:400B0000C81FC9FFCAFFCBFFCDAFCE07CF01D018D804D904DA04DC30DF01E040E280E440E540E680E840EA80EC40ED20EE800028028306800E800F021082140115801A61F4
:400B40001C101D881E84202021402201234028012A012E082F883004320133403504372038803B013C803F10401042404311450847114F0656A458205980600862808208F2
:400B800083208444860187808B089080931196249744982499849B509C099E24A086A202A580A709AD80B108B312B648C01FC290C489CAE9CC6BCE39D0E7D60CD80CE00819
:400BC000E203E442E609E88000C5023A030409080CA30D080E5C10FE12011308140E150116F01D081E012096226823102B032C7F2D0831183301350236FF37043E403F0428
:400C0000540F580459045B045F05801081048302850287048B09910894019602980199029A0A9B049C019E06A502A704A802AA01AB10B010B101B204B308B403B510B60898
:400C4000B706BA20BB80BE01BF04D280D804D904DB04DF010380048005400680074009200A110C040D400F60100414011540170219011A111B101F40200221282201230313
:400C80002402260A2704280829082EA02F4032113540370638083B213F62458046015D105E4666046704700279807A027D408101851087018B809008932094029620974035
:400CC0009820994C9B509C019E019F04A084A201A401A71BA802AC08AF10B020B180B204C098C2B7C492CAB6CCD5CEB7D6F0D860DE10E080E880EA08EE09030207080D04FC
:400D000013041502190127212B102D083520371F39803F404003460449FF4A074BFF4C404D204EF04F055008540F580459045A045B045C335D045F01604061A86240632086
:400D4000D40FD804D904DB04DC33DF0502A0040206200B800C420D010E281002110212081308150824022690270828402B012C422E082F08300232283401369D3A013BC05F
:400D80003E263F40444045095750582059805A085B015D295E40610462107B048D018E08910B92489420982099AC9A109C019D019F08A118A304A501A6A0A750A804AC20BC
:400DC000AF88B141C03CC2F8C42FCAF9CCF7CEF9D040D6FFD806DE04ECA00A010C0110011E012001240128013601580459045C335F01801082208440868088018B028C026D
:400E000092089304960298089C04A080A240A301A604A820AA10AE01B102B2FFB301B504BE04D602D738D804D904DB0DDC30DD30DF010201030404080622074808410C0131
:400E40000D090E09101011021208141015181601170118021F0824082509262827442A012B012C122E2231083220334036183741390A3D103F025F4067106C106D106E0F1E
:400E80006F01760A77087D208344844085088680875189018C01910A942096049A019E2AA002A110A290A501A629A709B104B341B601B708C0F3C2F9C4FECAF9CCFECEA3D6
:400EC000D610D840DE20E220E440E880EC20EE801240168031403302358838803B023E806C40754081088B08C430CCF0CE70E6200008078008400904830288048D809702E4
:400F00009A409DC0A308A702C030C250E22053088610970298409A409B809D40A104A308D420E4101B011E206B80770483849840A610AB01AE40AF80B140B504C630DC60BC
:400F4000E280E850EE20830384088980E4010B8052805408570259805A085D0280028E40970298089980A008A302AC08C208D407D607E6021B0426088B409380964897026E
:400F800098089D02A402A680C608C801E6010A400B020C0245208A049648970298089D02A402AB04B288C20ED004E001E801EE01064082018B01A210A301B040C020E22031
:400FC0001B40630266018F409A01A301AE40B210C640D640D880E8105C08630298089D02A520D6038D229D02A520B301E002E402E801101911011A091B011C1900AB010324
:40100000100A00001B0100000000000019000B0119011801530808000000000000C6C600040000004000023030000000C0000000008B8B008040400008001008080008C7C0
:40104000C700000000737300300000000001000000000000000000000000000000000000000000000000000000000000000000000000000000000000000000000000000092
:401080000000000000000000000000000000000000000000000000000000000000000000000000000000000000000000000000000000000000000000000000000000000030
:4010C00000000000000000000000000000000000000000000000000000000000000000000000000000000000000000000000000000000000000000000000000000000000F0
:4011000000000000000000000000000000000000000000000000000000000000000000000000000000000000000000000000000000000000000000000000000000000000AF
:40114000000000000000000000000000000000000000000000000000000000000000000000000000000000000000000000000000000000000000000000000000000000006F
:0200000490006A
:0400000000004005B7
:0200000490105A
:04000000BC90ACAF55
:0200000490303A
:02000000B0F658
:0200000490402A
:4000000000000000000000000000000000000000000000000000000000000000000000000000000000000000000000000000000000000000000000000000000000000000C0
:400040000000000000000000000000000000000000000000000000000000000000000000000000000000000000000000000000000000000000000000000000000000000080
:400080000000000000000000000000000000000000000000000000000000000000000000000000000000000000000000000000000000000000000000000000000000000040
:4000C0000000000000000000000000000000000000000000000000000000000000000000000000000000000000000000000000000000000000000000000000000000000000
:0200000490501A
:0C00000000012E16106900012E28C15FBF
:00000001FF