:4000000000800020110000009D0300009D03000008B5044B1A6803F53F5302331A6000F0C5F900BFFA46004010B5054C237833B9044B13B10448AFF300800123237010BD79
:400040006081FF1F00000000781B0000084B10B51BB108490848AFF300800848036803B910BD074B002BFBD0BDE81040184700BF000000006481FF1F781B0000C880FF1FAC
:40008000000000000122014B1A6070477C81FF1F10B5044600F074FD0028FBD0002384F83F30212384F83E30204601F05CFD81B2204600F03DFD10BD08B562B6012100208F
:4000C00000F042FC00F07EFA00F08AFA0F4800F0ABFA0F4B1B68012BFBD100F0B9FA0D48FFF7D6FF0C48FFF7D3FF094B1B79012B05D10A48FFF7CCFF0022054B1A7100223A
:40010000034B1A6000F09EFAE3E700BF850000007C81FF1F7C1B0000801B00000082FF1FFEE700BFF0B40022174611E050F82760F3B226F0FF0608E001EB420511F81240B7
:400140006D78A5550132013BDBB2002BF4D10137182FEBD9F0BC704708B50A46002101F0FAFC08BDF8B5174B1B78DBB2164E3478E4B2164F3D78EDB203F00701144A1170CC
:400180001B090132137044F00303337045F003033B7040220F4B1A70802203F2E4731A7004230D4A1370202103321170353213700A2000F05FFA3D7034704422074B1A70FC
:4001C000F8BD00BFCF010049F8460040F94600406E5800401D510040205B00407658004008B501F0ADFC08BD38B5042227492848FFF7F6FF0622274B1A705222A3F58073DB
:400200001A70254B1B78DBB2244A13704FF4E262234B1A8041F25122023B1A80002419250CE0204B1B7803F0010343EA440404F003044FF4F07001F017FC013D0DB1032C22
:40024000EFD115B90320FFF76BFF174A4FF48073138007231370002314490B704820023108701370053213700222114B1A7004220A331A700F4A137843F001031370013A7B
:40028000137843F08003137038BD00BF0801004800410040004300400F010049A14600402242004025420040044000400640004001400040A143004038B572B6294A1378E4
:4002C00043F00403137000240CE0274D630019194A0011462A44084691882858FFF73CFF0134E4B2072CF0D920494FF09040FFF719FF1F4A137843F0020313701032137838
:4003000043F0020313701B4C237843F040032370A2F58632513A137843F010031370082215491648FFF75CFF0A2215491548FFF757FF082214491548FFF752FF144A13784B
:4003400043F008031370134D61232B70FFF74CFFC1232B70FFF706FF0E2221460E48FFF73FFF38BDE8460040841B00006400004803500140A0430040EC0000480251004035
:40038000F4000048F051004000010048125100402243004000480040B043004008B501F0A3FB03680C2B00D1FEE7FEE708B5104E104D16E029686B68AC68002204E051F876
:4003C000040B43F8040B0432A242F8D1E868002203E0002143F8041B04328242F9D11035013E002EE6D101F085FBFFF765FEFEE7010000004C1D000008B5104A104B1A60BF
:40040000104A136843F40073136000230AE0032B03D80D4A52F8231000E00C490C4A42F8231001332F2BF2D90A4B1A780A4B1A70074A0A4B1A60FFF73FFF08BD0004FA05AD
:400440000CED00E014ED00E0000000009D0300000080FF1FBC760040C080FF1F08ED00E008B50A280FD00C2802D0082806D102E04FF4805209E04FF4807206E0002000F0F9
:40048000F7F8002201E04FF480620021084B198042F2107303FB02F313F5806301D503F2FF73DB12034A13600022034B1A8008BD8082FF1F8482FF1F8282FF1F10B501F0AE
:4004C000DBFA04461E4A137843F0010313701032137843F0010313701A3A137843F0010313701032137843F00103137002F5AA521232137843F0030313700422114B1A70FF
:40050000013B1A7842F040021A701A7802F0FC021A700822053B1A700222A3F597530C3B1A70094A137843F0080313700A2000F0A1F80122054B1A60204601F0A1FA10BD7A
:40054000AB43004006590040275B004080E200E010B504460A280DD00C2802D0082804D101E0C42207E0442205E0002000F080F8C42200E08422034B1A702046FFF770FFF1
:4005800010BD00BF0259004008B5102000F066F80721002000F08CF80749002000F074F8064A137843F0060313700C20FFF7D0FF0022034B1A8008BDF10500000159004067
:4005C0008882FF1F08B5054B1B7823B9FFF7DCFF0122024B1A70FFF771FF08BD9981FF1F024A137843F001031370704700590040704700BF014B1B681865704708ED00E0FA
:400600004001C0B2014B1870704700BF04E400E01022014B1A60704700E100E01022014B1A60704780E100E010B50446FFF7F6FF2046FFF7DFFF0720FFF7E2FFFFF7E8FF86
:4006400010BD00BF0122014B1A60704700E100E00122014B1A60704780E100E0034B1A7800F0F80010431870704700BF0241004001BE704708B5034B1B7A00FB03F001F01B
:40068000F3F908BDCC80FF1F70B504460E46074B1D681F2802D90020FFF7EAFF04F01F04103455F8240045F8246070BD08ED00E038B504460D46072902D90020FFF7D8FF53
:4006C0001F2C02D90020FFF7D3FF04F01F0000F1604000F564406D01EDB2057038BD00BF134B1B78DBB20360124A127843EA02230360114A127843EA024303600F4A127860
:4007000043EA026303600E4B1B78DBB243600D4A127843EA022343600B4A127843EA024343600A4A127843EA02634360704700BF0301004904010049EC46004002010049FC
:4007400001010049000100490501004906010049F8B501F091F90746404A137843F0010313701032137843F00103137001263C4B1E700225943B1D7002F5E2521B321378B8
:4007800003F07F0313700020FFF774FF354C237803F0F9032370344A137803F0DF0313702378334323703046FFF764FF2820FFF761FF2E4B1A7802F07F021A701A7802F01C
:4007C000BF021A7023782B4323702846FFF752FF237843F0040323700023254A137001321370384601F04CF907211720FFF760FF20491720FFF748FF07211820FFF758FF38
:400800001D491820FFF740FF07211520FFF750FF1A491520FFF738FF07213046FFF748FF17493046FFF730FF07212846FFF740FF14492846FFF728FF07210320FFF738FF7D
:4008400011490320FFF720FF07210C20FFF730FF0E490C20FFF718FFF8BD00BFA54300409D6000409443004012600040F85100408460004001110000E90E0000FD10000078
:400880005D1000008D100000C11000000911000008B5214B18700023204A1370204A1370204A1370204A1370204A1370204A1370204A1370204B4FF400021A604FF0807299
:4008C0001A604FF400121A6002221A6004221A6008221A6011B1012906D00BE0174A137803F0FE0313700AE0144A137843F00103137004E0114A137843F001031370032287
:400900000F4B1A708022203B1A70012001F0ACF804220C4B1A7008BDA582FF1FA882FF1FC482FF1FC782FF1FBC82FF1FC682FF1FC982FF1FA482FF1F00E100E00960004099
:40094000286000401260004038B504460D46064B1B7823B9FFF7FCFE0122034B1A7029462046FFF795FF38BD9A81FF1F00230A4A13700A4A13700A4A13700A4A13700A4A68
:4009800013700A4A13700A4A13700322094B1A708022203B1A707047A882FF1FC482FF1FC782FF1FBC82FF1FC682FF1FC982FF1FA482FF1F2860004000EB40008300024A81
:4009C00013445878704700BFCC82FF1F431EDBB2072B3CD8F0B4074600EB4004A3001C4C2344DB889BB2C3F500739A4208D900EB400293002344DA8892B2C2F5007292B256
:400A000000EB4004A300124C2344DB7843EA1223104D04012E192B55D3B2737039B909E0CE5C3D010C4C665501339BB200E000239A42F5D8420002449300054A1344002273
:400A40005A705A79D2B20001044B1A54F0BC7047CC82FF1FFC5F004078600040FE5F004010B4FF2400230EE0094AD25C02EB42029100084A11448A7AD2B2824201D11C4616
:400A800002230133DBB2012BEED9204610BC70479482FF1FCC82FF1F10B5204C2079FFF7DFFF237813F0800F0ED06378DBB2212B2FD11B4B07221A80C0EBC000194A10442C
:400AC000586000F07FFA10BD144B5B78DBB2202B02D0222B10D01EE0114A07231380C0EBC00310490B4453600F4A135C43F00103135400F08FFA10BD084B9B780B4A22F89F
:400B00001030094A135C43F00203135400F018F910BD002010BD002010BD00BF00600040B082FF1FDC80FF1F8C82FF1FA082FF1F70B506460D460F4B1B780F4AD45CE4B207
:400B400004EB440293000D4A13441B899BB28B4209D204EB44029300084A13441D89ADB20020FFF785FD2A4631462046FFF72EFF70BD00BF9B81FF1F9082FF1FCC82FF1F26
:400B800008B5034B1B78034AD05CFFF715FF08BD9B81FF1F9082FF1FC37803F0030390F9020000280FDA032B06D002F001030B48C15442F001020EE0C2F380030848C154F3
:400BC00042F0040207E0032B05D0C2F340030548C15442F002021046704700BF9082FF1F9482FF1F9882FF1F1D4B19781D4A13889BB20B449BB2138000220FE01A494B683D
:400C00001B78DBB2194883544B6801334B600132D2B20B889BB2013B9BB20B80124B1B889BB20BB1072AE9D90D4B1B78DBB2082B00D05AB10E490B7883F080030B700F2122
:400C40000C4B197002210C4B197004E0022309490B7009490B70094B1A70014B1A707047A482FF1FA682FF1FB082FF1F006000403A83FF1FC582FF1FA882FF1FC882FF1F19
:400C80000222074B1A708022064B1A700F22064B1A700023054A1370054A137001207047A882FF1F3A83FF1FC582FF1FA482FF1FC882FF1F08B5FFF797FF08BD10B4194BA2
:400CC000197801F00F010239C9B2174A13889BB20B449BB21380002011E0144A5468144B1B5CDBB223705368013353600130C0B20139C9B213889BB2013B9BB213800B4BBF
:400D00001B889BB20BB10029E7D10A4B19700A4A137883F0800313700B22084B1A7010BC704700BF29600040A682FF1FB082FF1F00600040C882FF1F3A83FF1FC582FF1FFD
:400D40000623064A1370064A13708022054B1A700022054B1A700120704700BFA882FF1FC582FF1F3A83FF1FC882FF1F064B9B6843B1054B9A6810709A68044909885180DA
:400D800000229A60704700BFB082FF1FA682FF1F08B5134B1A78D2B21A701B78DBB213F0800F02D00F4A137008BD0220FFF7DEFF0D4B1B7803F06003202B05D0402B06D094
:400DC00043B900F093FC06E000F05EFE03E000F037FE00E0002010B90322024B1A7008BD28600040C582FF1F0060004008B5094B1978094A13889BB20B449BB213800022B9
:400E0000064B1A700120FFF7B1FF0322044B1A7008BD00BFA482FF1FA682FF1FA882FF1FC582FF1F08B50B4B1B78DBB2042B06D0062B07D0022B0BD1FFF7D8FF08BDFFF786
:400E40003DFF08BD0320FFF791FF0322024B1A7008BD00BFA882FF1FC582FF1F08B50022044B1A700120FFF781FF0322024B1A7008BD00BFA882FF1FC582FF1F08B50B4B0C
:400E80001B7813F0FF0F07D0084A137843F0800307490B70002313700022064B1A700120FFF764FF0322044B1A7008BDC682FF1F08600040A882FF1FC582FF1F08B5094BAD
:400EC0001B78DBB2042B06D0062B07D0022B07D1FFF7F0FE08BDFFF7C1FF08BDFFF7CEFF08BD00BFA882FF1F08B5284B1B78DBB213F0100F48D013F0800F0CD003F00F0310
:400F0000012B16D1FFF744FF214B1B7813F0800F11D1012312E013F0400F03D0FFF7CEFF01230BE013F0200F07D0FFF77BFF012304E0002302E0002300E0002323B3134B05
:400F40001B7813F0800F1FD1124B1B78124A12781343124A13701278D2B2934214D10C4B1B78DBB2094A127812F0800F07D1084B1B78DBB2054A1370137803F00F03044AA9
:400F80001278D2B29342EAD108BD00BF28600040C582FF1F3A83FF1FC882FF1F296000400022064B1A80064B9B682BB1044A916800230B7092685380704700BFA682FF1F2B
:400FC000B082FF1F08B50F4B1B889BB213B9FFF757FE15E002220C4B1A7000220B4B1A70FFF7DEFF0A4AD179937943EA0123054A128892B2934201D2024A1380FFF7F4FD1E
:40100000012008BDB082FF1FA882FF1F3A83FF1F0060004008B504220B4B1A7080220B4B1A70FFF7BDFF0A4AD179937943EA0123084A128892B2934201D2064A13800B22DD
:40104000054B1A70012008BDA882FF1F3A83FF1F00600040B082FF1FC582FF1F0122094B1A700F3B9B7C084B1B7B03F00303934204D0054AD37B83F08003D3730122024B02
:401080005A7370470B600040CC82FF1F02220A4B1A700F3B93F82230084B1B7E03F00303012B04D0054AD37E83F08003D3760122024B5A76704700BF0B600040CC82FF1FDA
:4010C00004220C4B1A700F3B93F832300A4B93F8243003F00303012B06D0074A92F8273083F0800382F827300122034B83F82520704700BF0B600040CC82FF1F704700BF56
:4011000008B5FFF733FC08BD08B500F0A5FC08BD70B588B0054603AC174E0FCE0FC43368237035B322232B7003236B7001A8FFF7D7FA002402231AE008AA224412F81C2C75
:4011400008A901EB121111F8141CE954581C00212954981C02F00F0208AE324412F8142C2A54DA1CA9540134E4B20433DBB2212BE2D908B070BD00BFB41B000010B4012398
:401180003EE019461A010C242148845403EB4300820020480244527912F0FF0F13D003EB430082001B480244127912F0800F04D01801194A024494700AE01801164A02444C
:4011C0000820907004E01801134A0244802090704800084482000F480244D488E4B208010B4901448C71D088C0F30720C871D088C0B20871D288C2F307224A710133DBB2E1
:40120000082BBED9FF22054B1A7010BC704700BF70600040CC82FF1FFC5F00400A600040074B1A78074B03EBC2035B681A7C824204D9C00010301844406870470020704771
:40124000A582FF1FC81B0000F8B5404B1B7813F0FF0F79D03D4B18780138C0B2FFF7E0FF047AC2683A4B1878C0B200236AE01178884264D13749095CC9B25578A9425ED11E
:40128000917801F07F01D67806F00306DFF8C8E04D000D44AF000EEB07054FF0000C85F803C092F802C085F804C092F803C00EF807C097882F8192F90250002D0DDA012E75
:4012C00001D1072700E00D274E000E44B500224E35446F7101266E700CE0012E01D1052700E009274E000E44B5001B4E35446F7100266E70DFF868E00F010EEB0706012518
:40130000B57001FA05F529448D00134929440D89C5F307250EF807500D89EDB27570CE88F6B20E4D3D44AE71CE88C6F30726EE71CE88F6B22E71C988C1F30721697108326D
:401340000133DBB2A34292D3F8BD00BFC782FF1FBC82FF1F3883FF1FCC82FF1F70600040FC5F0040034B1A78034B03EBC2035868704700BFA582FF1FC81B000008B5084BEC
:4013800018780138C0B2FFF74BFF30B142681279023200EBC203586808BD002008BD00BFC782FF1F2DE9F047002310E0724D5900CA189600AC190022AA55A270E27022814B
:4013C000A272627034462C4462710133DBB2082BECD940B90AE000226849CA546849CA540133DBB200E00023012BF4D9654B1B7813F0FF0F00F0BD80624B18780138C0B2C8
:40140000FFF70EFF80464368DB7913F0400F05D05D4A137843F00103137004E05A4A137803F0FE03137098F808704FF0000A01266FE0D8F80C50002467E0AB7803F07F0351
:401440009E425FD1314606EB460083004A4803441B899BB2A888834206D206EB460E4FEA8E03454A134418812B784448C35CDBB26878834246D195F802C0DFF8FCE04B0022
:401480000B4498000EEB000383F804C0EB780EF80030EB7803F0030395F90200002813DA012B02D14FF0070901E04FF00D09DFF8C8E04B0003EB010C4FEA8C00704480F836
:4014C00005900121417012E0012B02D14FF0050901E04FF00909DFF8A0E04B0003EB010C4FEA8C00704480F8059000214170AB790A2B01D0022B05D1524631462846FFF77F
:401500004BFB824608350134E4B2BC4295D30136F6B2082E8DD9D8F80C0000220CE0837803F07F0310F8084B03EB43039900124B19448C720132D2B2BA42F0D3FFF71EFFF1
:40154000124B1860002301210FE00B4D4A00501884002C44E380228992B213449BB203F0010213449BB20131C9B20829EDD9FFF705FEBDE8F08700BFCC82FF1F3883FF1F17
:40158000AC82FF1FC782FF1FC982FF1FC082FF1F08B5154B1B7903F07F035A1ED2B2072A20D8590019448A0010490A44917841F0010191700021D170517841F00201517020
:4015C000127912F0800F05D01B01094A1A448D23937004E01B01064A1A4489239370FFF7AFFB08BD002008BD00600040CC82FF1FFC5F0040274B1B7903F07F035A1ED2B2B5
:40160000072A44D810B5590019448A0022490A44917801F0FE0191700021D1701F4C1801215C01F07F012154517801F0FD015170127912F0800F13D003EB43018A001649C9
:401640000A445278D2B2012A04D1224602440C23937019E01B01114A1A440D23937013E003EB43018A000C490A445278D2B2012A05D11B01094A1A440823937004E01B0151
:40168000064A1A4409239370FFF75AFB10BD0020704700BF00600040CC82FF1FFC5F004010B50E4B1C79E4B20D4B18780138C0B2FFF7B6FD43681B799C4201D9022C0AD86C
:4016C000084A135DDBB208490B55044B9B78DBB21355012010BD002010BD00BF00600040C782FF1F3883FF1FAC82FF1F10B59C4B1B78DBB200219B4A118013F0800F00F0E8
:40170000AD80974A5278D2B20A2A00F27481DFE812F06900720172017201720172010B007201920072019A008D4BDB78DBB2012B09D1FFF717FE42688A4B5A6012221A80D4
:40174000FFF740FC10BD864BDB78DBB2022B13D1834B9878FFF764FD002800F04E814268804B5A605A68D1785A68927842EA01221A80FFF727FC10BD794BDB78DBB2032BE5
:4017800005D02CE00A7811440133DBB201E000237549734A9278D2B2934203D20A7812F0FF0FEFD16E4B9B7813F0FF0F0BD06C4B9B78DBB26D4A127C934204D16C4C20468B
:4017C000FFF7A6FC21460B7813F0FF0F00F017810B78644A13805160FFF7F4FB10BD00F053F910BD13F0030317D0022B40F009815C490B805A4B1B7903F07F0303EB4303B5
:401800009A005C4B1A449278D2B25B4B1A7000225A704B60FFF7D6FB10BD524902230B80564B1A78D2B2544B1A7000225A704B60FFF7C8FB10BD4B4B01221A80504A5A6031
:40184000FFF7C0FB10BD474A01231380444B1B794C490B445360FFF7B5FB10BD404A5278013A0A2A00F2CF80DFE812F04C00CD009800CD000B00CD00CD00CD001300CD00D8
:401880003000374B9B78DBB23F4A1370FFF758FA10BD334B9B7803F0FF041BB1601EC0B2FFF7BEFC04B110B9002C40F0AE80344B1B78DBB29C4206D0314B1C700120334BC0
:4018C0001870FFF76FFDFFF73BFA10BDFFF7E8FE002800F09C80224A1379DBB21279D2B22B490A702B4AD25CD2B22649CB5CDBB29A4204D00122254B1A70FFF7A5FCFFF7D0
:401900001FFA10BD03F00303012B17D04BB1022B7FD1134B9B7813F0FF0F7CD1FFF76AFE10BD0F4B9B78DBB2012B76D1134A137803F0FD031370FFF703FA10BD084B1B79D0
:40194000DBB2012B6BD8064B98781B79DBB21249CA5C22EA0002CA54FFF7F2F910BD00BF00600040B082FF1F301C0000141D00004083FF1FCC82FF1F9C81FF1FC982FF1F71
:40198000C782FF1F3883FF1FC682FF1FC482FF1FBC82FF1FAC82FF1F3C83FF1F03F00303012B17D04BB1022B3BD1224B9B7813F0FF0F38D1FFF7ECFD10BD1E4B9B78DBB208
:4019C000012B32D11C4A137843F002031370FFF7B7F910BD174B1B79DBB2012B27D8154B98781B79DBB21549CA5C22EA0002CA54FFF7A6F910BD002010BD002010BD00204E
:401A000010BD002010BD002010BD002010BD002010BD002010BD002010BD002010BD002010BD002010BD002010BD002010BD002010BD00BF00600040C982FF1F3C83FF1F18
:401A4000044B1B7813F0800F01D0024B5B780020704700BF00600040024B1878C0F38010704700BF8F4500400230800803D000BF01380046FCD17047EFF3108072B6704781
:401A800080F31088704700BF08B5144B1B7803F00303012B02D0022B04D00FE00F4B1B79DBB20CE00D4B1B7903F07F0303EB43039A000B4B1A44937ADBB200E00023022BFB
:401AC00007D8084A1268D35C022B04D1FEF7E4FF08BD002008BD002008BD00BF00600040CC82FF1FC082FF1F014B1868704700BF5881FF1F0E4B70B51E460E4C0025E41AE0
:401B0000A410A54204D056F8253098470135F8E700F00AF9084B094C1E46E41AA4100025A54204D056F8253098470135F8E770BD341D0000341D0000341D00003C1D0000FE
:401B400010B5431E0A44914204D011F8014B03F8014FF8E710BD03460244934202D003F8011BFAE77047034613F8012B002AFBD1181A0138704700000000000074650000A8
:401B80000D0A0000004F00400C00205100405000C0510040100000000140001000140140000800400140000A004C0140000200500140200030313233343536373839414208
:401BC000434445460000000001000000D01B000001000000141D0000000000000000000001000000E81B000001000000D01C000003000000141C0000000000000000000091
:401C0000000000000000000000000000101C0000020A000000008103080002000100820240000A000100030240000A0002030000040309042C034300790070007200650074
:401C4000730073002000530065006D00690063006F006E0064007500630074006F007200100355005300420055004100520054003803430044004300200043006F006D0082
:401C80006D0075006E00690063006100740069006F006E00200049006E007400650072006600610063006500260343004400430020004400610074006100200049006E00D8
:401CC00074006500720066006100630065000000090243000201018032090400000102020103052400100104240202052406000105240100010705810308000A090401007F
:401D0000020A0000040705820240000007050302400000001201000202000008B40432F20100010280014300F8B500BFF8BC08BC9E4670474D000000F9030000F8B500BF7B
:401D4000F8BC08BC9E46704729000000601D0000C880FF1F980000000802000000000000000000000000C05D80BB000030000000006CDC0200C2010000000800C201000042
:401D800000080000A120000000000200000000000000000000000000000000000000000000000000000000000000000000000000261D000000000000000000000000000015
:401DC000000000000000000000000000000000000000000000000000000000000000000000000000000000000000000000000000F880FF1F0000000000000000000000004D
:401E000000000000000000000000000000000000000000000000000000000000000000000000000000000000000000000000000000000000000000000000000000000000A2
:401E40000000000000000000000000000000000000000000000000000000000000000000000000000000000000000000000000000000000000000000000000000000000062
:401E80000000000000000000000000000000000000000000000000000000000000000000000000000000000000000000000000000000000000000000000000000000000022
:401EC00000000000000000000000000000000000000000000000000000000000000000000000000000000000000000000000000000000000000000000000000000000000E2
:020000040003F7
:0200000480007A
:4000000001450040024F0040015200400101014001030140010501400107014002090140040A0140020B0140010D0140010F014001170140011901400940014006410140AF
:4000400006420140044301400144014002450140074601400747014002480140014C0140025101407E0201800A4B7C40E204E602E240EE0CAF20EE04B820BE10D804DF0178
:400080001F20E240E602E204EE02EE02300233203402364038408002CCF0CE10E220840294409C02A640A720E64063028C409440A640A720D640A640AB20AF01EE30824096
:4000C000848096401A201B048E1096409C80C608E20208800B400E4096409C80AB04C20EAE40EE40AF4000AB0103000000000000000010004000000000000000C00000002F
:40010000000B0B0000004000070018010000000000000000000000000000000000000000000000000000000000000000000000000000000000000000000000000000000049
:40014000000000000000000000000000000000000000000000000000000000000000000000000000000000000000000000000000000000000000000000000000000000007F
:40018000000000000000000000000000000000000000000000000000000000000000000000000000000000000000000000000000000000000000000000000000000000003F
:4001C00000000000000000000000000000000000000000000000000000000000000000000000000000000000000000000000000000000000000000000000000000000000FF
:4002000000000000000000000000000000000000000000000000000000000000000000000000000000000000000000000000000000000000000000000000000000000000BE
:0200000490006A
:0400000000004005B7
:0200000490105A
:04000000BC90ACAF55
:0200000490303A
:02000000D3DD4E
:0200000490402A
:4000000000000000000000000000000000000000000000000000000000000000000000000000000000000000000000000000000000000000000000000000000000000000C0
:400040000000000000000000000000000000000000000000000000000000000000000000000000000000000000000000000000000000000000000000000000000000000080
:400080000000000000000000000000000000000000000000000000000000000000000000000000000000000000000000000000000000000000000000000000000000000040
:4000C0000000000000000000000000000000000000000000000000000000000000000000000000000000000000000000000000000000000000000000000000000000000000
:0200000490501A
:0C00000000012E16106900012E20E446BD
:00000001FF